{
  "contractName": "Auction",
  "abi": [
    {
      "constant": true,
      "inputs": [
        {
          "name": "",
          "type": "address"
        }
      ],
      "name": "pendingReturns",
      "outputs": [
        {
          "name": "",
          "type": "uint256"
        }
      ],
      "payable": false,
      "stateMutability": "view",
      "type": "function"
    },
    {
      "constant": true,
      "inputs": [
        {
          "name": "",
          "type": "uint256"
        }
      ],
      "name": "auctionIndex",
      "outputs": [
        {
          "name": "",
          "type": "uint256"
        }
      ],
      "payable": false,
      "stateMutability": "view",
      "type": "function"
    },
    {
      "constant": true,
      "inputs": [
        {
          "name": "",
          "type": "uint256"
        }
      ],
      "name": "auctions",
      "outputs": [
        {
          "name": "tokenId",
          "type": "uint256"
        },
        {
          "name": "highestBidder",
          "type": "address"
        },
        {
          "name": "highestBid",
          "type": "uint256"
        },
        {
          "name": "ended",
          "type": "bool"
        },
        {
          "name": "auctionEnd",
          "type": "uint256"
        }
      ],
      "payable": false,
      "stateMutability": "view",
      "type": "function"
    },
    {
      "constant": true,
      "inputs": [],
      "name": "owner",
      "outputs": [
        {
          "name": "",
          "type": "address"
        }
      ],
      "payable": false,
      "stateMutability": "view",
      "type": "function"
    },
    {
      "inputs": [],
      "payable": false,
      "stateMutability": "nonpayable",
      "type": "constructor"
    },
    {
      "payable": true,
      "stateMutability": "payable",
      "type": "fallback"
    },
    {
      "anonymous": false,
      "inputs": [
        {
          "indexed": false,
          "name": "_token",
          "type": "uint256"
        },
        {
          "indexed": false,
          "name": "bidder",
          "type": "address"
        },
        {
          "indexed": false,
          "name": "amount",
          "type": "uint256"
        }
      ],
      "name": "HighestBidIncreased",
      "type": "event"
    },
    {
      "anonymous": false,
      "inputs": [
        {
          "indexed": false,
          "name": "_token",
          "type": "uint256"
        },
        {
          "indexed": false,
          "name": "winner",
          "type": "address"
        },
        {
          "indexed": false,
          "name": "amount",
          "type": "uint256"
        }
      ],
      "name": "AuctionEnded",
      "type": "event"
    },
    {
      "constant": false,
      "inputs": [
        {
          "name": "_biddingTime",
          "type": "uint256"
        },
        {
          "name": "_token",
          "type": "uint256"
        }
      ],
      "name": "setAuction",
      "outputs": [],
      "payable": false,
      "stateMutability": "nonpayable",
      "type": "function"
    },
    {
      "constant": false,
      "inputs": [
        {
          "name": "_token",
          "type": "uint256"
        }
      ],
      "name": "bid",
      "outputs": [],
      "payable": true,
      "stateMutability": "payable",
      "type": "function"
    },
    {
      "constant": false,
      "inputs": [],
      "name": "withdraw",
      "outputs": [
        {
          "name": "",
          "type": "bool"
        }
      ],
      "payable": false,
      "stateMutability": "nonpayable",
      "type": "function"
    },
    {
      "constant": false,
      "inputs": [
        {
          "name": "_token",
          "type": "uint256"
        }
      ],
      "name": "endAuction",
      "outputs": [],
      "payable": false,
      "stateMutability": "nonpayable",
      "type": "function"
    },
    {
      "constant": true,
      "inputs": [
        {
          "name": "_token",
          "type": "uint256"
        }
      ],
      "name": "getHighestBid",
      "outputs": [
        {
          "name": "",
          "type": "uint256"
        }
      ],
      "payable": false,
      "stateMutability": "view",
      "type": "function"
    },
    {
      "constant": true,
      "inputs": [
        {
          "name": "_token",
          "type": "uint256"
        }
      ],
      "name": "getHighestBidder",
      "outputs": [
        {
          "name": "",
          "type": "address"
        }
      ],
      "payable": false,
      "stateMutability": "view",
      "type": "function"
    },
    {
      "constant": true,
      "inputs": [
        {
          "name": "_token",
          "type": "uint256"
        }
      ],
      "name": "getAuctionEnd",
      "outputs": [
        {
          "name": "",
          "type": "uint256"
        }
      ],
      "payable": false,
      "stateMutability": "view",
      "type": "function"
    },
    {
      "constant": true,
      "inputs": [],
      "name": "getNumberofAuctions",
      "outputs": [
        {
          "name": "",
          "type": "uint256"
        }
      ],
      "payable": false,
      "stateMutability": "view",
      "type": "function"
    },
    {
      "constant": false,
      "inputs": [
        {
          "name": "_token",
          "type": "address"
        }
      ],
      "name": "setToken",
      "outputs": [],
      "payable": false,
      "stateMutability": "nonpayable",
      "type": "function"
    },
    {
      "constant": false,
      "inputs": [
        {
          "name": "_owner",
          "type": "address"
        }
      ],
      "name": "setOwner",
      "outputs": [],
      "payable": false,
      "stateMutability": "nonpayable",
      "type": "function"
    }
  ],
  "bytecode": "0x6060604052341561000f57600080fd5b336000806101000a81548173ffffffffffffffffffffffffffffffffffffffff021916908373ffffffffffffffffffffffffffffffffffffffff16021790555060028054806001018281610063919061016a565b9160005260206000209060050201600060a060405190810160405280600081526020016000809054906101000a900473ffffffffffffffffffffffffffffffffffffffff1673ffffffffffffffffffffffffffffffffffffffff16815260200160008152602001600015158152602001600081525090919091506000820151816000015560208201518160010160006101000a81548173ffffffffffffffffffffffffffffffffffffffff021916908373ffffffffffffffffffffffffffffffffffffffff1602179055506040820151816002015560608201518160030160006101000a81548160ff0219169083151502179055506080820151816004015550505061020e565b81548183558181151161019757600502816005028360005260206000209182019101610196919061019c565b5b505050565b61020b91905b80821115610207576000808201600090556001820160006101000a81549073ffffffffffffffffffffffffffffffffffffffff021916905560028201600090556003820160006101000a81549060ff02191690556004820160009055506005016101a2565b5090565b90565b6116e3806200021e6000396000f3006060604052600436106100d0576000357c0100000000000000000000000000000000000000000000000000000000900463ffffffff16806313af4035146100e1578063144fa6d71461011a57806326b387bb146101535780633ccfd60b146101a0578063454a2ab3146101cd5780634b3e4f0d146101e55780634fd829f214610211578063571a26a0146102485780638da5cb5b146102cb5780638f28864414610320578063ab8d538214610357578063b9a2de3a14610380578063c750cb79146103a3578063eda8927914610406575b6000341415156100df57600080fd5b005b34156100ec57600080fd5b610118600480803573ffffffffffffffffffffffffffffffffffffffff1690602001909190505061043d565b005b341561012557600080fd5b610151600480803573ffffffffffffffffffffffffffffffffffffffff169060200190919050506104db565b005b341561015e57600080fd5b61018a600480803573ffffffffffffffffffffffffffffffffffffffff1690602001909190505061057a565b6040518082815260200191505060405180910390f35b34156101ab57600080fd5b6101b3610592565b604051808215151515815260200191505060405180910390f35b6101e360048080359060200190919050506106b7565b005b34156101f057600080fd5b61020f6004808035906020019091908035906020019091905050610989565b005b341561021c57600080fd5b6102326004808035906020019091905050610c27565b6040518082815260200191505060405180910390f35b341561025357600080fd5b6102696004808035906020019091905050610c3f565b604051808681526020018573ffffffffffffffffffffffffffffffffffffffff1673ffffffffffffffffffffffffffffffffffffffff168152602001848152602001831515151581526020018281526020019550505050505060405180910390f35b34156102d657600080fd5b6102de610cb1565b604051808273ffffffffffffffffffffffffffffffffffffffff1673ffffffffffffffffffffffffffffffffffffffff16815260200191505060405180910390f35b341561032b57600080fd5b6103416004808035906020019091905050610cd6565b6040518082815260200191505060405180910390f35b341561036257600080fd5b61036a610dba565b6040518082815260200191505060405180910390f35b341561038b57600080fd5b6103a16004808035906020019091905050610dc7565b005b34156103ae57600080fd5b6103c460048080359060200190919050506111d4565b604051808273ffffffffffffffffffffffffffffffffffffffff1673ffffffffffffffffffffffffffffffffffffffff16815260200191505060405180910390f35b341561041157600080fd5b61042760048080359060200190919050506112b8565b6040518082815260200191505060405180910390f35b6000809054906101000a900473ffffffffffffffffffffffffffffffffffffffff1673ffffffffffffffffffffffffffffffffffffffff163373ffffffffffffffffffffffffffffffffffffffff1614151561049857600080fd5b806000806101000a81548173ffffffffffffffffffffffffffffffffffffffff021916908373ffffffffffffffffffffffffffffffffffffffff16021790555050565b6000809054906101000a900473ffffffffffffffffffffffffffffffffffffffff1673ffffffffffffffffffffffffffffffffffffffff163373ffffffffffffffffffffffffffffffffffffffff1614151561053657600080fd5b80600160006101000a81548173ffffffffffffffffffffffffffffffffffffffff021916908373ffffffffffffffffffffffffffffffffffffffff16021790555050565b60046020528060005260406000206000915090505481565b600080600460003373ffffffffffffffffffffffffffffffffffffffff1673ffffffffffffffffffffffffffffffffffffffff16815260200190815260200160002054905060008111156106ae576000600460003373ffffffffffffffffffffffffffffffffffffffff1673ffffffffffffffffffffffffffffffffffffffff168152602001908152602001600020819055503373ffffffffffffffffffffffffffffffffffffffff166108fc829081150290604051600060405180830381858888f1935050505015156106ad5780600460003373ffffffffffffffffffffffffffffffffffffffff1673ffffffffffffffffffffffffffffffffffffffff16815260200190815260200160002081905550600091506106b3565b5b600191505b5090565b6106bf611599565b600260036000848152602001908152602001600020548154811015156106e157fe5b906000526020600020906005020160a06040519081016040529081600082015481526020016001820160009054906101000a900473ffffffffffffffffffffffffffffffffffffffff1673ffffffffffffffffffffffffffffffffffffffff1673ffffffffffffffffffffffffffffffffffffffff168152602001600282015481526020016003820160009054906101000a900460ff1615151515815260200160048201548152505090508060800151421115151561079f57600080fd5b8060400151341115156107b157600080fd5b6000816040015114151561081557806040015160046000836020015173ffffffffffffffffffffffffffffffffffffffff1673ffffffffffffffffffffffffffffffffffffffff168152602001908152602001600020600082825401925050819055505b60a0604051908101604052808381526020013373ffffffffffffffffffffffffffffffffffffffff16815260200134815260200160001515815260200182608001518152506002600360008581526020019081526020016000205481548110151561087c57fe5b90600052602060002090600502016000820151816000015560208201518160010160006101000a81548173ffffffffffffffffffffffffffffffffffffffff021916908373ffffffffffffffffffffffffffffffffffffffff1602179055506040820151816002015560608201518160030160006101000a81548160ff021916908315150217905550608082015181600401559050507fda0a18da71d8ebd145966339a728fc0d8ccc07c22870d561890d823c515dda6b823334604051808481526020018373ffffffffffffffffffffffffffffffffffffffff1673ffffffffffffffffffffffffffffffffffffffff168152602001828152602001935050505060405180910390a15050565b6000809054906101000a900473ffffffffffffffffffffffffffffffffffffffff1673ffffffffffffffffffffffffffffffffffffffff163373ffffffffffffffffffffffffffffffffffffffff161415156109e457600080fd5b600280549050600360008381526020019081526020016000208190555060028054806001018281610a1591906115e1565b9160005260206000209060050201600060a0604051908101604052808581526020016000809054906101000a900473ffffffffffffffffffffffffffffffffffffffff1673ffffffffffffffffffffffffffffffffffffffff1681526020016000815260200160001515815260200186420181525090919091506000820151816000015560208201518160010160006101000a81548173ffffffffffffffffffffffffffffffffffffffff021916908373ffffffffffffffffffffffffffffffffffffffff1602179055506040820151816002015560608201518160030160006101000a81548160ff02191690831515021790555060808201518160040155505050600160009054906101000a900473ffffffffffffffffffffffffffffffffffffffff1673ffffffffffffffffffffffffffffffffffffffff166323b872dd3330846040518463ffffffff167c0100000000000000000000000000000000000000000000000000000000028152600401808473ffffffffffffffffffffffffffffffffffffffff1673ffffffffffffffffffffffffffffffffffffffff1681526020018373ffffffffffffffffffffffffffffffffffffffff1673ffffffffffffffffffffffffffffffffffffffff1681526020018281526020019350505050600060405180830381600087803b1515610c0f57600080fd5b6102c65a03f11515610c2057600080fd5b5050505050565b60036020528060005260406000206000915090505481565b600281815481101515610c4e57fe5b90600052602060002090600502016000915090508060000154908060010160009054906101000a900473ffffffffffffffffffffffffffffffffffffffff16908060020154908060030160009054906101000a900460ff16908060040154905085565b6000809054906101000a900473ffffffffffffffffffffffffffffffffffffffff1681565b6000610ce0611599565b60026003600085815260200190815260200160002054815481101515610d0257fe5b906000526020600020906005020160a06040519081016040529081600082015481526020016001820160009054906101000a900473ffffffffffffffffffffffffffffffffffffffff1673ffffffffffffffffffffffffffffffffffffffff1673ffffffffffffffffffffffffffffffffffffffff168152602001600282015481526020016003820160009054906101000a900460ff1615151515815260200160048201548152505090508060400151915050919050565b6000600280549050905090565b610dcf611599565b60026003600084815260200190815260200160002054815481101515610df157fe5b906000526020600020906005020160a06040519081016040529081600082015481526020016001820160009054906101000a900473ffffffffffffffffffffffffffffffffffffffff1673ffffffffffffffffffffffffffffffffffffffff1673ffffffffffffffffffffffffffffffffffffffff168152602001600282015481526020016003820160009054906101000a900460ff161515151581526020016004820154815250509050806080015142111515610eae57600080fd5b6000151581606001511515141515610ec557600080fd5b60a060405190810160405280838152602001826020015173ffffffffffffffffffffffffffffffffffffffff16815260200182604001518152602001600115158152602001826080015181525060026003600085815260200190815260200160002054815481101515610f3457fe5b90600052602060002090600502016000820151816000015560208201518160010160006101000a81548173ffffffffffffffffffffffffffffffffffffffff021916908373ffffffffffffffffffffffffffffffffffffffff1602179055506040820151816002015560608201518160030160006101000a81548160ff02191690831515021790555060808201518160040155905050610fd38261139c565b7fd2aa34a4fdbbc6dff6a3e56f46e0f3ae2a31d7785ff3487aa5c95c642acea5018282602001518360400151604051808481526020018373ffffffffffffffffffffffffffffffffffffffff1673ffffffffffffffffffffffffffffffffffffffff168152602001828152602001935050505060405180910390a1600160009054906101000a900473ffffffffffffffffffffffffffffffffffffffff1673ffffffffffffffffffffffffffffffffffffffff166323b872dd308360200151856040518463ffffffff167c0100000000000000000000000000000000000000000000000000000000028152600401808473ffffffffffffffffffffffffffffffffffffffff1673ffffffffffffffffffffffffffffffffffffffff1681526020018373ffffffffffffffffffffffffffffffffffffffff1673ffffffffffffffffffffffffffffffffffffffff1681526020018281526020019350505050600060405180830381600087803b151561114a57600080fd5b6102c65a03f1151561115b57600080fd5b5050508060400151600460008060009054906101000a900473ffffffffffffffffffffffffffffffffffffffff1673ffffffffffffffffffffffffffffffffffffffff1673ffffffffffffffffffffffffffffffffffffffff168152602001908152602001600020600082825401925050819055505050565b60006111de611599565b6002600360008581526020019081526020016000205481548110151561120057fe5b906000526020600020906005020160a06040519081016040529081600082015481526020016001820160009054906101000a900473ffffffffffffffffffffffffffffffffffffffff1673ffffffffffffffffffffffffffffffffffffffff1673ffffffffffffffffffffffffffffffffffffffff168152602001600282015481526020016003820160009054906101000a900460ff1615151515815260200160048201548152505090508060200151915050919050565b60006112c2611599565b600260036000858152602001908152602001600020548154811015156112e457fe5b906000526020600020906005020160a06040519081016040529081600082015481526020016001820160009054906101000a900473ffffffffffffffffffffffffffffffffffffffff1673ffffffffffffffffffffffffffffffffffffffff1673ffffffffffffffffffffffffffffffffffffffff168152602001600282015481526020016003820160009054906101000a900460ff1615151515815260200160048201548152505090508060800151915050919050565b6000806113a7611599565b600360008581526020019081526020016000205492506113d6600160028054905061158090919063ffffffff16565b9150600260036000848152602001908152602001600020548154811015156113fa57fe5b906000526020600020906005020160a06040519081016040529081600082015481526020016001820160009054906101000a900473ffffffffffffffffffffffffffffffffffffffff1673ffffffffffffffffffffffffffffffffffffffff1673ffffffffffffffffffffffffffffffffffffffff168152602001600282015481526020016003820160009054906101000a900460ff161515151581526020016004820154815250509050806002848154811015156114b557fe5b90600052602060002090600502016000820151816000015560208201518160010160006101000a81548173ffffffffffffffffffffffffffffffffffffffff021916908373ffffffffffffffffffffffffffffffffffffffff1602179055506040820151816002015560608201518160030160006101000a81548160ff0219169083151502179055506080820151816004015590505060028054809190600190036115609190611613565b506000600360008681526020019081526020016000208190555050505050565b600082821115151561158e57fe5b818303905092915050565b60a06040519081016040528060008152602001600073ffffffffffffffffffffffffffffffffffffffff16815260200160008152602001600015158152602001600081525090565b81548183558181151161160e5760050281600502836000526020600020918201910161160d9190611645565b5b505050565b8154818355818115116116405760050281600502836000526020600020918201910161163f9190611645565b5b505050565b6116b491905b808211156116b0576000808201600090556001820160006101000a81549073ffffffffffffffffffffffffffffffffffffffff021916905560028201600090556003820160006101000a81549060ff021916905560048201600090555060050161164b565b5090565b905600a165627a7a723058209c070233963c1e1a928288243ca9632ac7aa80b819bef9fde2d0894e42480e0c0029",
  "source": "pragma solidity ^0.4.18;\r\n\r\nimport \"./PhotoCore.sol\";\r\n import \"./library/SafeMath.sol\";\r\n\r\ncontract Auction {\r\n    using SafeMath for uint256;\r\n    /***VARIABLES***/\r\n    address public owner; //owner of the contracts\r\n    PhotoCore token; //The PhotoCore contract for linking to the Photocoin token\r\n\r\n\r\n    /// @dev The main Photo struct\r\n    struct Details {\r\n        uint tokenId;\r\n        address highestBidder;//Name of photograph\r\n        uint highestBid;//Name of photographer\r\n        bool ended;\r\n        uint auctionEnd; //Hash of photo\r\n     }\r\n\r\n    /***STORAGE***/\r\n    Details[] public auctions;//an array of all auctions\r\n    mapping(uint => uint) public auctionIndex; //Gets position of a token in the auction array\r\n    mapping(address => uint) public pendingReturns;//maps addresses to the amount they can withdraw form the contract\r\n\r\n    /***EVENTS***/\r\n    //event that indicates that the highest bid for a token has increased\r\n    event HighestBidIncreased(uint256 _token, address bidder, uint amount);\r\n    //event that indicates that an auction for a token has ended\r\n    event AuctionEnded(uint256 _token, address winner, uint amount);\r\n\r\n    /***MODIFIERS***/\r\n    /// @dev Access modifier for Owner functionality\r\n    modifier onlyOwner() {\r\n        require(msg.sender == owner);\r\n        _;\r\n    }\r\n\r\n    /***FUNCTIONS***/\r\n    /**\r\n    *@dev Constructor function to set the owner and initialize the array\r\n    */\r\n    function Auction () public {\r\n        owner = msg.sender;\r\n        auctions.push(Details({\r\n            tokenId:0,\r\n            highestBidder: owner,\r\n            highestBid: 0,\r\n            ended: false,\r\n            auctionEnd: 0\r\n        }));\r\n    }\r\n    \r\n    /*\r\n    *@dev The fallback function to prevent money from being sent to the contract\r\n    */\r\n    function()  payable public{\r\n        require(msg.value == 0);\r\n    }\r\n\r\n    /**\r\n    *@dev allows the owner to create an auction for a token\r\n    *@param _biddingTime is a uint that represeents how long the auction lasts (UNIX time, 86400 is one day)\r\n    *@param _token the unique tokenId\r\n    */\r\n    function setAuction(uint _biddingTime,uint256 _token) public onlyOwner() {\r\n        auctionIndex[_token] = auctions.length;\r\n        auctions.push(Details({\r\n            tokenId: _token,\r\n            highestBidder: owner,\r\n            highestBid: 0,\r\n            ended: false,\r\n            auctionEnd: now + _biddingTime\r\n            }));\r\n        token.transferFrom(msg.sender,address(this),_token);\r\n    }\r\n\r\n    /**\r\n    *@dev allows a party to place a bid for a certain token\r\n    *@param _token the unique tokenId\r\n    */\r\n    function bid(uint256 _token) public payable {\r\n\r\n        Details memory _auction = auctions[auctionIndex[_token]];\r\n        require(now <= _auction.auctionEnd);\r\n        require(msg.value > _auction.highestBid);\r\n        if (_auction.highestBid != 0) {\r\n            pendingReturns[_auction.highestBidder] += _auction.highestBid;\r\n        }\r\n        auctions[auctionIndex[_token]] = Details({\r\n            tokenId: _token,\r\n            highestBidder: msg.sender,\r\n            highestBid: msg.value,\r\n            ended: false,\r\n            auctionEnd: _auction.auctionEnd\r\n            });\r\n        HighestBidIncreased(_token,msg.sender, msg.value);\r\n    }\r\n\r\n    /**\r\n    *@dev allows any party to withdraw the funds owed to them in the contract\r\n    */\r\n    function withdraw() public returns (bool) {\r\n        uint amount = pendingReturns[msg.sender];\r\n        if (amount > 0) {\r\n            pendingReturns[msg.sender] = 0;\r\n            if (!msg.sender.send(amount)) {\r\n                pendingReturns[msg.sender] = amount;\r\n                return false;\r\n            }\r\n        }\r\n        return true;\r\n    }\r\n\r\n    /**\r\n    *@dev allows anyone to end the auction once the end date is reached\r\n    *@param _token the unique tokenId\r\n    */\r\n    function endAuction(uint _token) public {\r\n        Details memory _auction = auctions[auctionIndex[_token]];\r\n        require(now > _auction.auctionEnd);\r\n        require(_auction.ended == false);\r\n        auctions[auctionIndex[_token]] = Details({\r\n            tokenId: _token,\r\n            highestBidder: _auction.highestBidder,\r\n            highestBid: _auction.highestBid,\r\n            ended: true,\r\n            auctionEnd: _auction.auctionEnd\r\n        });\r\n        unLister(_token);\r\n        AuctionEnded(_token,_auction.highestBidder,_auction.highestBid);\r\n        token.transferFrom(address(this),_auction.highestBidder, _token);\r\n        pendingReturns[owner] += _auction.highestBid;\r\n    }\r\n\r\n    /**\r\n    *@dev allows parties to query the current highest bid in a token auction\r\n    *@param _token the unique tokenId\r\n    */\r\n    function getHighestBid(uint _token) public constant returns(uint){\r\n        Details memory _auction = auctions[auctionIndex[_token]];\r\n        return _auction.highestBid;\r\n    }\r\n\r\n    /**\r\n    *@dev allows parties to query the current highest bidder in a token auction\r\n    *@param _token the unique tokenId\r\n    */\r\n    function getHighestBidder(uint _token) public constant returns(address){\r\n        Details memory _auction = auctions[auctionIndex[_token]];\r\n        return _auction.highestBidder;\r\n    }\r\n\r\n    /**\r\n    *@dev allows parties to query the end time of a token auction\r\n    *@param _token the unique tokenId\r\n    */\r\n    function getAuctionEnd(uint _token) public constant returns(uint){\r\n        Details memory _auction = auctions[auctionIndex[_token]];\r\n        return _auction.auctionEnd;\r\n    }\r\n    /**\r\n    *@dev allows parties to query how many auctions are ongoing\r\n    *@param _token the unique tokenId\r\n    */\r\n    function getNumberofAuctions() public constant returns(uint){\r\n        return auctions.length;\r\n    }\r\n    /*\r\n    *@dev allows the owner to set the address of the PhotoCoin token\r\n    *@param _token address of the PhotoCoin token (PhotoCore.sol)\r\n    */\r\n    function setToken(address _token) public onlyOwner() {\r\n        token = PhotoCore(_token);\r\n    }\r\n    /*\r\n    *@dev allows the owner to change who the owner is\r\n    *@param _owner is the address of the new owner\r\n    */\r\n    function setOwner(address _owner) public onlyOwner() {\r\n        owner = _owner;\r\n    }\r\n\r\n    function unLister(uint256 _tokenId) internal{\r\n        uint256 tokenIndex = auctionIndex[_tokenId];\r\n        uint256 lastTokenIndex = auctions.length.sub(1);\r\n        Details memory lastToken = auctions[auctionIndex[lastTokenIndex]];\r\n        auctions[tokenIndex] = lastToken;\r\n        auctions.length--;\r\n        auctionIndex[_tokenId] = 0;\r\n    }\r\n}",
  "sourcePath": "C:\\Nick\\Consulting\\Photocoin\\contracts\\Auction.sol",
  "compiler": {
    "name": "solc",
    "version": "0.4.19+commit.c4cbbb05.Emscripten.clang"
  },
  "schemaVersion": "1.0.1",
  "updatedAt": "2018-03-22T02:22:24.697Z"
}