{
  "contractName": "ERC721",
  "abi": [
    {
      "constant": true,
      "inputs": [],
      "name": "totalTokens",
      "outputs": [
        {
          "name": "",
          "type": "uint256"
        }
      ],
      "payable": false,
      "stateMutability": "view",
      "type": "function"
    },
    {
      "inputs": [],
      "payable": false,
      "stateMutability": "nonpayable",
      "type": "constructor"
    },
    {
      "anonymous": false,
      "inputs": [
        {
          "indexed": true,
          "name": "_from",
          "type": "address"
        },
        {
          "indexed": true,
          "name": "_to",
          "type": "address"
        },
        {
          "indexed": false,
          "name": "_tokenId",
          "type": "uint256"
        }
      ],
      "name": "Transfer",
      "type": "event"
    },
    {
      "anonymous": false,
      "inputs": [
        {
          "indexed": true,
          "name": "_owner",
          "type": "address"
        },
        {
          "indexed": true,
          "name": "_operator",
          "type": "address"
        },
        {
          "indexed": false,
          "name": "_approved",
          "type": "bool"
        }
      ],
      "name": "ApprovalForAll",
      "type": "event"
    },
    {
      "anonymous": false,
      "inputs": [
        {
          "indexed": true,
          "name": "_owner",
          "type": "address"
        },
        {
          "indexed": true,
          "name": "_operator",
          "type": "address"
        },
        {
          "indexed": false,
          "name": "_tokenId",
          "type": "uint256"
        }
      ],
      "name": "Approval",
      "type": "event"
    },
    {
      "constant": true,
      "inputs": [
        {
          "name": "interfaceID",
          "type": "bytes4"
        }
      ],
      "name": "supportsInterface",
      "outputs": [
        {
          "name": "",
          "type": "bool"
        }
      ],
      "payable": false,
      "stateMutability": "view",
      "type": "function"
    },
    {
      "constant": false,
      "inputs": [
        {
          "name": "_from",
          "type": "address"
        },
        {
          "name": "_to",
          "type": "address"
        },
        {
          "name": "_tokenId",
          "type": "uint256"
        }
      ],
      "name": "transferFrom",
      "outputs": [],
      "payable": false,
      "stateMutability": "nonpayable",
      "type": "function"
    },
    {
      "constant": false,
      "inputs": [
        {
          "name": "_from",
          "type": "address"
        },
        {
          "name": "_to",
          "type": "address"
        },
        {
          "name": "_tokenId",
          "type": "uint256"
        },
        {
          "name": "data",
          "type": "bytes"
        }
      ],
      "name": "transferFrom",
      "outputs": [],
      "payable": false,
      "stateMutability": "nonpayable",
      "type": "function"
    },
    {
      "constant": false,
      "inputs": [
        {
          "name": "_operator",
          "type": "address"
        },
        {
          "name": "_approved",
          "type": "bool"
        }
      ],
      "name": "setApprovalForAll",
      "outputs": [],
      "payable": false,
      "stateMutability": "nonpayable",
      "type": "function"
    },
    {
      "constant": true,
      "inputs": [],
      "name": "totalSupply",
      "outputs": [
        {
          "name": "",
          "type": "uint256"
        }
      ],
      "payable": false,
      "stateMutability": "view",
      "type": "function"
    },
    {
      "constant": true,
      "inputs": [
        {
          "name": "_owner",
          "type": "address"
        }
      ],
      "name": "balanceOf",
      "outputs": [
        {
          "name": "",
          "type": "uint256"
        }
      ],
      "payable": false,
      "stateMutability": "view",
      "type": "function"
    },
    {
      "constant": true,
      "inputs": [
        {
          "name": "_owner",
          "type": "address"
        }
      ],
      "name": "tokensOf",
      "outputs": [
        {
          "name": "",
          "type": "uint256[]"
        }
      ],
      "payable": false,
      "stateMutability": "view",
      "type": "function"
    },
    {
      "constant": true,
      "inputs": [
        {
          "name": "_tokenId",
          "type": "uint256"
        }
      ],
      "name": "ownerOf",
      "outputs": [
        {
          "name": "",
          "type": "address"
        }
      ],
      "payable": false,
      "stateMutability": "view",
      "type": "function"
    },
    {
      "constant": true,
      "inputs": [
        {
          "name": "_tokenId",
          "type": "uint256"
        }
      ],
      "name": "approvedFor",
      "outputs": [
        {
          "name": "",
          "type": "address"
        }
      ],
      "payable": false,
      "stateMutability": "view",
      "type": "function"
    },
    {
      "constant": true,
      "inputs": [
        {
          "name": "_operator",
          "type": "address"
        },
        {
          "name": "_owner",
          "type": "address"
        }
      ],
      "name": "isApproved",
      "outputs": [
        {
          "name": "",
          "type": "bool"
        }
      ],
      "payable": false,
      "stateMutability": "view",
      "type": "function"
    },
    {
      "constant": true,
      "inputs": [
        {
          "name": "_operator",
          "type": "address"
        },
        {
          "name": "_owner",
          "type": "address"
        },
        {
          "name": "_tokenId",
          "type": "uint256"
        }
      ],
      "name": "isApproved",
      "outputs": [
        {
          "name": "",
          "type": "bool"
        }
      ],
      "payable": false,
      "stateMutability": "view",
      "type": "function"
    },
    {
      "constant": false,
      "inputs": [
        {
          "name": "_to",
          "type": "address"
        },
        {
          "name": "_tokenId",
          "type": "uint256"
        }
      ],
      "name": "approve",
      "outputs": [],
      "payable": false,
      "stateMutability": "nonpayable",
      "type": "function"
    }
  ],
  "bytecode": "0x6060604052341561000f57600080fd5b61002a61002f6401000000000261144b176401000000009004565b6103ff565b60018060003073ffffffffffffffffffffffffffffffffffffffff1663095ea7b390507c01000000000000000000000000000000000000000000000000000000000260405180807f6973417070726f76656428616464726573732c616464726573732c75696e743281526020017f35362900000000000000000000000000000000000000000000000000000000008152506023019050604051809103902060405180807f6973417070726f76656428616464726573732c61646472657373290000000000815250601b01905060405180910390203073ffffffffffffffffffffffffffffffffffffffff16636352211e90507c0100000000000000000000000000000000000000000000000000000000023073ffffffffffffffffffffffffffffffffffffffff166370a0823190507c0100000000000000000000000000000000000000000000000000000000023073ffffffffffffffffffffffffffffffffffffffff1663a22cb46590507c0100000000000000000000000000000000000000000000000000000000023073ffffffffffffffffffffffffffffffffffffffff166318160ddd90507c01000000000000000000000000000000000000000000000000000000000260405180807f7472616e7366657246726f6d28616464726573732c616464726573732c75696e81526020017f743235362c627974657329000000000000000000000000000000000000000000815250602b019050604051809103902060405180807f7472616e7366657246726f6d28616464726573732c616464726573732c75696e81526020017f7432353629000000000000000000000000000000000000000000000000000000815250602501905060405180910390203073ffffffffffffffffffffffffffffffffffffffff166301ffc9a790507c0100000000000000000000000000000000000000000000000000000000021818181818181818187bffffffffffffffffffffffffffffffffffffffffffffffffffffffff19167bffffffffffffffffffffffffffffffffffffffffffffffffffffffff1916815260200190815260200160002060006101000a81548160ff02191690831515021790555060018060003073ffffffffffffffffffffffffffffffffffffffff166301ffc9a790507c0100000000000000000000000000000000000000000000000000000000027bffffffffffffffffffffffffffffffffffffffffffffffffffffffff19167bffffffffffffffffffffffffffffffffffffffffffffffffffffffff1916815260200190815260200160002060006101000a81548160ff021916908315150217905550565b6118478061040e6000396000f3006060604052600436106100c5576000357c0100000000000000000000000000000000000000000000000000000000900463ffffffff16806301ffc9a7146100ca578063095ea7b31461012457806318160ddd1461016657806323b872dd1461018f5780632a6dd48f146101f05780635a3f2672146102535780636352211e146102e157806370a08231146103445780637e1c0c0914610391578063a22cb465146103ba578063a389783e146103fe578063ab67aa581461046e578063e5af48d814610512575b600080fd5b34156100d557600080fd5b61010a60048080357bffffffffffffffffffffffffffffffffffffffffffffffffffffffff191690602001909190505061058b565b604051808215151515815260200191505060405180910390f35b341561012f57600080fd5b610164600480803573ffffffffffffffffffffffffffffffffffffffff169060200190919080359060200190919050506105f3565b005b341561017157600080fd5b61017961072d565b6040518082815260200191505060405180910390f35b341561019a57600080fd5b6101ee600480803573ffffffffffffffffffffffffffffffffffffffff1690602001909190803573ffffffffffffffffffffffffffffffffffffffff16906020019091908035906020019091905050610736565b005b34156101fb57600080fd5b61021160048080359060200190919050506107d7565b604051808273ffffffffffffffffffffffffffffffffffffffff1673ffffffffffffffffffffffffffffffffffffffff16815260200191505060405180910390f35b341561025e57600080fd5b61028a600480803573ffffffffffffffffffffffffffffffffffffffff16906020019091905050610814565b6040518080602001828103825283818151815260200191508051906020019060200280838360005b838110156102cd5780820151818401526020810190506102b2565b505050509050019250505060405180910390f35b34156102ec57600080fd5b61030260048080359060200190919050506108b1565b604051808273ffffffffffffffffffffffffffffffffffffffff1673ffffffffffffffffffffffffffffffffffffffff16815260200191505060405180910390f35b341561034f57600080fd5b61037b600480803573ffffffffffffffffffffffffffffffffffffffff169060200190919050506108f3565b6040518082815260200191505060405180910390f35b341561039c57600080fd5b6103a461093f565b6040518082815260200191505060405180910390f35b34156103c557600080fd5b6103fc600480803573ffffffffffffffffffffffffffffffffffffffff169060200190919080351515906020019091905050610945565b005b341561040957600080fd5b610454600480803573ffffffffffffffffffffffffffffffffffffffff1690602001909190803573ffffffffffffffffffffffffffffffffffffffff16906020019091905050610abb565b604051808215151515815260200191505060405180910390f35b341561047957600080fd5b610510600480803573ffffffffffffffffffffffffffffffffffffffff1690602001909190803573ffffffffffffffffffffffffffffffffffffffff1690602001909190803590602001909190803590602001908201803590602001908080601f01602080910402602001604051908101604052809392919081815260200183838082843782019150505050505091905050610b53565b005b341561051d57600080fd5b610571600480803573ffffffffffffffffffffffffffffffffffffffff1690602001909190803573ffffffffffffffffffffffffffffffffffffffff16906020019091908035906020019091905050610ce5565b604051808215151515815260200191505060405180910390f35b600060016000837bffffffffffffffffffffffffffffffffffffffffffffffffffffffff19167bffffffffffffffffffffffffffffffffffffffffffffffffffffffff1916815260200190815260200160002060009054906101000a900460ff169050919050565b803373ffffffffffffffffffffffffffffffffffffffff16610614826108b1565b73ffffffffffffffffffffffffffffffffffffffff1614151561063657600080fd5b3373ffffffffffffffffffffffffffffffffffffffff168373ffffffffffffffffffffffffffffffffffffffff161415151561067157600080fd5b826003600084815260200190815260200160002060006101000a81548173ffffffffffffffffffffffffffffffffffffffff021916908373ffffffffffffffffffffffffffffffffffffffff1602179055508273ffffffffffffffffffffffffffffffffffffffff163373ffffffffffffffffffffffffffffffffffffffff167f8c5be1e5ebec7d5bd14f71427d1e84f3dd0314c0f7b2291e5b200ac8c7c3b925846040518082815260200191505060405180910390a3505050565b60008054905090565b3373ffffffffffffffffffffffffffffffffffffffff16610756826107d7565b73ffffffffffffffffffffffffffffffffffffffff16148061077e575061077d3384610abb565b5b806107bc57503373ffffffffffffffffffffffffffffffffffffffff166107a4826108b1565b73ffffffffffffffffffffffffffffffffffffffff16145b15156107c757600080fd5b6107d2838383610dc7565b505050565b60006003600083815260200190815260200160002060009054906101000a900473ffffffffffffffffffffffffffffffffffffffff169050919050565b61081c6113ba565b600460008373ffffffffffffffffffffffffffffffffffffffff1673ffffffffffffffffffffffffffffffffffffffff1681526020019081526020016000208054806020026020016040519081016040528092919081815260200182805480156108a557602002820191906000526020600020905b815481526020019060010190808311610891575b50505050509050919050565b6000806002600084815260200190815260200160002060009054906101000a900473ffffffffffffffffffffffffffffffffffffffff16905080915050919050565b6000600460008373ffffffffffffffffffffffffffffffffffffffff1673ffffffffffffffffffffffffffffffffffffffff168152602001908152602001600020805490509050919050565b60005481565b80156109ce5781600660003373ffffffffffffffffffffffffffffffffffffffff1673ffffffffffffffffffffffffffffffffffffffff16815260200190815260200160002060006101000a81548173ffffffffffffffffffffffffffffffffffffffff021916908373ffffffffffffffffffffffffffffffffffffffff160217905550610a4e565b6000600660003373ffffffffffffffffffffffffffffffffffffffff1673ffffffffffffffffffffffffffffffffffffffff16815260200190815260200160002060006101000a81548173ffffffffffffffffffffffffffffffffffffffff021916908373ffffffffffffffffffffffffffffffffffffffff1602179055505b8173ffffffffffffffffffffffffffffffffffffffff163373ffffffffffffffffffffffffffffffffffffffff167f17307eab39ab6107e8899845ad3d59bd9653f200f220920489ca2b5937696c3183604051808215151515815260200191505060405180910390a35050565b60008273ffffffffffffffffffffffffffffffffffffffff16600660008473ffffffffffffffffffffffffffffffffffffffff1673ffffffffffffffffffffffffffffffffffffffff16815260200190815260200160002060009054906101000a900473ffffffffffffffffffffffffffffffffffffffff1673ffffffffffffffffffffffffffffffffffffffff1614905092915050565b6000803373ffffffffffffffffffffffffffffffffffffffff16610b76856107d7565b73ffffffffffffffffffffffffffffffffffffffff161480610b9e5750610b9d3387610abb565b5b80610bdc57503373ffffffffffffffffffffffffffffffffffffffff16610bc4856108b1565b73ffffffffffffffffffffffffffffffffffffffff16145b1515610be757600080fd5b610bf2868686610dc7565b600090505b6020811015610cbf576008810260ff7f0100000000000000000000000000000000000000000000000000000000000000028483815181101515610c3657fe5b9060200101517f010000000000000000000000000000000000000000000000000000000000000090047f010000000000000000000000000000000000000000000000000000000000000002167effffffffffffffffffffffffffffffffffffffffffffffffffffffffffffff1916600019169060020a9004821791508080600101915050610bf7565b8160405180826000191660001916815260200191505060405180910390a0505050505050565b60008373ffffffffffffffffffffffffffffffffffffffff166003600084815260200190815260200160002060009054906101000a900473ffffffffffffffffffffffffffffffffffffffff1673ffffffffffffffffffffffffffffffffffffffff16148015610dbe575081600460008573ffffffffffffffffffffffffffffffffffffffff1673ffffffffffffffffffffffffffffffffffffffff1681526020019081526020016000206005600085815260200190815260200160002054815481101515610db057fe5b906000526020600020900154145b90509392505050565b600073ffffffffffffffffffffffffffffffffffffffff168273ffffffffffffffffffffffffffffffffffffffff1614151515610e0357600080fd5b610e0c816108b1565b73ffffffffffffffffffffffffffffffffffffffff168273ffffffffffffffffffffffffffffffffffffffff1614151515610e4657600080fd5b8273ffffffffffffffffffffffffffffffffffffffff16610e66826108b1565b73ffffffffffffffffffffffffffffffffffffffff16141515610e8857600080fd5b60006003600083815260200190815260200160002060006101000a81548173ffffffffffffffffffffffffffffffffffffffff021916908373ffffffffffffffffffffffffffffffffffffffff160217905550600073ffffffffffffffffffffffffffffffffffffffff168373ffffffffffffffffffffffffffffffffffffffff16141515610f1c57610f1b8382610f90565b5b610f268282611218565b8173ffffffffffffffffffffffffffffffffffffffff168373ffffffffffffffffffffffffffffffffffffffff167fddf252ad1be2c89b69c2b068fc378daa952ba7f163c4a11628f55a4df523b3ef836040518082815260200191505060405180910390a3505050565b60008060008473ffffffffffffffffffffffffffffffffffffffff16610fb5856108b1565b73ffffffffffffffffffffffffffffffffffffffff16141515610fd757600080fd5b600560008581526020019081526020016000205492506110096001610ffb876108f3565b61138390919063ffffffff16565b9150600460008673ffffffffffffffffffffffffffffffffffffffff1673ffffffffffffffffffffffffffffffffffffffff1681526020019081526020016000208281548110151561105757fe5b906000526020600020900154905060006002600086815260200190815260200160002060006101000a81548173ffffffffffffffffffffffffffffffffffffffff021916908373ffffffffffffffffffffffffffffffffffffffff16021790555080600460008773ffffffffffffffffffffffffffffffffffffffff1673ffffffffffffffffffffffffffffffffffffffff1681526020019081526020016000208481548110151561110557fe5b9060005260206000209001819055506000600460008773ffffffffffffffffffffffffffffffffffffffff1673ffffffffffffffffffffffffffffffffffffffff1681526020019081526020016000208381548110151561116257fe5b906000526020600020900181905550600460008673ffffffffffffffffffffffffffffffffffffffff1673ffffffffffffffffffffffffffffffffffffffff1681526020019081526020016000208054809190600190036111c391906113ce565b506000600560008681526020019081526020016000208190555082600560008381526020019081526020016000208190555061120b600160005461138390919063ffffffff16565b6000819055505050505050565b60008073ffffffffffffffffffffffffffffffffffffffff166002600084815260200190815260200160002060009054906101000a900473ffffffffffffffffffffffffffffffffffffffff1673ffffffffffffffffffffffffffffffffffffffff1614151561128757600080fd5b826002600084815260200190815260200160002060006101000a81548173ffffffffffffffffffffffffffffffffffffffff021916908373ffffffffffffffffffffffffffffffffffffffff1602179055506112e2836108f3565b9050600460008473ffffffffffffffffffffffffffffffffffffffff1673ffffffffffffffffffffffffffffffffffffffff168152602001908152602001600020805480600101828161133591906113fa565b916000526020600020900160008490919091505550806005600084815260200190815260200160002081905550611378600160005461139c90919063ffffffff16565b600081905550505050565b600082821115151561139157fe5b818303905092915050565b60008082840190508381101515156113b057fe5b8091505092915050565b602060405190810160405280600081525090565b8154818355818115116113f5578183600052602060002091820191016113f49190611426565b5b505050565b815481835581811511611421578183600052602060002091820191016114209190611426565b5b505050565b61144891905b8082111561144457600081600090555060010161142c565b5090565b90565b60018060003073ffffffffffffffffffffffffffffffffffffffff1663095ea7b390507c01000000000000000000000000000000000000000000000000000000000260405180807f6973417070726f76656428616464726573732c616464726573732c75696e743281526020017f35362900000000000000000000000000000000000000000000000000000000008152506023019050604051809103902060405180807f6973417070726f76656428616464726573732c61646472657373290000000000815250601b01905060405180910390203073ffffffffffffffffffffffffffffffffffffffff16636352211e90507c0100000000000000000000000000000000000000000000000000000000023073ffffffffffffffffffffffffffffffffffffffff166370a0823190507c0100000000000000000000000000000000000000000000000000000000023073ffffffffffffffffffffffffffffffffffffffff1663a22cb46590507c0100000000000000000000000000000000000000000000000000000000023073ffffffffffffffffffffffffffffffffffffffff166318160ddd90507c01000000000000000000000000000000000000000000000000000000000260405180807f7472616e7366657246726f6d28616464726573732c616464726573732c75696e81526020017f743235362c627974657329000000000000000000000000000000000000000000815250602b019050604051809103902060405180807f7472616e7366657246726f6d28616464726573732c616464726573732c75696e81526020017f7432353629000000000000000000000000000000000000000000000000000000815250602501905060405180910390203073ffffffffffffffffffffffffffffffffffffffff166301ffc9a790507c0100000000000000000000000000000000000000000000000000000000021818181818181818187bffffffffffffffffffffffffffffffffffffffffffffffffffffffff19167bffffffffffffffffffffffffffffffffffffffffffffffffffffffff1916815260200190815260200160002060006101000a81548160ff02191690831515021790555060018060003073ffffffffffffffffffffffffffffffffffffffff166301ffc9a790507c0100000000000000000000000000000000000000000000000000000000027bffffffffffffffffffffffffffffffffffffffffffffffffffffffff19167bffffffffffffffffffffffffffffffffffffffffffffffffffffffff1916815260200190815260200160002060006101000a81548160ff0219169083151502179055505600a165627a7a723058201811b76fe8561c8ceeb13b2f2eb844cf5160d55773c343036bae6c15c3d1620b0029",
  "source": "pragma solidity ^0.4.18;\r\n\r\nimport \"./library/SafeMath.sol\";\r\n\r\n/**\r\n * @title ERC721Token\r\n * Implementation for the required functionality of the ERC721 standard\r\n * www.erc721.org as of 3/5/2018\r\n */\r\ncontract ERC721 {\r\n  using SafeMath for uint256;\r\n  //The total number of tokens in existence\r\n  uint256 public totalTokens;\r\n  //A list of functions / interfaces supported by this contract\r\n  mapping(bytes4 => bool) internal supportedInterfaces;\r\n  //A mapping from the token ID to the owner of the token.\r\n  mapping(uint256 => address) tokenOwner;\r\n  //A mapping from tokenIDs to an address that has been approved to call\r\n  mapping(uint256 => address) tokenApproval;\r\n  // Mapping from owner to list of owned token IDs\r\n  mapping(address => uint256[]) ownedTokens;\r\n  // Mapping from token ID to index of the owner tokens list\r\n  mapping(uint256 => uint256) ownedTokensIndex;\r\n  //For assigning a total control of all tokens owned\r\n  mapping(address => address) approvedForAll;\r\n\r\n  event Transfer(address indexed _from, address indexed _to, uint256 _tokenId);\r\n  event ApprovalForAll(address indexed _owner, address indexed _operator, bool _approved);\r\n  event Approval(address indexed _owner, address indexed _operator, uint256 _tokenId);\r\n\r\n  /**\r\n  * @dev Guarantees msg.sender is owner of the given token\r\n  * @param _tokenId uint256 ID of the token to validate its ownership belongs to msg.sender\r\n  */\r\n  modifier onlyOwnerOf(uint256 _tokenId) {\r\n    require(ownerOf(_tokenId) == msg.sender);\r\n    _;\r\n  }\r\n\r\n  /***FUNCTIONS***/\r\n    /**\r\n   * @dev Constructor, it sets the interfaces (ERC721, ERC165)\r\n  */\r\n  function ERC721() public{\r\n    setInterface();\r\n  }\r\n\r\n  /**\r\n   * @dev Checks if this contract meeets a specific standard\r\n   * @param interfaceID bytes4 of the bytecode of a specific function or group of functions\r\n   * @return bool representing whether the bytecode is supported\r\n  */\r\n  function supportsInterface(bytes4 interfaceID) external view returns (bool) {\r\n        return supportedInterfaces[interfaceID];\r\n  }\r\n\r\n  /** \r\n   * @dev Transfers a specific token from one address to another\r\n   * @param _from is the address that the token will be sent from\r\n   * @param _to is the address we are sending the token to\r\n   * @param _tokenId the numeric identifier of a token\r\n  */\r\n  function transferFrom(address _from, address _to, uint256 _tokenId) public{\r\n    require(approvedFor(_tokenId)==msg.sender || isApproved(msg.sender,_from) || ownerOf(_tokenId)==msg.sender);\r\n    clearApprovalAndTransfer(_from,_to,_tokenId);\r\n  }\r\n\r\n  /**\r\n  * @dev This overload transferFrom function is required on ERC721.org\r\n  * @param _from is the address that the token will be sent from\r\n  * @param _to is the address we are sending the token to\r\n  * @param _tokenId the uint256 numeric identifier of a token\r\n  * @param data is the bytes data which will be logged with the transfer\r\n  */\r\n  function transferFrom(address _from, address _to, uint256 _tokenId, bytes data) public{\r\n    require(approvedFor(_tokenId)==msg.sender || isApproved(msg.sender,_from)|| ownerOf(_tokenId)==msg.sender);\r\n    clearApprovalAndTransfer(_from,_to,_tokenId);\r\n    bytes32 log_data;\r\n    for (uint i = 0; i < 32; i++) {\r\n      log_data |= bytes32(data[i] & 0xFF) >> (i * 8);\r\n    }\r\n    log0(log_data);\r\n  }\r\n\r\n\r\n  /**\r\n  * @dev This function approves or dissaproves another address for control over the tokens owned by the sender\r\n  * @param _operator is the address that will be approved by the sender\r\n  * @param _approved is a bool with true as approve, false to remove approval\r\n  */\r\n  function setApprovalForAll(address _operator, bool _approved) public{\r\n        if(_approved){\r\n          approvedForAll[msg.sender] = _operator;\r\n        }\r\n        else{\r\n          approvedForAll[msg.sender] = address(0);\r\n        }\r\n        ApprovalForAll(msg.sender,_operator,_approved);\r\n  }\r\n\r\n  /**\r\n  * @dev Gets the total amount of tokens stored by the contract\r\n  * @return uint256 representing the total amount of tokens\r\n  */\r\n  function totalSupply() public view returns (uint256) {\r\n    return totalTokens;\r\n  }\r\n\r\n  /**\r\n  * @dev Gets the balance of the specified address\r\n  * @param _owner address to query the balance of\r\n  * @return uint256 representing the amount owned by the passed address\r\n  */\r\n  function balanceOf(address _owner) public view returns (uint256) {\r\n    return ownedTokens[_owner].length;\r\n  }\r\n\r\n  /**\r\n  * @dev Gets the list of tokens owned by a given address\r\n  * @param _owner address to query the tokens of\r\n  * @return uint256[] representing the list of tokens owned by the passed address\r\n  */\r\n  function tokensOf(address _owner) public view returns (uint256[]) {\r\n    return ownedTokens[_owner];\r\n  }\r\n\r\n  /**\r\n  * @dev Gets the owner of the specified token ID\r\n  * @param _tokenId uint256 ID of the token to query the owner of\r\n  * @return owner address currently marked as the owner of the given token ID\r\n  */\r\n  function ownerOf(uint256 _tokenId) public view returns (address) {\r\n    address owner = tokenOwner[_tokenId];\r\n    return owner;\r\n  }\r\n\r\n  /**\r\n   * @dev Gets the approved address to take ownership of a given token ID\r\n   * @param _tokenId uint256 ID of the token to query the approval of\r\n   * @return address currently approved to take ownership of the given token ID\r\n   */\r\n  function approvedFor(uint256 _tokenId) public view returns (address) {\r\n    return tokenApproval[_tokenId];\r\n  }\r\n\r\n  /**\r\n  * @dev This function checks whether an address has control over the tokens owned by another address\r\n  * @param _operator is the approved address\r\n  * @param _owner is the address to be checked if they gave approval\r\n  */\r\n  function isApproved(address _operator, address _owner) public constant returns (bool){\r\n    return(approvedForAll[_owner] == _operator);\r\n  }\r\n  \r\n  /**\r\n  * @dev This function checks whether an address has control over a specific token owned by another address\r\n  * @param _operator is the approved address\r\n  * @param _owner is the address to be checked if they gave approval\r\n  * @param _tokenId uint256 ID of the token to query the approval of\r\n  */\r\n  function isApproved(address _operator, address _owner, uint256 _tokenId) public constant returns (bool){\r\n      return(tokenApproval[_tokenId] == _operator && ownedTokens[_owner][ownedTokensIndex[_tokenId]] == _tokenId);\r\n  }\r\n  /**\r\n  * @dev Approves another address to claim for the ownership of the given token ID\r\n  * @param _to address to be approved for the given token ID\r\n  * @param _tokenId uint256 ID of the token to be approved\r\n  */\r\n  function approve(address _to, uint256 _tokenId) public onlyOwnerOf(_tokenId) {\r\n    require(_to != msg.sender);\r\n    tokenApproval[_tokenId] = _to;\r\n    Approval(msg.sender, _to, _tokenId);\r\n  }\r\n\r\n      /***INTERNAL FUNCTIONS***/\r\n  /**\r\n  * @dev Internal function to clear current approval and transfer the ownership of a given token ID\r\n  * @param _from address which you want to send tokens from\r\n  * @param _to address which you want to transfer the token to\r\n  * @param _tokenId uint256 ID of the token to be transferred\r\n  */\r\n  function clearApprovalAndTransfer(address _from, address _to, uint256 _tokenId) internal {\r\n    require(_to != address(0));\r\n    require(_to != ownerOf(_tokenId));\r\n    require(ownerOf(_tokenId) == _from );\r\n    tokenApproval[_tokenId] = address(0);\r\n    if(_from != address(0)){\r\n      removeToken(_from, _tokenId);\r\n    }\r\n    addToken(_to, _tokenId);\r\n    Transfer(_from, _to, _tokenId);\r\n  }\r\n  /**\r\n  * @dev Internal function to add a token ID to the list of a given address\r\n  * @param _to address representing the new owner of the given token ID\r\n  * @param _tokenId uint256 ID of the token to be added to the tokens list of the given address\r\n  */\r\n  function addToken(address _to, uint256 _tokenId) internal {\r\n    require(tokenOwner[_tokenId] == address(0));\r\n    tokenOwner[_tokenId] = _to;\r\n    uint256 length = balanceOf(_to);\r\n    ownedTokens[_to].push(_tokenId);\r\n    ownedTokensIndex[_tokenId] = length;\r\n    totalTokens = totalTokens.add(1);\r\n  }\r\n  /**\r\n  * @dev Internal function to remove a token ID from the list of a given address\r\n  * @param _from address representing the previous owner of the given token ID\r\n  * @param _tokenId uint256 ID of the token to be removed from the tokens list of the given address\r\n  */\r\n  function removeToken(address _from, uint256 _tokenId) internal {\r\n    require(ownerOf(_tokenId) == _from);\r\n    uint256 tokenIndex = ownedTokensIndex[_tokenId];\r\n    uint256 lastTokenIndex = balanceOf(_from).sub(1);\r\n    uint256 lastToken = ownedTokens[_from][lastTokenIndex];\r\n    tokenOwner[_tokenId] = 0;\r\n    ownedTokens[_from][tokenIndex] = lastToken;\r\n    ownedTokens[_from][lastTokenIndex] = 0;\r\n    // Note that this will handle single-element arrays. In that case, both tokenIndex and lastTokenIndex are going to\r\n    // be zero. Then we can make sure that we will remove _tokenId from the ownedTokens list since we are first swapping\r\n    // the lastToken to the first position, and then dropping the element placed in the last position of the list\r\n    ownedTokens[_from].length--;\r\n    ownedTokensIndex[_tokenId] = 0;\r\n    ownedTokensIndex[lastToken] = tokenIndex;\r\n    totalTokens = totalTokens.sub(1);\r\n  }\r\n\r\n  /** \r\n   * @dev States that code is stating that this contract meets ERC721 and ERC165 specifications\r\n  */\r\n  function setInterface() internal{\r\n          supportedInterfaces[this.supportsInterface.selector\r\n           ^ bytes4(keccak256(\"transferFrom(address,address,uint256)\"))\r\n           ^ bytes4(keccak256(\"transferFrom(address,address,uint256,bytes)\"))\r\n           ^ this.totalSupply.selector\r\n           ^ this.setApprovalForAll.selector\r\n           ^ this.balanceOf.selector\r\n           ^ this.ownerOf.selector\r\n           ^ bytes4(keccak256(\"isApproved(address,address)\"))\r\n           ^ bytes4(keccak256(\"isApproved(address,address,uint256)\"))\r\n           ^ this.approve.selector\r\n          ] = true;\r\n          supportedInterfaces[this.supportsInterface.selector\r\n          ] = true;\r\n  }\r\n}",
  "sourcePath": "C:\\Nick\\Consulting\\Photocoin\\contracts\\ERC721.sol",
  "compiler": {
    "name": "solc",
    "version": "0.4.19+commit.c4cbbb05.Emscripten.clang"
  },
  "schemaVersion": "1.0.1",
  "updatedAt": "2018-03-22T02:21:25.583Z"
}