{
  "contractName": "ERC721",
  "abi": [
    {
      "constant": true,
      "inputs": [],
      "name": "totalTokens",
      "outputs": [
        {
          "name": "",
          "type": "uint256"
        }
      ],
      "payable": false,
      "stateMutability": "view",
      "type": "function"
    },
    {
      "inputs": [],
      "payable": false,
      "stateMutability": "nonpayable",
      "type": "constructor"
    },
    {
      "anonymous": false,
      "inputs": [
        {
          "indexed": true,
          "name": "_from",
          "type": "address"
        },
        {
          "indexed": true,
          "name": "_to",
          "type": "address"
        },
        {
          "indexed": false,
          "name": "_tokenId",
          "type": "uint256"
        }
      ],
      "name": "Transfer",
      "type": "event"
    },
    {
      "anonymous": false,
      "inputs": [
        {
          "indexed": true,
          "name": "_owner",
          "type": "address"
        },
        {
          "indexed": true,
          "name": "_operator",
          "type": "address"
        },
        {
          "indexed": false,
          "name": "_approved",
          "type": "bool"
        }
      ],
      "name": "ApprovalForAll",
      "type": "event"
    },
    {
      "anonymous": false,
      "inputs": [
        {
          "indexed": true,
          "name": "_owner",
          "type": "address"
        },
        {
          "indexed": true,
          "name": "_operator",
          "type": "address"
        },
        {
          "indexed": false,
          "name": "_tokenId",
          "type": "uint256"
        }
      ],
      "name": "Approval",
      "type": "event"
    },
    {
      "constant": true,
      "inputs": [
        {
          "name": "interfaceID",
          "type": "bytes4"
        }
      ],
      "name": "supportsInterface",
      "outputs": [
        {
          "name": "",
          "type": "bool"
        }
      ],
      "payable": false,
      "stateMutability": "view",
      "type": "function"
    },
    {
      "constant": false,
      "inputs": [
        {
          "name": "_from",
          "type": "address"
        },
        {
          "name": "_to",
          "type": "address"
        },
        {
          "name": "_tokenId",
          "type": "uint256"
        }
      ],
      "name": "transferFrom",
      "outputs": [],
      "payable": false,
      "stateMutability": "nonpayable",
      "type": "function"
    },
    {
      "constant": false,
      "inputs": [
        {
          "name": "_from",
          "type": "address"
        },
        {
          "name": "_to",
          "type": "address"
        },
        {
          "name": "_tokenId",
          "type": "uint256"
        },
        {
          "name": "_data",
          "type": "bytes"
        }
      ],
      "name": "transferFrom",
      "outputs": [],
      "payable": false,
      "stateMutability": "nonpayable",
      "type": "function"
    },
    {
      "constant": false,
      "inputs": [
        {
          "name": "_from",
          "type": "address"
        },
        {
          "name": "_to",
          "type": "address"
        },
        {
          "name": "_tokenId",
          "type": "uint256"
        },
        {
          "name": "_data",
          "type": "bytes"
        }
      ],
      "name": "safeTransferFrom",
      "outputs": [],
      "payable": false,
      "stateMutability": "nonpayable",
      "type": "function"
    },
    {
      "constant": false,
      "inputs": [
        {
          "name": "_from",
          "type": "address"
        },
        {
          "name": "_to",
          "type": "address"
        },
        {
          "name": "_tokenId",
          "type": "uint256"
        }
      ],
      "name": "safeTransferFrom",
      "outputs": [],
      "payable": false,
      "stateMutability": "nonpayable",
      "type": "function"
    },
    {
      "constant": false,
      "inputs": [
        {
          "name": "_operator",
          "type": "address"
        },
        {
          "name": "_approved",
          "type": "bool"
        }
      ],
      "name": "setApprovalForAll",
      "outputs": [],
      "payable": false,
      "stateMutability": "nonpayable",
      "type": "function"
    },
    {
      "constant": true,
      "inputs": [],
      "name": "totalSupply",
      "outputs": [
        {
          "name": "",
          "type": "uint256"
        }
      ],
      "payable": false,
      "stateMutability": "view",
      "type": "function"
    },
    {
      "constant": true,
      "inputs": [
        {
          "name": "_owner",
          "type": "address"
        }
      ],
      "name": "balanceOf",
      "outputs": [
        {
          "name": "",
          "type": "uint256"
        }
      ],
      "payable": false,
      "stateMutability": "view",
      "type": "function"
    },
    {
      "constant": true,
      "inputs": [
        {
          "name": "_owner",
          "type": "address"
        }
      ],
      "name": "tokensOf",
      "outputs": [
        {
          "name": "",
          "type": "uint256[]"
        }
      ],
      "payable": false,
      "stateMutability": "view",
      "type": "function"
    },
    {
      "constant": true,
      "inputs": [
        {
          "name": "_tokenId",
          "type": "uint256"
        }
      ],
      "name": "ownerOf",
      "outputs": [
        {
          "name": "",
          "type": "address"
        }
      ],
      "payable": false,
      "stateMutability": "view",
      "type": "function"
    },
    {
      "constant": true,
      "inputs": [
        {
          "name": "_tokenId",
          "type": "uint256"
        }
      ],
      "name": "approvedFor",
      "outputs": [
        {
          "name": "",
          "type": "address"
        }
      ],
      "payable": false,
      "stateMutability": "view",
      "type": "function"
    },
    {
      "constant": true,
      "inputs": [
        {
          "name": "_operator",
          "type": "address"
        },
        {
          "name": "_owner",
          "type": "address"
        }
      ],
      "name": "isApproved",
      "outputs": [
        {
          "name": "",
          "type": "bool"
        }
      ],
      "payable": false,
      "stateMutability": "view",
      "type": "function"
    },
    {
      "constant": true,
      "inputs": [
        {
          "name": "_operator",
          "type": "address"
        },
        {
          "name": "_owner",
          "type": "address"
        },
        {
          "name": "_tokenId",
          "type": "uint256"
        }
      ],
      "name": "isApproved",
      "outputs": [
        {
          "name": "",
          "type": "bool"
        }
      ],
      "payable": false,
      "stateMutability": "view",
      "type": "function"
    },
    {
      "constant": false,
      "inputs": [
        {
          "name": "_to",
          "type": "address"
        },
        {
          "name": "_tokenId",
          "type": "uint256"
        }
      ],
      "name": "approve",
      "outputs": [],
      "payable": false,
      "stateMutability": "nonpayable",
      "type": "function"
    },
    {
      "constant": true,
      "inputs": [
        {
          "name": "",
          "type": "address"
        },
        {
          "name": "",
          "type": "uint256"
        },
        {
          "name": "",
          "type": "bytes"
        }
      ],
      "name": "onERC721Received",
      "outputs": [
        {
          "name": "",
          "type": "bytes4"
        }
      ],
      "payable": false,
      "stateMutability": "view",
      "type": "function"
    }
  ],
  "bytecode": "0x6060604052341561000f57600080fd5b610024640100000000610d5461002982021704565b6102a2565b60018060007f095ea7b3000000000000000000000000000000000000000000000000000000006040517f6973417070726f76656428616464726573732c616464726573732c75696e743281527f3536290000000000000000000000000000000000000000000000000000000000602082015260230160405180910390206040517f6973417070726f76656428616464726573732c616464726573732900000000008152601b016040519081900390207f6352211e000000000000000000000000000000000000000000000000000000007f70a08231000000000000000000000000000000000000000000000000000000007fa22cb465000000000000000000000000000000000000000000000000000000007f18160ddd000000000000000000000000000000000000000000000000000000006040516000805160206112b683398151915281527f743235362c6279746573290000000000000000000000000000000000000000006020820152602b0160405180910390206040516000805160206112b683398151915281527f743235362900000000000000000000000000000000000000000000000000000060208201526025016040519081900390207f01ffc9a70000000000000000000000000000000000000000000000000000000091189190911891909118919091189190911891909118919091189190911881187fffffffff0000000000000000000000000000000000000000000000000000000016825260208083019390935260409091016000908120805460ff19908116951515959095179055526001908190527fb45820386466a8e01597d6e1efaf8f11ba4467972de5ca6c1f8aa3544ac2888e8054909216179055565b611005806102b16000396000f3006060604052600436106100e55763ffffffff7c010000000000000000000000000000000000000000000000000000000060003504166301ffc9a781146100ea578063095ea7b31461011e57806318160ddd1461014257806323b872dd146101675780632a6dd48f1461018f57806342842e0e146101c15780635a3f2672146101e95780636352211e1461025b57806370a08231146102715780637e1c0c0914610290578063a22cb465146102a3578063a389783e146102c7578063ab67aa58146102ec578063b88d4fde14610358578063e5af48d8146103c4578063f0b9e5ba146103ec575b600080fd5b34156100f557600080fd5b61010a600160e060020a03196004351661046e565b604051901515815260200160405180910390f35b341561012957600080fd5b610140600160a060020a036004351660243561048d565b005b341561014d57600080fd5b610155610540565b60405190815260200160405180910390f35b341561017257600080fd5b610140600160a060020a0360043581169060243516604435610547565b341561019a57600080fd5b6101a5600435610566565b604051600160a060020a03909116815260200160405180910390f35b34156101cc57600080fd5b610140600160a060020a0360043581169060243516604435610581565b34156101f457600080fd5b610208600160a060020a036004351661059b565b60405160208082528190810183818151815260200191508051906020019060200280838360005b8381101561024757808201518382015260200161022f565b505050509050019250505060405180910390f35b341561026657600080fd5b6101a560043561061e565b341561027c57600080fd5b610155600160a060020a0360043516610639565b341561029b57600080fd5b610155610654565b34156102ae57600080fd5b610140600160a060020a0360043516602435151561065a565b34156102d257600080fd5b61010a600160a060020a0360043581169060243516610708565b34156102f757600080fd5b610140600160a060020a036004803582169160248035909116916044359160849060643590810190830135806020601f8201819004810201604051908101604052818152929190602084018383808284375094965061072a95505050505050565b341561036357600080fd5b610140600160a060020a036004803582169160248035909116916044359160849060643590810190830135806020601f820181900481020160405190810160405281815292919060208401838380828437509496506107ac95505050505050565b34156103cf57600080fd5b61010a600160a060020a03600435811690602435166044356107ce565b34156103f757600080fd5b61045160048035600160a060020a03169060248035919060649060443590810190830135806020601f8201819004810201604051908101604052818152929190602084018383808284375094965061083d95505050505050565b604051600160e060020a0319909116815260200160405180910390f35b600160e060020a03191660009081526001602052604090205460ff1690565b8033600160a060020a03166104a18261061e565b600160a060020a0316146104b457600080fd5b33600160a060020a031683600160a060020a0316141515156104d557600080fd5b600082815260036020526040908190208054600160a060020a031916600160a060020a038681169182179092559133909116907f8c5be1e5ebec7d5bd14f71427d1e84f3dd0314c0f7b2291e5b200ac8c7c3b9259085905190815260200160405180910390a3505050565b6000545b90565b61056183838360206040519081016040526000815261072a565b505050565b600090815260036020526040902054600160a060020a031690565b6105618383836020604051908101604052600081526107ac565b6105a3610d05565b6004600083600160a060020a0316600160a060020a0316815260200190815260200160002080548060200260200160405190810160405280929190818152602001828054801561061257602002820191906000526020600020905b8154815260200190600101908083116105fe575b50505050509050919050565b600090815260026020526040902054600160a060020a031690565b600160a060020a031660009081526004602052604090205490565b60005481565b80156106945733600160a060020a0390811660009081526006602052604090208054600160a060020a0319169184169190911790556106bb565b600160a060020a03331660009081526006602052604090208054600160a060020a03191690555b81600160a060020a031633600160a060020a03167f17307eab39ab6107e8899845ad3d59bd9653f200f220920489ca2b5937696c3183604051901515815260200160405180910390a35050565b600160a060020a03908116600090815260066020526040902054811691161490565b33600160a060020a031661073d83610566565b600160a060020a0316148061075757506107573385610708565b8061077b575033600160a060020a03166107708361061e565b600160a060020a0316145b151561078657600080fd5b600160a060020a038316151561079b57600080fd5b6107a6848484610865565b50505050565b6107b7848484610547565b6107c38484848461094c565b15156107a657600080fd5b600081815260036020526040812054600160a060020a0385811691161480156108355750600160a060020a0383166000908152600460209081526040808320858452600590925290912054815484929190811061082757fe5b906000526020600020900154145b949350505050565b7ff0b9e5ba000000000000000000000000000000000000000000000000000000009392505050565b600160a060020a038216151561087a57600080fd5b6108838161061e565b600160a060020a038381169116141561089b57600080fd5b82600160a060020a03166108ae8261061e565b600160a060020a0316146108c157600080fd5b60008181526003602052604090208054600160a060020a0319169055600160a060020a038316156108f6576108f68382610ab3565b6109008282610c1d565b81600160a060020a031683600160a060020a03167fddf252ad1be2c89b69c2b068fc378daa952ba7f163c4a11628f55a4df523b3ef8360405190815260200160405180910390a3505050565b60008061096185600160a060020a0316610cd5565b15156109705760019150610aaa565b84600160a060020a031663f0b9e5ba8786866000604051602001526040518463ffffffff167c01000000000000000000000000000000000000000000000000000000000281526004018084600160a060020a0316600160a060020a0316815260200183815260200180602001828103825283818151815260200191508051906020019080838360005b83811015610a115780820151838201526020016109f9565b50505050905090810190601f168015610a3e5780820380516001836020036101000a031916815260200191505b50945050505050602060405180830381600087803b1515610a5e57600080fd5b6102c65a03f11515610a6f57600080fd5b5050506040518051600160e060020a031981167ff0b9e5ba000000000000000000000000000000000000000000000000000000001493509150505b50949350505050565b600080600084600160a060020a0316610acb8561061e565b600160a060020a031614610ade57600080fd5b6000848152600560205260409020549250610b096001610afd87610639565b9063ffffffff610cdd16565b600160a060020a038616600090815260046020526040902080549193509083908110610b3157fe5b60009182526020808320909101548683526002825260408084208054600160a060020a0319169055600160a060020a0389168452600490925291208054919250829185908110610b7d57fe5b6000918252602080832090910192909255600160a060020a0387168152600490915260408120805484908110610baf57fe5b6000918252602080832090910192909255600160a060020a0387168152600490915260409020805490610be6906000198301610d17565b50600084815260056020526040808220829055828252812084905554610c1390600163ffffffff610cdd16565b6000555050505050565b600081815260026020526040812054600160a060020a031615610c3f57600080fd5b60008281526002602052604090208054600160a060020a031916600160a060020a038516179055610c6f83610639565b600160a060020a038416600090815260046020526040902080549192509060018101610c9b8382610d17565b506000918252602080832091909101849055838252600590526040812082905554610ccd90600163ffffffff610cef16565b600055505050565b6000903b1190565b600082821115610ce957fe5b50900390565b600082820183811015610cfe57fe5b9392505050565b60206040519081016040526000815290565b8154818355818115116105615760008381526020902061056191810190830161054491905b80821115610d505760008155600101610d3c565b5090565b60018060007f095ea7b3000000000000000000000000000000000000000000000000000000006040517f6973417070726f76656428616464726573732c616464726573732c75696e743281527f3536290000000000000000000000000000000000000000000000000000000000602082015260230160405180910390206040517f6973417070726f76656428616464726573732c616464726573732900000000008152601b016040519081900390207f6352211e000000000000000000000000000000000000000000000000000000007f70a08231000000000000000000000000000000000000000000000000000000007fa22cb465000000000000000000000000000000000000000000000000000000007f18160ddd000000000000000000000000000000000000000000000000000000006040517f7472616e7366657246726f6d28616464726573732c616464726573732c75696e81527f743235362c6279746573290000000000000000000000000000000000000000006020820152602b0160405180910390206040517f7472616e7366657246726f6d28616464726573732c616464726573732c75696e81527f743235362900000000000000000000000000000000000000000000000000000060208201526025016040519081900390207f01ffc9a7000000000000000000000000000000000000000000000000000000009118919091189190911891909118919091189190911891909118919091188118600160e060020a031916825260208083019390935260409091016000908120805460ff19908116951515959095179055526001908190527fb45820386466a8e01597d6e1efaf8f11ba4467972de5ca6c1f8aa3544ac2888e80549092161790555600a165627a7a7230582030c0c77f0344edd2f7f71a73ce34334b0880b1b3ed7ce1a7a4c60da8ffa80ea200297472616e7366657246726f6d28616464726573732c616464726573732c75696e",
  "source": "pragma solidity ^0.4.18;\r\n\r\nimport \"./library/SafeMath.sol\";\r\nimport \"./library/ERC721Receiver.sol\";\r\nimport \"./library/AddressUtils.sol\";\r\n\r\n/**\r\n * @title ERC721Token\r\n * Implementation for the required functionality of the ERC721 standard\r\n * www.erc721.org as of 3/5/2018\r\n */\r\ncontract ERC721 {\r\n  using SafeMath for uint256;\r\n  using AddressUtils for address;\r\n  //The total number of tokens in existence\r\n  uint256 public totalTokens;\r\n      // Equals to `bytes4(keccak256(\"onERC721Received(address,uint256,bytes)\"))`\r\n  // which can be also obtained as `ERC721Receiver(0).onERC721Received.selector`\r\n  bytes4 constant ERC721_RECEIVED = 0xf0b9e5ba;\r\n  //A list of functions / interfaces supported by this contract\r\n  mapping(bytes4 => bool) internal supportedInterfaces;\r\n  //A mapping from the token ID to the owner of the token.\r\n  mapping(uint256 => address) tokenOwner;\r\n  //A mapping from tokenIDs to an address that has been approved to call\r\n  mapping(uint256 => address) tokenApproval;\r\n  // Mapping from owner to list of owned token IDs\r\n  mapping(address => uint256[]) ownedTokens;\r\n  // Mapping from token ID to index of the owner tokens list\r\n  mapping(uint256 => uint256) ownedTokensIndex;\r\n  //For assigning a total control of all tokens owned\r\n  mapping(address => address) approvedForAll;\r\n\r\n  event Transfer(address indexed _from, address indexed _to, uint256 _tokenId);\r\n  event ApprovalForAll(address indexed _owner, address indexed _operator, bool _approved);\r\n  event Approval(address indexed _owner, address indexed _operator, uint256 _tokenId);\r\n\r\n  /**\r\n  * @dev Guarantees msg.sender is owner of the given token\r\n  * @param _tokenId uint256 ID of the token to validate its ownership belongs to msg.sender\r\n  */\r\n  modifier onlyOwnerOf(uint256 _tokenId) {\r\n    require(ownerOf(_tokenId) == msg.sender);\r\n    _;\r\n  }\r\n\r\n  /***FUNCTIONS***/\r\n    /**\r\n   * @dev Constructor, it sets the interfaces (ERC721, ERC165)\r\n  */\r\n  function ERC721() public{\r\n    setInterface();\r\n  }\r\n\r\n  /**\r\n   * @dev Checks if this contract meeets a specific standard\r\n   * @param interfaceID bytes4 of the bytecode of a specific function or group of functions\r\n   * @return bool representing whether the bytecode is supported\r\n  */\r\n  function supportsInterface(bytes4 interfaceID) external view returns (bool) {\r\n        return supportedInterfaces[interfaceID];\r\n  }\r\n\r\n  \r\n\r\n  /** \r\n   * @dev Transfers a specific pet from one address to another\r\n   * @param _from is the address that the token will be sent from\r\n   * @param _to is the address we are sending the token to\r\n   * @param _tokenId the numeric identifier of a token\r\n  */\r\n  function transferFrom(address _from, address _to, uint256 _tokenId) public{\r\n    transferFrom(_from,_to,_tokenId,\"\");\r\n  }\r\n\r\n  /**\r\n  * @dev This overload transferFrom function is required on ERC721.org\r\n  * @param _from is the address that the token will be sent from\r\n  * @param _to is the address we are sending the token to\r\n  * @param _tokenId the uint256 numeric identifier of a token\r\n  * @param _data is the bytes data which will be logged with the transfer\r\n  */\r\n  function transferFrom(address _from, address _to, uint256 _tokenId, bytes _data) public{\r\n    require(approvedFor(_tokenId)==msg.sender || isApproved(msg.sender,_from)|| ownerOf(_tokenId)==msg.sender);\r\n    require (_to != address(0));\r\n    clearApprovalAndTransfer(_from,_to,_tokenId);\r\n  }\r\n\r\n\r\n  /** \r\n   * @dev Transfers a specific pet from one address to another\r\n   * @param _from is the address that the token will be sent from\r\n   * @param _to is the address we are sending the token to\r\n   * @param _tokenId the numeric identifier of a token\r\n  */\r\n  function safeTransferFrom(address _from, address _to, uint256 _tokenId) public{\r\n      safeTransferFrom(_from, _to, _tokenId,\"\");\r\n  }\r\n\r\n  /**\r\n  * @dev This overload transferFrom function is required on ERC721.org\r\n  * @param _from is the address that the token will be sent from\r\n  * @param _to is the address we are sending the token to\r\n  * @param _tokenId the uint256 numeric identifier of a token\r\n  * @param _data is the bytes data which will be logged with the transfer\r\n  */\r\n  function safeTransferFrom(address _from, address _to, uint256 _tokenId, bytes _data) public{\r\n    transferFrom(_from, _to, _tokenId);\r\n    require(checkAndCallSafeTransfer(_from, _to, _tokenId, _data));\r\n  }\r\n\r\n\r\n\r\n  /**\r\n  * @dev This function approves or dissaproves another address for control over the tokens owned by the sender\r\n  * @param _operator is the address that will be approved by the sender\r\n  * @param _approved is a bool with true as approve, false to remove approval\r\n  */\r\n  function setApprovalForAll(address _operator, bool _approved) public{\r\n        if(_approved){\r\n          approvedForAll[msg.sender] = _operator;\r\n        }\r\n        else{\r\n          approvedForAll[msg.sender] = address(0);\r\n        }\r\n        ApprovalForAll(msg.sender,_operator,_approved);\r\n  }\r\n\r\n  /**\r\n  * @dev Gets the total amount of tokens stored by the contract\r\n  * @return uint256 representing the total amount of tokens\r\n  */\r\n  function totalSupply() public view returns (uint256) {\r\n    return totalTokens;\r\n  }\r\n\r\n  /**\r\n  * @dev Gets the balance of the specified address\r\n  * @param _owner address to query the balance of\r\n  * @return uint256 representing the amount owned by the passed address\r\n  */\r\n  function balanceOf(address _owner) public view returns (uint256) {\r\n    return ownedTokens[_owner].length;\r\n  }\r\n\r\n  /**\r\n  * @dev Gets the list of tokens owned by a given address\r\n  * @param _owner address to query the tokens of\r\n  * @return uint256[] representing the list of tokens owned by the passed address\r\n  */\r\n  function tokensOf(address _owner) public view returns (uint256[]) {\r\n    return ownedTokens[_owner];\r\n  }\r\n\r\n  /**\r\n  * @dev Gets the owner of the specified token ID\r\n  * @param _tokenId uint256 ID of the token to query the owner of\r\n  * @return owner address currently marked as the owner of the given token ID\r\n  */\r\n  function ownerOf(uint256 _tokenId) public view returns (address) {\r\n    address owner = tokenOwner[_tokenId];\r\n    return owner;\r\n  }\r\n\r\n  /**\r\n   * @dev Gets the approved address to take ownership of a given token ID\r\n   * @param _tokenId uint256 ID of the token to query the approval of\r\n   * @return address currently approved to take ownership of the given token ID\r\n   */\r\n  function approvedFor(uint256 _tokenId) public view returns (address) {\r\n    return tokenApproval[_tokenId];\r\n  }\r\n\r\n  /**\r\n  * @dev This function checks whether an address has control over the tokens owned by another address\r\n  * @param _operator is the approved address\r\n  * @param _owner is the address to be checked if they gave approval\r\n  */\r\n  function isApproved(address _operator, address _owner) public constant returns (bool){\r\n    return(approvedForAll[_owner] == _operator);\r\n  }\r\n  \r\n  /**\r\n  * @dev This function checks whether an address has control over a specific token owned by another address\r\n  * @param _operator is the approved address\r\n  * @param _owner is the address to be checked if they gave approval\r\n  * @param _tokenId uint256 ID of the token to query the approval of\r\n  */\r\n  function isApproved(address _operator, address _owner, uint256 _tokenId) public constant returns (bool){\r\n      return(tokenApproval[_tokenId] == _operator && ownedTokens[_owner][ownedTokensIndex[_tokenId]] == _tokenId);\r\n  }\r\n  /**\r\n  * @dev Approves another address to claim for the ownership of the given token ID\r\n  * @param _to address to be approved for the given token ID\r\n  * @param _tokenId uint256 ID of the token to be approved\r\n  */\r\n  function approve(address _to, uint256 _tokenId) public onlyOwnerOf(_tokenId) {\r\n    require(_to != msg.sender);\r\n    tokenApproval[_tokenId] = _to;\r\n    Approval(msg.sender, _to, _tokenId);\r\n  }\r\n\r\n      /***INTERNAL FUNCTIONS***/\r\n  /**\r\n  * @dev Internal function to clear current approval and transfer the ownership of a given token ID\r\n  * @param _from address which you want to send tokens from\r\n  * @param _to address which you want to transfer the token to\r\n  * @param _tokenId uint256 ID of the token to be transferred\r\n  */\r\n  function clearApprovalAndTransfer(address _from, address _to, uint256 _tokenId) internal {\r\n    require(_to != address(0));\r\n    require(_to != ownerOf(_tokenId));\r\n    require(ownerOf(_tokenId) == _from );\r\n    tokenApproval[_tokenId] = address(0);\r\n    if(_from != address(0)){\r\n      removeToken(_from, _tokenId);\r\n    }\r\n    addToken(_to, _tokenId);\r\n    Transfer(_from, _to, _tokenId);\r\n  }\r\n  /**\r\n  * @dev Internal function to add a token ID to the list of a given address\r\n  * @param _to address representing the new owner of the given token ID\r\n  * @param _tokenId uint256 ID of the token to be added to the tokens list of the given address\r\n  */\r\n  function addToken(address _to, uint256 _tokenId) internal {\r\n    require(tokenOwner[_tokenId] == address(0));\r\n    tokenOwner[_tokenId] = _to;\r\n    uint256 length = balanceOf(_to);\r\n    ownedTokens[_to].push(_tokenId);\r\n    ownedTokensIndex[_tokenId] = length;\r\n    totalTokens = totalTokens.add(1);\r\n  }\r\n  /**\r\n  * @dev Internal function to remove a token ID from the list of a given address\r\n  * @param _from address representing the previous owner of the given token ID\r\n  * @param _tokenId uint256 ID of the token to be removed from the tokens list of the given address\r\n  */\r\n  function removeToken(address _from, uint256 _tokenId) internal {\r\n    require(ownerOf(_tokenId) == _from);\r\n    uint256 tokenIndex = ownedTokensIndex[_tokenId];\r\n    uint256 lastTokenIndex = balanceOf(_from).sub(1);\r\n    uint256 lastToken = ownedTokens[_from][lastTokenIndex];\r\n    tokenOwner[_tokenId] = 0;\r\n    ownedTokens[_from][tokenIndex] = lastToken;\r\n    ownedTokens[_from][lastTokenIndex] = 0;\r\n    // Note that this will handle single-element arrays. In that case, both tokenIndex and lastTokenIndex are going to\r\n    // be zero. Then we can make sure that we will remove _tokenId from the ownedTokens list since we are first swapping\r\n    // the lastToken to the first position, and then dropping the element placed in the last position of the list\r\n    ownedTokens[_from].length--;\r\n    ownedTokensIndex[_tokenId] = 0;\r\n    ownedTokensIndex[lastToken] = tokenIndex;\r\n    totalTokens = totalTokens.sub(1);\r\n  }\r\n\r\n  /** \r\n   * @dev States that code is stating that this contract meets ERC721 and ERC165 specifications\r\n  */\r\n  function setInterface() internal{\r\n          supportedInterfaces[this.supportsInterface.selector\r\n           ^ bytes4(keccak256(\"transferFrom(address,address,uint256)\"))\r\n           ^ bytes4(keccak256(\"transferFrom(address,address,uint256,bytes)\"))\r\n           ^ this.totalSupply.selector\r\n           ^ this.setApprovalForAll.selector\r\n           ^ this.balanceOf.selector\r\n           ^ this.ownerOf.selector\r\n           ^ bytes4(keccak256(\"isApproved(address,address)\"))\r\n           ^ bytes4(keccak256(\"isApproved(address,address,uint256)\"))\r\n           ^ this.approve.selector\r\n          ] = true;\r\n          supportedInterfaces[this.supportsInterface.selector\r\n          ] = true;\r\n  }\r\n\r\n  \r\n    /**\r\n  * @dev Internal function to invoke `onERC721Received` on a target address\r\n  * @dev The call is not executed if the target address is not a contract\r\n  * @param _from address representing the previous owner of the given token ID\r\n  * @param _to target address that will receive the tokens\r\n  * @param _tokenId uint256 ID of the token to be transferred\r\n  * @param _data bytes optional data to send along with the call\r\n  * @return whether the call correctly returned the expected magic value\r\n  */\r\n  function checkAndCallSafeTransfer(\r\n    address _from,\r\n    address _to,\r\n    uint256 _tokenId,\r\n    bytes _data\r\n  )\r\n    internal\r\n    returns (bool)\r\n  {\r\n    if (!_to.isContract()) {\r\n      return true;\r\n    }\r\n    bytes4 retval = ERC721Receiver(_to).onERC721Received(_from, _tokenId, _data);\r\n    return (retval == ERC721_RECEIVED);\r\n  }\r\n    /**\r\n   * @notice Handle the receipt of an NFT\r\n   * @dev The ERC721 smart contract calls this function on the recipient\r\n   *  after a `safetransfer`. This function MAY throw to revert and reject the\r\n   *  transfer. This function MUST use 50,000 gas or less. Return of other\r\n   *  than the magic value MUST result in the transaction being reverted.\r\n   *  Note: the contract address is always the message sender.\r\n   * _from The sending address\r\n   * _tokenId The NFT identifier which is being transfered\r\n   * _data Additional data with no specified format\r\n   * @return `bytes4(keccak256(\"onERC721Received(address,uint256,bytes)\"))`\r\n   */\r\n  function onERC721Received(address, uint256, bytes) public view returns(bytes4) {\r\n    return ERC721_RECEIVED;\r\n  }\r\n}",
  "sourcePath": "C:\\Nick\\consulting\\photocoin\\contracts\\ERC721.sol",
  "compiler": {
    "name": "solc",
    "version": "0.4.19+commit.c4cbbb05.Emscripten.clang"
  },
  "schemaVersion": "1.0.1",
  "updatedAt": "2018-04-04T02:00:29.094Z"
}