{
  "contractName": "PhotoMarket",
  "abi": [
    {
      "constant": true,
      "inputs": [
        {
          "name": "",
          "type": "uint256"
        }
      ],
      "name": "forSale",
      "outputs": [
        {
          "name": "",
          "type": "uint256"
        }
      ],
      "payable": false,
      "stateMutability": "view",
      "type": "function"
    },
    {
      "constant": true,
      "inputs": [
        {
          "name": "",
          "type": "uint256"
        }
      ],
      "name": "forLease",
      "outputs": [
        {
          "name": "",
          "type": "uint256"
        }
      ],
      "payable": false,
      "stateMutability": "view",
      "type": "function"
    },
    {
      "constant": true,
      "inputs": [
        {
          "name": "",
          "type": "uint256"
        },
        {
          "name": "",
          "type": "uint256"
        }
      ],
      "name": "leases",
      "outputs": [
        {
          "name": "maker",
          "type": "address"
        },
        {
          "name": "price",
          "type": "uint256"
        }
      ],
      "payable": false,
      "stateMutability": "view",
      "type": "function"
    },
    {
      "constant": true,
      "inputs": [],
      "name": "owner",
      "outputs": [
        {
          "name": "",
          "type": "address"
        }
      ],
      "payable": false,
      "stateMutability": "view",
      "type": "function"
    },
    {
      "constant": true,
      "inputs": [],
      "name": "highestBidder",
      "outputs": [
        {
          "name": "",
          "type": "address"
        }
      ],
      "payable": false,
      "stateMutability": "view",
      "type": "function"
    },
    {
      "constant": true,
      "inputs": [
        {
          "name": "",
          "type": "uint256"
        }
      ],
      "name": "orders",
      "outputs": [
        {
          "name": "maker",
          "type": "address"
        },
        {
          "name": "price",
          "type": "uint256"
        }
      ],
      "payable": false,
      "stateMutability": "view",
      "type": "function"
    },
    {
      "constant": true,
      "inputs": [],
      "name": "highestBid",
      "outputs": [
        {
          "name": "",
          "type": "uint256"
        }
      ],
      "payable": false,
      "stateMutability": "view",
      "type": "function"
    },
    {
      "inputs": [],
      "payable": false,
      "stateMutability": "nonpayable",
      "type": "constructor"
    },
    {
      "payable": true,
      "stateMutability": "payable",
      "type": "fallback"
    },
    {
      "anonymous": false,
      "inputs": [
        {
          "indexed": false,
          "name": "bidder",
          "type": "address"
        },
        {
          "indexed": false,
          "name": "amount",
          "type": "uint256"
        }
      ],
      "name": "HighestBidIncreased",
      "type": "event"
    },
    {
      "anonymous": false,
      "inputs": [
        {
          "indexed": false,
          "name": "winner",
          "type": "address"
        },
        {
          "indexed": false,
          "name": "amount",
          "type": "uint256"
        }
      ],
      "name": "AuctionEnded",
      "type": "event"
    },
    {
      "anonymous": false,
      "inputs": [
        {
          "indexed": false,
          "name": "_tokenId",
          "type": "uint256"
        },
        {
          "indexed": false,
          "name": "_seller",
          "type": "address"
        },
        {
          "indexed": false,
          "name": "_price",
          "type": "uint256"
        }
      ],
      "name": "OrderPlaced",
      "type": "event"
    },
    {
      "anonymous": false,
      "inputs": [
        {
          "indexed": false,
          "name": "_buyer",
          "type": "address"
        },
        {
          "indexed": false,
          "name": "_seller",
          "type": "address"
        },
        {
          "indexed": false,
          "name": "_tokenId",
          "type": "uint256"
        },
        {
          "indexed": false,
          "name": "_price",
          "type": "uint256"
        }
      ],
      "name": "Sale",
      "type": "event"
    },
    {
      "anonymous": false,
      "inputs": [
        {
          "indexed": false,
          "name": "_tokenId",
          "type": "uint256"
        }
      ],
      "name": "OrderRemoved",
      "type": "event"
    },
    {
      "anonymous": false,
      "inputs": [
        {
          "indexed": false,
          "name": "_tokenId",
          "type": "uint256"
        },
        {
          "indexed": false,
          "name": "_seller",
          "type": "address"
        },
        {
          "indexed": false,
          "name": "_price",
          "type": "uint256"
        }
      ],
      "name": "LeaseOrderPlaced",
      "type": "event"
    },
    {
      "anonymous": false,
      "inputs": [
        {
          "indexed": false,
          "name": "_buyer",
          "type": "address"
        },
        {
          "indexed": false,
          "name": "_seller",
          "type": "address"
        },
        {
          "indexed": false,
          "name": "_tokenId",
          "type": "uint256"
        },
        {
          "indexed": false,
          "name": "_price",
          "type": "uint256"
        }
      ],
      "name": "Lease",
      "type": "event"
    },
    {
      "anonymous": false,
      "inputs": [
        {
          "indexed": false,
          "name": "_tokenId",
          "type": "uint256"
        }
      ],
      "name": "LeaseOrderRemoved",
      "type": "event"
    },
    {
      "constant": false,
      "inputs": [
        {
          "name": "_tokenId",
          "type": "uint256"
        },
        {
          "name": "_price",
          "type": "uint256"
        }
      ],
      "name": "listPhoto",
      "outputs": [],
      "payable": false,
      "stateMutability": "nonpayable",
      "type": "function"
    },
    {
      "constant": false,
      "inputs": [
        {
          "name": "_tokenId",
          "type": "uint256"
        }
      ],
      "name": "unlistPhoto",
      "outputs": [],
      "payable": false,
      "stateMutability": "nonpayable",
      "type": "function"
    },
    {
      "constant": false,
      "inputs": [
        {
          "name": "_tokenId",
          "type": "uint256"
        }
      ],
      "name": "buyPhoto",
      "outputs": [],
      "payable": true,
      "stateMutability": "payable",
      "type": "function"
    },
    {
      "constant": false,
      "inputs": [
        {
          "name": "_tokenId",
          "type": "uint256"
        },
        {
          "name": "_price",
          "type": "uint256"
        }
      ],
      "name": "listLease",
      "outputs": [],
      "payable": false,
      "stateMutability": "nonpayable",
      "type": "function"
    },
    {
      "constant": false,
      "inputs": [
        {
          "name": "_tokenId",
          "type": "uint256"
        }
      ],
      "name": "unlistLease",
      "outputs": [],
      "payable": false,
      "stateMutability": "nonpayable",
      "type": "function"
    },
    {
      "constant": false,
      "inputs": [
        {
          "name": "_tokenId",
          "type": "uint256"
        }
      ],
      "name": "buyLease",
      "outputs": [],
      "payable": true,
      "stateMutability": "payable",
      "type": "function"
    },
    {
      "constant": true,
      "inputs": [
        {
          "name": "_tokenId",
          "type": "uint256"
        }
      ],
      "name": "getOrder",
      "outputs": [
        {
          "name": "",
          "type": "address"
        },
        {
          "name": "",
          "type": "uint256"
        }
      ],
      "payable": false,
      "stateMutability": "view",
      "type": "function"
    },
    {
      "constant": false,
      "inputs": [
        {
          "name": "_owner",
          "type": "address"
        }
      ],
      "name": "setOwner",
      "outputs": [],
      "payable": false,
      "stateMutability": "nonpayable",
      "type": "function"
    },
    {
      "constant": false,
      "inputs": [
        {
          "name": "_token",
          "type": "address"
        }
      ],
      "name": "setToken",
      "outputs": [],
      "payable": false,
      "stateMutability": "nonpayable",
      "type": "function"
    },
    {
      "constant": false,
      "inputs": [
        {
          "name": "_address",
          "type": "address"
        },
        {
          "name": "_motion",
          "type": "bool"
        }
      ],
      "name": "blacklistParty",
      "outputs": [],
      "payable": false,
      "stateMutability": "nonpayable",
      "type": "function"
    },
    {
      "constant": true,
      "inputs": [
        {
          "name": "_address",
          "type": "address"
        }
      ],
      "name": "isBlacklist",
      "outputs": [
        {
          "name": "",
          "type": "bool"
        }
      ],
      "payable": false,
      "stateMutability": "view",
      "type": "function"
    },
    {
      "constant": true,
      "inputs": [],
      "name": "getOrderCount",
      "outputs": [
        {
          "name": "",
          "type": "uint256"
        }
      ],
      "payable": false,
      "stateMutability": "view",
      "type": "function"
    }
  ],
  "bytecode": "0x606060405234156200001057600080fd5b33600160006101000a81548173ffffffffffffffffffffffffffffffffffffffff021916908373ffffffffffffffffffffffffffffffffffffffff16021790555060038054806001018281620000679190620000ad565b91600052602060002090016000809091909150555060078054806001018281620000929190620000ad565b91600052602060002090016000809091909150555062000104565b815481835581811511620000d757818360005260206000209182019101620000d69190620000dc565b5b505050565b6200010191905b80821115620000fd576000816000905550600101620000e3565b5090565b90565b611e4280620001146000396000f300606060405260043610610107576000357c0100000000000000000000000000000000000000000000000000000000900463ffffffff16806313af403514610118578063144fa6d7146101515780632831f2f41461018a578063303afd3f146101c1578063333e99db146101f85780633d17ec25146102495780634a3ac43b14610275578063535896dd1461028d5780635ac5ba71146102b957806382386213146102fd5780638d0a5fbb146103705780638da5cb5b1461039957806391f90157146103ee578063a85c38ef14610443578063b2bf5826146104ad578063d09ef241146104c5578063d57bde791461052f578063e7fa0af814610558578063eac8fd611461057b575b60003414151561011657600080fd5b005b341561012357600080fd5b61014f600480803573ffffffffffffffffffffffffffffffffffffffff1690602001909190505061059e565b005b341561015c57600080fd5b610188600480803573ffffffffffffffffffffffffffffffffffffffff1690602001909190505061063e565b005b341561019557600080fd5b6101ab60048080359060200190919050506106dd565b6040518082815260200191505060405180910390f35b34156101cc57600080fd5b6101e26004808035906020019091905050610701565b6040518082815260200191505060405180910390f35b341561020357600080fd5b61022f600480803573ffffffffffffffffffffffffffffffffffffffff16906020019091905050610725565b604051808215151515815260200191505060405180910390f35b341561025457600080fd5b610273600480803590602001909190803590602001909190505061077b565b005b61028b6004808035906020019091905050610b2f565b005b341561029857600080fd5b6102b76004808035906020019091908035906020019091905050610e35565b005b34156102c457600080fd5b6102fb600480803573ffffffffffffffffffffffffffffffffffffffff1690602001909190803515159060200190919050506111e9565b005b341561030857600080fd5b61032760048080359060200190919080359060200190919050506112a0565b604051808373ffffffffffffffffffffffffffffffffffffffff1673ffffffffffffffffffffffffffffffffffffffff1681526020018281526020019250505060405180910390f35b341561037b57600080fd5b610383611300565b6040518082815260200191505060405180910390f35b34156103a457600080fd5b6103ac61130d565b604051808273ffffffffffffffffffffffffffffffffffffffff1673ffffffffffffffffffffffffffffffffffffffff16815260200191505060405180910390f35b34156103f957600080fd5b610401611333565b604051808273ffffffffffffffffffffffffffffffffffffffff1673ffffffffffffffffffffffffffffffffffffffff16815260200191505060405180910390f35b341561044e57600080fd5b6104646004808035906020019091905050611359565b604051808373ffffffffffffffffffffffffffffffffffffffff1673ffffffffffffffffffffffffffffffffffffffff1681526020018281526020019250505060405180910390f35b6104c3600480803590602001909190505061139d565b005b34156104d057600080fd5b6104e660048080359060200190919050506116a3565b604051808373ffffffffffffffffffffffffffffffffffffffff1673ffffffffffffffffffffffffffffffffffffffff1681526020018281526020019250505060405180910390f35b341561053a57600080fd5b6105426116f1565b6040518082815260200191505060405180910390f35b341561056357600080fd5b61057960048080359060200190919050506116f7565b005b341561058657600080fd5b61059c6004808035906020019091905050611986565b005b600160009054906101000a900473ffffffffffffffffffffffffffffffffffffffff1673ffffffffffffffffffffffffffffffffffffffff163373ffffffffffffffffffffffffffffffffffffffff161415156105fa57600080fd5b80600160006101000a81548173ffffffffffffffffffffffffffffffffffffffff021916908373ffffffffffffffffffffffffffffffffffffffff16021790555050565b600160009054906101000a900473ffffffffffffffffffffffffffffffffffffffff1673ffffffffffffffffffffffffffffffffffffffff163373ffffffffffffffffffffffffffffffffffffffff1614151561069a57600080fd5b806000806101000a81548173ffffffffffffffffffffffffffffffffffffffff021916908373ffffffffffffffffffffffffffffffffffffffff16021790555050565b6003818154811015156106ec57fe5b90600052602060002090016000915090505481565b60078181548110151561071057fe5b90600052602060002090016000915090505481565b6000600960008373ffffffffffffffffffffffffffffffffffffffff1673ffffffffffffffffffffffffffffffffffffffff16815260200190815260200160002060009054906101000a900460ff169050919050565b3373ffffffffffffffffffffffffffffffffffffffff166000809054906101000a900473ffffffffffffffffffffffffffffffffffffffff1673ffffffffffffffffffffffffffffffffffffffff16636352211e846000604051602001526040518263ffffffff167c010000000000000000000000000000000000000000000000000000000002815260040180828152602001915050602060405180830381600087803b151561082a57600080fd5b6102c65a03f1151561083b57600080fd5b5050506040518051905073ffffffffffffffffffffffffffffffffffffffff1614151561086757600080fd5b60001515600960003373ffffffffffffffffffffffffffffffffffffffff1673ffffffffffffffffffffffffffffffffffffffff16815260200190815260200160002060009054906101000a900460ff1615151415156108c657600080fd5b6000811115156108d557600080fd5b6000809054906101000a900473ffffffffffffffffffffffffffffffffffffffff1673ffffffffffffffffffffffffffffffffffffffff166323b872dd3330856040518463ffffffff167c0100000000000000000000000000000000000000000000000000000000028152600401808473ffffffffffffffffffffffffffffffffffffffff1673ffffffffffffffffffffffffffffffffffffffff1681526020018373ffffffffffffffffffffffffffffffffffffffff1673ffffffffffffffffffffffffffffffffffffffff1681526020018281526020019350505050600060405180830381600087803b15156109cc57600080fd5b6102c65a03f115156109dd57600080fd5b505050600380549050600460008481526020019081526020016000208190555060038054806001018281610a119190611d69565b91600052602060002090016000849091909150555060408051908101604052803373ffffffffffffffffffffffffffffffffffffffff168152602001828152506002600084815260200190815260200160002060008201518160000160006101000a81548173ffffffffffffffffffffffffffffffffffffffff021916908373ffffffffffffffffffffffffffffffffffffffff160217905550602082015181600101559050507f291c9d431146e4de667c04a6a738ed159e6dae2aaa909d85ca8ff7416719a609823383604051808481526020018373ffffffffffffffffffffffffffffffffffffffff1673ffffffffffffffffffffffffffffffffffffffff168152602001828152602001935050505060405180910390a15050565b610b37611d95565b6000600260008481526020019081526020016000206040805190810160405290816000820160009054906101000a900473ffffffffffffffffffffffffffffffffffffffff1673ffffffffffffffffffffffffffffffffffffffff1673ffffffffffffffffffffffffffffffffffffffff1681526020016001820154815250509150816020015134141515610bcb57600080fd5b60001515600960003373ffffffffffffffffffffffffffffffffffffffff1673ffffffffffffffffffffffffffffffffffffffff16815260200190815260200160002060009054906101000a900460ff161515141515610c2a57600080fd5b816000015190506000809054906101000a900473ffffffffffffffffffffffffffffffffffffffff1673ffffffffffffffffffffffffffffffffffffffff166323b872dd3033866040518463ffffffff167c0100000000000000000000000000000000000000000000000000000000028152600401808473ffffffffffffffffffffffffffffffffffffffff1673ffffffffffffffffffffffffffffffffffffffff1681526020018373ffffffffffffffffffffffffffffffffffffffff1673ffffffffffffffffffffffffffffffffffffffff1681526020018281526020019350505050600060405180830381600087803b1515610d2857600080fd5b6102c65a03f11515610d3957600080fd5b505050610d4583611c15565b8073ffffffffffffffffffffffffffffffffffffffff166108fc349081150290604051600060405180830381858888f193505050501515610d8557600080fd5b7f681ddc67ea8796d2489979f5fc2ea2eb0f2d44ff3f11f061a191928a1f3d9a063382858560200151604051808573ffffffffffffffffffffffffffffffffffffffff1673ffffffffffffffffffffffffffffffffffffffff1681526020018473ffffffffffffffffffffffffffffffffffffffff1673ffffffffffffffffffffffffffffffffffffffff16815260200183815260200182815260200194505050505060405180910390a1505050565b3373ffffffffffffffffffffffffffffffffffffffff166000809054906101000a900473ffffffffffffffffffffffffffffffffffffffff1673ffffffffffffffffffffffffffffffffffffffff16636352211e846000604051602001526040518263ffffffff167c010000000000000000000000000000000000000000000000000000000002815260040180828152602001915050602060405180830381600087803b1515610ee457600080fd5b6102c65a03f11515610ef557600080fd5b5050506040518051905073ffffffffffffffffffffffffffffffffffffffff16141515610f2157600080fd5b60001515600960003373ffffffffffffffffffffffffffffffffffffffff1673ffffffffffffffffffffffffffffffffffffffff16815260200190815260200160002060009054906101000a900460ff161515141515610f8057600080fd5b600081111515610f8f57600080fd5b6000809054906101000a900473ffffffffffffffffffffffffffffffffffffffff1673ffffffffffffffffffffffffffffffffffffffff166323b872dd3330856040518463ffffffff167c0100000000000000000000000000000000000000000000000000000000028152600401808473ffffffffffffffffffffffffffffffffffffffff1673ffffffffffffffffffffffffffffffffffffffff1681526020018373ffffffffffffffffffffffffffffffffffffffff1673ffffffffffffffffffffffffffffffffffffffff1681526020018281526020019350505050600060405180830381600087803b151561108657600080fd5b6102c65a03f1151561109757600080fd5b5050506003805490506004600084815260200190815260200160002081905550600380548060010182816110cb9190611d69565b91600052602060002090016000849091909150555060408051908101604052803373ffffffffffffffffffffffffffffffffffffffff168152602001828152506002600084815260200190815260200160002060008201518160000160006101000a81548173ffffffffffffffffffffffffffffffffffffffff021916908373ffffffffffffffffffffffffffffffffffffffff160217905550602082015181600101559050507f291c9d431146e4de667c04a6a738ed159e6dae2aaa909d85ca8ff7416719a609823383604051808481526020018373ffffffffffffffffffffffffffffffffffffffff1673ffffffffffffffffffffffffffffffffffffffff168152602001828152602001935050505060405180910390a15050565b600160009054906101000a900473ffffffffffffffffffffffffffffffffffffffff1673ffffffffffffffffffffffffffffffffffffffff163373ffffffffffffffffffffffffffffffffffffffff1614151561124557600080fd5b80600960008473ffffffffffffffffffffffffffffffffffffffff1673ffffffffffffffffffffffffffffffffffffffff16815260200190815260200160002060006101000a81548160ff0219169083151502179055505050565b6005602052816000526040600020818154811015156112bb57fe5b9060005260206000209060020201600091509150508060000160009054906101000a900473ffffffffffffffffffffffffffffffffffffffff16908060010154905082565b6000600380549050905090565b600160009054906101000a900473ffffffffffffffffffffffffffffffffffffffff1681565b600a60009054906101000a900473ffffffffffffffffffffffffffffffffffffffff1681565b60026020528060005260406000206000915090508060000160009054906101000a900473ffffffffffffffffffffffffffffffffffffffff16908060010154905082565b6113a5611d95565b6000600260008481526020019081526020016000206040805190810160405290816000820160009054906101000a900473ffffffffffffffffffffffffffffffffffffffff1673ffffffffffffffffffffffffffffffffffffffff1673ffffffffffffffffffffffffffffffffffffffff168152602001600182015481525050915081602001513414151561143957600080fd5b60001515600960003373ffffffffffffffffffffffffffffffffffffffff1673ffffffffffffffffffffffffffffffffffffffff16815260200190815260200160002060009054906101000a900460ff16151514151561149857600080fd5b816000015190506000809054906101000a900473ffffffffffffffffffffffffffffffffffffffff1673ffffffffffffffffffffffffffffffffffffffff166323b872dd3033866040518463ffffffff167c0100000000000000000000000000000000000000000000000000000000028152600401808473ffffffffffffffffffffffffffffffffffffffff1673ffffffffffffffffffffffffffffffffffffffff1681526020018373ffffffffffffffffffffffffffffffffffffffff1673ffffffffffffffffffffffffffffffffffffffff1681526020018281526020019350505050600060405180830381600087803b151561159657600080fd5b6102c65a03f115156115a757600080fd5b5050506115b383611c15565b8073ffffffffffffffffffffffffffffffffffffffff166108fc349081150290604051600060405180830381858888f1935050505015156115f357600080fd5b7f681ddc67ea8796d2489979f5fc2ea2eb0f2d44ff3f11f061a191928a1f3d9a063382858560200151604051808573ffffffffffffffffffffffffffffffffffffffff1673ffffffffffffffffffffffffffffffffffffffff1681526020018473ffffffffffffffffffffffffffffffffffffffff1673ffffffffffffffffffffffffffffffffffffffff16815260200183815260200182815260200194505050505060405180910390a1505050565b60008060006002600085815260200190815260200160002090508060000160009054906101000a900473ffffffffffffffffffffffffffffffffffffffff1681600101549250925050915091565b600b5481565b6116ff611d95565b6000600460008481526020019081526020016000205411151561172157600080fd5b600260008381526020019081526020016000206040805190810160405290816000820160009054906101000a900473ffffffffffffffffffffffffffffffffffffffff1673ffffffffffffffffffffffffffffffffffffffff1673ffffffffffffffffffffffffffffffffffffffff1681526020016001820154815250509050806000015173ffffffffffffffffffffffffffffffffffffffff163373ffffffffffffffffffffffffffffffffffffffff16148061182c5750600160009054906101000a900473ffffffffffffffffffffffffffffffffffffffff1673ffffffffffffffffffffffffffffffffffffffff163373ffffffffffffffffffffffffffffffffffffffff16145b151561183757600080fd5b61184082611c15565b6000809054906101000a900473ffffffffffffffffffffffffffffffffffffffff1673ffffffffffffffffffffffffffffffffffffffff166323b872dd3033856040518463ffffffff167c0100000000000000000000000000000000000000000000000000000000028152600401808473ffffffffffffffffffffffffffffffffffffffff1673ffffffffffffffffffffffffffffffffffffffff1681526020018373ffffffffffffffffffffffffffffffffffffffff1673ffffffffffffffffffffffffffffffffffffffff1681526020018281526020019350505050600060405180830381600087803b151561193757600080fd5b6102c65a03f1151561194857600080fd5b5050507f2114a52d297f01ee99b38a96fbd79c650bf37e10c29e0967c6621187fbe25322826040518082815260200191505060405180910390a15050565b61198e611d95565b600060046000848152602001908152602001600020541115156119b057600080fd5b600260008381526020019081526020016000206040805190810160405290816000820160009054906101000a900473ffffffffffffffffffffffffffffffffffffffff1673ffffffffffffffffffffffffffffffffffffffff1673ffffffffffffffffffffffffffffffffffffffff1681526020016001820154815250509050806000015173ffffffffffffffffffffffffffffffffffffffff163373ffffffffffffffffffffffffffffffffffffffff161480611abb5750600160009054906101000a900473ffffffffffffffffffffffffffffffffffffffff1673ffffffffffffffffffffffffffffffffffffffff163373ffffffffffffffffffffffffffffffffffffffff16145b1515611ac657600080fd5b611acf82611c15565b6000809054906101000a900473ffffffffffffffffffffffffffffffffffffffff1673ffffffffffffffffffffffffffffffffffffffff166323b872dd3033856040518463ffffffff167c0100000000000000000000000000000000000000000000000000000000028152600401808473ffffffffffffffffffffffffffffffffffffffff1673ffffffffffffffffffffffffffffffffffffffff1681526020018373ffffffffffffffffffffffffffffffffffffffff1673ffffffffffffffffffffffffffffffffffffffff1681526020018281526020019350505050600060405180830381600087803b1515611bc657600080fd5b6102c65a03f11515611bd757600080fd5b5050507f2114a52d297f01ee99b38a96fbd79c650bf37e10c29e0967c6621187fbe25322826040518082815260200191505060405180910390a15050565b600080600060046000858152602001908152602001600020549250611c496001600380549050611d5090919063ffffffff16565b9150600382815481101515611c5a57fe5b90600052602060002090015490506040805190810160405280600073ffffffffffffffffffffffffffffffffffffffff16815260200160008152506002600086815260200190815260200160002060008201518160000160006101000a81548173ffffffffffffffffffffffffffffffffffffffff021916908373ffffffffffffffffffffffffffffffffffffffff1602179055506020820151816001015590505080600384815481101515611d0c57fe5b9060005260206000209001819055506003805480919060019003611d309190611dc5565b506000600460008681526020019081526020016000208190555050505050565b6000828211151515611d5e57fe5b818303905092915050565b815481835581811511611d9057818360005260206000209182019101611d8f9190611df1565b5b505050565b6040805190810160405280600073ffffffffffffffffffffffffffffffffffffffff168152602001600081525090565b815481835581811511611dec57818360005260206000209182019101611deb9190611df1565b5b505050565b611e1391905b80821115611e0f576000816000905550600101611df7565b5090565b905600a165627a7a72305820ef248333d5f11ba00e98f9f604ca957d8cab51debdbd43e14291f84f8290ef530029",
  "source": "pragma solidity ^0.4.18;\r\n\r\n import \"./library/SafeMath.sol\";\r\n import \"./PhotoCore.sol\";\r\n\r\n/**\r\n*@title PhotoMarket\r\n* The market contract which holds the orderbook for Photos to allow buying, selling, and liscenses\r\n*/\r\ncontract PhotoMarket{\r\n    using SafeMath for uint256;\r\n\r\n    /***VARIABLES***/\r\n    PhotoCore token; //The PhotoCore contract for linking to the Photocoin token\r\n    address public owner; //The owner of the market contract\r\n    \r\n    /***DATA***/\r\n    //This is the base data structure for an order (the maker of the order and the price)\r\n    struct Order {\r\n        address maker;// the placer of the order\r\n        uint price;// The price in wei\r\n    }\r\n\r\n    //Maps a tokenId to a specific Order (owner/price)\r\n    mapping(uint256 => Order) public orders;\r\n    //An array of tokens for sale\r\n    uint[] public forSale;\r\n    //Index telling where a specific tokenId is in the forSale array\r\n    mapping(uint256 => uint256) forSaleIndex;\r\n\r\n\r\n\r\n    //Maps a tokenId to a specific Lease Order (owner/price)\r\n    mapping(uint256 => Order[]) public leases;\r\n    //Index telling where a specific tokenId is in the leases Order array\r\n    mapping(uint256 => uint256) leasesIndex;\r\n    //An array of tokens for lease\r\n    uint[] public forLease;\r\n    //Index telling where a specific tokenId is in the forLease array\r\n    mapping(uint256 => uint256) forLeaseIndex;\r\n\r\n    //A list of the blacklisted addresses\r\n    mapping(address => bool) blacklist;\r\n\r\n    address public highestBidder;\r\n    uint public highestBid;\r\n    mapping(address => uint) pendingReturns;\r\n\r\n    event HighestBidIncreased(address bidder, uint amount);\r\n    event AuctionEnded(address winner, uint amount);\r\n\r\n    /***MODIFIERS***/\r\n    /// @dev Access modifier for Owner functionality\r\n    modifier onlyOwner() {\r\n        require(msg.sender == owner);\r\n        _;\r\n    }\r\n\r\n\r\n    /***EVENTS***/\r\n    event OrderPlaced(uint256 _tokenId, address _seller,uint256 _price);\r\n    event Sale(address _buyer, address _seller, uint256 _tokenId, uint256 _price);\r\n    event OrderRemoved(uint256 _tokenId);\r\n    event LeaseOrderPlaced(uint256 _tokenId, address _seller,uint256 _price);\r\n    event Lease(address _buyer, address _seller, uint256 _tokenId, uint256 _price);\r\n    event LeaseOrderRemoved(uint256 _tokenId);\r\n\r\n    /***FUNCTIONS***/\r\n    /*\r\n    *@dev the constructor argument to set the owner and initialize the array.\r\n    */\r\n    function PhotoMarket() public{\r\n        owner = msg.sender;\r\n        forSale.push(0);\r\n        forLease.push(0);\r\n    }\r\n\r\n    /*\r\n    *@dev The fallback function to prevent money from being sent to the contract\r\n    */\r\n    function()  payable public{\r\n        require(msg.value == 0);\r\n    }\r\n\r\n    /*\r\n    *@dev listPhoto allows a party to place a photo on the orderbook\r\n    *@param _tokenId uint256 ID of photo\r\n    *@param _price uint256 price of photo in wei\r\n    */\r\n    function listPhoto(uint256 _tokenId, uint256 _price) external {\r\n        require(token.ownerOf(_tokenId) == msg.sender);\r\n        require(blacklist[msg.sender] == false);\r\n        require(_price > 0);\r\n        token.transferFrom(msg.sender,address(this),_tokenId);\r\n        forSaleIndex[_tokenId] = forSale.length;\r\n        forSale.push(_tokenId);\r\n        orders[_tokenId] = Order({\r\n            maker: msg.sender,\r\n            price: _price\r\n        });\r\n        OrderPlaced(_tokenId,msg.sender,_price);\r\n    }\r\n\r\n    /*\r\n    *@dev unlistPhoto allows a party to remove their order from the orderbook\r\n    *@param _tokenId uint256 ID of photo\r\n    */\r\n    function unlistPhoto(uint256 _tokenId) external{\r\n        require(forSaleIndex[_tokenId] > 0);\r\n        Order memory _order = orders[_tokenId];\r\n        require(msg.sender== _order.maker || msg.sender == owner);\r\n        unLister(_tokenId);\r\n        token.transferFrom(address(this),msg.sender,_tokenId);\r\n        OrderRemoved(_tokenId);\r\n    }\r\n\r\n    /*\r\n    *@dev buyPhoto allows a party to send Ether to buy a photo off of the orderbook\r\n    *@param _tokenId uint256 ID of photo\r\n    */\r\n    function buyPhoto(uint256 _tokenId) external payable {\r\n        Order memory _order = orders[_tokenId];\r\n        require(msg.value == _order.price);\r\n        require(blacklist[msg.sender] == false);\r\n        address maker = _order.maker;\r\n        token.transferFrom(address(this),msg.sender, _tokenId);\r\n        unLister(_tokenId);\r\n        maker.transfer(msg.value);\r\n        Sale(msg.sender,maker,_tokenId,_order.price);\r\n    }\r\n\r\n\r\n    /*\r\n    *@dev listLease allows a party to place a photo on the orderbook for lease\r\n    *@param _tokenId uint256 ID of photo\r\n    *@param _price uint256 price of leasing the photo in wei\r\n    */\r\n    function listLease(uint256 _tokenId, uint256 _price) external {\r\n        require(token.ownerOf(_tokenId) == msg.sender);\r\n        require(blacklist[msg.sender] == false);\r\n        require(_price > 0);\r\n        token.transferFrom(msg.sender,address(this),_tokenId);\r\n        forSaleIndex[_tokenId] = forSale.length;\r\n        forSale.push(_tokenId);\r\n        orders[_tokenId] = Order({\r\n            maker: msg.sender,\r\n            price: _price\r\n        });\r\n        OrderPlaced(_tokenId,msg.sender,_price);\r\n    }\r\n\r\n    /*\r\n    *@dev unlistLease allows a party to remove their order from the lease orderbook\r\n    *@param _tokenId uint256 ID of photo\r\n    */\r\n    function unlistLease(uint256 _tokenId) external{\r\n        require(forSaleIndex[_tokenId] > 0);\r\n        Order memory _order = orders[_tokenId];\r\n        require(msg.sender== _order.maker || msg.sender == owner);\r\n        unLister(_tokenId);\r\n        token.transferFrom(address(this),msg.sender,_tokenId);\r\n        OrderRemoved(_tokenId);\r\n    }\r\n\r\n    /*\r\n    *@dev buyLease allows a party to send Ether to buy a photo off of the lease orderbook\r\n    *@param _tokenId uint256 ID of photo\r\n    */\r\n    function buyLease(uint256 _tokenId) external payable {\r\n        Order memory _order = orders[_tokenId];\r\n        require(msg.value == _order.price);\r\n        require(blacklist[msg.sender] == false);\r\n        address maker = _order.maker;\r\n        token.transferFrom(address(this),msg.sender, _tokenId);\r\n        unLister(_tokenId);\r\n        maker.transfer(msg.value);\r\n        Sale(msg.sender,maker,_tokenId,_order.price);\r\n    }\r\n\r\n    /*\r\n    *@dev getOrder lists the price and maker of a specific token\r\n    *@param _tokenId uint256 ID of photo\r\n    */\r\n    function getOrder(uint256 _tokenId) external view returns(address,uint){\r\n        Order storage _order = orders[_tokenId];\r\n        return (_order.maker,_order.price);\r\n    }\r\n\r\n    /*\r\n    *@dev allows the owner to change who the owner is\r\n    *@param _owner is the address of the new owner\r\n    */\r\n    function setOwner(address _owner) public onlyOwner() {\r\n        owner = _owner;\r\n    }\r\n\r\n    /*\r\n    *@dev allows the owner to set the address of the PhotoCoin token\r\n    *@param _token address of the PhotoCoin token (PhotoCore.sol)\r\n    */\r\n    function setToken(address _token) public onlyOwner() {\r\n        token = PhotoCore(_token);\r\n    }\r\n\r\n    /*\r\n    *@dev Allows the owner to blacklist addresses from using this exchange\r\n    *@param _address the address of the party to blacklist\r\n    *@param _motion true or false depending on if blacklisting or not\r\n    */\r\n    function blacklistParty(address _address, bool _motion) public onlyOwner() {\r\n        blacklist[_address] = _motion;\r\n    }\r\n\r\n    /*\r\n    *@dev Allows parties to see if one is blacklisted\r\n    *@param _address the address of the party to blacklist\r\n    */\r\n    function isBlacklist(address _address) public view returns(bool) {\r\n        return blacklist[_address];\r\n    }\r\n\r\n    /*\r\n    *@dev getExcrow allows parties to see how much a specific party has in Escrow\r\n    *@return _uint of the number of orders in the orderbook\r\n    */\r\n    function getOrderCount() public constant returns(uint) {\r\n        return forSale.length;\r\n    }\r\n\r\n    /***INTERNAL FUNCTIONS***/\r\n    /*\r\n    *@dev An internal function to update mappings when an order is removed from the book\r\n    *@param _tokenId uint256 ID of photo\r\n    */\r\n    function unLister(uint256 _tokenId) internal{\r\n        uint256 tokenIndex = forSaleIndex[_tokenId];\r\n        uint256 lastTokenIndex = forSale.length.sub(1);\r\n        uint256 lastToken = forSale[lastTokenIndex];\r\n        orders[_tokenId] = Order({\r\n            maker: address(0),\r\n            price: 0\r\n        });\r\n        forSale[tokenIndex] = lastToken;\r\n        forSale.length--;\r\n        forSaleIndex[_tokenId] = 0;\r\n    }\r\n}",
  "sourcePath": "C:\\Nick\\Consulting\\Photocoin\\contracts\\PhotoMarket.sol",
  "compiler": {
    "name": "solc",
    "version": "0.4.19+commit.c4cbbb05.Emscripten.clang"
  },
  "schemaVersion": "1.0.1",
  "updatedAt": "2018-03-12T03:43:44.020Z"
}