{
  "contractName": "PhotoMarket",
  "abi": [
    {
      "constant": true,
      "inputs": [
        {
          "name": "",
          "type": "uint256"
        }
      ],
      "name": "forSale",
      "outputs": [
        {
          "name": "",
          "type": "uint256"
        }
      ],
      "payable": false,
      "stateMutability": "view",
      "type": "function"
    },
    {
      "constant": true,
      "inputs": [
        {
          "name": "",
          "type": "uint256"
        }
      ],
      "name": "forLease",
      "outputs": [
        {
          "name": "",
          "type": "uint256"
        }
      ],
      "payable": false,
      "stateMutability": "view",
      "type": "function"
    },
    {
      "constant": true,
      "inputs": [
        {
          "name": "",
          "type": "uint256"
        }
      ],
      "name": "leases",
      "outputs": [
        {
          "name": "maker",
          "type": "address"
        },
        {
          "name": "price",
          "type": "uint256"
        }
      ],
      "payable": false,
      "stateMutability": "view",
      "type": "function"
    },
    {
      "constant": true,
      "inputs": [],
      "name": "owner",
      "outputs": [
        {
          "name": "",
          "type": "address"
        }
      ],
      "payable": false,
      "stateMutability": "view",
      "type": "function"
    },
    {
      "constant": true,
      "inputs": [
        {
          "name": "",
          "type": "uint256"
        }
      ],
      "name": "orders",
      "outputs": [
        {
          "name": "maker",
          "type": "address"
        },
        {
          "name": "price",
          "type": "uint256"
        }
      ],
      "payable": false,
      "stateMutability": "view",
      "type": "function"
    },
    {
      "constant": true,
      "inputs": [],
      "name": "fee",
      "outputs": [
        {
          "name": "",
          "type": "uint256"
        }
      ],
      "payable": false,
      "stateMutability": "view",
      "type": "function"
    },
    {
      "inputs": [],
      "payable": false,
      "stateMutability": "nonpayable",
      "type": "constructor"
    },
    {
      "payable": true,
      "stateMutability": "payable",
      "type": "fallback"
    },
    {
      "anonymous": false,
      "inputs": [
        {
          "indexed": false,
          "name": "_tokenId",
          "type": "uint256"
        },
        {
          "indexed": false,
          "name": "_seller",
          "type": "address"
        },
        {
          "indexed": false,
          "name": "_price",
          "type": "uint256"
        }
      ],
      "name": "OrderPlaced",
      "type": "event"
    },
    {
      "anonymous": false,
      "inputs": [
        {
          "indexed": false,
          "name": "_buyer",
          "type": "address"
        },
        {
          "indexed": false,
          "name": "_seller",
          "type": "address"
        },
        {
          "indexed": false,
          "name": "_tokenId",
          "type": "uint256"
        },
        {
          "indexed": false,
          "name": "_price",
          "type": "uint256"
        }
      ],
      "name": "Sale",
      "type": "event"
    },
    {
      "anonymous": false,
      "inputs": [
        {
          "indexed": false,
          "name": "_tokenId",
          "type": "uint256"
        }
      ],
      "name": "OrderRemoved",
      "type": "event"
    },
    {
      "anonymous": false,
      "inputs": [
        {
          "indexed": false,
          "name": "_tokenId",
          "type": "uint256"
        },
        {
          "indexed": false,
          "name": "_seller",
          "type": "address"
        },
        {
          "indexed": false,
          "name": "_price",
          "type": "uint256"
        }
      ],
      "name": "LeaseOrderPlaced",
      "type": "event"
    },
    {
      "anonymous": false,
      "inputs": [
        {
          "indexed": false,
          "name": "_buyer",
          "type": "address"
        },
        {
          "indexed": false,
          "name": "_seller",
          "type": "address"
        },
        {
          "indexed": false,
          "name": "_tokenId",
          "type": "uint256"
        },
        {
          "indexed": false,
          "name": "_price",
          "type": "uint256"
        }
      ],
      "name": "Lease",
      "type": "event"
    },
    {
      "anonymous": false,
      "inputs": [
        {
          "indexed": false,
          "name": "_tokenId",
          "type": "uint256"
        }
      ],
      "name": "LeaseOrderRemoved",
      "type": "event"
    },
    {
      "constant": false,
      "inputs": [
        {
          "name": "_tokenId",
          "type": "uint256"
        },
        {
          "name": "_price",
          "type": "uint256"
        }
      ],
      "name": "listPhoto",
      "outputs": [],
      "payable": false,
      "stateMutability": "nonpayable",
      "type": "function"
    },
    {
      "constant": false,
      "inputs": [
        {
          "name": "_tokenId",
          "type": "uint256"
        }
      ],
      "name": "unlistPhoto",
      "outputs": [],
      "payable": false,
      "stateMutability": "nonpayable",
      "type": "function"
    },
    {
      "constant": false,
      "inputs": [
        {
          "name": "_tokenId",
          "type": "uint256"
        }
      ],
      "name": "buyPhoto",
      "outputs": [],
      "payable": true,
      "stateMutability": "payable",
      "type": "function"
    },
    {
      "constant": false,
      "inputs": [
        {
          "name": "_tokenId",
          "type": "uint256"
        },
        {
          "name": "_price",
          "type": "uint256"
        }
      ],
      "name": "listLease",
      "outputs": [],
      "payable": false,
      "stateMutability": "nonpayable",
      "type": "function"
    },
    {
      "constant": false,
      "inputs": [
        {
          "name": "_tokenId",
          "type": "uint256"
        }
      ],
      "name": "unlistLease",
      "outputs": [],
      "payable": false,
      "stateMutability": "nonpayable",
      "type": "function"
    },
    {
      "constant": false,
      "inputs": [
        {
          "name": "_tokenId",
          "type": "uint256"
        }
      ],
      "name": "buyLease",
      "outputs": [],
      "payable": true,
      "stateMutability": "payable",
      "type": "function"
    },
    {
      "constant": true,
      "inputs": [
        {
          "name": "_tokenId",
          "type": "uint256"
        }
      ],
      "name": "getOrder",
      "outputs": [
        {
          "name": "",
          "type": "address"
        },
        {
          "name": "",
          "type": "uint256"
        }
      ],
      "payable": false,
      "stateMutability": "view",
      "type": "function"
    },
    {
      "constant": true,
      "inputs": [
        {
          "name": "_tokenId",
          "type": "uint256"
        }
      ],
      "name": "getLeases",
      "outputs": [
        {
          "name": "",
          "type": "address"
        },
        {
          "name": "",
          "type": "uint256"
        }
      ],
      "payable": false,
      "stateMutability": "view",
      "type": "function"
    },
    {
      "constant": true,
      "inputs": [
        {
          "name": "_party",
          "type": "address"
        }
      ],
      "name": "getLeasebyOwner",
      "outputs": [
        {
          "name": "",
          "type": "uint256[]"
        }
      ],
      "payable": false,
      "stateMutability": "view",
      "type": "function"
    },
    {
      "constant": true,
      "inputs": [
        {
          "name": "_tokenId",
          "type": "uint256"
        }
      ],
      "name": "getTokenLeases",
      "outputs": [
        {
          "name": "",
          "type": "address[]"
        }
      ],
      "payable": false,
      "stateMutability": "view",
      "type": "function"
    },
    {
      "constant": false,
      "inputs": [
        {
          "name": "_owner",
          "type": "address"
        }
      ],
      "name": "setOwner",
      "outputs": [],
      "payable": false,
      "stateMutability": "nonpayable",
      "type": "function"
    },
    {
      "constant": false,
      "inputs": [
        {
          "name": "_token",
          "type": "address"
        }
      ],
      "name": "setToken",
      "outputs": [],
      "payable": false,
      "stateMutability": "nonpayable",
      "type": "function"
    },
    {
      "constant": false,
      "inputs": [
        {
          "name": "_address",
          "type": "address"
        },
        {
          "name": "_motion",
          "type": "bool"
        }
      ],
      "name": "blacklistParty",
      "outputs": [],
      "payable": false,
      "stateMutability": "nonpayable",
      "type": "function"
    },
    {
      "constant": true,
      "inputs": [
        {
          "name": "_address",
          "type": "address"
        }
      ],
      "name": "isBlacklist",
      "outputs": [
        {
          "name": "",
          "type": "bool"
        }
      ],
      "payable": false,
      "stateMutability": "view",
      "type": "function"
    },
    {
      "constant": true,
      "inputs": [],
      "name": "getOrderCount",
      "outputs": [
        {
          "name": "",
          "type": "uint256"
        }
      ],
      "payable": false,
      "stateMutability": "view",
      "type": "function"
    },
    {
      "constant": true,
      "inputs": [],
      "name": "getLeaseCount",
      "outputs": [
        {
          "name": "",
          "type": "uint256"
        }
      ],
      "payable": false,
      "stateMutability": "view",
      "type": "function"
    },
    {
      "constant": false,
      "inputs": [
        {
          "name": "_fee",
          "type": "uint256"
        }
      ],
      "name": "setFee",
      "outputs": [],
      "payable": false,
      "stateMutability": "nonpayable",
      "type": "function"
    },
    {
      "constant": false,
      "inputs": [],
      "name": "withdraw",
      "outputs": [],
      "payable": false,
      "stateMutability": "nonpayable",
      "type": "function"
    }
  ],
  "bytecode": "0x606060405234156200001057600080fd5b33600160006101000a81548173ffffffffffffffffffffffffffffffffffffffff021916908373ffffffffffffffffffffffffffffffffffffffff16021790555060048054806001018281620000679190620000ad565b91600052602060002090016000809091909150555060098054806001018281620000929190620000ad565b91600052602060002090016000809091909150555062000104565b815481835581811511620000d757818360005260206000209182019101620000d69190620000dc565b5b505050565b6200010191905b80821115620000fd576000816000905550600101620000e3565b5090565b90565b61233980620001146000396000f30060606040526004361061013e576000357c0100000000000000000000000000000000000000000000000000000000900463ffffffff16806313af40351461014f578063144fa6d7146101885780632831f2f4146101c1578063303afd3f146101f8578063333e99db1461022f5780633ccfd60b146102805780633d17ec25146102955780634a3ac43b146102c1578063535896dd146102d95780635591dcc0146103055780635ac5ba711461039357806369fe0e2d146103d75780638927a106146103fa5780638d0a5fbb146104645780638da5cb5b1461048d578063a85c38ef146104e2578063b2bf58261461054c578063d09ef24114610564578063ddca3f43146105ce578063de52f2c3146105f7578063e7fa0af814610620578063eac8fd6114610643578063ebb3ebb314610666578063f773e6eb146106d0575b60003414151561014d57600080fd5b005b341561015a57600080fd5b610186600480803573ffffffffffffffffffffffffffffffffffffffff16906020019091905050610748565b005b341561019357600080fd5b6101bf600480803573ffffffffffffffffffffffffffffffffffffffff169060200190919050506107e8565b005b34156101cc57600080fd5b6101e26004808035906020019091905050610887565b6040518082815260200191505060405180910390f35b341561020357600080fd5b61021960048080359060200190919050506108ab565b6040518082815260200191505060405180910390f35b341561023a57600080fd5b610266600480803573ffffffffffffffffffffffffffffffffffffffff169060200190919050506108cf565b604051808215151515815260200191505060405180910390f35b341561028b57600080fd5b610293610925565b005b34156102a057600080fd5b6102bf60048080359060200190919080359060200190919050506109fc565b005b6102d76004808035906020019091905050610d04565b005b34156102e457600080fd5b6103036004808035906020019091908035906020019091905050611000565b005b341561031057600080fd5b61033c600480803573ffffffffffffffffffffffffffffffffffffffff169060200190919050506113e7565b6040518080602001828103825283818151815260200191508051906020019060200280838360005b8381101561037f578082015181840152602081019050610364565b505050509050019250505060405180910390f35b341561039e57600080fd5b6103d5600480803573ffffffffffffffffffffffffffffffffffffffff169060200190919080351515906020019091905050611484565b005b34156103e257600080fd5b6103f8600480803590602001909190505061153b565b005b341561040557600080fd5b61041b60048080359060200190919050506115a1565b604051808373ffffffffffffffffffffffffffffffffffffffff1673ffffffffffffffffffffffffffffffffffffffff1681526020018281526020019250505060405180910390f35b341561046f57600080fd5b6104776115e5565b6040518082815260200191505060405180910390f35b341561049857600080fd5b6104a06115f2565b604051808273ffffffffffffffffffffffffffffffffffffffff1673ffffffffffffffffffffffffffffffffffffffff16815260200191505060405180910390f35b34156104ed57600080fd5b6105036004808035906020019091905050611618565b604051808373ffffffffffffffffffffffffffffffffffffffff1673ffffffffffffffffffffffffffffffffffffffff1681526020018281526020019250505060405180910390f35b610562600480803590602001909190505061165c565b005b341561056f57600080fd5b6105856004808035906020019091905050611992565b604051808373ffffffffffffffffffffffffffffffffffffffff1673ffffffffffffffffffffffffffffffffffffffff1681526020018281526020019250505060405180910390f35b34156105d957600080fd5b6105e16119e0565b6040518082815260200191505060405180910390f35b341561060257600080fd5b61060a6119e6565b6040518082815260200191505060405180910390f35b341561062b57600080fd5b61064160048080359060200190919050506119f3565b005b341561064e57600080fd5b6106646004808035906020019091905050611ba3565b005b341561067157600080fd5b6106876004808035906020019091905050611e32565b604051808373ffffffffffffffffffffffffffffffffffffffff1673ffffffffffffffffffffffffffffffffffffffff1681526020018281526020019250505060405180910390f35b34156106db57600080fd5b6106f16004808035906020019091905050611e80565b6040518080602001828103825283818151815260200191508051906020019060200280838360005b83811015610734578082015181840152602081019050610719565b505050509050019250505060405180910390f35b600160009054906101000a900473ffffffffffffffffffffffffffffffffffffffff1673ffffffffffffffffffffffffffffffffffffffff163373ffffffffffffffffffffffffffffffffffffffff161415156107a457600080fd5b80600160006101000a81548173ffffffffffffffffffffffffffffffffffffffff021916908373ffffffffffffffffffffffffffffffffffffffff16021790555050565b600160009054906101000a900473ffffffffffffffffffffffffffffffffffffffff1673ffffffffffffffffffffffffffffffffffffffff163373ffffffffffffffffffffffffffffffffffffffff1614151561084457600080fd5b806000806101000a81548173ffffffffffffffffffffffffffffffffffffffff021916908373ffffffffffffffffffffffffffffffffffffffff16021790555050565b60048181548110151561089657fe5b90600052602060002090016000915090505481565b6009818154811015156108ba57fe5b90600052602060002090016000915090505481565b6000600c60008373ffffffffffffffffffffffffffffffffffffffff1673ffffffffffffffffffffffffffffffffffffffff16815260200190815260200160002060009054906101000a900460ff169050919050565b600160009054906101000a900473ffffffffffffffffffffffffffffffffffffffff1673ffffffffffffffffffffffffffffffffffffffff163373ffffffffffffffffffffffffffffffffffffffff1614151561098157600080fd5b600160009054906101000a900473ffffffffffffffffffffffffffffffffffffffff1673ffffffffffffffffffffffffffffffffffffffff166108fc3073ffffffffffffffffffffffffffffffffffffffff16319081150290604051600060405180830381858888f1935050505015156109fa57600080fd5b565b3373ffffffffffffffffffffffffffffffffffffffff166000809054906101000a900473ffffffffffffffffffffffffffffffffffffffff1673ffffffffffffffffffffffffffffffffffffffff16636352211e846000604051602001526040518263ffffffff167c010000000000000000000000000000000000000000000000000000000002815260040180828152602001915050602060405180830381600087803b1515610aab57600080fd5b6102c65a03f11515610abc57600080fd5b5050506040518051905073ffffffffffffffffffffffffffffffffffffffff16141515610ae857600080fd5b60001515600b600084815260200190815260200160002060009054906101000a900460ff161515141515610b1b57600080fd5b60001515600c60003373ffffffffffffffffffffffffffffffffffffffff1673ffffffffffffffffffffffffffffffffffffffff16815260200190815260200160002060009054906101000a900460ff161515141515610b7a57600080fd5b600081111515610b8957600080fd5b600980549050600a60008481526020019081526020016000208190555060098054806001018281610bba919061220c565b91600052602060002090016000849091909150555060408051908101604052803373ffffffffffffffffffffffffffffffffffffffff168152602001828152506006600084815260200190815260200160002060008201518160000160006101000a81548173ffffffffffffffffffffffffffffffffffffffff021916908373ffffffffffffffffffffffffffffffffffffffff160217905550602082015181600101559050507f387d3815e606c03e46196710baa9ab34ec49cbe3ab3131e10cbea1956be48fb5823383604051808481526020018373ffffffffffffffffffffffffffffffffffffffff1673ffffffffffffffffffffffffffffffffffffffff168152602001828152602001935050505060405180910390a16001600b600084815260200190815260200160002060006101000a81548160ff0219169083151502179055505050565b610d0c612238565b6000600660008481526020019081526020016000206040805190810160405290816000820160009054906101000a900473ffffffffffffffffffffffffffffffffffffffff1673ffffffffffffffffffffffffffffffffffffffff1673ffffffffffffffffffffffffffffffffffffffff1681526020016001820154815250509150816020015134141515610da057600080fd5b60001515600c60003373ffffffffffffffffffffffffffffffffffffffff1673ffffffffffffffffffffffffffffffffffffffff16815260200190815260200160002060009054906101000a900460ff161515141515610dff57600080fd5b81600001519050600760003373ffffffffffffffffffffffffffffffffffffffff1673ffffffffffffffffffffffffffffffffffffffff1681526020019081526020016000208054806001018281610e57919061220c565b916000526020600020900160008590919091505550600860008481526020019081526020016000208054806001018281610e919190612268565b9160005260206000209001600033909190916101000a81548173ffffffffffffffffffffffffffffffffffffffff021916908373ffffffffffffffffffffffffffffffffffffffff160217905550508073ffffffffffffffffffffffffffffffffffffffff166108fc610f2b6103e8610f1d6002546103e8038760200151611f2790919063ffffffff16565b611f6290919063ffffffff16565b9081150290604051600060405180830381858888f193505050501515610f5057600080fd5b7f681ddc67ea8796d2489979f5fc2ea2eb0f2d44ff3f11f061a191928a1f3d9a063382858560200151604051808573ffffffffffffffffffffffffffffffffffffffff1673ffffffffffffffffffffffffffffffffffffffff1681526020018473ffffffffffffffffffffffffffffffffffffffff1673ffffffffffffffffffffffffffffffffffffffff16815260200183815260200182815260200194505050505060405180910390a1505050565b60001515600b600084815260200190815260200160002060009054906101000a900460ff16151514151561103357600080fd5b3373ffffffffffffffffffffffffffffffffffffffff166000809054906101000a900473ffffffffffffffffffffffffffffffffffffffff1673ffffffffffffffffffffffffffffffffffffffff16636352211e846000604051602001526040518263ffffffff167c010000000000000000000000000000000000000000000000000000000002815260040180828152602001915050602060405180830381600087803b15156110e257600080fd5b6102c65a03f115156110f357600080fd5b5050506040518051905073ffffffffffffffffffffffffffffffffffffffff1614151561111f57600080fd5b60001515600c60003373ffffffffffffffffffffffffffffffffffffffff1673ffffffffffffffffffffffffffffffffffffffff16815260200190815260200160002060009054906101000a900460ff16151514151561117e57600080fd5b60008111151561118d57600080fd5b6000809054906101000a900473ffffffffffffffffffffffffffffffffffffffff1673ffffffffffffffffffffffffffffffffffffffff166323b872dd3330856040518463ffffffff167c0100000000000000000000000000000000000000000000000000000000028152600401808473ffffffffffffffffffffffffffffffffffffffff1673ffffffffffffffffffffffffffffffffffffffff1681526020018373ffffffffffffffffffffffffffffffffffffffff1673ffffffffffffffffffffffffffffffffffffffff1681526020018281526020019350505050600060405180830381600087803b151561128457600080fd5b6102c65a03f1151561129557600080fd5b5050506004805490506005600084815260200190815260200160002081905550600480548060010182816112c9919061220c565b91600052602060002090016000849091909150555060408051908101604052803373ffffffffffffffffffffffffffffffffffffffff168152602001828152506003600084815260200190815260200160002060008201518160000160006101000a81548173ffffffffffffffffffffffffffffffffffffffff021916908373ffffffffffffffffffffffffffffffffffffffff160217905550602082015181600101559050507f291c9d431146e4de667c04a6a738ed159e6dae2aaa909d85ca8ff7416719a609823383604051808481526020018373ffffffffffffffffffffffffffffffffffffffff1673ffffffffffffffffffffffffffffffffffffffff168152602001828152602001935050505060405180910390a15050565b6113ef612294565b600760008373ffffffffffffffffffffffffffffffffffffffff1673ffffffffffffffffffffffffffffffffffffffff16815260200190815260200160002080548060200260200160405190810160405280929190818152602001828054801561147857602002820191906000526020600020905b815481526020019060010190808311611464575b50505050509050919050565b600160009054906101000a900473ffffffffffffffffffffffffffffffffffffffff1673ffffffffffffffffffffffffffffffffffffffff163373ffffffffffffffffffffffffffffffffffffffff161415156114e057600080fd5b80600c60008473ffffffffffffffffffffffffffffffffffffffff1673ffffffffffffffffffffffffffffffffffffffff16815260200190815260200160002060006101000a81548160ff0219169083151502179055505050565b600160009054906101000a900473ffffffffffffffffffffffffffffffffffffffff1673ffffffffffffffffffffffffffffffffffffffff163373ffffffffffffffffffffffffffffffffffffffff1614151561159757600080fd5b8060028190555050565b60066020528060005260406000206000915090508060000160009054906101000a900473ffffffffffffffffffffffffffffffffffffffff16908060010154905082565b6000600480549050905090565b600160009054906101000a900473ffffffffffffffffffffffffffffffffffffffff1681565b60036020528060005260406000206000915090508060000160009054906101000a900473ffffffffffffffffffffffffffffffffffffffff16908060010154905082565b611664612238565b6000600360008481526020019081526020016000206040805190810160405290816000820160009054906101000a900473ffffffffffffffffffffffffffffffffffffffff1673ffffffffffffffffffffffffffffffffffffffff1673ffffffffffffffffffffffffffffffffffffffff16815260200160018201548152505091508160200151341415156116f857600080fd5b60001515600c60003373ffffffffffffffffffffffffffffffffffffffff1673ffffffffffffffffffffffffffffffffffffffff16815260200190815260200160002060009054906101000a900460ff16151514151561175757600080fd5b816000015190506000809054906101000a900473ffffffffffffffffffffffffffffffffffffffff1673ffffffffffffffffffffffffffffffffffffffff166323b872dd3033866040518463ffffffff167c0100000000000000000000000000000000000000000000000000000000028152600401808473ffffffffffffffffffffffffffffffffffffffff1673ffffffffffffffffffffffffffffffffffffffff1681526020018373ffffffffffffffffffffffffffffffffffffffff1673ffffffffffffffffffffffffffffffffffffffff1681526020018281526020019350505050600060405180830381600087803b151561185557600080fd5b6102c65a03f1151561186657600080fd5b50505061187283611f7d565b8073ffffffffffffffffffffffffffffffffffffffff166108fc6118bd6103e86118af6002546103e8038760200151611f2790919063ffffffff16565b611f6290919063ffffffff16565b9081150290604051600060405180830381858888f1935050505015156118e257600080fd5b7f681ddc67ea8796d2489979f5fc2ea2eb0f2d44ff3f11f061a191928a1f3d9a063382858560200151604051808573ffffffffffffffffffffffffffffffffffffffff1673ffffffffffffffffffffffffffffffffffffffff1681526020018473ffffffffffffffffffffffffffffffffffffffff1673ffffffffffffffffffffffffffffffffffffffff16815260200183815260200182815260200194505050505060405180910390a1505050565b60008060006003600085815260200190815260200160002090508060000160009054906101000a900473ffffffffffffffffffffffffffffffffffffffff1681600101549250925050915091565b60025481565b6000600980549050905090565b6119fb612238565b6000600a600084815260200190815260200160002054111515611a1d57600080fd5b600660008381526020019081526020016000206040805190810160405290816000820160009054906101000a900473ffffffffffffffffffffffffffffffffffffffff1673ffffffffffffffffffffffffffffffffffffffff1673ffffffffffffffffffffffffffffffffffffffff1681526020016001820154815250509050806000015173ffffffffffffffffffffffffffffffffffffffff163373ffffffffffffffffffffffffffffffffffffffff161480611b285750600160009054906101000a900473ffffffffffffffffffffffffffffffffffffffff1673ffffffffffffffffffffffffffffffffffffffff163373ffffffffffffffffffffffffffffffffffffffff16145b1515611b3357600080fd5b611b3c826120b8565b7fd2912b3df45595ef6333b74655a68f2c050cf839578cd5186cc41cd5242f7ab5826040518082815260200191505060405180910390a16000600b600084815260200190815260200160002060006101000a81548160ff0219169083151502179055505050565b611bab612238565b60006005600084815260200190815260200160002054111515611bcd57600080fd5b600360008381526020019081526020016000206040805190810160405290816000820160009054906101000a900473ffffffffffffffffffffffffffffffffffffffff1673ffffffffffffffffffffffffffffffffffffffff1673ffffffffffffffffffffffffffffffffffffffff1681526020016001820154815250509050806000015173ffffffffffffffffffffffffffffffffffffffff163373ffffffffffffffffffffffffffffffffffffffff161480611cd85750600160009054906101000a900473ffffffffffffffffffffffffffffffffffffffff1673ffffffffffffffffffffffffffffffffffffffff163373ffffffffffffffffffffffffffffffffffffffff16145b1515611ce357600080fd5b611cec82611f7d565b6000809054906101000a900473ffffffffffffffffffffffffffffffffffffffff1673ffffffffffffffffffffffffffffffffffffffff166323b872dd3033856040518463ffffffff167c0100000000000000000000000000000000000000000000000000000000028152600401808473ffffffffffffffffffffffffffffffffffffffff1673ffffffffffffffffffffffffffffffffffffffff1681526020018373ffffffffffffffffffffffffffffffffffffffff1673ffffffffffffffffffffffffffffffffffffffff1681526020018281526020019350505050600060405180830381600087803b1515611de357600080fd5b6102c65a03f11515611df457600080fd5b5050507f2114a52d297f01ee99b38a96fbd79c650bf37e10c29e0967c6621187fbe25322826040518082815260200191505060405180910390a15050565b60008060006006600085815260200190815260200160002090508060000160009054906101000a900473ffffffffffffffffffffffffffffffffffffffff1681600101549250925050915091565b611e886122a8565b60086000838152602001908152602001600020805480602002602001604051908101604052809291908181526020018280548015611f1b57602002820191906000526020600020905b8160009054906101000a900473ffffffffffffffffffffffffffffffffffffffff1673ffffffffffffffffffffffffffffffffffffffff1681526020019060010190808311611ed1575b50505050509050919050565b6000806000841415611f3c5760009150611f5b565b8284029050828482811515611f4d57fe5b04141515611f5757fe5b8091505b5092915050565b6000808284811515611f7057fe5b0490508091505092915050565b600080600060056000858152602001908152602001600020549250611fb160016004805490506121f390919063ffffffff16565b9150600482815481101515611fc257fe5b90600052602060002090015490506040805190810160405280600073ffffffffffffffffffffffffffffffffffffffff16815260200160008152506003600086815260200190815260200160002060008201518160000160006101000a81548173ffffffffffffffffffffffffffffffffffffffff021916908373ffffffffffffffffffffffffffffffffffffffff160217905550602082015181600101559050508060048481548110151561207457fe5b906000526020600020900181905550600480548091906001900361209891906122bc565b506000600560008681526020019081526020016000208190555050505050565b6000806000600a60008581526020019081526020016000205492506120ec60016009805490506121f390919063ffffffff16565b91506009828154811015156120fd57fe5b90600052602060002090015490506040805190810160405280600073ffffffffffffffffffffffffffffffffffffffff16815260200160008152506006600086815260200190815260200160002060008201518160000160006101000a81548173ffffffffffffffffffffffffffffffffffffffff021916908373ffffffffffffffffffffffffffffffffffffffff16021790555060208201518160010155905050806009848154811015156121af57fe5b90600052602060002090018190555060098054809190600190036121d391906122bc565b506000600a60008681526020019081526020016000208190555050505050565b600082821115151561220157fe5b818303905092915050565b8154818355818115116122335781836000526020600020918201910161223291906122e8565b5b505050565b6040805190810160405280600073ffffffffffffffffffffffffffffffffffffffff168152602001600081525090565b81548183558181151161228f5781836000526020600020918201910161228e91906122e8565b5b505050565b602060405190810160405280600081525090565b602060405190810160405280600081525090565b8154818355818115116122e3578183600052602060002091820191016122e291906122e8565b5b505050565b61230a91905b808211156123065760008160009055506001016122ee565b5090565b905600a165627a7a7230582002ea9359883ca3c1ecc989addc4591534493cf35b210f671bc4f7a76ccf34e0e0029",
  "source": "pragma solidity ^0.4.18;\r\n\r\n import \"./library/SafeMath.sol\";\r\n import \"./PhotoCore.sol\";\r\n\r\n/**\r\n*@title PhotoMarket\r\n* The market contract which holds the orderbook for Photos to allow buying, selling, and liscenses\r\n*/\r\ncontract PhotoMarket{\r\n    using SafeMath for uint256;\r\n\r\n    /***VARIABLES***/\r\n    PhotoCore token; //The PhotoCore contract for linking to the Photocoin token\r\n    address public owner; //The owner of the market contract\r\n    uint public fee; //The percentage fee charged to each contract to 3 decimals (so 1000 is a 100% fee, 50 is a 5% fee, and 10 is a 1% fee)\r\n    \r\n    \r\n    /***DATA***/\r\n    //This is the base data structure for an order (the maker of the order and the price)\r\n    struct Order {\r\n        address maker;// the placer of the order\r\n        uint price;// The price in wei\r\n    }\r\n\r\n    //Maps a tokenId to a specific Order (owner/price)\r\n    mapping(uint256 => Order) public orders;\r\n    //An array of tokens for sale\r\n    uint[] public forSale;\r\n    //Index telling where a specific tokenId is in the forSale array\r\n    mapping(uint256 => uint256) forSaleIndex;\r\n    //Maps a tokenId to a specific Lease Order (owner/price)\r\n    mapping(uint256 => Order) public leases;\r\n    //Shows which tokens a party has bought rights for\r\n    mapping(address => uint[]) leasesOwned;\r\n    //Shows which parties have rights to a token\r\n    mapping(uint256 => address[]) tokenLeases;\r\n    //An array of tokens for lease\r\n    uint[] public forLease;\r\n    //Index telling where a specific tokenId is in the forLease array\r\n    mapping(uint256 => uint256) forLeaseIndex;\r\n    //Index telling if a tokenId is listed\r\n    mapping(uint256 => bool) forLeaseListed;\r\n    //A list of the blacklisted addresses\r\n    mapping(address => bool) blacklist;\r\n\r\n    /***MODIFIERS***/\r\n    /// @dev Access modifier for Owner functionality\r\n    modifier onlyOwner() {\r\n        require(msg.sender == owner);\r\n        _;\r\n    }\r\n\r\n\r\n    /***EVENTS***/\r\n    event OrderPlaced(uint256 _tokenId, address _seller,uint256 _price);\r\n    event Sale(address _buyer, address _seller, uint256 _tokenId, uint256 _price);\r\n    event OrderRemoved(uint256 _tokenId);\r\n    event LeaseOrderPlaced(uint256 _tokenId, address _seller,uint256 _price);\r\n    event Lease(address _buyer, address _seller, uint256 _tokenId, uint256 _price);\r\n    event LeaseOrderRemoved(uint256 _tokenId);\r\n\r\n    /***FUNCTIONS***/\r\n    /*\r\n    *@dev the constructor argument to set the owner and initialize the array.\r\n    */\r\n    function PhotoMarket() public{\r\n        owner = msg.sender;\r\n        forSale.push(0);\r\n        forLease.push(0);\r\n    }\r\n\r\n    /*\r\n    *@dev The fallback function to prevent money from being sent to the contract\r\n    */\r\n    function()  payable public{\r\n        require(msg.value == 0);\r\n    }\r\n\r\n    /*\r\n    *@dev listPhoto allows a party to place a photo on the orderbook\r\n    *@param _tokenId uint256 ID of photo\r\n    *@param _price uint256 price of photo in wei\r\n    */\r\n    function listPhoto(uint256 _tokenId, uint256 _price) external {\r\n        require(forLeaseListed[_tokenId] == false);\r\n        require(token.ownerOf(_tokenId) == msg.sender);\r\n        require(blacklist[msg.sender] == false);\r\n        require(_price > 0);\r\n        token.transferFrom(msg.sender,address(this),_tokenId);\r\n        forSaleIndex[_tokenId] = forSale.length;\r\n        forSale.push(_tokenId);\r\n        orders[_tokenId] = Order({\r\n            maker: msg.sender,\r\n            price: _price\r\n        });\r\n        OrderPlaced(_tokenId,msg.sender,_price);\r\n    }\r\n\r\n    /*\r\n    *@dev unlistPhoto allows a party to remove their order from the orderbook\r\n    *@param _tokenId uint256 ID of photo\r\n    */\r\n    function unlistPhoto(uint256 _tokenId) external{\r\n        require(forSaleIndex[_tokenId] > 0);\r\n        Order memory _order = orders[_tokenId];\r\n        require(msg.sender== _order.maker || msg.sender == owner);\r\n        unLister(_tokenId);\r\n        token.transferFrom(address(this),msg.sender,_tokenId);\r\n        OrderRemoved(_tokenId);\r\n    }\r\n\r\n    /*\r\n    *@dev buyPhoto allows a party to send Ether to buy a photo off of the orderbook\r\n    *@param _tokenId uint256 ID of photo\r\n    */\r\n    function buyPhoto(uint256 _tokenId) external payable {\r\n        Order memory _order = orders[_tokenId];\r\n        require(msg.value == _order.price);\r\n        require(blacklist[msg.sender] == false);\r\n        address maker = _order.maker;\r\n        token.transferFrom(address(this),msg.sender, _tokenId);\r\n        unLister(_tokenId);\r\n        maker.transfer(_order.price.mul(1000-fee).div(1000));\r\n        Sale(msg.sender,maker,_tokenId,_order.price);\r\n    }\r\n\r\n\r\n    /*\r\n    *@dev listLease allows a party to place a photo on the orderbook for lease\r\n    *@param _tokenId uint256 ID of photo\r\n    *@param _price uint256 price of leasing the photo in wei\r\n    */\r\n    function listLease(uint256 _tokenId, uint256 _price) external {\r\n        require(token.ownerOf(_tokenId) == msg.sender);\r\n        require(forLeaseListed[_tokenId] == false);\r\n        require(blacklist[msg.sender] == false);\r\n        require(_price > 0);\r\n        forLeaseIndex[_tokenId] = forLease.length;\r\n        forLease.push(_tokenId);\r\n        leases[_tokenId] = Order({\r\n            maker: msg.sender,\r\n            price: _price\r\n        });\r\n        LeaseOrderPlaced(_tokenId,msg.sender,_price);\r\n        forLeaseListed[_tokenId] = true;\r\n    }\r\n\r\n    /*\r\n    *@dev unlistLease allows a party to remove their order from the lease orderbook\r\n    *@param _tokenId uint256 ID of photo\r\n    */\r\n    function unlistLease(uint256 _tokenId) external{\r\n        require(forLeaseIndex[_tokenId] > 0);\r\n        Order memory _order = leases[_tokenId];\r\n        require(msg.sender== _order.maker || msg.sender == owner);\r\n        unLeaster(_tokenId);\r\n        LeaseOrderRemoved(_tokenId);\r\n        forLeaseListed[_tokenId] = false;\r\n    }\r\n\r\n    /*\r\n    *@dev buyLease allows a party to send Ether to buy a photo off of the lease orderbook\r\n    *@param _tokenId uint256 ID of photo\r\n    *@Note currently this does not unlist the product; as multiple parties can pay the fee to use the rights\r\n    *@Note there is only one kind of lease and a party can buy as many as they want\r\n    */\r\n    function buyLease(uint256 _tokenId) external payable {\r\n        Order memory _order = leases[_tokenId];\r\n        require(msg.value == _order.price);\r\n        require(blacklist[msg.sender] == false);\r\n        address maker = _order.maker;\r\n        leasesOwned[msg.sender].push(_tokenId);\r\n        tokenLeases[_tokenId].push(msg.sender);\r\n        maker.transfer(_order.price.mul(1000-fee).div(1000));\r\n        Sale(msg.sender,maker,_tokenId,_order.price);\r\n    }\r\n\r\n    /*\r\n    *@dev getOrder lists the price and maker of a specific token for a sale\r\n    *@param _tokenId uint256 ID of photo\r\n    *@return address of the party selling the rights to the photo\r\n    *@return uint of the price of the sale\r\n    */\r\n    function getOrder(uint256 _tokenId) external view returns(address,uint){\r\n        Order storage _order = orders[_tokenId];\r\n        return (_order.maker,_order.price);\r\n    }\r\n\r\n    /*\r\n    *@dev getLeases lists the price and maker of a specific token for a Lease\r\n    *@param _tokenId uint256 ID of photo\r\n    *@return address of the party leasing the rights to the photo\r\n    *@return uint of the price of the lease\r\n    */\r\n    function getLeases(uint256 _tokenId) external view returns(address,uint){\r\n        Order storage _order = leases[_tokenId];\r\n        return (_order.maker,_order.price);\r\n    }\r\n    /*\r\n    *@dev getLeasesbyOwner lists all tokens leased by an address\r\n    *@param _party is the address of the party  you are querying \r\n    *@return uint[] of tokenIds leased by party\r\n    *@Note - does not include tokens the party owns. \r\n    */\r\n    function getLeasebyOwner(address _party) external view returns(uint[]){\r\n        return leasesOwned[_party];\r\n    }\r\n\r\n    /*\r\n    *@dev getTokenLeases gives you all addresses that have leased a token\r\n    *@param _tokenId uint256 ID of photo\r\n    *@return address[] of all addresses that have leased a specific token\r\n    */\r\n    function getTokenLeases(uint256 _tokenId) external view returns(address[]){\r\n        return tokenLeases[_tokenId];\r\n    }\r\n\r\n\r\n    /*\r\n    *@dev allows the owner to change who the owner is\r\n    *@param _owner is the address of the new owner\r\n    */\r\n    function setOwner(address _owner) public onlyOwner() {\r\n        owner = _owner;\r\n    }\r\n\r\n    /*\r\n    *@dev allows the owner to set the address of the PhotoCoin token\r\n    *@param _token address of the PhotoCoin token (PhotoCore.sol)\r\n    */\r\n    function setToken(address _token) public onlyOwner() {\r\n        token = PhotoCore(_token);\r\n    }\r\n\r\n    /*\r\n    *@dev Allows the owner to blacklist addresses from using this exchange\r\n    *@param _address the address of the party to blacklist\r\n    *@param _motion true or false depending on if blacklisting or not\r\n    *@Note - This allows the owner to stop a malicious party from spamming the orderbook\r\n    */\r\n    function blacklistParty(address _address, bool _motion) public onlyOwner() {\r\n        blacklist[_address] = _motion;\r\n    }\r\n\r\n    /*\r\n    *@dev Allows parties to see if one is blacklisted\r\n    *@param _address the address of the party to blacklist\r\n    *@return bool, true for is blacklisted\r\n    */\r\n    function isBlacklist(address _address) public view returns(bool) {\r\n        return blacklist[_address];\r\n    }\r\n\r\n    /*\r\n    *@dev getOrderCount allows parties to query how many orders are on the book\r\n    *@return _uint of the number of orders in the orderbook\r\n    */\r\n    function getOrderCount() public constant returns(uint) {\r\n        return forSale.length;\r\n    }\r\n\r\n    /*\r\n    *@dev getLeaseCount allows parties to query how many leases are on the book\r\n    *@return _uint of the number of orders in the lease orderbook\r\n    */\r\n    function getLeaseCount() public constant returns(uint) {\r\n        return forLease.length;\r\n    }\r\n\r\n    /*\r\n    *@dev allows the owner to set the address of the fee for the marketplace contract\r\n    *@param _fee percentage fee charged to each contract to 3 decimals (so 1000 is a 100% fee, 50 is a 5% fee, and 10 is a 1% fee)\r\n    */\r\n    function setFee(uint _fee) public onlyOwner() {\r\n        fee = _fee;\r\n    }\r\n\r\n    /*\r\n    *@dev allows owner to withdraw funds\r\n    */\r\n    function withdraw() public onlyOwner(){\r\n        owner.transfer(this.balance);\r\n    }\r\n\r\n\r\n    /***INTERNAL FUNCTIONS***/\r\n    /*\r\n    *@dev An internal function to update mappings when an order is removed from the book\r\n    *@param _tokenId uint256 ID of photo\r\n    */\r\n    function unLister(uint256 _tokenId) internal{\r\n        uint256 tokenIndex = forSaleIndex[_tokenId];\r\n        uint256 lastTokenIndex = forSale.length.sub(1);\r\n        uint256 lastToken = forSale[lastTokenIndex];\r\n        orders[_tokenId] = Order({\r\n            maker: address(0),\r\n            price: 0\r\n        });\r\n        forSale[tokenIndex] = lastToken;\r\n        forSale.length--;\r\n        forSaleIndex[_tokenId] = 0;\r\n    }\r\n\r\n        /*\r\n    *@dev An internal function to update mappings when a lease is removed from the book\r\n    *@param _tokenId uint256 ID of photo\r\n    */\r\n    function unLeaster(uint256 _tokenId) internal{\r\n        uint256 tokenIndex = forLeaseIndex[_tokenId];\r\n        uint256 lastTokenIndex = forLease.length.sub(1);\r\n        uint256 lastToken = forLease[lastTokenIndex];\r\n        leases[_tokenId] = Order({\r\n            maker: address(0),\r\n            price: 0\r\n        });\r\n        forLease[tokenIndex] = lastToken;\r\n        forLease.length--;\r\n        forLeaseIndex[_tokenId] = 0;\r\n    }\r\n}",
  "sourcePath": "C:\\Nick\\consulting\\photocoin\\contracts\\PhotoMarket.sol",
  "compiler": {
    "name": "solc",
    "version": "0.4.19+commit.c4cbbb05.Emscripten.clang"
  },
  "schemaVersion": "1.0.1",
  "updatedAt": "2018-03-19T03:03:11.190Z"
}