{
  "contractName": "PhotoCore",
  "abi": [
    {
      "constant": true,
      "inputs": [
        {
          "name": "interfaceID",
          "type": "bytes4"
        }
      ],
      "name": "supportsInterface",
      "outputs": [
        {
          "name": "",
          "type": "bool"
        }
      ],
      "payable": false,
      "stateMutability": "view",
      "type": "function"
    },
    {
      "constant": true,
      "inputs": [],
      "name": "name",
      "outputs": [
        {
          "name": "",
          "type": "string"
        }
      ],
      "payable": false,
      "stateMutability": "view",
      "type": "function"
    },
    {
      "constant": false,
      "inputs": [
        {
          "name": "_to",
          "type": "address"
        },
        {
          "name": "_tokenId",
          "type": "uint256"
        }
      ],
      "name": "approve",
      "outputs": [],
      "payable": false,
      "stateMutability": "nonpayable",
      "type": "function"
    },
    {
      "constant": true,
      "inputs": [],
      "name": "auctionContract",
      "outputs": [
        {
          "name": "",
          "type": "address"
        }
      ],
      "payable": false,
      "stateMutability": "view",
      "type": "function"
    },
    {
      "constant": false,
      "inputs": [
        {
          "name": "_owner",
          "type": "address"
        }
      ],
      "name": "setOwner",
      "outputs": [],
      "payable": false,
      "stateMutability": "nonpayable",
      "type": "function"
    },
    {
      "constant": true,
      "inputs": [],
      "name": "totalSupply",
      "outputs": [
        {
          "name": "",
          "type": "uint256"
        }
      ],
      "payable": false,
      "stateMutability": "view",
      "type": "function"
    },
    {
      "constant": false,
      "inputs": [
        {
          "name": "_from",
          "type": "address"
        },
        {
          "name": "_to",
          "type": "address"
        },
        {
          "name": "_tokenId",
          "type": "uint256"
        }
      ],
      "name": "transferFrom",
      "outputs": [],
      "payable": false,
      "stateMutability": "nonpayable",
      "type": "function"
    },
    {
      "constant": true,
      "inputs": [
        {
          "name": "_tokenId",
          "type": "uint256"
        }
      ],
      "name": "approvedFor",
      "outputs": [
        {
          "name": "",
          "type": "address"
        }
      ],
      "payable": false,
      "stateMutability": "view",
      "type": "function"
    },
    {
      "constant": false,
      "inputs": [
        {
          "name": "_user",
          "type": "address"
        },
        {
          "name": "_trueorfalse",
          "type": "bool"
        }
      ],
      "name": "setWhitelist",
      "outputs": [],
      "payable": false,
      "stateMutability": "nonpayable",
      "type": "function"
    },
    {
      "constant": true,
      "inputs": [
        {
          "name": "_owner",
          "type": "address"
        }
      ],
      "name": "tokensOf",
      "outputs": [
        {
          "name": "",
          "type": "uint256[]"
        }
      ],
      "payable": false,
      "stateMutability": "view",
      "type": "function"
    },
    {
      "constant": true,
      "inputs": [
        {
          "name": "_tokenId",
          "type": "uint256"
        }
      ],
      "name": "ownerOf",
      "outputs": [
        {
          "name": "",
          "type": "address"
        }
      ],
      "payable": false,
      "stateMutability": "view",
      "type": "function"
    },
    {
      "constant": false,
      "inputs": [
        {
          "name": "_market",
          "type": "address"
        }
      ],
      "name": "setMarket",
      "outputs": [],
      "payable": false,
      "stateMutability": "nonpayable",
      "type": "function"
    },
    {
      "constant": true,
      "inputs": [
        {
          "name": "_owner",
          "type": "address"
        }
      ],
      "name": "balanceOf",
      "outputs": [
        {
          "name": "",
          "type": "uint256"
        }
      ],
      "payable": false,
      "stateMutability": "view",
      "type": "function"
    },
    {
      "constant": true,
      "inputs": [],
      "name": "totalTokens",
      "outputs": [
        {
          "name": "",
          "type": "uint256"
        }
      ],
      "payable": false,
      "stateMutability": "view",
      "type": "function"
    },
    {
      "constant": true,
      "inputs": [],
      "name": "allowUploads",
      "outputs": [
        {
          "name": "",
          "type": "bool"
        }
      ],
      "payable": false,
      "stateMutability": "view",
      "type": "function"
    },
    {
      "constant": true,
      "inputs": [],
      "name": "owner",
      "outputs": [
        {
          "name": "",
          "type": "address"
        }
      ],
      "payable": false,
      "stateMutability": "view",
      "type": "function"
    },
    {
      "constant": true,
      "inputs": [],
      "name": "symbol",
      "outputs": [
        {
          "name": "",
          "type": "string"
        }
      ],
      "payable": false,
      "stateMutability": "view",
      "type": "function"
    },
    {
      "constant": true,
      "inputs": [],
      "name": "marketContract",
      "outputs": [
        {
          "name": "",
          "type": "address"
        }
      ],
      "payable": false,
      "stateMutability": "view",
      "type": "function"
    },
    {
      "constant": false,
      "inputs": [
        {
          "name": "_operator",
          "type": "address"
        },
        {
          "name": "_approved",
          "type": "bool"
        }
      ],
      "name": "setApprovalForAll",
      "outputs": [],
      "payable": false,
      "stateMutability": "nonpayable",
      "type": "function"
    },
    {
      "constant": true,
      "inputs": [
        {
          "name": "_operator",
          "type": "address"
        },
        {
          "name": "_owner",
          "type": "address"
        }
      ],
      "name": "isApproved",
      "outputs": [
        {
          "name": "",
          "type": "bool"
        }
      ],
      "payable": false,
      "stateMutability": "view",
      "type": "function"
    },
    {
      "constant": false,
      "inputs": [
        {
          "name": "_from",
          "type": "address"
        },
        {
          "name": "_to",
          "type": "address"
        },
        {
          "name": "_tokenId",
          "type": "uint256"
        },
        {
          "name": "data",
          "type": "bytes"
        }
      ],
      "name": "transferFrom",
      "outputs": [],
      "payable": false,
      "stateMutability": "nonpayable",
      "type": "function"
    },
    {
      "constant": true,
      "inputs": [
        {
          "name": "_tokenId",
          "type": "uint256"
        }
      ],
      "name": "getPhoto",
      "outputs": [
        {
          "name": "",
          "type": "string"
        },
        {
          "name": "",
          "type": "string"
        },
        {
          "name": "",
          "type": "uint256"
        },
        {
          "name": "",
          "type": "uint64"
        }
      ],
      "payable": false,
      "stateMutability": "view",
      "type": "function"
    },
    {
      "constant": false,
      "inputs": [
        {
          "name": "_auction",
          "type": "address"
        }
      ],
      "name": "setAuction",
      "outputs": [],
      "payable": false,
      "stateMutability": "nonpayable",
      "type": "function"
    },
    {
      "constant": true,
      "inputs": [
        {
          "name": "_user",
          "type": "address"
        }
      ],
      "name": "isWhitelist",
      "outputs": [
        {
          "name": "",
          "type": "bool"
        }
      ],
      "payable": false,
      "stateMutability": "view",
      "type": "function"
    },
    {
      "constant": true,
      "inputs": [
        {
          "name": "_operator",
          "type": "address"
        },
        {
          "name": "_owner",
          "type": "address"
        },
        {
          "name": "_tokenId",
          "type": "uint256"
        }
      ],
      "name": "isApproved",
      "outputs": [
        {
          "name": "",
          "type": "bool"
        }
      ],
      "payable": false,
      "stateMutability": "view",
      "type": "function"
    },
    {
      "inputs": [],
      "payable": false,
      "stateMutability": "nonpayable",
      "type": "constructor"
    },
    {
      "payable": true,
      "stateMutability": "payable",
      "type": "fallback"
    },
    {
      "anonymous": false,
      "inputs": [
        {
          "indexed": true,
          "name": "_owner",
          "type": "address"
        },
        {
          "indexed": false,
          "name": "_photoId",
          "type": "uint256"
        },
        {
          "indexed": false,
          "name": "_photoHash",
          "type": "bytes32"
        },
        {
          "indexed": false,
          "name": "_name",
          "type": "string"
        },
        {
          "indexed": false,
          "name": "_photographer",
          "type": "string"
        },
        {
          "indexed": false,
          "name": "_isenNumber",
          "type": "uint256"
        }
      ],
      "name": "Upload",
      "type": "event"
    },
    {
      "anonymous": false,
      "inputs": [
        {
          "indexed": true,
          "name": "_from",
          "type": "address"
        },
        {
          "indexed": true,
          "name": "_to",
          "type": "address"
        },
        {
          "indexed": false,
          "name": "_tokenId",
          "type": "uint256"
        }
      ],
      "name": "Transfer",
      "type": "event"
    },
    {
      "anonymous": false,
      "inputs": [
        {
          "indexed": true,
          "name": "_owner",
          "type": "address"
        },
        {
          "indexed": true,
          "name": "_operator",
          "type": "address"
        },
        {
          "indexed": false,
          "name": "_approved",
          "type": "bool"
        }
      ],
      "name": "ApprovalForAll",
      "type": "event"
    },
    {
      "anonymous": false,
      "inputs": [
        {
          "indexed": true,
          "name": "_owner",
          "type": "address"
        },
        {
          "indexed": true,
          "name": "_operator",
          "type": "address"
        },
        {
          "indexed": false,
          "name": "_tokenId",
          "type": "uint256"
        }
      ],
      "name": "Approval",
      "type": "event"
    },
    {
      "constant": false,
      "inputs": [],
      "name": "setAllowUploads",
      "outputs": [],
      "payable": false,
      "stateMutability": "nonpayable",
      "type": "function"
    },
    {
      "constant": false,
      "inputs": [
        {
          "name": "_photoHash",
          "type": "bytes32"
        },
        {
          "name": "_name",
          "type": "string"
        },
        {
          "name": "_photographer",
          "type": "string"
        },
        {
          "name": "_isenNumber",
          "type": "uint256"
        },
        {
          "name": "_owner",
          "type": "address"
        }
      ],
      "name": "uploadPhoto",
      "outputs": [],
      "payable": false,
      "stateMutability": "nonpayable",
      "type": "function"
    }
  ],
  "bytecode": "0x60606040526040805190810160405280600981526020017f50686f746f436f696e0000000000000000000000000000000000000000000000815250600c9080519060200190620000519291906200055b565b506040805190810160405280600281526020017f5043000000000000000000000000000000000000000000000000000000000000815250600d90805190602001906200009f9291906200055b565b503415620000ac57600080fd5b620000ca6200018b64010000000002620026de176401000000009004565b33600760006101000a81548173ffffffffffffffffffffffffffffffffffffffff021916908373ffffffffffffffffffffffffffffffffffffffff1602179055506001600b6000600760009054906101000a900473ffffffffffffffffffffffffffffffffffffffff1673ffffffffffffffffffffffffffffffffffffffff1673ffffffffffffffffffffffffffffffffffffffff16815260200190815260200160002060006101000a81548160ff0219169083151502179055506200060a565b60018060003073ffffffffffffffffffffffffffffffffffffffff1663095ea7b390507c01000000000000000000000000000000000000000000000000000000000260405180807f6973417070726f76656428616464726573732c616464726573732c75696e743281526020017f35362900000000000000000000000000000000000000000000000000000000008152506023019050604051809103902060405180807f6973417070726f76656428616464726573732c61646472657373290000000000815250601b01905060405180910390203073ffffffffffffffffffffffffffffffffffffffff16636352211e90507c0100000000000000000000000000000000000000000000000000000000023073ffffffffffffffffffffffffffffffffffffffff166370a0823190507c0100000000000000000000000000000000000000000000000000000000023073ffffffffffffffffffffffffffffffffffffffff1663a22cb46590507c0100000000000000000000000000000000000000000000000000000000023073ffffffffffffffffffffffffffffffffffffffff166318160ddd90507c01000000000000000000000000000000000000000000000000000000000260405180807f7472616e7366657246726f6d28616464726573732c616464726573732c75696e81526020017f743235362c627974657329000000000000000000000000000000000000000000815250602b019050604051809103902060405180807f7472616e7366657246726f6d28616464726573732c616464726573732c75696e81526020017f7432353629000000000000000000000000000000000000000000000000000000815250602501905060405180910390203073ffffffffffffffffffffffffffffffffffffffff166301ffc9a790507c0100000000000000000000000000000000000000000000000000000000021818181818181818187bffffffffffffffffffffffffffffffffffffffffffffffffffffffff19167bffffffffffffffffffffffffffffffffffffffffffffffffffffffff1916815260200190815260200160002060006101000a81548160ff02191690831515021790555060018060003073ffffffffffffffffffffffffffffffffffffffff166301ffc9a790507c0100000000000000000000000000000000000000000000000000000000027bffffffffffffffffffffffffffffffffffffffffffffffffffffffff19167bffffffffffffffffffffffffffffffffffffffffffffffffffffffff1916815260200190815260200160002060006101000a81548160ff021916908315150217905550565b828054600181600116156101000203166002900490600052602060002090601f016020900481019282601f106200059e57805160ff1916838001178555620005cf565b82800160010185558215620005cf579182015b82811115620005ce578251825591602001919060010190620005b1565b5b509050620005de9190620005e2565b5090565b6200060791905b8082111562000603576000816000905550600101620005e9565b5090565b90565b612ada806200061a6000396000f30060606040526004361061015f576000357c0100000000000000000000000000000000000000000000000000000000900463ffffffff16806301ffc9a71461017057806306fdde03146101ca578063095ea7b3146102585780630ab8afac1461029a57806313af4035146102ef57806318160ddd1461032857806323b872dd146103515780632a6dd48f146103b257806353d6fd59146104155780635a3f2672146104595780636352211e146104e75780636dcea85f1461054a57806370a08231146105835780637e1c0c09146105d0578063821ed3a6146105f95780638da5cb5b1461062657806395d89b411461067b578063987e9bfb14610709578063a1794bcd146107de578063a22cb46514610833578063a389783e14610877578063ab67aa58146108e7578063b6be128a1461098b578063b8c6f57914610ab5578063c683630d14610aee578063c8e87f6814610b3f578063e5af48d814610b54575b60003414151561016e57600080fd5b005b341561017b57600080fd5b6101b060048080357bffffffffffffffffffffffffffffffffffffffffffffffffffffffff1916906020019091905050610bcd565b604051808215151515815260200191505060405180910390f35b34156101d557600080fd5b6101dd610c35565b6040518080602001828103825283818151815260200191508051906020019080838360005b8381101561021d578082015181840152602081019050610202565b50505050905090810190601f16801561024a5780820380516001836020036101000a031916815260200191505b509250505060405180910390f35b341561026357600080fd5b610298600480803573ffffffffffffffffffffffffffffffffffffffff16906020019091908035906020019091905050610cd3565b005b34156102a557600080fd5b6102ad610e0d565b604051808273ffffffffffffffffffffffffffffffffffffffff1673ffffffffffffffffffffffffffffffffffffffff16815260200191505060405180910390f35b34156102fa57600080fd5b610326600480803573ffffffffffffffffffffffffffffffffffffffff16906020019091905050610e33565b005b341561033357600080fd5b61033b610ed3565b6040518082815260200191505060405180910390f35b341561035c57600080fd5b6103b0600480803573ffffffffffffffffffffffffffffffffffffffff1690602001909190803573ffffffffffffffffffffffffffffffffffffffff16906020019091908035906020019091905050610edc565b005b34156103bd57600080fd5b6103d360048080359060200190919050506110b8565b604051808273ffffffffffffffffffffffffffffffffffffffff1673ffffffffffffffffffffffffffffffffffffffff16815260200191505060405180910390f35b341561042057600080fd5b610457600480803573ffffffffffffffffffffffffffffffffffffffff1690602001909190803515159060200190919050506110f5565b005b341561046457600080fd5b610490600480803573ffffffffffffffffffffffffffffffffffffffff169060200190919050506111ac565b6040518080602001828103825283818151815260200191508051906020019060200280838360005b838110156104d35780820151818401526020810190506104b8565b505050509050019250505060405180910390f35b34156104f257600080fd5b6105086004808035906020019091905050611249565b604051808273ffffffffffffffffffffffffffffffffffffffff1673ffffffffffffffffffffffffffffffffffffffff16815260200191505060405180910390f35b341561055557600080fd5b610581600480803573ffffffffffffffffffffffffffffffffffffffff1690602001909190505061128b565b005b341561058e57600080fd5b6105ba600480803573ffffffffffffffffffffffffffffffffffffffff1690602001909190505061132b565b6040518082815260200191505060405180910390f35b34156105db57600080fd5b6105e3611377565b6040518082815260200191505060405180910390f35b341561060457600080fd5b61060c61137d565b604051808215151515815260200191505060405180910390f35b341561063157600080fd5b610639611390565b604051808273ffffffffffffffffffffffffffffffffffffffff1673ffffffffffffffffffffffffffffffffffffffff16815260200191505060405180910390f35b341561068657600080fd5b61068e6113b6565b6040518080602001828103825283818151815260200191508051906020019080838360005b838110156106ce5780820151818401526020810190506106b3565b50505050905090810190601f1680156106fb5780820380516001836020036101000a031916815260200191505b509250505060405180910390f35b341561071457600080fd5b6107dc60048080356000191690602001909190803590602001908201803590602001908080601f0160208091040260200160405190810160405280939291908181526020018383808284378201915050505050509190803590602001908201803590602001908080601f0160208091040260200160405190810160405280939291908181526020018383808284378201915050505050509190803590602001909190803573ffffffffffffffffffffffffffffffffffffffff16906020019091905050611454565b005b34156107e957600080fd5b6107f161174b565b604051808273ffffffffffffffffffffffffffffffffffffffff1673ffffffffffffffffffffffffffffffffffffffff16815260200191505060405180910390f35b341561083e57600080fd5b610875600480803573ffffffffffffffffffffffffffffffffffffffff169060200190919080351515906020019091905050611771565b005b341561088257600080fd5b6108cd600480803573ffffffffffffffffffffffffffffffffffffffff1690602001909190803573ffffffffffffffffffffffffffffffffffffffff169060200190919050506118e7565b604051808215151515815260200191505060405180910390f35b34156108f257600080fd5b610989600480803573ffffffffffffffffffffffffffffffffffffffff1690602001909190803573ffffffffffffffffffffffffffffffffffffffff1690602001909190803590602001909190803590602001908201803590602001908080601f0160208091040260200160405190810160405280939291908181526020018383808284378201915050505050509190505061197f565b005b341561099657600080fd5b6109ac6004808035906020019091905050611b11565b6040518080602001806020018581526020018467ffffffffffffffff1667ffffffffffffffff168152602001838103835287818151815260200191508051906020019080838360005b83811015610a105780820151818401526020810190506109f5565b50505050905090810190601f168015610a3d5780820380516001836020036101000a031916815260200191505b50838103825286818151815260200191508051906020019080838360005b83811015610a76578082015181840152602081019050610a5b565b50505050905090810190601f168015610aa35780820380516001836020036101000a031916815260200191505b50965050505050505060405180910390f35b3415610ac057600080fd5b610aec600480803573ffffffffffffffffffffffffffffffffffffffff16906020019091905050611d09565b005b3415610af957600080fd5b610b25600480803573ffffffffffffffffffffffffffffffffffffffff16906020019091905050611da9565b604051808215151515815260200191505060405180910390f35b3415610b4a57600080fd5b610b52611dff565b005b3415610b5f57600080fd5b610bb3600480803573ffffffffffffffffffffffffffffffffffffffff1690602001909190803573ffffffffffffffffffffffffffffffffffffffff16906020019091908035906020019091905050611e87565b604051808215151515815260200191505060405180910390f35b600060016000837bffffffffffffffffffffffffffffffffffffffffffffffffffffffff19167bffffffffffffffffffffffffffffffffffffffffffffffffffffffff1916815260200190815260200160002060009054906101000a900460ff169050919050565b600c8054600181600116156101000203166002900480601f016020809104026020016040519081016040528092919081815260200182805460018160011615610100020316600290048015610ccb5780601f10610ca057610100808354040283529160200191610ccb565b820191906000526020600020905b815481529060010190602001808311610cae57829003601f168201915b505050505081565b803373ffffffffffffffffffffffffffffffffffffffff16610cf482611249565b73ffffffffffffffffffffffffffffffffffffffff16141515610d1657600080fd5b3373ffffffffffffffffffffffffffffffffffffffff168373ffffffffffffffffffffffffffffffffffffffff1614151515610d5157600080fd5b826003600084815260200190815260200160002060006101000a81548173ffffffffffffffffffffffffffffffffffffffff021916908373ffffffffffffffffffffffffffffffffffffffff1602179055508273ffffffffffffffffffffffffffffffffffffffff163373ffffffffffffffffffffffffffffffffffffffff167f8c5be1e5ebec7d5bd14f71427d1e84f3dd0314c0f7b2291e5b200ac8c7c3b925846040518082815260200191505060405180910390a3505050565b600960009054906101000a900473ffffffffffffffffffffffffffffffffffffffff1681565b600760009054906101000a900473ffffffffffffffffffffffffffffffffffffffff1673ffffffffffffffffffffffffffffffffffffffff163373ffffffffffffffffffffffffffffffffffffffff16141515610e8f57600080fd5b80600760006101000a81548173ffffffffffffffffffffffffffffffffffffffff021916908373ffffffffffffffffffffffffffffffffffffffff16021790555050565b60008054905090565b600760009054906101000a900473ffffffffffffffffffffffffffffffffffffffff1673ffffffffffffffffffffffffffffffffffffffff163373ffffffffffffffffffffffffffffffffffffffff161480610f3e5750610f3d33846118e7565b5b80610f505750610f4f338483611e87565b5b80610f8e57503373ffffffffffffffffffffffffffffffffffffffff16610f7682611249565b73ffffffffffffffffffffffffffffffffffffffff16145b80610fe65750600860009054906101000a900473ffffffffffffffffffffffffffffffffffffffff1673ffffffffffffffffffffffffffffffffffffffff163373ffffffffffffffffffffffffffffffffffffffff16145b8061103e5750600960009054906101000a900473ffffffffffffffffffffffffffffffffffffffff1673ffffffffffffffffffffffffffffffffffffffff163373ffffffffffffffffffffffffffffffffffffffff16145b151561104957600080fd5b60011515600b60008473ffffffffffffffffffffffffffffffffffffffff1673ffffffffffffffffffffffffffffffffffffffff16815260200190815260200160002060009054906101000a900460ff1615151415156110a857600080fd5b6110b3838383611f69565b505050565b60006003600083815260200190815260200160002060009054906101000a900473ffffffffffffffffffffffffffffffffffffffff169050919050565b600760009054906101000a900473ffffffffffffffffffffffffffffffffffffffff1673ffffffffffffffffffffffffffffffffffffffff163373ffffffffffffffffffffffffffffffffffffffff1614151561115157600080fd5b80600b60008473ffffffffffffffffffffffffffffffffffffffff1673ffffffffffffffffffffffffffffffffffffffff16815260200190815260200160002060006101000a81548160ff0219169083151502179055505050565b6111b461255c565b600460008373ffffffffffffffffffffffffffffffffffffffff1673ffffffffffffffffffffffffffffffffffffffff16815260200190815260200160002080548060200260200160405190810160405280929190818152602001828054801561123d57602002820191906000526020600020905b815481526020019060010190808311611229575b50505050509050919050565b6000806002600084815260200190815260200160002060009054906101000a900473ffffffffffffffffffffffffffffffffffffffff16905080915050919050565b600760009054906101000a900473ffffffffffffffffffffffffffffffffffffffff1673ffffffffffffffffffffffffffffffffffffffff163373ffffffffffffffffffffffffffffffffffffffff161415156112e757600080fd5b80600860006101000a81548173ffffffffffffffffffffffffffffffffffffffff021916908373ffffffffffffffffffffffffffffffffffffffff16021790555050565b6000600460008373ffffffffffffffffffffffffffffffffffffffff1673ffffffffffffffffffffffffffffffffffffffff168152602001908152602001600020805490509050919050565b60005481565b600e60009054906101000a900460ff1681565b600760009054906101000a900473ffffffffffffffffffffffffffffffffffffffff1681565b600d8054600181600116156101000203166002900480601f01602080910402602001604051908101604052809291908181526020018280546001816001161561010002031660029004801561144c5780601f106114215761010080835404028352916020019161144c565b820191906000526020600020905b81548152906001019060200180831161142f57829003601f168201915b505050505081565b60008073ffffffffffffffffffffffffffffffffffffffff168273ffffffffffffffffffffffffffffffffffffffff1614156114b057600760009054906101000a900473ffffffffffffffffffffffffffffffffffffffff1691505b600e60009054906101000a900460ff16806115185750600760009054906101000a900473ffffffffffffffffffffffffffffffffffffffff1673ffffffffffffffffffffffffffffffffffffffff163373ffffffffffffffffffffffffffffffffffffffff16145b151561152357600080fd5b600054905060a060405190810160405280868152602001858152602001876000191681526020018481526020014267ffffffffffffffff16815250600a6000838152602001908152602001600020600082015181600001908051906020019061158d929190612570565b5060208201518160010190805190602001906115aa929190612570565b50604082015181600201906000191690556060820151816003015560808201518160040160006101000a81548167ffffffffffffffff021916908367ffffffffffffffff16021790555090505061160360008383610edc565b8173ffffffffffffffffffffffffffffffffffffffff167f617db0c49289b17c180e87517cabec78402cfe15781318051fe9165e9017e09f82888888886040518086815260200185600019166000191681526020018060200180602001848152602001838103835286818151815260200191508051906020019080838360005b8381101561169e578082015181840152602081019050611683565b50505050905090810190601f1680156116cb5780820380516001836020036101000a031916815260200191505b50838103825285818151815260200191508051906020019080838360005b838110156117045780820151818401526020810190506116e9565b50505050905090810190601f1680156117315780820380516001836020036101000a031916815260200191505b5097505050505050505060405180910390a2505050505050565b600860009054906101000a900473ffffffffffffffffffffffffffffffffffffffff1681565b80156117fa5781600660003373ffffffffffffffffffffffffffffffffffffffff1673ffffffffffffffffffffffffffffffffffffffff16815260200190815260200160002060006101000a81548173ffffffffffffffffffffffffffffffffffffffff021916908373ffffffffffffffffffffffffffffffffffffffff16021790555061187a565b6000600660003373ffffffffffffffffffffffffffffffffffffffff1673ffffffffffffffffffffffffffffffffffffffff16815260200190815260200160002060006101000a81548173ffffffffffffffffffffffffffffffffffffffff021916908373ffffffffffffffffffffffffffffffffffffffff1602179055505b8173ffffffffffffffffffffffffffffffffffffffff163373ffffffffffffffffffffffffffffffffffffffff167f17307eab39ab6107e8899845ad3d59bd9653f200f220920489ca2b5937696c3183604051808215151515815260200191505060405180910390a35050565b60008273ffffffffffffffffffffffffffffffffffffffff16600660008473ffffffffffffffffffffffffffffffffffffffff1673ffffffffffffffffffffffffffffffffffffffff16815260200190815260200160002060009054906101000a900473ffffffffffffffffffffffffffffffffffffffff1673ffffffffffffffffffffffffffffffffffffffff1614905092915050565b6000803373ffffffffffffffffffffffffffffffffffffffff166119a2856110b8565b73ffffffffffffffffffffffffffffffffffffffff1614806119ca57506119c933876118e7565b5b80611a0857503373ffffffffffffffffffffffffffffffffffffffff166119f085611249565b73ffffffffffffffffffffffffffffffffffffffff16145b1515611a1357600080fd5b611a1e868686611f69565b600090505b6020811015611aeb576008810260ff7f0100000000000000000000000000000000000000000000000000000000000000028483815181101515611a6257fe5b9060200101517f010000000000000000000000000000000000000000000000000000000000000090047f010000000000000000000000000000000000000000000000000000000000000002167effffffffffffffffffffffffffffffffffffffffffffffffffffffffffffff1916600019169060020a9004821791508080600101915050611a23565b8160405180826000191660001916815260200191505060405180910390a0505050505050565b611b196125f0565b611b216125f0565b600080611b2c612604565b600a600087815260200190815260200160002060a06040519081016040529081600082018054600181600116156101000203166002900480601f016020809104026020016040519081016040528092919081815260200182805460018160011615610100020316600290048015611be45780601f10611bb957610100808354040283529160200191611be4565b820191906000526020600020905b815481529060010190602001808311611bc757829003601f168201915b50505050508152602001600182018054600181600116156101000203166002900480601f016020809104026020016040519081016040528092919081815260200182805460018160011615610100020316600290048015611c865780601f10611c5b57610100808354040283529160200191611c86565b820191906000526020600020905b815481529060010190602001808311611c6957829003601f168201915b50505050508152602001600282015460001916600019168152602001600382015481526020016004820160009054906101000a900467ffffffffffffffff1667ffffffffffffffff1667ffffffffffffffff1681525050905080600001518160200151826060015183608001518393508292509450945094509450509193509193565b600760009054906101000a900473ffffffffffffffffffffffffffffffffffffffff1673ffffffffffffffffffffffffffffffffffffffff163373ffffffffffffffffffffffffffffffffffffffff16141515611d6557600080fd5b80600960006101000a81548173ffffffffffffffffffffffffffffffffffffffff021916908373ffffffffffffffffffffffffffffffffffffffff16021790555050565b6000600b60008373ffffffffffffffffffffffffffffffffffffffff1673ffffffffffffffffffffffffffffffffffffffff16815260200190815260200160002060009054906101000a900460ff169050919050565b600760009054906101000a900473ffffffffffffffffffffffffffffffffffffffff1673ffffffffffffffffffffffffffffffffffffffff163373ffffffffffffffffffffffffffffffffffffffff16141515611e5b57600080fd5b600e60009054906101000a900460ff1615600e60006101000a81548160ff021916908315150217905550565b60008373ffffffffffffffffffffffffffffffffffffffff166003600084815260200190815260200160002060009054906101000a900473ffffffffffffffffffffffffffffffffffffffff1673ffffffffffffffffffffffffffffffffffffffff16148015611f60575081600460008573ffffffffffffffffffffffffffffffffffffffff1673ffffffffffffffffffffffffffffffffffffffff1681526020019081526020016000206005600085815260200190815260200160002054815481101515611f5257fe5b906000526020600020900154145b90509392505050565b600073ffffffffffffffffffffffffffffffffffffffff168273ffffffffffffffffffffffffffffffffffffffff1614151515611fa557600080fd5b611fae81611249565b73ffffffffffffffffffffffffffffffffffffffff168273ffffffffffffffffffffffffffffffffffffffff1614151515611fe857600080fd5b8273ffffffffffffffffffffffffffffffffffffffff1661200882611249565b73ffffffffffffffffffffffffffffffffffffffff1614151561202a57600080fd5b60006003600083815260200190815260200160002060006101000a81548173ffffffffffffffffffffffffffffffffffffffff021916908373ffffffffffffffffffffffffffffffffffffffff160217905550600073ffffffffffffffffffffffffffffffffffffffff168373ffffffffffffffffffffffffffffffffffffffff161415156120be576120bd8382612132565b5b6120c882826123ba565b8173ffffffffffffffffffffffffffffffffffffffff168373ffffffffffffffffffffffffffffffffffffffff167fddf252ad1be2c89b69c2b068fc378daa952ba7f163c4a11628f55a4df523b3ef836040518082815260200191505060405180910390a3505050565b60008060008473ffffffffffffffffffffffffffffffffffffffff1661215785611249565b73ffffffffffffffffffffffffffffffffffffffff1614151561217957600080fd5b600560008581526020019081526020016000205492506121ab600161219d8761132b565b61252590919063ffffffff16565b9150600460008673ffffffffffffffffffffffffffffffffffffffff1673ffffffffffffffffffffffffffffffffffffffff168152602001908152602001600020828154811015156121f957fe5b906000526020600020900154905060006002600086815260200190815260200160002060006101000a81548173ffffffffffffffffffffffffffffffffffffffff021916908373ffffffffffffffffffffffffffffffffffffffff16021790555080600460008773ffffffffffffffffffffffffffffffffffffffff1673ffffffffffffffffffffffffffffffffffffffff168152602001908152602001600020848154811015156122a757fe5b9060005260206000209001819055506000600460008773ffffffffffffffffffffffffffffffffffffffff1673ffffffffffffffffffffffffffffffffffffffff1681526020019081526020016000208381548110151561230457fe5b906000526020600020900181905550600460008673ffffffffffffffffffffffffffffffffffffffff1673ffffffffffffffffffffffffffffffffffffffff168152602001908152602001600020805480919060019003612365919061264d565b50600060056000868152602001908152602001600020819055508260056000838152602001908152602001600020819055506123ad600160005461252590919063ffffffff16565b6000819055505050505050565b60008073ffffffffffffffffffffffffffffffffffffffff166002600084815260200190815260200160002060009054906101000a900473ffffffffffffffffffffffffffffffffffffffff1673ffffffffffffffffffffffffffffffffffffffff1614151561242957600080fd5b826002600084815260200190815260200160002060006101000a81548173ffffffffffffffffffffffffffffffffffffffff021916908373ffffffffffffffffffffffffffffffffffffffff1602179055506124848361132b565b9050600460008473ffffffffffffffffffffffffffffffffffffffff1673ffffffffffffffffffffffffffffffffffffffff16815260200190815260200160002080548060010182816124d79190612679565b91600052602060002090016000849091909150555080600560008481526020019081526020016000208190555061251a600160005461253e90919063ffffffff16565b600081905550505050565b600082821115151561253357fe5b818303905092915050565b600080828401905083811015151561255257fe5b8091505092915050565b602060405190810160405280600081525090565b828054600181600116156101000203166002900490600052602060002090601f016020900481019282601f106125b157805160ff19168380011785556125df565b828001600101855582156125df579182015b828111156125de5782518255916020019190600101906125c3565b5b5090506125ec91906126a5565b5090565b602060405190810160405280600081525090565b60a0604051908101604052806126186126ca565b81526020016126256126ca565b81526020016000801916815260200160008152602001600067ffffffffffffffff1681525090565b8154818355818115116126745781836000526020600020918201910161267391906126a5565b5b505050565b8154818355818115116126a05781836000526020600020918201910161269f91906126a5565b5b505050565b6126c791905b808211156126c35760008160009055506001016126ab565b5090565b90565b602060405190810160405280600081525090565b60018060003073ffffffffffffffffffffffffffffffffffffffff1663095ea7b390507c01000000000000000000000000000000000000000000000000000000000260405180807f6973417070726f76656428616464726573732c616464726573732c75696e743281526020017f35362900000000000000000000000000000000000000000000000000000000008152506023019050604051809103902060405180807f6973417070726f76656428616464726573732c61646472657373290000000000815250601b01905060405180910390203073ffffffffffffffffffffffffffffffffffffffff16636352211e90507c0100000000000000000000000000000000000000000000000000000000023073ffffffffffffffffffffffffffffffffffffffff166370a0823190507c0100000000000000000000000000000000000000000000000000000000023073ffffffffffffffffffffffffffffffffffffffff1663a22cb46590507c0100000000000000000000000000000000000000000000000000000000023073ffffffffffffffffffffffffffffffffffffffff166318160ddd90507c01000000000000000000000000000000000000000000000000000000000260405180807f7472616e7366657246726f6d28616464726573732c616464726573732c75696e81526020017f743235362c627974657329000000000000000000000000000000000000000000815250602b019050604051809103902060405180807f7472616e7366657246726f6d28616464726573732c616464726573732c75696e81526020017f7432353629000000000000000000000000000000000000000000000000000000815250602501905060405180910390203073ffffffffffffffffffffffffffffffffffffffff166301ffc9a790507c0100000000000000000000000000000000000000000000000000000000021818181818181818187bffffffffffffffffffffffffffffffffffffffffffffffffffffffff19167bffffffffffffffffffffffffffffffffffffffffffffffffffffffff1916815260200190815260200160002060006101000a81548160ff02191690831515021790555060018060003073ffffffffffffffffffffffffffffffffffffffff166301ffc9a790507c0100000000000000000000000000000000000000000000000000000000027bffffffffffffffffffffffffffffffffffffffffffffffffffffffff19167bffffffffffffffffffffffffffffffffffffffffffffffffffffffff1916815260200190815260200160002060006101000a81548160ff0219169083151502179055505600a165627a7a7230582033cbb92859a4b4b63effbc4fb2bc5eda6881290645550e067d3e8babcb53ebac0029",
  "source": "pragma solidity ^0.4.18;\r\n\r\nimport \"./PhotoBase.sol\";\r\n\r\n/**\r\n*@title PhotoCore\r\n* Front contract for Photocoin. Holds uploadPhoto funtionality and token name and symbol\r\n*/\r\ncontract PhotoCore is PhotoBase{\r\n    // @notice Name and symbol of the non fungible token\r\n    string public name = \"PhotoCoin\";\r\n    string public symbol = \"PC\";\r\n    bool public allowUploads;\r\n\r\n    /**\r\n    *@dev Creates the main Photocoin smart contract instance and sets the owner\r\n    */\r\n    function PhotoCore() public {\r\n        owner = msg.sender;\r\n        whitelist[owner] = true;\r\n    }\r\n\r\n    /**\r\n    *@notice No tipping!\r\n    *@dev fallback function to reject all Ether from being sent to contract\r\n    */\r\n    function() external payable {\r\n        require(msg.value == 0);\r\n    }\r\n\r\n    /**\r\n    *@dev this function changes whether or not uploads are allowed by people other than the owner\r\n    */\r\n    function setAllowUploads() public onlyOwner(){\r\n        allowUploads = (!allowUploads);\r\n    }\r\n\r\n    /**\r\n    *@dev this is the function to create a new photocoin and update the mappings with a new token\r\n    *@param _photoHash is the hash of the photograph\r\n    *@param _name is a string variable representing the name of the photograph\r\n    *@param _photographer is a string variable representing the name of the photographer\r\n    *@param _isenNumber is the uint ISEN number\r\n    *@param _owner is the address of the new owner of the token\r\n    */\r\n    function uploadPhoto(bytes32 _photoHash,string _name, string _photographer, uint256 _isenNumber, address _owner) public{\r\n        if(_owner == address(0)) {\r\n            _owner = owner;\r\n        }\r\n        require (allowUploads || msg.sender == owner);\r\n        uint256 newId = totalTokens;\r\n        photos[newId] = Photo({\r\n            name: _name,\r\n            photographer: _photographer,\r\n            photoHash: _photoHash,\r\n            isenNumber: _isenNumber,\r\n            uploadTime: uint64(now)\r\n            });\r\n        transferFrom(address(0),_owner,newId);\r\n        Upload(_owner,newId,_photoHash, _name,_photographer,_isenNumber);\r\n    }\r\n}",
  "sourcePath": "C:\\Nick\\consulting\\photocoin\\contracts\\PhotoCore.sol",
  "compiler": {
    "name": "solc",
    "version": "0.4.19+commit.c4cbbb05.Emscripten.clang"
  },
  "schemaVersion": "1.0.1",
  "updatedAt": "2018-03-19T03:03:11.181Z"
}