{
  "contractName": "PhotoCore",
  "abi": [
    {
      "constant": true,
      "inputs": [
        {
          "name": "interfaceID",
          "type": "bytes4"
        }
      ],
      "name": "supportsInterface",
      "outputs": [
        {
          "name": "",
          "type": "bool"
        }
      ],
      "payable": false,
      "stateMutability": "view",
      "type": "function"
    },
    {
      "constant": true,
      "inputs": [],
      "name": "name",
      "outputs": [
        {
          "name": "",
          "type": "string"
        }
      ],
      "payable": false,
      "stateMutability": "view",
      "type": "function"
    },
    {
      "constant": false,
      "inputs": [
        {
          "name": "_to",
          "type": "address"
        },
        {
          "name": "_tokenId",
          "type": "uint256"
        }
      ],
      "name": "approve",
      "outputs": [],
      "payable": false,
      "stateMutability": "nonpayable",
      "type": "function"
    },
    {
      "constant": true,
      "inputs": [],
      "name": "auctionContract",
      "outputs": [
        {
          "name": "",
          "type": "address"
        }
      ],
      "payable": false,
      "stateMutability": "view",
      "type": "function"
    },
    {
      "constant": false,
      "inputs": [
        {
          "name": "_owner",
          "type": "address"
        }
      ],
      "name": "setOwner",
      "outputs": [],
      "payable": false,
      "stateMutability": "nonpayable",
      "type": "function"
    },
    {
      "constant": true,
      "inputs": [],
      "name": "totalSupply",
      "outputs": [
        {
          "name": "",
          "type": "uint256"
        }
      ],
      "payable": false,
      "stateMutability": "view",
      "type": "function"
    },
    {
      "constant": false,
      "inputs": [
        {
          "name": "_from",
          "type": "address"
        },
        {
          "name": "_to",
          "type": "address"
        },
        {
          "name": "_tokenId",
          "type": "uint256"
        }
      ],
      "name": "transferFrom",
      "outputs": [],
      "payable": false,
      "stateMutability": "nonpayable",
      "type": "function"
    },
    {
      "constant": true,
      "inputs": [
        {
          "name": "_tokenId",
          "type": "uint256"
        }
      ],
      "name": "approvedFor",
      "outputs": [
        {
          "name": "",
          "type": "address"
        }
      ],
      "payable": false,
      "stateMutability": "view",
      "type": "function"
    },
    {
      "constant": false,
      "inputs": [
        {
          "name": "_from",
          "type": "address"
        },
        {
          "name": "_to",
          "type": "address"
        },
        {
          "name": "_tokenId",
          "type": "uint256"
        }
      ],
      "name": "safeTransferFrom",
      "outputs": [],
      "payable": false,
      "stateMutability": "nonpayable",
      "type": "function"
    },
    {
      "constant": true,
      "inputs": [],
      "name": "whitelistOn",
      "outputs": [
        {
          "name": "",
          "type": "bool"
        }
      ],
      "payable": false,
      "stateMutability": "view",
      "type": "function"
    },
    {
      "constant": false,
      "inputs": [
        {
          "name": "_user",
          "type": "address"
        },
        {
          "name": "_trueorfalse",
          "type": "bool"
        }
      ],
      "name": "setWhitelist",
      "outputs": [],
      "payable": false,
      "stateMutability": "nonpayable",
      "type": "function"
    },
    {
      "constant": true,
      "inputs": [
        {
          "name": "_owner",
          "type": "address"
        }
      ],
      "name": "tokensOf",
      "outputs": [
        {
          "name": "",
          "type": "uint256[]"
        }
      ],
      "payable": false,
      "stateMutability": "view",
      "type": "function"
    },
    {
      "constant": true,
      "inputs": [
        {
          "name": "_tokenId",
          "type": "uint256"
        }
      ],
      "name": "ownerOf",
      "outputs": [
        {
          "name": "",
          "type": "address"
        }
      ],
      "payable": false,
      "stateMutability": "view",
      "type": "function"
    },
    {
      "constant": false,
      "inputs": [
        {
          "name": "_market",
          "type": "address"
        }
      ],
      "name": "setMarket",
      "outputs": [],
      "payable": false,
      "stateMutability": "nonpayable",
      "type": "function"
    },
    {
      "constant": true,
      "inputs": [
        {
          "name": "_owner",
          "type": "address"
        }
      ],
      "name": "balanceOf",
      "outputs": [
        {
          "name": "",
          "type": "uint256"
        }
      ],
      "payable": false,
      "stateMutability": "view",
      "type": "function"
    },
    {
      "constant": false,
      "inputs": [],
      "name": "toggleWhitelist",
      "outputs": [
        {
          "name": "",
          "type": "bool"
        }
      ],
      "payable": false,
      "stateMutability": "nonpayable",
      "type": "function"
    },
    {
      "constant": true,
      "inputs": [],
      "name": "totalTokens",
      "outputs": [
        {
          "name": "",
          "type": "uint256"
        }
      ],
      "payable": false,
      "stateMutability": "view",
      "type": "function"
    },
    {
      "constant": true,
      "inputs": [],
      "name": "allowUploads",
      "outputs": [
        {
          "name": "",
          "type": "bool"
        }
      ],
      "payable": false,
      "stateMutability": "view",
      "type": "function"
    },
    {
      "constant": true,
      "inputs": [],
      "name": "owner",
      "outputs": [
        {
          "name": "",
          "type": "address"
        }
      ],
      "payable": false,
      "stateMutability": "view",
      "type": "function"
    },
    {
      "constant": true,
      "inputs": [],
      "name": "symbol",
      "outputs": [
        {
          "name": "",
          "type": "string"
        }
      ],
      "payable": false,
      "stateMutability": "view",
      "type": "function"
    },
    {
      "constant": true,
      "inputs": [],
      "name": "marketContract",
      "outputs": [
        {
          "name": "",
          "type": "address"
        }
      ],
      "payable": false,
      "stateMutability": "view",
      "type": "function"
    },
    {
      "constant": false,
      "inputs": [
        {
          "name": "_operator",
          "type": "address"
        },
        {
          "name": "_approved",
          "type": "bool"
        }
      ],
      "name": "setApprovalForAll",
      "outputs": [],
      "payable": false,
      "stateMutability": "nonpayable",
      "type": "function"
    },
    {
      "constant": true,
      "inputs": [
        {
          "name": "_operator",
          "type": "address"
        },
        {
          "name": "_owner",
          "type": "address"
        }
      ],
      "name": "isApproved",
      "outputs": [
        {
          "name": "",
          "type": "bool"
        }
      ],
      "payable": false,
      "stateMutability": "view",
      "type": "function"
    },
    {
      "constant": false,
      "inputs": [
        {
          "name": "_from",
          "type": "address"
        },
        {
          "name": "_to",
          "type": "address"
        },
        {
          "name": "_tokenId",
          "type": "uint256"
        },
        {
          "name": "_data",
          "type": "bytes"
        }
      ],
      "name": "transferFrom",
      "outputs": [],
      "payable": false,
      "stateMutability": "nonpayable",
      "type": "function"
    },
    {
      "constant": true,
      "inputs": [
        {
          "name": "_tokenId",
          "type": "uint256"
        }
      ],
      "name": "getPhoto",
      "outputs": [
        {
          "name": "",
          "type": "string"
        },
        {
          "name": "",
          "type": "string"
        },
        {
          "name": "",
          "type": "uint256"
        },
        {
          "name": "",
          "type": "uint64"
        }
      ],
      "payable": false,
      "stateMutability": "view",
      "type": "function"
    },
    {
      "constant": false,
      "inputs": [
        {
          "name": "_from",
          "type": "address"
        },
        {
          "name": "_to",
          "type": "address"
        },
        {
          "name": "_tokenId",
          "type": "uint256"
        },
        {
          "name": "_data",
          "type": "bytes"
        }
      ],
      "name": "safeTransferFrom",
      "outputs": [],
      "payable": false,
      "stateMutability": "nonpayable",
      "type": "function"
    },
    {
      "constant": false,
      "inputs": [
        {
          "name": "_auction",
          "type": "address"
        }
      ],
      "name": "setAuction",
      "outputs": [],
      "payable": false,
      "stateMutability": "nonpayable",
      "type": "function"
    },
    {
      "constant": true,
      "inputs": [
        {
          "name": "_user",
          "type": "address"
        }
      ],
      "name": "isWhitelist",
      "outputs": [
        {
          "name": "",
          "type": "bool"
        }
      ],
      "payable": false,
      "stateMutability": "view",
      "type": "function"
    },
    {
      "constant": true,
      "inputs": [
        {
          "name": "_operator",
          "type": "address"
        },
        {
          "name": "_owner",
          "type": "address"
        },
        {
          "name": "_tokenId",
          "type": "uint256"
        }
      ],
      "name": "isApproved",
      "outputs": [
        {
          "name": "",
          "type": "bool"
        }
      ],
      "payable": false,
      "stateMutability": "view",
      "type": "function"
    },
    {
      "constant": true,
      "inputs": [
        {
          "name": "",
          "type": "address"
        },
        {
          "name": "",
          "type": "uint256"
        },
        {
          "name": "",
          "type": "bytes"
        }
      ],
      "name": "onERC721Received",
      "outputs": [
        {
          "name": "",
          "type": "bytes4"
        }
      ],
      "payable": false,
      "stateMutability": "view",
      "type": "function"
    },
    {
      "inputs": [],
      "payable": false,
      "stateMutability": "nonpayable",
      "type": "constructor"
    },
    {
      "payable": true,
      "stateMutability": "payable",
      "type": "fallback"
    },
    {
      "anonymous": false,
      "inputs": [
        {
          "indexed": true,
          "name": "_owner",
          "type": "address"
        },
        {
          "indexed": false,
          "name": "_photoId",
          "type": "uint256"
        },
        {
          "indexed": false,
          "name": "_photoHash",
          "type": "bytes32"
        },
        {
          "indexed": false,
          "name": "_name",
          "type": "string"
        },
        {
          "indexed": false,
          "name": "_photographer",
          "type": "string"
        },
        {
          "indexed": false,
          "name": "_isenNumber",
          "type": "uint256"
        }
      ],
      "name": "Upload",
      "type": "event"
    },
    {
      "anonymous": false,
      "inputs": [
        {
          "indexed": true,
          "name": "_from",
          "type": "address"
        },
        {
          "indexed": true,
          "name": "_to",
          "type": "address"
        },
        {
          "indexed": false,
          "name": "_tokenId",
          "type": "uint256"
        }
      ],
      "name": "Transfer",
      "type": "event"
    },
    {
      "anonymous": false,
      "inputs": [
        {
          "indexed": true,
          "name": "_owner",
          "type": "address"
        },
        {
          "indexed": true,
          "name": "_operator",
          "type": "address"
        },
        {
          "indexed": false,
          "name": "_approved",
          "type": "bool"
        }
      ],
      "name": "ApprovalForAll",
      "type": "event"
    },
    {
      "anonymous": false,
      "inputs": [
        {
          "indexed": true,
          "name": "_owner",
          "type": "address"
        },
        {
          "indexed": true,
          "name": "_operator",
          "type": "address"
        },
        {
          "indexed": false,
          "name": "_tokenId",
          "type": "uint256"
        }
      ],
      "name": "Approval",
      "type": "event"
    },
    {
      "constant": false,
      "inputs": [],
      "name": "setAllowUploads",
      "outputs": [],
      "payable": false,
      "stateMutability": "nonpayable",
      "type": "function"
    },
    {
      "constant": false,
      "inputs": [
        {
          "name": "_photoHash",
          "type": "bytes32"
        },
        {
          "name": "_name",
          "type": "string"
        },
        {
          "name": "_photographer",
          "type": "string"
        },
        {
          "name": "_isenNumber",
          "type": "uint256"
        },
        {
          "name": "_owner",
          "type": "address"
        }
      ],
      "name": "uploadPhoto",
      "outputs": [],
      "payable": false,
      "stateMutability": "nonpayable",
      "type": "function"
    }
  ],
  "bytecode": "0x606060405260408051908101604052600981527f50686f746f436f696e00000000000000000000000000000000000000000000006020820152600d9080516200004d92916020019062000379565b5060408051908101604052600281527f50430000000000000000000000000000000000000000000000000000000000006020820152600e9080516200009792916020019062000379565b503415620000a457600080fd5b620000bc64010000000062001a2d620000fe82021704565b60078054600160a060020a03191633600160a060020a039081169190911791829055166000908152600b60205260409020805460ff191660011790556200041e565b60018060007f095ea7b3000000000000000000000000000000000000000000000000000000006040517f6973417070726f76656428616464726573732c616464726573732c75696e743281527f3536290000000000000000000000000000000000000000000000000000000000602082015260230160405180910390206040517f6973417070726f76656428616464726573732c616464726573732900000000008152601b016040519081900390207f6352211e000000000000000000000000000000000000000000000000000000007f70a08231000000000000000000000000000000000000000000000000000000007fa22cb465000000000000000000000000000000000000000000000000000000007f18160ddd000000000000000000000000000000000000000000000000000000006040516000805160206200210c83398151915281527f743235362c6279746573290000000000000000000000000000000000000000006020820152602b0160405180910390206040516000805160206200210c83398151915281527f743235362900000000000000000000000000000000000000000000000000000060208201526025016040519081900390207f01ffc9a70000000000000000000000000000000000000000000000000000000091189190911891909118919091189190911891909118919091189190911881187fffffffff0000000000000000000000000000000000000000000000000000000016825260208083019390935260409091016000908120805460ff19908116951515959095179055526001908190527fb45820386466a8e01597d6e1efaf8f11ba4467972de5ca6c1f8aa3544ac2888e8054909216179055565b828054600181600116156101000203166002900490600052602060002090601f016020900481019282601f10620003bc57805160ff1916838001178555620003ec565b82800160010185558215620003ec579182015b82811115620003ec578251825591602001919060010190620003cf565b50620003fa929150620003fe565b5090565b6200041b91905b80821115620003fa576000815560010162000405565b90565b611cde806200042e6000396000f3006060604052600436106101955763ffffffff7c010000000000000000000000000000000000000000000000000000000060003504166301ffc9a781146101a257806306fdde03146101d6578063095ea7b3146102605780630ab8afac1461028257806313af4035146102b157806318160ddd146102d057806323b872dd146102f55780632a6dd48f1461031d57806342842e0e146103335780634917aa3f1461035b57806353d6fd591461036e5780635a3f2672146103925780636352211e146104045780636dcea85f1461041a57806370a08231146104395780637e15144b146104585780637e1c0c091461046b578063821ed3a61461047e5780638da5cb5b1461049157806395d89b41146104a4578063987e9bfb146104b7578063a1794bcd1461055f578063a22cb46514610572578063a389783e14610596578063ab67aa58146105bb578063b6be128a14610627578063b88d4fde14610737578063b8c6f579146107a3578063c683630d146107c2578063c8e87f68146107e1578063e5af48d8146107f4578063f0b9e5ba1461081c575b34156101a057600080fd5b005b34156101ad57600080fd5b6101c2600160e060020a03196004351661089e565b604051901515815260200160405180910390f35b34156101e157600080fd5b6101e96108bd565b60405160208082528190810183818151815260200191508051906020019080838360005b8381101561022557808201518382015260200161020d565b50505050905090810190601f1680156102525780820380516001836020036101000a031916815260200191505b509250505060405180910390f35b341561026b57600080fd5b6101a0600160a060020a036004351660243561095b565b341561028d57600080fd5b610295610a0e565b604051600160a060020a03909116815260200160405180910390f35b34156102bc57600080fd5b6101a0600160a060020a0360043516610a1d565b34156102db57600080fd5b6102e3610a5a565b60405190815260200160405180910390f35b341561030057600080fd5b6101a0600160a060020a0360043581169060243516604435610a61565b341561032857600080fd5b610295600435610b78565b341561033e57600080fd5b6101a0600160a060020a0360043581169060243516604435610b93565b341561036657600080fd5b6101c2610bad565b341561037957600080fd5b6101a0600160a060020a03600435166024351515610bb6565b341561039d57600080fd5b6103b1600160a060020a0360043516610bfc565b60405160208082528190810183818151815260200191508051906020019060200280838360005b838110156103f05780820151838201526020016103d8565b505050509050019250505060405180910390f35b341561040f57600080fd5b610295600435610c7f565b341561042557600080fd5b6101a0600160a060020a0360043516610c9a565b341561044457600080fd5b6102e3600160a060020a0360043516610cd7565b341561046357600080fd5b6101c2610cf2565b341561047657600080fd5b6102e3610d29565b341561048957600080fd5b6101c2610d2f565b341561049c57600080fd5b610295610d3f565b34156104af57600080fd5b6101e9610d4e565b34156104c257600080fd5b6101a0600480359060446024803590810190830135806020601f8201819004810201604051908101604052818152929190602084018383808284378201915050505050509190803590602001908201803590602001908080601f0160208091040260200160405190810160405281815292919060208401838380828437509496505084359460200135600160a060020a03169350610db992505050565b341561056a57600080fd5b610295610ffe565b341561057d57600080fd5b6101a0600160a060020a0360043516602435151561100d565b34156105a157600080fd5b6101c2600160a060020a03600435811690602435166110bb565b34156105c657600080fd5b6101a0600160a060020a036004803582169160248035909116916044359160849060643590810190830135806020601f820181900481020160405190810160405281815292919060208401838380828437509496506110dd95505050505050565b341561063257600080fd5b61063d60043561115f565b6040516040810183905267ffffffffffffffff82166060820152608080825281906020820190820187818151815260200191508051906020019080838360005b8381101561069557808201518382015260200161067d565b50505050905090810190601f1680156106c25780820380516001836020036101000a031916815260200191505b50838103825286818151815260200191508051906020019080838360005b838110156106f85780820151838201526020016106e0565b50505050905090810190601f1680156107255780820380516001836020036101000a031916815260200191505b50965050505050505060405180910390f35b341561074257600080fd5b6101a0600160a060020a036004803582169160248035909116916044359160849060643590810190830135806020601f8201819004810201604051908101604052818152929190602084018383808284375094965061132695505050505050565b34156107ae57600080fd5b6101a0600160a060020a0360043516611348565b34156107cd57600080fd5b6101c2600160a060020a0360043516611385565b34156107ec57600080fd5b6101a06113a3565b34156107ff57600080fd5b6101c2600160a060020a03600435811690602435166044356113f0565b341561082757600080fd5b61088160048035600160a060020a03169060248035919060649060443590810190830135806020601f8201819004810201604051908101604052818152929190602084018383808284375094965061145f95505050505050565b604051600160e060020a0319909116815260200160405180910390f35b600160e060020a03191660009081526001602052604090205460ff1690565b600d8054600181600116156101000203166002900480601f0160208091040260200160405190810160405280929190818152602001828054600181600116156101000203166002900480156109535780601f1061092857610100808354040283529160200191610953565b820191906000526020600020905b81548152906001019060200180831161093657829003601f168201915b505050505081565b8033600160a060020a031661096f82610c7f565b600160a060020a03161461098257600080fd5b33600160a060020a031683600160a060020a0316141515156109a357600080fd5b600082815260036020526040908190208054600160a060020a031916600160a060020a038681169182179092559133909116907f8c5be1e5ebec7d5bd14f71427d1e84f3dd0314c0f7b2291e5b200ac8c7c3b9259085905190815260200160405180910390a3505050565b600954600160a060020a031681565b60075433600160a060020a03908116911614610a3857600080fd5b60078054600160a060020a031916600160a060020a0392909216919091179055565b6000545b90565b600160a060020a038316158015610a81575060095460a060020a900460ff165b80610aac575060075433600160a060020a039081169116148015610aac5750600160a060020a038316155b80610abc5750610abc33846110bb565b80610acd5750610acd3384836113f0565b80610af1575033600160a060020a0316610ae682610c7f565b600160a060020a0316145b80610b0a575060085433600160a060020a039081169116145b80610b23575060095433600160a060020a039081169116145b1515610b2e57600080fd5b600c5460ff161580610b5d5750600160a060020a0382166000908152600b602052604090205460ff1615156001145b1515610b6857600080fd5b610b73838383611487565b505050565b600090815260036020526040902054600160a060020a031690565b610b73838383602060405190810160405260008152611326565b600c5460ff1681565b60075433600160a060020a03908116911614610bd157600080fd5b600160a060020a03919091166000908152600b60205260409020805460ff1916911515919091179055565b610c04611927565b6004600083600160a060020a0316600160a060020a03168152602001908152602001600020805480602002602001604051908101604052809291908181526020018280548015610c7357602002820191906000526020600020905b815481526020019060010190808311610c5f575b50505050509050919050565b600090815260026020526040902054600160a060020a031690565b60075433600160a060020a03908116911614610cb557600080fd5b60088054600160a060020a031916600160a060020a0392909216919091179055565b600160a060020a031660009081526004602052604090205490565b60075460009033600160a060020a03908116911614610d1057600080fd5b50600c805460ff19811660ff9182161517918290551690565b60005481565b60095460a060020a900460ff1681565b600754600160a060020a031681565b600e8054600181600116156101000203166002900480601f0160208091040260200160405190810160405280929190818152602001828054600181600116156101000203166002900480156109535780601f1061092857610100808354040283529160200191610953565b6000600160a060020a0382161515610dda57600754600160a060020a031691505b60095460a060020a900460ff16151560011480610e05575060075433600160a060020a039081169116145b1515610e1057600080fd5b5060005460a0604051908101604090815286825260208083018790528183018990526060830186905267ffffffffffffffff421660808401526000848152600a90915220815181908051610e68929160200190611939565b50602082015181600101908051610e83929160200190611939565b5060408201516002820155606082015181600301556080820151600491909101805467ffffffffffffffff191667ffffffffffffffff90921691909117905550610ecf60008383610a61565b81600160a060020a03167f617db0c49289b17c180e87517cabec78402cfe15781318051fe9165e9017e09f8288888888604051858152602081018590526080810182905260a060408201818152906060830190830186818151815260200191508051906020019080838360005b83811015610f54578082015183820152602001610f3c565b50505050905090810190601f168015610f815780820380516001836020036101000a031916815260200191505b50838103825285818151815260200191508051906020019080838360005b83811015610fb7578082015183820152602001610f9f565b50505050905090810190601f168015610fe45780820380516001836020036101000a031916815260200191505b5097505050505050505060405180910390a2505050505050565b600854600160a060020a031681565b80156110475733600160a060020a0390811660009081526006602052604090208054600160a060020a03191691841691909117905561106e565b600160a060020a03331660009081526006602052604090208054600160a060020a03191690555b81600160a060020a031633600160a060020a03167f17307eab39ab6107e8899845ad3d59bd9653f200f220920489ca2b5937696c3183604051901515815260200160405180910390a35050565b600160a060020a03908116600090815260066020526040902054811691161490565b33600160a060020a03166110f083610b78565b600160a060020a0316148061110a575061110a33856110bb565b8061112e575033600160a060020a031661112383610c7f565b600160a060020a0316145b151561113957600080fd5b600160a060020a038316151561114e57600080fd5b611159848484611487565b50505050565b611167611927565b61116f611927565b60008061117a6119b7565b6000868152600a6020526040908190209060a090519081016040529081600082018054600181600116156101000203166002900480601f01602080910402602001604051908101604052809291908181526020018280546001816001161561010002031660029004801561122f5780601f106112045761010080835404028352916020019161122f565b820191906000526020600020905b81548152906001019060200180831161121257829003601f168201915b50505050508152602001600182018054600181600116156101000203166002900480601f0160208091040260200160405190810160405280929190818152602001828054600181600116156101000203166002900480156112d15780601f106112a6576101008083540402835291602001916112d1565b820191906000526020600020905b8154815290600101906020018083116112b457829003601f168201915b5050509183525050600282015460208201526003820154604082015260049091015467ffffffffffffffff16606090910152905080518160200151826060015183608001519299919850965090945092505050565b611331848484610a61565b61133d8484848461156e565b151561115957600080fd5b60075433600160a060020a0390811691161461136357600080fd5b60098054600160a060020a031916600160a060020a0392909216919091179055565b600160a060020a03166000908152600b602052604090205460ff1690565b60075433600160a060020a039081169116146113be57600080fd5b6009805474ff000000000000000000000000000000000000000019811660a060020a9182900460ff1615909102179055565b600081815260036020526040812054600160a060020a0385811691161480156114575750600160a060020a0383166000908152600460209081526040808320858452600590925290912054815484929190811061144957fe5b906000526020600020900154145b949350505050565b7ff0b9e5ba000000000000000000000000000000000000000000000000000000009392505050565b600160a060020a038216151561149c57600080fd5b6114a581610c7f565b600160a060020a03838116911614156114bd57600080fd5b82600160a060020a03166114d082610c7f565b600160a060020a0316146114e357600080fd5b60008181526003602052604090208054600160a060020a0319169055600160a060020a038316156115185761151883826116d5565b611522828261183f565b81600160a060020a031683600160a060020a03167fddf252ad1be2c89b69c2b068fc378daa952ba7f163c4a11628f55a4df523b3ef8360405190815260200160405180910390a3505050565b60008061158385600160a060020a03166118f7565b151561159257600191506116cc565b84600160a060020a031663f0b9e5ba8786866000604051602001526040518463ffffffff167c01000000000000000000000000000000000000000000000000000000000281526004018084600160a060020a0316600160a060020a0316815260200183815260200180602001828103825283818151815260200191508051906020019080838360005b8381101561163357808201518382015260200161161b565b50505050905090810190601f1680156116605780820380516001836020036101000a031916815260200191505b50945050505050602060405180830381600087803b151561168057600080fd5b6102c65a03f1151561169157600080fd5b5050506040518051600160e060020a031981167ff0b9e5ba000000000000000000000000000000000000000000000000000000001493509150505b50949350505050565b600080600084600160a060020a03166116ed85610c7f565b600160a060020a03161461170057600080fd5b600084815260056020526040902054925061172b600161171f87610cd7565b9063ffffffff6118ff16565b600160a060020a03861660009081526004602052604090208054919350908390811061175357fe5b60009182526020808320909101548683526002825260408084208054600160a060020a0319169055600160a060020a038916845260049092529120805491925082918590811061179f57fe5b6000918252602080832090910192909255600160a060020a03871681526004909152604081208054849081106117d157fe5b6000918252602080832090910192909255600160a060020a03871681526004909152604090208054906118089060001983016119f3565b5060008481526005602052604080822082905582825281208490555461183590600163ffffffff6118ff16565b6000555050505050565b600081815260026020526040812054600160a060020a03161561186157600080fd5b60008281526002602052604090208054600160a060020a031916600160a060020a03851617905561189183610cd7565b600160a060020a0384166000908152600460205260409020805491925090600181016118bd83826119f3565b5060009182526020808320919091018490558382526005905260408120829055546118ef90600163ffffffff61191116565b600055505050565b6000903b1190565b60008282111561190b57fe5b50900390565b60008282018381101561192057fe5b9392505050565b60206040519081016040526000815290565b828054600181600116156101000203166002900490600052602060002090601f016020900481019282601f1061197a57805160ff19168380011785556119a7565b828001600101855582156119a7579182015b828111156119a757825182559160200191906001019061198c565b506119b3929150611a13565b5090565b60a0604051908101604052806119cb611927565b81526020016119d8611927565b81526000602082018190526040820181905260609091015290565b815481835581811511610b7357600083815260209020610b739181019083015b610a5e91905b808211156119b35760008155600101611a19565b60018060007f095ea7b3000000000000000000000000000000000000000000000000000000006040517f6973417070726f76656428616464726573732c616464726573732c75696e743281527f3536290000000000000000000000000000000000000000000000000000000000602082015260230160405180910390206040517f6973417070726f76656428616464726573732c616464726573732900000000008152601b016040519081900390207f6352211e000000000000000000000000000000000000000000000000000000007f70a08231000000000000000000000000000000000000000000000000000000007fa22cb465000000000000000000000000000000000000000000000000000000007f18160ddd000000000000000000000000000000000000000000000000000000006040517f7472616e7366657246726f6d28616464726573732c616464726573732c75696e81527f743235362c6279746573290000000000000000000000000000000000000000006020820152602b0160405180910390206040517f7472616e7366657246726f6d28616464726573732c616464726573732c75696e81527f743235362900000000000000000000000000000000000000000000000000000060208201526025016040519081900390207f01ffc9a7000000000000000000000000000000000000000000000000000000009118919091189190911891909118919091189190911891909118919091188118600160e060020a031916825260208083019390935260409091016000908120805460ff19908116951515959095179055526001908190527fb45820386466a8e01597d6e1efaf8f11ba4467972de5ca6c1f8aa3544ac2888e80549092161790555600a165627a7a7230582068ce64b48e7b7ae2a06ea0558e3afed60703d2c941ea13d002191ac92b0e109300297472616e7366657246726f6d28616464726573732c616464726573732c75696e",
  "source": "pragma solidity ^0.4.18;\r\n\r\nimport \"./PhotoBase.sol\";\r\n\r\n/**\r\n*@title PhotoCore\r\n* Front contract for Photocoin. Holds uploadPhoto funtionality and token name and symbol\r\n*/\r\ncontract PhotoCore is PhotoBase{\r\n    // @notice Name and symbol of the non fungible token\r\n    string public name = \"PhotoCoin\";\r\n    string public symbol = \"PC\";\r\n\r\n    /**\r\n    *@dev Creates the main Photocoin smart contract instance and sets the owner\r\n    */\r\n    function PhotoCore() public {\r\n        owner = msg.sender;\r\n        whitelist[owner] = true;\r\n    }\r\n\r\n    /**\r\n    *@notice No tipping!\r\n    *@dev fallback function to reject all Ether from being sent to contract\r\n    */\r\n    function() external payable {\r\n        require(msg.value == 0);\r\n    }\r\n\r\n    /**\r\n    *@dev this function changes whether or not uploads are allowed by people other than the owner\r\n    */\r\n    function setAllowUploads() public onlyOwner(){\r\n        allowUploads = (!allowUploads);\r\n    }\r\n\r\n    /**\r\n    *@dev this is the function to create a new photocoin and update the mappings with a new token\r\n    *@param _photoHash is the hash of the photograph\r\n    *@param _name is a string variable representing the name of the photograph\r\n    *@param _photographer is a string variable representing the name of the photographer\r\n    *@param _isenNumber is the uint ISEN number\r\n    *@param _owner is the address of the new owner of the token\r\n    */\r\n    function uploadPhoto(bytes32 _photoHash,string _name, string _photographer, uint256 _isenNumber, address _owner) public{\r\n        if(_owner == address(0)) {\r\n            _owner = owner;\r\n        }\r\n        require (allowUploads == true || msg.sender == owner);\r\n        uint256 newId = totalTokens;\r\n        photos[newId] = Photo({\r\n            name: _name,\r\n            photographer: _photographer,\r\n            photoHash: _photoHash,\r\n            isenNumber: _isenNumber,\r\n            uploadTime: uint64(now)\r\n            });\r\n        transferFrom(address(0),_owner,newId);\r\n        Upload(_owner,newId,_photoHash, _name,_photographer,_isenNumber);\r\n    }\r\n}",
  "sourcePath": "C:\\Nick\\consulting\\photocoin\\contracts\\PhotoCore.sol",
  "compiler": {
    "name": "solc",
    "version": "0.4.19+commit.c4cbbb05.Emscripten.clang"
  },
  "schemaVersion": "1.0.1",
  "updatedAt": "2018-04-04T02:00:29.097Z"
}