{
  "contractName": "PhotoBase",
  "abi": [
    {
      "constant": true,
      "inputs": [
        {
          "name": "interfaceID",
          "type": "bytes4"
        }
      ],
      "name": "supportsInterface",
      "outputs": [
        {
          "name": "",
          "type": "bool"
        }
      ],
      "payable": false,
      "stateMutability": "view",
      "type": "function"
    },
    {
      "constant": false,
      "inputs": [
        {
          "name": "_to",
          "type": "address"
        },
        {
          "name": "_tokenId",
          "type": "uint256"
        }
      ],
      "name": "approve",
      "outputs": [],
      "payable": false,
      "stateMutability": "nonpayable",
      "type": "function"
    },
    {
      "constant": true,
      "inputs": [],
      "name": "auctionContract",
      "outputs": [
        {
          "name": "",
          "type": "address"
        }
      ],
      "payable": false,
      "stateMutability": "view",
      "type": "function"
    },
    {
      "constant": true,
      "inputs": [],
      "name": "totalSupply",
      "outputs": [
        {
          "name": "",
          "type": "uint256"
        }
      ],
      "payable": false,
      "stateMutability": "view",
      "type": "function"
    },
    {
      "constant": true,
      "inputs": [
        {
          "name": "_tokenId",
          "type": "uint256"
        }
      ],
      "name": "approvedFor",
      "outputs": [
        {
          "name": "",
          "type": "address"
        }
      ],
      "payable": false,
      "stateMutability": "view",
      "type": "function"
    },
    {
      "constant": true,
      "inputs": [],
      "name": "whitelistOn",
      "outputs": [
        {
          "name": "",
          "type": "bool"
        }
      ],
      "payable": false,
      "stateMutability": "view",
      "type": "function"
    },
    {
      "constant": true,
      "inputs": [
        {
          "name": "_owner",
          "type": "address"
        }
      ],
      "name": "tokensOf",
      "outputs": [
        {
          "name": "",
          "type": "uint256[]"
        }
      ],
      "payable": false,
      "stateMutability": "view",
      "type": "function"
    },
    {
      "constant": true,
      "inputs": [
        {
          "name": "_tokenId",
          "type": "uint256"
        }
      ],
      "name": "ownerOf",
      "outputs": [
        {
          "name": "",
          "type": "address"
        }
      ],
      "payable": false,
      "stateMutability": "view",
      "type": "function"
    },
    {
      "constant": true,
      "inputs": [
        {
          "name": "_owner",
          "type": "address"
        }
      ],
      "name": "balanceOf",
      "outputs": [
        {
          "name": "",
          "type": "uint256"
        }
      ],
      "payable": false,
      "stateMutability": "view",
      "type": "function"
    },
    {
      "constant": true,
      "inputs": [],
      "name": "totalTokens",
      "outputs": [
        {
          "name": "",
          "type": "uint256"
        }
      ],
      "payable": false,
      "stateMutability": "view",
      "type": "function"
    },
    {
      "constant": true,
      "inputs": [],
      "name": "allowUploads",
      "outputs": [
        {
          "name": "",
          "type": "bool"
        }
      ],
      "payable": false,
      "stateMutability": "view",
      "type": "function"
    },
    {
      "constant": true,
      "inputs": [],
      "name": "owner",
      "outputs": [
        {
          "name": "",
          "type": "address"
        }
      ],
      "payable": false,
      "stateMutability": "view",
      "type": "function"
    },
    {
      "constant": true,
      "inputs": [],
      "name": "marketContract",
      "outputs": [
        {
          "name": "",
          "type": "address"
        }
      ],
      "payable": false,
      "stateMutability": "view",
      "type": "function"
    },
    {
      "constant": false,
      "inputs": [
        {
          "name": "_operator",
          "type": "address"
        },
        {
          "name": "_approved",
          "type": "bool"
        }
      ],
      "name": "setApprovalForAll",
      "outputs": [],
      "payable": false,
      "stateMutability": "nonpayable",
      "type": "function"
    },
    {
      "constant": true,
      "inputs": [
        {
          "name": "_operator",
          "type": "address"
        },
        {
          "name": "_owner",
          "type": "address"
        }
      ],
      "name": "isApproved",
      "outputs": [
        {
          "name": "",
          "type": "bool"
        }
      ],
      "payable": false,
      "stateMutability": "view",
      "type": "function"
    },
    {
      "constant": true,
      "inputs": [
        {
          "name": "_operator",
          "type": "address"
        },
        {
          "name": "_owner",
          "type": "address"
        },
        {
          "name": "_tokenId",
          "type": "uint256"
        }
      ],
      "name": "isApproved",
      "outputs": [
        {
          "name": "",
          "type": "bool"
        }
      ],
      "payable": false,
      "stateMutability": "view",
      "type": "function"
    },
    {
      "anonymous": false,
      "inputs": [
        {
          "indexed": true,
          "name": "_owner",
          "type": "address"
        },
        {
          "indexed": false,
          "name": "_photoId",
          "type": "uint256"
        },
        {
          "indexed": false,
          "name": "_photoHash",
          "type": "bytes32"
        },
        {
          "indexed": false,
          "name": "_name",
          "type": "string"
        },
        {
          "indexed": false,
          "name": "_photographer",
          "type": "string"
        },
        {
          "indexed": false,
          "name": "_isenNumber",
          "type": "uint256"
        }
      ],
      "name": "Upload",
      "type": "event"
    },
    {
      "anonymous": false,
      "inputs": [
        {
          "indexed": true,
          "name": "_from",
          "type": "address"
        },
        {
          "indexed": true,
          "name": "_to",
          "type": "address"
        },
        {
          "indexed": false,
          "name": "_tokenId",
          "type": "uint256"
        }
      ],
      "name": "Transfer",
      "type": "event"
    },
    {
      "anonymous": false,
      "inputs": [
        {
          "indexed": true,
          "name": "_owner",
          "type": "address"
        },
        {
          "indexed": true,
          "name": "_operator",
          "type": "address"
        },
        {
          "indexed": false,
          "name": "_approved",
          "type": "bool"
        }
      ],
      "name": "ApprovalForAll",
      "type": "event"
    },
    {
      "anonymous": false,
      "inputs": [
        {
          "indexed": true,
          "name": "_owner",
          "type": "address"
        },
        {
          "indexed": true,
          "name": "_operator",
          "type": "address"
        },
        {
          "indexed": false,
          "name": "_tokenId",
          "type": "uint256"
        }
      ],
      "name": "Approval",
      "type": "event"
    },
    {
      "constant": false,
      "inputs": [
        {
          "name": "_owner",
          "type": "address"
        }
      ],
      "name": "setOwner",
      "outputs": [],
      "payable": false,
      "stateMutability": "nonpayable",
      "type": "function"
    },
    {
      "constant": false,
      "inputs": [
        {
          "name": "_market",
          "type": "address"
        }
      ],
      "name": "setMarket",
      "outputs": [],
      "payable": false,
      "stateMutability": "nonpayable",
      "type": "function"
    },
    {
      "constant": false,
      "inputs": [
        {
          "name": "_auction",
          "type": "address"
        }
      ],
      "name": "setAuction",
      "outputs": [],
      "payable": false,
      "stateMutability": "nonpayable",
      "type": "function"
    },
    {
      "constant": false,
      "inputs": [
        {
          "name": "_user",
          "type": "address"
        },
        {
          "name": "_trueorfalse",
          "type": "bool"
        }
      ],
      "name": "setWhitelist",
      "outputs": [],
      "payable": false,
      "stateMutability": "nonpayable",
      "type": "function"
    },
    {
      "constant": true,
      "inputs": [
        {
          "name": "_user",
          "type": "address"
        }
      ],
      "name": "isWhitelist",
      "outputs": [
        {
          "name": "",
          "type": "bool"
        }
      ],
      "payable": false,
      "stateMutability": "view",
      "type": "function"
    },
    {
      "constant": false,
      "inputs": [],
      "name": "toggleWhitelist",
      "outputs": [
        {
          "name": "",
          "type": "bool"
        }
      ],
      "payable": false,
      "stateMutability": "nonpayable",
      "type": "function"
    },
    {
      "constant": true,
      "inputs": [
        {
          "name": "_tokenId",
          "type": "uint256"
        }
      ],
      "name": "getPhoto",
      "outputs": [
        {
          "name": "",
          "type": "string"
        },
        {
          "name": "",
          "type": "string"
        },
        {
          "name": "",
          "type": "uint256"
        },
        {
          "name": "",
          "type": "uint64"
        }
      ],
      "payable": false,
      "stateMutability": "view",
      "type": "function"
    },
    {
      "constant": false,
      "inputs": [
        {
          "name": "_from",
          "type": "address"
        },
        {
          "name": "_to",
          "type": "address"
        },
        {
          "name": "_tokenId",
          "type": "uint256"
        }
      ],
      "name": "transferFrom",
      "outputs": [],
      "payable": false,
      "stateMutability": "nonpayable",
      "type": "function"
    },
    {
      "constant": false,
      "inputs": [
        {
          "name": "_from",
          "type": "address"
        },
        {
          "name": "_to",
          "type": "address"
        },
        {
          "name": "_tokenId",
          "type": "uint256"
        },
        {
          "name": "data",
          "type": "bytes"
        }
      ],
      "name": "transferFrom",
      "outputs": [],
      "payable": false,
      "stateMutability": "nonpayable",
      "type": "function"
    }
  ],
  "bytecode": "0x606060405261001964010000000061125161001e82021704565b610297565b60018060007f095ea7b3000000000000000000000000000000000000000000000000000000006040517f6973417070726f76656428616464726573732c616464726573732c75696e743281527f3536290000000000000000000000000000000000000000000000000000000000602082015260230160405180910390206040517f6973417070726f76656428616464726573732c616464726573732900000000008152601b016040519081900390207f6352211e000000000000000000000000000000000000000000000000000000007f70a08231000000000000000000000000000000000000000000000000000000007fa22cb465000000000000000000000000000000000000000000000000000000007f18160ddd000000000000000000000000000000000000000000000000000000006040516000805160206117bd83398151915281527f743235362c6279746573290000000000000000000000000000000000000000006020820152602b0160405180910390206040516000805160206117bd83398151915281527f743235362900000000000000000000000000000000000000000000000000000060208201526025016040519081900390207f01ffc9a70000000000000000000000000000000000000000000000000000000091189190911891909118919091189190911891909118919091189190911881187fffffffff0000000000000000000000000000000000000000000000000000000016825260208083019390935260409091016000908120805460ff19908116951515959095179055526001908190527fb45820386466a8e01597d6e1efaf8f11ba4467972de5ca6c1f8aa3544ac2888e8054909216179055565b611517806102a66000396000f3006060604052600436106101485763ffffffff7c010000000000000000000000000000000000000000000000000000000060003504166301ffc9a7811461014d578063095ea7b3146101965780630ab8afac146101ba57806313af4035146101e957806318160ddd1461020857806323b872dd1461022d5780632a6dd48f146102555780634917aa3f1461026b57806353d6fd591461027e5780635a3f2672146102a25780636352211e146103145780636dcea85f1461032a57806370a08231146103495780637e15144b146103685780637e1c0c091461037b578063821ed3a61461038e5780638da5cb5b146103a1578063a1794bcd146103b4578063a22cb465146103c7578063a389783e146103eb578063ab67aa5814610410578063b6be128a1461047c578063b8c6f5791461058c578063c683630d146105ab578063e5af48d8146105ca575b600080fd5b341561015857600080fd5b6101827bffffffffffffffffffffffffffffffffffffffffffffffffffffffff19600435166105f2565b604051901515815260200160405180910390f35b34156101a157600080fd5b6101b8600160a060020a0360043516602435610626565b005b34156101c557600080fd5b6101cd6106d9565b604051600160a060020a03909116815260200160405180910390f35b34156101f457600080fd5b6101b8600160a060020a03600435166106e8565b341561021357600080fd5b61021b610725565b60405190815260200160405180910390f35b341561023857600080fd5b6101b8600160a060020a036004358116906024351660443561072c565b341561026057600080fd5b6101cd600435610854565b341561027657600080fd5b61018261086f565b341561028957600080fd5b6101b8600160a060020a03600435166024351515610878565b34156102ad57600080fd5b6102c1600160a060020a03600435166108be565b60405160208082528190810183818151815260200191508051906020019060200280838360005b838110156103005780820151838201526020016102e8565b505050509050019250505060405180910390f35b341561031f57600080fd5b6101cd600435610941565b341561033557600080fd5b6101b8600160a060020a036004351661095c565b341561035457600080fd5b61021b600160a060020a0360043516610999565b341561037357600080fd5b6101826109b4565b341561038657600080fd5b61021b6109eb565b341561039957600080fd5b6101826109f1565b34156103ac57600080fd5b6101cd610a12565b34156103bf57600080fd5b6101cd610a21565b34156103d257600080fd5b6101b8600160a060020a03600435166024351515610a30565b34156103f657600080fd5b610182600160a060020a0360043581169060243516610ade565b341561041b57600080fd5b6101b8600160a060020a036004803582169160248035909116916044359160849060643590810190830135806020601f82018190048102016040519081016040528181529291906020840183838082843750949650610b0095505050505050565b341561048757600080fd5b610492600435610c04565b6040516040810183905267ffffffffffffffff82166060820152608080825281906020820190820187818151815260200191508051906020019080838360005b838110156104ea5780820151838201526020016104d2565b50505050905090810190601f1680156105175780820380516001836020036101000a031916815260200191505b50838103825286818151815260200191508051906020019080838360005b8381101561054d578082015183820152602001610535565b50505050905090810190601f16801561057a5780820380516001836020036101000a031916815260200191505b50965050505050505060405180910390f35b341561059757600080fd5b6101b8600160a060020a0360043516610dcb565b34156105b657600080fd5b610182600160a060020a0360043516610e08565b34156105d557600080fd5b610182600160a060020a0360043581169060243516604435610e26565b7bffffffffffffffffffffffffffffffffffffffffffffffffffffffff191660009081526001602052604090205460ff1690565b8033600160a060020a031661063a82610941565b600160a060020a03161461064d57600080fd5b33600160a060020a031683600160a060020a03161415151561066e57600080fd5b600082815260036020526040908190208054600160a060020a031916600160a060020a038681169182179092559133909116907f8c5be1e5ebec7d5bd14f71427d1e84f3dd0314c0f7b2291e5b200ac8c7c3b9259085905190815260200160405180910390a3505050565b600954600160a060020a031681565b60075433600160a060020a0390811691161461070357600080fd5b60078054600160a060020a031916600160a060020a0392909216919091179055565b6000545b90565b600160a060020a03831615801561075d575060095474010000000000000000000000000000000000000000900460ff165b80610788575060075433600160a060020a0390811691161480156107885750600160a060020a038316155b8061079857506107983384610ade565b806107a957506107a9338483610e26565b806107cd575033600160a060020a03166107c282610941565b600160a060020a0316145b806107e6575060085433600160a060020a039081169116145b806107ff575060095433600160a060020a039081169116145b151561080a57600080fd5b600c5460ff1615806108395750600160a060020a0382166000908152600b602052604090205460ff1615156001145b151561084457600080fd5b61084f838383610e95565b505050565b600090815260036020526040902054600160a060020a031690565b600c5460ff1681565b60075433600160a060020a0390811691161461089357600080fd5b600160a060020a03919091166000908152600b60205260409020805460ff1916911515919091179055565b6108c66111c6565b6004600083600160a060020a0316600160a060020a0316815260200190815260200160002080548060200260200160405190810160405280929190818152602001828054801561093557602002820191906000526020600020905b815481526020019060010190808311610921575b50505050509050919050565b600090815260026020526040902054600160a060020a031690565b60075433600160a060020a0390811691161461097757600080fd5b60088054600160a060020a031916600160a060020a0392909216919091179055565b600160a060020a031660009081526004602052604090205490565b60075460009033600160a060020a039081169116146109d257600080fd5b50600c805460ff19811660ff9182161517918290551690565b60005481565b60095474010000000000000000000000000000000000000000900460ff1681565b600754600160a060020a031681565b600854600160a060020a031681565b8015610a6a5733600160a060020a0390811660009081526006602052604090208054600160a060020a031916918416919091179055610a91565b600160a060020a03331660009081526006602052604090208054600160a060020a03191690555b81600160a060020a031633600160a060020a03167f17307eab39ab6107e8899845ad3d59bd9653f200f220920489ca2b5937696c3183604051901515815260200160405180910390a35050565b600160a060020a03908116600090815260066020526040902054811691161490565b60008033600160a060020a0316610b1685610854565b600160a060020a03161480610b305750610b303387610ade565b80610b54575033600160a060020a0316610b4985610941565b600160a060020a0316145b1515610b5f57600080fd5b610b6a868686610e95565b5060005b6020811015610bea5780600802838281518110610b8757fe5b016020015160029190910a7f0100000000000000000000000000000000000000000000000000000000000000918290049091027fff0000000000000000000000000000000000000000000000000000000000000016049190911790600101610b6e565b8160405190815260200160405180910390a0505050505050565b610c0c6111c6565b610c146111c6565b600080610c1f6111d8565b6000868152600a6020526040908190209060a090519081016040529081600082018054600181600116156101000203166002900480601f016020809104026020016040519081016040528092919081815260200182805460018160011615610100020316600290048015610cd45780601f10610ca957610100808354040283529160200191610cd4565b820191906000526020600020905b815481529060010190602001808311610cb757829003601f168201915b50505050508152602001600182018054600181600116156101000203166002900480601f016020809104026020016040519081016040528092919081815260200182805460018160011615610100020316600290048015610d765780601f10610d4b57610100808354040283529160200191610d76565b820191906000526020600020905b815481529060010190602001808311610d5957829003601f168201915b5050509183525050600282015460208201526003820154604082015260049091015467ffffffffffffffff16606090910152905080518160200151826060015183608001519299919850965090945092505050565b60075433600160a060020a03908116911614610de657600080fd5b60098054600160a060020a031916600160a060020a0392909216919091179055565b600160a060020a03166000908152600b602052604090205460ff1690565b600081815260036020526040812054600160a060020a038581169116148015610e8d5750600160a060020a03831660009081526004602090815260408083208584526005909252909120548154849291908110610e7f57fe5b906000526020600020900154145b949350505050565b600160a060020a0382161515610eaa57600080fd5b610eb381610941565b600160a060020a0383811691161415610ecb57600080fd5b82600160a060020a0316610ede82610941565b600160a060020a031614610ef157600080fd5b60008181526003602052604090208054600160a060020a0319169055600160a060020a03831615610f2657610f268382610f7c565b610f3082826110e6565b81600160a060020a031683600160a060020a03167fddf252ad1be2c89b69c2b068fc378daa952ba7f163c4a11628f55a4df523b3ef8360405190815260200160405180910390a3505050565b600080600084600160a060020a0316610f9485610941565b600160a060020a031614610fa757600080fd5b6000848152600560205260409020549250610fd26001610fc687610999565b9063ffffffff61119e16565b600160a060020a038616600090815260046020526040902080549193509083908110610ffa57fe5b60009182526020808320909101548683526002825260408084208054600160a060020a0319169055600160a060020a038916845260049092529120805491925082918590811061104657fe5b6000918252602080832090910192909255600160a060020a038716815260049091526040812080548490811061107857fe5b6000918252602080832090910192909255600160a060020a03871681526004909152604090208054906110af906000198301611214565b506000848152600560205260408082208290558282528120849055546110dc90600163ffffffff61119e16565b6000555050505050565b600081815260026020526040812054600160a060020a03161561110857600080fd5b60008281526002602052604090208054600160a060020a031916600160a060020a03851617905561113883610999565b600160a060020a0384166000908152600460205260409020805491925090600181016111648382611214565b50600091825260208083209190910184905583825260059052604081208290555461119690600163ffffffff6111b016565b600055505050565b6000828211156111aa57fe5b50900390565b6000828201838110156111bf57fe5b9392505050565b60206040519081016040526000815290565b60a0604051908101604052806111ec6111c6565b81526020016111f96111c6565b81526000602082018190526040820181905260609091015290565b81548183558181151161084f5760008381526020902061084f91810190830161072991905b8082111561124d5760008155600101611239565b5090565b60018060007f095ea7b3000000000000000000000000000000000000000000000000000000006040517f6973417070726f76656428616464726573732c616464726573732c75696e743281527f3536290000000000000000000000000000000000000000000000000000000000602082015260230160405180910390206040517f6973417070726f76656428616464726573732c616464726573732900000000008152601b016040519081900390207f6352211e000000000000000000000000000000000000000000000000000000007f70a08231000000000000000000000000000000000000000000000000000000007fa22cb465000000000000000000000000000000000000000000000000000000007f18160ddd000000000000000000000000000000000000000000000000000000006040517f7472616e7366657246726f6d28616464726573732c616464726573732c75696e81527f743235362c6279746573290000000000000000000000000000000000000000006020820152602b0160405180910390206040517f7472616e7366657246726f6d28616464726573732c616464726573732c75696e81527f743235362900000000000000000000000000000000000000000000000000000060208201526025016040519081900390207f01ffc9a70000000000000000000000000000000000000000000000000000000091189190911891909118919091189190911891909118919091189190911881187bffffffffffffffffffffffffffffffffffffffffffffffffffffffff1916825260208083019390935260409091016000908120805460ff19908116951515959095179055526001908190527fb45820386466a8e01597d6e1efaf8f11ba4467972de5ca6c1f8aa3544ac2888e80549092161790555600a165627a7a72305820e494f8d44702ad912860ef2e72335c73c803da60ecc56d241f71fbd6e123eec300297472616e7366657246726f6d28616464726573732c616464726573732c75696e",
  "source": "pragma solidity ^0.4.18;\r\n\r\nimport \"./ERC721.sol\";\r\n\r\n/**\r\n*@title PhotoBase\r\n* Base contract for Photocoin. Holds all common structs, events and base variables.\r\n*/\r\ncontract PhotoBase is ERC721{\r\n    /***VARIABLES***/\r\n    address public owner; //The owner of the contract\r\n    address public marketContract; //The addresss of the official marketplace contract\r\n    address public auctionContract; //The addresss of the official auction contract\r\n    bool public allowUploads;\r\n\r\n    /*** DATA TYPES ***/\r\n    /// @dev The main Photo struct\r\n    struct Photo {\r\n        string name;//Name of photograph\r\n        string photographer;//Name of photographer\r\n        bytes32 photoHash; //Hash of photo\r\n        uint256 isenNumber;// The unique ISEN number\r\n        uint64 uploadTime;// The timestamp from the block when this came into existence\r\n    }\r\n    /*** STORAGE ***/\r\n    mapping(uint256 => Photo) photos;//A mapping from photoId to the details of the photo\r\n    mapping(address => bool) whitelist;// A list of addresses approved to trade\r\n    bool public whitelistOn;\r\n\r\n    /***MODIFIERS***/\r\n    /// @dev Access modifier for Owner functionality\r\n    modifier onlyOwner() {\r\n        require(msg.sender == owner);\r\n        _;\r\n    }\r\n\r\n    /*** EVENTS ***/\r\n    /// @dev The Upload event is fired whenever a new photo is uploaded\r\n    event Upload(address indexed _owner, uint256 _photoId,bytes32 _photoHash, string _name, string _photographer, uint _isenNumber);\r\n\r\n\r\n    /***FUNCTIONS***/\r\n    /**\r\n    *@dev allows the owner to set the owner of the contract\r\n    *@param _owner is the address of the new owner\r\n    */\r\n    function setOwner(address _owner) public onlyOwner() {\r\n        owner = _owner;\r\n    }\r\n\r\n    /**\r\n    *@dev allows the owner to set the official marketplace of the token\r\n    *@param _market is the address of the PhotoMarket contract\r\n    */\r\n    function setMarket(address _market) public onlyOwner() {\r\n        marketContract = _market;\r\n    }\r\n    /**\r\n    *@dev allows the owner to set the official auction of the token\r\n    *@param _market is the address of the PhotoMarket contract\r\n    */\r\n    function setAuction(address _auction) public onlyOwner() {\r\n        auctionContract = _auction;\r\n    }\r\n\r\n    /**\r\n    *@dev allows the owner to manage the whitelist\r\n    *@param _user is the user to allow to trade\r\n    */\r\n    function setWhitelist(address _user, bool _trueorfalse) public onlyOwner() {\r\n        whitelist[_user] = _trueorfalse;\r\n    }\r\n\r\n\r\n    /**\r\n    *@dev allows users to query whether an address is whitelisted\r\n    *@param _user is the user to allow to trade\r\n    *@return bool is whether a user is allowed to trade\r\n    */\r\n    function isWhitelist(address _user) public view returns(bool){\r\n        return whitelist[_user];\r\n    }\r\n\r\n        /**\r\n    *@dev allows users to query whether parties need to be whitelisted\r\n    */\r\n    function toggleWhitelist() public onlyOwner() returns(bool){\r\n        whitelistOn = !whitelistOn;\r\n        return whitelistOn;\r\n    }\r\n\r\n    /**\r\n    *@dev allows for the details of the photo to be viewed\r\n    *@param _tokenId is the address of the new owner\r\n    *@return string  name\r\n    *@return string photographer\r\n    *@return uint256 isenNumber\r\n    *@return uint64 uploadTime\r\n    */\r\n    function getPhoto(uint _tokenId) public view returns(string,string,uint256, uint64){\r\n        Photo memory _photo = photos[_tokenId];\r\n        return (_photo.name,_photo.photographer,_photo.isenNumber,_photo.uploadTime);\r\n    }\r\n\r\n  /**\r\n   * @dev This overwrites the transferFrom function to allow the market/auction contract to interact\r\n   * @param _from is the address that the token will be sent from\r\n   * @param _to is the address we are sending the token to\r\n   * @param _tokenId the numeric identifier of a token\r\n  */\r\n  function transferFrom(address _from, address _to, uint256 _tokenId)  public{\r\n    require((_from == address(0) && allowUploads) ||\r\n        (msg.sender == owner && _from == address(0)) ||\r\n         isApproved(msg.sender,_from) ||\r\n          isApproved(msg.sender,_from,_tokenId) ||\r\n           ownerOf(_tokenId)==msg.sender ||\r\n            msg.sender==marketContract ||\r\n             msg.sender==auctionContract);\r\n    require(!whitelistOn || whitelist[_to] == true);\r\n    clearApprovalAndTransfer(_from,_to,_tokenId);\r\n  }\r\n}\r\n",
  "sourcePath": "C:\\Nick\\consulting\\photocoin\\contracts\\PhotoBase.sol",
  "compiler": {
    "name": "solc",
    "version": "0.4.19+commit.c4cbbb05.Emscripten.clang"
  },
  "schemaVersion": "1.0.1",
  "updatedAt": "2018-03-29T13:51:02.175Z"
}