{
  "contractName": "PhotoCore",
  "abi": [
    {
      "constant": true,
      "inputs": [
        {
          "name": "interfaceID",
          "type": "bytes4"
        }
      ],
      "name": "supportsInterface",
      "outputs": [
        {
          "name": "",
          "type": "bool"
        }
      ],
      "payable": false,
      "stateMutability": "view",
      "type": "function"
    },
    {
      "constant": true,
      "inputs": [],
      "name": "name",
      "outputs": [
        {
          "name": "",
          "type": "string"
        }
      ],
      "payable": false,
      "stateMutability": "view",
      "type": "function"
    },
    {
      "constant": false,
      "inputs": [
        {
          "name": "_to",
          "type": "address"
        },
        {
          "name": "_tokenId",
          "type": "uint256"
        }
      ],
      "name": "approve",
      "outputs": [],
      "payable": false,
      "stateMutability": "nonpayable",
      "type": "function"
    },
    {
      "constant": true,
      "inputs": [],
      "name": "auctionContract",
      "outputs": [
        {
          "name": "",
          "type": "address"
        }
      ],
      "payable": false,
      "stateMutability": "view",
      "type": "function"
    },
    {
      "constant": false,
      "inputs": [
        {
          "name": "_owner",
          "type": "address"
        }
      ],
      "name": "setOwner",
      "outputs": [],
      "payable": false,
      "stateMutability": "nonpayable",
      "type": "function"
    },
    {
      "constant": true,
      "inputs": [],
      "name": "totalSupply",
      "outputs": [
        {
          "name": "",
          "type": "uint256"
        }
      ],
      "payable": false,
      "stateMutability": "view",
      "type": "function"
    },
    {
      "constant": false,
      "inputs": [
        {
          "name": "_from",
          "type": "address"
        },
        {
          "name": "_to",
          "type": "address"
        },
        {
          "name": "_tokenId",
          "type": "uint256"
        }
      ],
      "name": "transferFrom",
      "outputs": [],
      "payable": false,
      "stateMutability": "nonpayable",
      "type": "function"
    },
    {
      "constant": true,
      "inputs": [
        {
          "name": "_tokenId",
          "type": "uint256"
        }
      ],
      "name": "approvedFor",
      "outputs": [
        {
          "name": "",
          "type": "address"
        }
      ],
      "payable": false,
      "stateMutability": "view",
      "type": "function"
    },
    {
      "constant": false,
      "inputs": [
        {
          "name": "_user",
          "type": "address"
        },
        {
          "name": "_trueorfalse",
          "type": "bool"
        }
      ],
      "name": "setWhitelist",
      "outputs": [],
      "payable": false,
      "stateMutability": "nonpayable",
      "type": "function"
    },
    {
      "constant": true,
      "inputs": [
        {
          "name": "_owner",
          "type": "address"
        }
      ],
      "name": "tokensOf",
      "outputs": [
        {
          "name": "",
          "type": "uint256[]"
        }
      ],
      "payable": false,
      "stateMutability": "view",
      "type": "function"
    },
    {
      "constant": true,
      "inputs": [
        {
          "name": "_tokenId",
          "type": "uint256"
        }
      ],
      "name": "ownerOf",
      "outputs": [
        {
          "name": "",
          "type": "address"
        }
      ],
      "payable": false,
      "stateMutability": "view",
      "type": "function"
    },
    {
      "constant": false,
      "inputs": [
        {
          "name": "_market",
          "type": "address"
        }
      ],
      "name": "setMarket",
      "outputs": [],
      "payable": false,
      "stateMutability": "nonpayable",
      "type": "function"
    },
    {
      "constant": true,
      "inputs": [
        {
          "name": "_owner",
          "type": "address"
        }
      ],
      "name": "balanceOf",
      "outputs": [
        {
          "name": "",
          "type": "uint256"
        }
      ],
      "payable": false,
      "stateMutability": "view",
      "type": "function"
    },
    {
      "constant": true,
      "inputs": [],
      "name": "totalTokens",
      "outputs": [
        {
          "name": "",
          "type": "uint256"
        }
      ],
      "payable": false,
      "stateMutability": "view",
      "type": "function"
    },
    {
      "constant": true,
      "inputs": [],
      "name": "owner",
      "outputs": [
        {
          "name": "",
          "type": "address"
        }
      ],
      "payable": false,
      "stateMutability": "view",
      "type": "function"
    },
    {
      "constant": true,
      "inputs": [],
      "name": "symbol",
      "outputs": [
        {
          "name": "",
          "type": "string"
        }
      ],
      "payable": false,
      "stateMutability": "view",
      "type": "function"
    },
    {
      "constant": true,
      "inputs": [],
      "name": "marketContract",
      "outputs": [
        {
          "name": "",
          "type": "address"
        }
      ],
      "payable": false,
      "stateMutability": "view",
      "type": "function"
    },
    {
      "constant": false,
      "inputs": [
        {
          "name": "_operator",
          "type": "address"
        },
        {
          "name": "_approved",
          "type": "bool"
        }
      ],
      "name": "setApprovalForAll",
      "outputs": [],
      "payable": false,
      "stateMutability": "nonpayable",
      "type": "function"
    },
    {
      "constant": true,
      "inputs": [
        {
          "name": "_operator",
          "type": "address"
        },
        {
          "name": "_owner",
          "type": "address"
        }
      ],
      "name": "isApproved",
      "outputs": [
        {
          "name": "",
          "type": "bool"
        }
      ],
      "payable": false,
      "stateMutability": "view",
      "type": "function"
    },
    {
      "constant": false,
      "inputs": [
        {
          "name": "_from",
          "type": "address"
        },
        {
          "name": "_to",
          "type": "address"
        },
        {
          "name": "_tokenId",
          "type": "uint256"
        },
        {
          "name": "data",
          "type": "bytes"
        }
      ],
      "name": "transferFrom",
      "outputs": [],
      "payable": false,
      "stateMutability": "nonpayable",
      "type": "function"
    },
    {
      "constant": true,
      "inputs": [
        {
          "name": "_tokenId",
          "type": "uint256"
        }
      ],
      "name": "getPhoto",
      "outputs": [
        {
          "name": "",
          "type": "string"
        },
        {
          "name": "",
          "type": "string"
        },
        {
          "name": "",
          "type": "uint256"
        },
        {
          "name": "",
          "type": "uint64"
        }
      ],
      "payable": false,
      "stateMutability": "view",
      "type": "function"
    },
    {
      "constant": false,
      "inputs": [
        {
          "name": "_auction",
          "type": "address"
        }
      ],
      "name": "setAuction",
      "outputs": [],
      "payable": false,
      "stateMutability": "nonpayable",
      "type": "function"
    },
    {
      "constant": true,
      "inputs": [
        {
          "name": "_user",
          "type": "address"
        }
      ],
      "name": "isWhitelist",
      "outputs": [
        {
          "name": "",
          "type": "bool"
        }
      ],
      "payable": false,
      "stateMutability": "view",
      "type": "function"
    },
    {
      "constant": true,
      "inputs": [
        {
          "name": "_operator",
          "type": "address"
        },
        {
          "name": "_owner",
          "type": "address"
        },
        {
          "name": "_tokenId",
          "type": "uint256"
        }
      ],
      "name": "isApproved",
      "outputs": [
        {
          "name": "",
          "type": "bool"
        }
      ],
      "payable": false,
      "stateMutability": "view",
      "type": "function"
    },
    {
      "inputs": [],
      "payable": false,
      "stateMutability": "nonpayable",
      "type": "constructor"
    },
    {
      "payable": true,
      "stateMutability": "payable",
      "type": "fallback"
    },
    {
      "anonymous": false,
      "inputs": [
        {
          "indexed": true,
          "name": "_owner",
          "type": "address"
        },
        {
          "indexed": false,
          "name": "_photoId",
          "type": "uint256"
        },
        {
          "indexed": false,
          "name": "_photoHash",
          "type": "bytes32"
        },
        {
          "indexed": false,
          "name": "_name",
          "type": "string"
        },
        {
          "indexed": false,
          "name": "_photographer",
          "type": "string"
        },
        {
          "indexed": false,
          "name": "_isenNumber",
          "type": "uint256"
        }
      ],
      "name": "Upload",
      "type": "event"
    },
    {
      "anonymous": false,
      "inputs": [
        {
          "indexed": true,
          "name": "_from",
          "type": "address"
        },
        {
          "indexed": true,
          "name": "_to",
          "type": "address"
        },
        {
          "indexed": false,
          "name": "_tokenId",
          "type": "uint256"
        }
      ],
      "name": "Transfer",
      "type": "event"
    },
    {
      "anonymous": false,
      "inputs": [
        {
          "indexed": true,
          "name": "_owner",
          "type": "address"
        },
        {
          "indexed": true,
          "name": "_operator",
          "type": "address"
        },
        {
          "indexed": false,
          "name": "_approved",
          "type": "bool"
        }
      ],
      "name": "ApprovalForAll",
      "type": "event"
    },
    {
      "anonymous": false,
      "inputs": [
        {
          "indexed": true,
          "name": "_owner",
          "type": "address"
        },
        {
          "indexed": true,
          "name": "_operator",
          "type": "address"
        },
        {
          "indexed": false,
          "name": "_tokenId",
          "type": "uint256"
        }
      ],
      "name": "Approval",
      "type": "event"
    },
    {
      "constant": false,
      "inputs": [
        {
          "name": "_photoHash",
          "type": "bytes32"
        },
        {
          "name": "_name",
          "type": "string"
        },
        {
          "name": "_photographer",
          "type": "string"
        },
        {
          "name": "_isenNumber",
          "type": "uint256"
        },
        {
          "name": "_owner",
          "type": "address"
        }
      ],
      "name": "uploadPhoto",
      "outputs": [],
      "payable": false,
      "stateMutability": "nonpayable",
      "type": "function"
    }
  ],
  "bytecode": "0x60606040526040805190810160405280600981526020017f50686f746f436f696e0000000000000000000000000000000000000000000000815250600c9080519060200190620000519291906200055b565b506040805190810160405280600281526020017f5043000000000000000000000000000000000000000000000000000000000000815250600d90805190602001906200009f9291906200055b565b503415620000ac57600080fd5b620000ca6200018b64010000000002620025d5176401000000009004565b33600760006101000a81548173ffffffffffffffffffffffffffffffffffffffff021916908373ffffffffffffffffffffffffffffffffffffffff1602179055506001600b6000600760009054906101000a900473ffffffffffffffffffffffffffffffffffffffff1673ffffffffffffffffffffffffffffffffffffffff1673ffffffffffffffffffffffffffffffffffffffff16815260200190815260200160002060006101000a81548160ff0219169083151502179055506200060a565b60018060003073ffffffffffffffffffffffffffffffffffffffff1663095ea7b390507c01000000000000000000000000000000000000000000000000000000000260405180807f6973417070726f76656428616464726573732c616464726573732c75696e743281526020017f35362900000000000000000000000000000000000000000000000000000000008152506023019050604051809103902060405180807f6973417070726f76656428616464726573732c61646472657373290000000000815250601b01905060405180910390203073ffffffffffffffffffffffffffffffffffffffff16636352211e90507c0100000000000000000000000000000000000000000000000000000000023073ffffffffffffffffffffffffffffffffffffffff166370a0823190507c0100000000000000000000000000000000000000000000000000000000023073ffffffffffffffffffffffffffffffffffffffff1663a22cb46590507c0100000000000000000000000000000000000000000000000000000000023073ffffffffffffffffffffffffffffffffffffffff166318160ddd90507c01000000000000000000000000000000000000000000000000000000000260405180807f7472616e7366657246726f6d28616464726573732c616464726573732c75696e81526020017f743235362c627974657329000000000000000000000000000000000000000000815250602b019050604051809103902060405180807f7472616e7366657246726f6d28616464726573732c616464726573732c75696e81526020017f7432353629000000000000000000000000000000000000000000000000000000815250602501905060405180910390203073ffffffffffffffffffffffffffffffffffffffff166301ffc9a790507c0100000000000000000000000000000000000000000000000000000000021818181818181818187bffffffffffffffffffffffffffffffffffffffffffffffffffffffff19167bffffffffffffffffffffffffffffffffffffffffffffffffffffffff1916815260200190815260200160002060006101000a81548160ff02191690831515021790555060018060003073ffffffffffffffffffffffffffffffffffffffff166301ffc9a790507c0100000000000000000000000000000000000000000000000000000000027bffffffffffffffffffffffffffffffffffffffffffffffffffffffff19167bffffffffffffffffffffffffffffffffffffffffffffffffffffffff1916815260200190815260200160002060006101000a81548160ff021916908315150217905550565b828054600181600116156101000203166002900490600052602060002090601f016020900481019282601f106200059e57805160ff1916838001178555620005cf565b82800160010185558215620005cf579182015b82811115620005ce578251825591602001919060010190620005b1565b5b509050620005de9190620005e2565b5090565b6200060791905b8082111562000603576000816000905550600101620005e9565b5090565b90565b6129d1806200061a6000396000f300606060405260043610610149576000357c0100000000000000000000000000000000000000000000000000000000900463ffffffff16806301ffc9a71461015a57806306fdde03146101b4578063095ea7b3146102425780630ab8afac1461028457806313af4035146102d957806318160ddd1461031257806323b872dd1461033b5780632a6dd48f1461039c57806353d6fd59146103ff5780635a3f2672146104435780636352211e146104d15780636dcea85f1461053457806370a082311461056d5780637e1c0c09146105ba5780638da5cb5b146105e357806395d89b4114610638578063987e9bfb146106c6578063a1794bcd1461079b578063a22cb465146107f0578063a389783e14610834578063ab67aa58146108a4578063b6be128a14610948578063b8c6f57914610a72578063c683630d14610aab578063e5af48d814610afc575b60003414151561015857600080fd5b005b341561016557600080fd5b61019a60048080357bffffffffffffffffffffffffffffffffffffffffffffffffffffffff1916906020019091905050610b75565b604051808215151515815260200191505060405180910390f35b34156101bf57600080fd5b6101c7610bdd565b6040518080602001828103825283818151815260200191508051906020019080838360005b838110156102075780820151818401526020810190506101ec565b50505050905090810190601f1680156102345780820380516001836020036101000a031916815260200191505b509250505060405180910390f35b341561024d57600080fd5b610282600480803573ffffffffffffffffffffffffffffffffffffffff16906020019091908035906020019091905050610c7b565b005b341561028f57600080fd5b610297610db5565b604051808273ffffffffffffffffffffffffffffffffffffffff1673ffffffffffffffffffffffffffffffffffffffff16815260200191505060405180910390f35b34156102e457600080fd5b610310600480803573ffffffffffffffffffffffffffffffffffffffff16906020019091905050610ddb565b005b341561031d57600080fd5b610325610e7b565b6040518082815260200191505060405180910390f35b341561034657600080fd5b61039a600480803573ffffffffffffffffffffffffffffffffffffffff1690602001909190803573ffffffffffffffffffffffffffffffffffffffff16906020019091908035906020019091905050610e84565b005b34156103a757600080fd5b6103bd6004808035906020019091905050611060565b604051808273ffffffffffffffffffffffffffffffffffffffff1673ffffffffffffffffffffffffffffffffffffffff16815260200191505060405180910390f35b341561040a57600080fd5b610441600480803573ffffffffffffffffffffffffffffffffffffffff16906020019091908035151590602001909190505061109d565b005b341561044e57600080fd5b61047a600480803573ffffffffffffffffffffffffffffffffffffffff16906020019091905050611154565b6040518080602001828103825283818151815260200191508051906020019060200280838360005b838110156104bd5780820151818401526020810190506104a2565b505050509050019250505060405180910390f35b34156104dc57600080fd5b6104f260048080359060200190919050506111f1565b604051808273ffffffffffffffffffffffffffffffffffffffff1673ffffffffffffffffffffffffffffffffffffffff16815260200191505060405180910390f35b341561053f57600080fd5b61056b600480803573ffffffffffffffffffffffffffffffffffffffff16906020019091905050611233565b005b341561057857600080fd5b6105a4600480803573ffffffffffffffffffffffffffffffffffffffff169060200190919050506112d3565b6040518082815260200191505060405180910390f35b34156105c557600080fd5b6105cd61131f565b6040518082815260200191505060405180910390f35b34156105ee57600080fd5b6105f6611325565b604051808273ffffffffffffffffffffffffffffffffffffffff1673ffffffffffffffffffffffffffffffffffffffff16815260200191505060405180910390f35b341561064357600080fd5b61064b61134b565b6040518080602001828103825283818151815260200191508051906020019080838360005b8381101561068b578082015181840152602081019050610670565b50505050905090810190601f1680156106b85780820380516001836020036101000a031916815260200191505b509250505060405180910390f35b34156106d157600080fd5b61079960048080356000191690602001909190803590602001908201803590602001908080601f0160208091040260200160405190810160405280939291908181526020018383808284378201915050505050509190803590602001908201803590602001908080601f0160208091040260200160405190810160405280939291908181526020018383808284378201915050505050509190803590602001909190803573ffffffffffffffffffffffffffffffffffffffff169060200190919050506113e9565b005b34156107a657600080fd5b6107ae6116ca565b604051808273ffffffffffffffffffffffffffffffffffffffff1673ffffffffffffffffffffffffffffffffffffffff16815260200191505060405180910390f35b34156107fb57600080fd5b610832600480803573ffffffffffffffffffffffffffffffffffffffff1690602001909190803515159060200190919050506116f0565b005b341561083f57600080fd5b61088a600480803573ffffffffffffffffffffffffffffffffffffffff1690602001909190803573ffffffffffffffffffffffffffffffffffffffff16906020019091905050611866565b604051808215151515815260200191505060405180910390f35b34156108af57600080fd5b610946600480803573ffffffffffffffffffffffffffffffffffffffff1690602001909190803573ffffffffffffffffffffffffffffffffffffffff1690602001909190803590602001909190803590602001908201803590602001908080601f016020809104026020016040519081016040528093929190818152602001838380828437820191505050505050919050506118fe565b005b341561095357600080fd5b6109696004808035906020019091905050611a90565b6040518080602001806020018581526020018467ffffffffffffffff1667ffffffffffffffff168152602001838103835287818151815260200191508051906020019080838360005b838110156109cd5780820151818401526020810190506109b2565b50505050905090810190601f1680156109fa5780820380516001836020036101000a031916815260200191505b50838103825286818151815260200191508051906020019080838360005b83811015610a33578082015181840152602081019050610a18565b50505050905090810190601f168015610a605780820380516001836020036101000a031916815260200191505b50965050505050505060405180910390f35b3415610a7d57600080fd5b610aa9600480803573ffffffffffffffffffffffffffffffffffffffff16906020019091905050611c88565b005b3415610ab657600080fd5b610ae2600480803573ffffffffffffffffffffffffffffffffffffffff16906020019091905050611d28565b604051808215151515815260200191505060405180910390f35b3415610b0757600080fd5b610b5b600480803573ffffffffffffffffffffffffffffffffffffffff1690602001909190803573ffffffffffffffffffffffffffffffffffffffff16906020019091908035906020019091905050611d7e565b604051808215151515815260200191505060405180910390f35b600060016000837bffffffffffffffffffffffffffffffffffffffffffffffffffffffff19167bffffffffffffffffffffffffffffffffffffffffffffffffffffffff1916815260200190815260200160002060009054906101000a900460ff169050919050565b600c8054600181600116156101000203166002900480601f016020809104026020016040519081016040528092919081815260200182805460018160011615610100020316600290048015610c735780601f10610c4857610100808354040283529160200191610c73565b820191906000526020600020905b815481529060010190602001808311610c5657829003601f168201915b505050505081565b803373ffffffffffffffffffffffffffffffffffffffff16610c9c826111f1565b73ffffffffffffffffffffffffffffffffffffffff16141515610cbe57600080fd5b3373ffffffffffffffffffffffffffffffffffffffff168373ffffffffffffffffffffffffffffffffffffffff1614151515610cf957600080fd5b826003600084815260200190815260200160002060006101000a81548173ffffffffffffffffffffffffffffffffffffffff021916908373ffffffffffffffffffffffffffffffffffffffff1602179055508273ffffffffffffffffffffffffffffffffffffffff163373ffffffffffffffffffffffffffffffffffffffff167f8c5be1e5ebec7d5bd14f71427d1e84f3dd0314c0f7b2291e5b200ac8c7c3b925846040518082815260200191505060405180910390a3505050565b600960009054906101000a900473ffffffffffffffffffffffffffffffffffffffff1681565b600760009054906101000a900473ffffffffffffffffffffffffffffffffffffffff1673ffffffffffffffffffffffffffffffffffffffff163373ffffffffffffffffffffffffffffffffffffffff16141515610e3757600080fd5b80600760006101000a81548173ffffffffffffffffffffffffffffffffffffffff021916908373ffffffffffffffffffffffffffffffffffffffff16021790555050565b60008054905090565b600760009054906101000a900473ffffffffffffffffffffffffffffffffffffffff1673ffffffffffffffffffffffffffffffffffffffff163373ffffffffffffffffffffffffffffffffffffffff161480610ee65750610ee53384611866565b5b80610ef85750610ef7338483611d7e565b5b80610f3657503373ffffffffffffffffffffffffffffffffffffffff16610f1e826111f1565b73ffffffffffffffffffffffffffffffffffffffff16145b80610f8e5750600860009054906101000a900473ffffffffffffffffffffffffffffffffffffffff1673ffffffffffffffffffffffffffffffffffffffff163373ffffffffffffffffffffffffffffffffffffffff16145b80610fe65750600960009054906101000a900473ffffffffffffffffffffffffffffffffffffffff1673ffffffffffffffffffffffffffffffffffffffff163373ffffffffffffffffffffffffffffffffffffffff16145b1515610ff157600080fd5b60011515600b60008473ffffffffffffffffffffffffffffffffffffffff1673ffffffffffffffffffffffffffffffffffffffff16815260200190815260200160002060009054906101000a900460ff16151514151561105057600080fd5b61105b838383611e60565b505050565b60006003600083815260200190815260200160002060009054906101000a900473ffffffffffffffffffffffffffffffffffffffff169050919050565b600760009054906101000a900473ffffffffffffffffffffffffffffffffffffffff1673ffffffffffffffffffffffffffffffffffffffff163373ffffffffffffffffffffffffffffffffffffffff161415156110f957600080fd5b80600b60008473ffffffffffffffffffffffffffffffffffffffff1673ffffffffffffffffffffffffffffffffffffffff16815260200190815260200160002060006101000a81548160ff0219169083151502179055505050565b61115c612453565b600460008373ffffffffffffffffffffffffffffffffffffffff1673ffffffffffffffffffffffffffffffffffffffff1681526020019081526020016000208054806020026020016040519081016040528092919081815260200182805480156111e557602002820191906000526020600020905b8154815260200190600101908083116111d1575b50505050509050919050565b6000806002600084815260200190815260200160002060009054906101000a900473ffffffffffffffffffffffffffffffffffffffff16905080915050919050565b600760009054906101000a900473ffffffffffffffffffffffffffffffffffffffff1673ffffffffffffffffffffffffffffffffffffffff163373ffffffffffffffffffffffffffffffffffffffff1614151561128f57600080fd5b80600860006101000a81548173ffffffffffffffffffffffffffffffffffffffff021916908373ffffffffffffffffffffffffffffffffffffffff16021790555050565b6000600460008373ffffffffffffffffffffffffffffffffffffffff1673ffffffffffffffffffffffffffffffffffffffff168152602001908152602001600020805490509050919050565b60005481565b600760009054906101000a900473ffffffffffffffffffffffffffffffffffffffff1681565b600d8054600181600116156101000203166002900480601f0160208091040260200160405190810160405280929190818152602001828054600181600116156101000203166002900480156113e15780601f106113b6576101008083540402835291602001916113e1565b820191906000526020600020905b8154815290600101906020018083116113c457829003601f168201915b505050505081565b6000600760009054906101000a900473ffffffffffffffffffffffffffffffffffffffff1673ffffffffffffffffffffffffffffffffffffffff163373ffffffffffffffffffffffffffffffffffffffff1614151561144757600080fd5b600073ffffffffffffffffffffffffffffffffffffffff168273ffffffffffffffffffffffffffffffffffffffff1614156114a257600760009054906101000a900473ffffffffffffffffffffffffffffffffffffffff1691505b600054905060a060405190810160405280868152602001858152602001876000191681526020018481526020014267ffffffffffffffff16815250600a6000838152602001908152602001600020600082015181600001908051906020019061150c929190612467565b506020820151816001019080519060200190611529929190612467565b50604082015181600201906000191690556060820151816003015560808201518160040160006101000a81548167ffffffffffffffff021916908367ffffffffffffffff16021790555090505061158260008383610e84565b8173ffffffffffffffffffffffffffffffffffffffff167f617db0c49289b17c180e87517cabec78402cfe15781318051fe9165e9017e09f82888888886040518086815260200185600019166000191681526020018060200180602001848152602001838103835286818151815260200191508051906020019080838360005b8381101561161d578082015181840152602081019050611602565b50505050905090810190601f16801561164a5780820380516001836020036101000a031916815260200191505b50838103825285818151815260200191508051906020019080838360005b83811015611683578082015181840152602081019050611668565b50505050905090810190601f1680156116b05780820380516001836020036101000a031916815260200191505b5097505050505050505060405180910390a2505050505050565b600860009054906101000a900473ffffffffffffffffffffffffffffffffffffffff1681565b80156117795781600660003373ffffffffffffffffffffffffffffffffffffffff1673ffffffffffffffffffffffffffffffffffffffff16815260200190815260200160002060006101000a81548173ffffffffffffffffffffffffffffffffffffffff021916908373ffffffffffffffffffffffffffffffffffffffff1602179055506117f9565b6000600660003373ffffffffffffffffffffffffffffffffffffffff1673ffffffffffffffffffffffffffffffffffffffff16815260200190815260200160002060006101000a81548173ffffffffffffffffffffffffffffffffffffffff021916908373ffffffffffffffffffffffffffffffffffffffff1602179055505b8173ffffffffffffffffffffffffffffffffffffffff163373ffffffffffffffffffffffffffffffffffffffff167f17307eab39ab6107e8899845ad3d59bd9653f200f220920489ca2b5937696c3183604051808215151515815260200191505060405180910390a35050565b60008273ffffffffffffffffffffffffffffffffffffffff16600660008473ffffffffffffffffffffffffffffffffffffffff1673ffffffffffffffffffffffffffffffffffffffff16815260200190815260200160002060009054906101000a900473ffffffffffffffffffffffffffffffffffffffff1673ffffffffffffffffffffffffffffffffffffffff1614905092915050565b6000803373ffffffffffffffffffffffffffffffffffffffff1661192185611060565b73ffffffffffffffffffffffffffffffffffffffff16148061194957506119483387611866565b5b8061198757503373ffffffffffffffffffffffffffffffffffffffff1661196f856111f1565b73ffffffffffffffffffffffffffffffffffffffff16145b151561199257600080fd5b61199d868686611e60565b600090505b6020811015611a6a576008810260ff7f01000000000000000000000000000000000000000000000000000000000000000284838151811015156119e157fe5b9060200101517f010000000000000000000000000000000000000000000000000000000000000090047f010000000000000000000000000000000000000000000000000000000000000002167effffffffffffffffffffffffffffffffffffffffffffffffffffffffffffff1916600019169060020a90048217915080806001019150506119a2565b8160405180826000191660001916815260200191505060405180910390a0505050505050565b611a986124e7565b611aa06124e7565b600080611aab6124fb565b600a600087815260200190815260200160002060a06040519081016040529081600082018054600181600116156101000203166002900480601f016020809104026020016040519081016040528092919081815260200182805460018160011615610100020316600290048015611b635780601f10611b3857610100808354040283529160200191611b63565b820191906000526020600020905b815481529060010190602001808311611b4657829003601f168201915b50505050508152602001600182018054600181600116156101000203166002900480601f016020809104026020016040519081016040528092919081815260200182805460018160011615610100020316600290048015611c055780601f10611bda57610100808354040283529160200191611c05565b820191906000526020600020905b815481529060010190602001808311611be857829003601f168201915b50505050508152602001600282015460001916600019168152602001600382015481526020016004820160009054906101000a900467ffffffffffffffff1667ffffffffffffffff1667ffffffffffffffff1681525050905080600001518160200151826060015183608001518393508292509450945094509450509193509193565b600760009054906101000a900473ffffffffffffffffffffffffffffffffffffffff1673ffffffffffffffffffffffffffffffffffffffff163373ffffffffffffffffffffffffffffffffffffffff16141515611ce457600080fd5b80600960006101000a81548173ffffffffffffffffffffffffffffffffffffffff021916908373ffffffffffffffffffffffffffffffffffffffff16021790555050565b6000600b60008373ffffffffffffffffffffffffffffffffffffffff1673ffffffffffffffffffffffffffffffffffffffff16815260200190815260200160002060009054906101000a900460ff169050919050565b60008373ffffffffffffffffffffffffffffffffffffffff166003600084815260200190815260200160002060009054906101000a900473ffffffffffffffffffffffffffffffffffffffff1673ffffffffffffffffffffffffffffffffffffffff16148015611e57575081600460008573ffffffffffffffffffffffffffffffffffffffff1673ffffffffffffffffffffffffffffffffffffffff1681526020019081526020016000206005600085815260200190815260200160002054815481101515611e4957fe5b906000526020600020900154145b90509392505050565b600073ffffffffffffffffffffffffffffffffffffffff168273ffffffffffffffffffffffffffffffffffffffff1614151515611e9c57600080fd5b611ea5816111f1565b73ffffffffffffffffffffffffffffffffffffffff168273ffffffffffffffffffffffffffffffffffffffff1614151515611edf57600080fd5b8273ffffffffffffffffffffffffffffffffffffffff16611eff826111f1565b73ffffffffffffffffffffffffffffffffffffffff16141515611f2157600080fd5b60006003600083815260200190815260200160002060006101000a81548173ffffffffffffffffffffffffffffffffffffffff021916908373ffffffffffffffffffffffffffffffffffffffff160217905550600073ffffffffffffffffffffffffffffffffffffffff168373ffffffffffffffffffffffffffffffffffffffff16141515611fb557611fb48382612029565b5b611fbf82826122b1565b8173ffffffffffffffffffffffffffffffffffffffff168373ffffffffffffffffffffffffffffffffffffffff167fddf252ad1be2c89b69c2b068fc378daa952ba7f163c4a11628f55a4df523b3ef836040518082815260200191505060405180910390a3505050565b60008060008473ffffffffffffffffffffffffffffffffffffffff1661204e856111f1565b73ffffffffffffffffffffffffffffffffffffffff1614151561207057600080fd5b600560008581526020019081526020016000205492506120a26001612094876112d3565b61241c90919063ffffffff16565b9150600460008673ffffffffffffffffffffffffffffffffffffffff1673ffffffffffffffffffffffffffffffffffffffff168152602001908152602001600020828154811015156120f057fe5b906000526020600020900154905060006002600086815260200190815260200160002060006101000a81548173ffffffffffffffffffffffffffffffffffffffff021916908373ffffffffffffffffffffffffffffffffffffffff16021790555080600460008773ffffffffffffffffffffffffffffffffffffffff1673ffffffffffffffffffffffffffffffffffffffff1681526020019081526020016000208481548110151561219e57fe5b9060005260206000209001819055506000600460008773ffffffffffffffffffffffffffffffffffffffff1673ffffffffffffffffffffffffffffffffffffffff168152602001908152602001600020838154811015156121fb57fe5b906000526020600020900181905550600460008673ffffffffffffffffffffffffffffffffffffffff1673ffffffffffffffffffffffffffffffffffffffff16815260200190815260200160002080548091906001900361225c9190612544565b50600060056000868152602001908152602001600020819055508260056000838152602001908152602001600020819055506122a4600160005461241c90919063ffffffff16565b6000819055505050505050565b60008073ffffffffffffffffffffffffffffffffffffffff166002600084815260200190815260200160002060009054906101000a900473ffffffffffffffffffffffffffffffffffffffff1673ffffffffffffffffffffffffffffffffffffffff1614151561232057600080fd5b826002600084815260200190815260200160002060006101000a81548173ffffffffffffffffffffffffffffffffffffffff021916908373ffffffffffffffffffffffffffffffffffffffff16021790555061237b836112d3565b9050600460008473ffffffffffffffffffffffffffffffffffffffff1673ffffffffffffffffffffffffffffffffffffffff16815260200190815260200160002080548060010182816123ce9190612570565b916000526020600020900160008490919091505550806005600084815260200190815260200160002081905550612411600160005461243590919063ffffffff16565b600081905550505050565b600082821115151561242a57fe5b818303905092915050565b600080828401905083811015151561244957fe5b8091505092915050565b602060405190810160405280600081525090565b828054600181600116156101000203166002900490600052602060002090601f016020900481019282601f106124a857805160ff19168380011785556124d6565b828001600101855582156124d6579182015b828111156124d55782518255916020019190600101906124ba565b5b5090506124e3919061259c565b5090565b602060405190810160405280600081525090565b60a06040519081016040528061250f6125c1565b815260200161251c6125c1565b81526020016000801916815260200160008152602001600067ffffffffffffffff1681525090565b81548183558181151161256b5781836000526020600020918201910161256a919061259c565b5b505050565b81548183558181151161259757818360005260206000209182019101612596919061259c565b5b505050565b6125be91905b808211156125ba5760008160009055506001016125a2565b5090565b90565b602060405190810160405280600081525090565b60018060003073ffffffffffffffffffffffffffffffffffffffff1663095ea7b390507c01000000000000000000000000000000000000000000000000000000000260405180807f6973417070726f76656428616464726573732c616464726573732c75696e743281526020017f35362900000000000000000000000000000000000000000000000000000000008152506023019050604051809103902060405180807f6973417070726f76656428616464726573732c61646472657373290000000000815250601b01905060405180910390203073ffffffffffffffffffffffffffffffffffffffff16636352211e90507c0100000000000000000000000000000000000000000000000000000000023073ffffffffffffffffffffffffffffffffffffffff166370a0823190507c0100000000000000000000000000000000000000000000000000000000023073ffffffffffffffffffffffffffffffffffffffff1663a22cb46590507c0100000000000000000000000000000000000000000000000000000000023073ffffffffffffffffffffffffffffffffffffffff166318160ddd90507c01000000000000000000000000000000000000000000000000000000000260405180807f7472616e7366657246726f6d28616464726573732c616464726573732c75696e81526020017f743235362c627974657329000000000000000000000000000000000000000000815250602b019050604051809103902060405180807f7472616e7366657246726f6d28616464726573732c616464726573732c75696e81526020017f7432353629000000000000000000000000000000000000000000000000000000815250602501905060405180910390203073ffffffffffffffffffffffffffffffffffffffff166301ffc9a790507c0100000000000000000000000000000000000000000000000000000000021818181818181818187bffffffffffffffffffffffffffffffffffffffffffffffffffffffff19167bffffffffffffffffffffffffffffffffffffffffffffffffffffffff1916815260200190815260200160002060006101000a81548160ff02191690831515021790555060018060003073ffffffffffffffffffffffffffffffffffffffff166301ffc9a790507c0100000000000000000000000000000000000000000000000000000000027bffffffffffffffffffffffffffffffffffffffffffffffffffffffff19167bffffffffffffffffffffffffffffffffffffffffffffffffffffffff1916815260200190815260200160002060006101000a81548160ff0219169083151502179055505600a165627a7a72305820a923095524340f2cd14cf255a3a0e7f62d06ec623594b42168c2d5f9f81d91570029",
  "source": "pragma solidity ^0.4.18;\r\n\r\nimport \"./PhotoBase.sol\";\r\n\r\n/**\r\n*@title PhotoCore\r\n* Front contract for Photocoin. Holds create pet funtionality and token name and symbol\r\n*/\r\ncontract PhotoCore is PhotoBase{\r\n    // @notice Name and symbol of the non fungible token, as defined in ERC721.\r\n    string public name = \"PhotoCoin\";\r\n    string public symbol = \"PC\";\r\n\r\n    /**\r\n    *@dev Creates the main Photocoin smart contract instance and sets the owner\r\n    */\r\n    function PhotoCore() public {\r\n        owner = msg.sender;\r\n        whitelist[owner] = true;\r\n    }\r\n\r\n    /**\r\n    *@notice No tipping!\r\n    *@dev fallback function to reject all Ether from being sent to contract\r\n    */\r\n    function() external payable {\r\n        require(msg.value == 0);\r\n    }\r\n\r\n    /**\r\n    *@dev this is the function to create a new photocoin and update the mappings with a new token\r\n    *@param _photoHash is the hash of the photograph\r\n    *@param _name is a string variable representing the name of the photograph\r\n    *@param _photographer is a string variable representing the name of the photographer\r\n    *@param _isenNumber is the uint ISEN number\r\n    *@param _owner is the address of the new owner of the token\r\n    */\r\n    function uploadPhoto(bytes32 _photoHash,string _name, string _photographer, uint256 _isenNumber, address _owner) public onlyOwner() {\r\n        if(_owner == address(0)) {\r\n            _owner = owner;\r\n        }\r\n        uint256 newId = totalTokens;\r\n        photos[newId] = Photo({\r\n            name: _name,\r\n            photographer: _photographer,\r\n            photoHash: _photoHash,\r\n            isenNumber: _isenNumber,\r\n            uploadTime: uint64(now)\r\n            });\r\n        transferFrom(address(0),_owner,newId);\r\n        Upload(_owner,newId,_photoHash, _name,_photographer,_isenNumber);\r\n    }\r\n\r\n\r\n}",
  "sourcePath": "C:\\Nick\\Consulting\\Photocoin\\contracts\\PhotoCore.sol",
  "compiler": {
    "name": "solc",
    "version": "0.4.19+commit.c4cbbb05.Emscripten.clang"
  },
  "schemaVersion": "1.0.1",
  "updatedAt": "2018-03-13T01:05:29.161Z"
}