{
  "contractName": "PhotoMarket",
  "abi": [
    {
      "constant": true,
      "inputs": [
        {
          "name": "",
          "type": "uint256"
        }
      ],
      "name": "forSale",
      "outputs": [
        {
          "name": "",
          "type": "uint256"
        }
      ],
      "payable": false,
      "stateMutability": "view",
      "type": "function"
    },
    {
      "constant": true,
      "inputs": [
        {
          "name": "",
          "type": "uint256"
        }
      ],
      "name": "forLease",
      "outputs": [
        {
          "name": "",
          "type": "uint256"
        }
      ],
      "payable": false,
      "stateMutability": "view",
      "type": "function"
    },
    {
      "constant": true,
      "inputs": [
        {
          "name": "",
          "type": "uint256"
        }
      ],
      "name": "leases",
      "outputs": [
        {
          "name": "maker",
          "type": "address"
        },
        {
          "name": "price",
          "type": "uint256"
        }
      ],
      "payable": false,
      "stateMutability": "view",
      "type": "function"
    },
    {
      "constant": true,
      "inputs": [],
      "name": "owner",
      "outputs": [
        {
          "name": "",
          "type": "address"
        }
      ],
      "payable": false,
      "stateMutability": "view",
      "type": "function"
    },
    {
      "constant": true,
      "inputs": [
        {
          "name": "",
          "type": "uint256"
        }
      ],
      "name": "orders",
      "outputs": [
        {
          "name": "maker",
          "type": "address"
        },
        {
          "name": "price",
          "type": "uint256"
        }
      ],
      "payable": false,
      "stateMutability": "view",
      "type": "function"
    },
    {
      "constant": true,
      "inputs": [],
      "name": "fee",
      "outputs": [
        {
          "name": "",
          "type": "uint256"
        }
      ],
      "payable": false,
      "stateMutability": "view",
      "type": "function"
    },
    {
      "inputs": [],
      "payable": false,
      "stateMutability": "nonpayable",
      "type": "constructor"
    },
    {
      "payable": true,
      "stateMutability": "payable",
      "type": "fallback"
    },
    {
      "anonymous": false,
      "inputs": [
        {
          "indexed": false,
          "name": "_tokenId",
          "type": "uint256"
        },
        {
          "indexed": false,
          "name": "_seller",
          "type": "address"
        },
        {
          "indexed": false,
          "name": "_price",
          "type": "uint256"
        }
      ],
      "name": "OrderPlaced",
      "type": "event"
    },
    {
      "anonymous": false,
      "inputs": [
        {
          "indexed": false,
          "name": "_buyer",
          "type": "address"
        },
        {
          "indexed": false,
          "name": "_seller",
          "type": "address"
        },
        {
          "indexed": false,
          "name": "_tokenId",
          "type": "uint256"
        },
        {
          "indexed": false,
          "name": "_price",
          "type": "uint256"
        }
      ],
      "name": "Sale",
      "type": "event"
    },
    {
      "anonymous": false,
      "inputs": [
        {
          "indexed": false,
          "name": "_tokenId",
          "type": "uint256"
        }
      ],
      "name": "OrderRemoved",
      "type": "event"
    },
    {
      "anonymous": false,
      "inputs": [
        {
          "indexed": false,
          "name": "_tokenId",
          "type": "uint256"
        },
        {
          "indexed": false,
          "name": "_seller",
          "type": "address"
        },
        {
          "indexed": false,
          "name": "_price",
          "type": "uint256"
        }
      ],
      "name": "LeaseOrderPlaced",
      "type": "event"
    },
    {
      "anonymous": false,
      "inputs": [
        {
          "indexed": false,
          "name": "_buyer",
          "type": "address"
        },
        {
          "indexed": false,
          "name": "_seller",
          "type": "address"
        },
        {
          "indexed": false,
          "name": "_tokenId",
          "type": "uint256"
        },
        {
          "indexed": false,
          "name": "_price",
          "type": "uint256"
        }
      ],
      "name": "Lease",
      "type": "event"
    },
    {
      "anonymous": false,
      "inputs": [
        {
          "indexed": false,
          "name": "_tokenId",
          "type": "uint256"
        }
      ],
      "name": "LeaseOrderRemoved",
      "type": "event"
    },
    {
      "constant": false,
      "inputs": [
        {
          "name": "_tokenId",
          "type": "uint256"
        },
        {
          "name": "_price",
          "type": "uint256"
        }
      ],
      "name": "listPhoto",
      "outputs": [],
      "payable": false,
      "stateMutability": "nonpayable",
      "type": "function"
    },
    {
      "constant": false,
      "inputs": [
        {
          "name": "_tokenId",
          "type": "uint256"
        }
      ],
      "name": "unlistPhoto",
      "outputs": [],
      "payable": false,
      "stateMutability": "nonpayable",
      "type": "function"
    },
    {
      "constant": false,
      "inputs": [
        {
          "name": "_tokenId",
          "type": "uint256"
        }
      ],
      "name": "buyPhoto",
      "outputs": [],
      "payable": true,
      "stateMutability": "payable",
      "type": "function"
    },
    {
      "constant": false,
      "inputs": [
        {
          "name": "_tokenId",
          "type": "uint256"
        },
        {
          "name": "_price",
          "type": "uint256"
        }
      ],
      "name": "listLease",
      "outputs": [],
      "payable": false,
      "stateMutability": "nonpayable",
      "type": "function"
    },
    {
      "constant": false,
      "inputs": [
        {
          "name": "_tokenId",
          "type": "uint256"
        }
      ],
      "name": "unlistLease",
      "outputs": [],
      "payable": false,
      "stateMutability": "nonpayable",
      "type": "function"
    },
    {
      "constant": false,
      "inputs": [
        {
          "name": "_tokenId",
          "type": "uint256"
        }
      ],
      "name": "buyLease",
      "outputs": [],
      "payable": true,
      "stateMutability": "payable",
      "type": "function"
    },
    {
      "constant": true,
      "inputs": [
        {
          "name": "_tokenId",
          "type": "uint256"
        }
      ],
      "name": "getOrder",
      "outputs": [
        {
          "name": "",
          "type": "address"
        },
        {
          "name": "",
          "type": "uint256"
        }
      ],
      "payable": false,
      "stateMutability": "view",
      "type": "function"
    },
    {
      "constant": true,
      "inputs": [
        {
          "name": "_tokenId",
          "type": "uint256"
        }
      ],
      "name": "getLeases",
      "outputs": [
        {
          "name": "",
          "type": "address"
        },
        {
          "name": "",
          "type": "uint256"
        }
      ],
      "payable": false,
      "stateMutability": "view",
      "type": "function"
    },
    {
      "constant": true,
      "inputs": [
        {
          "name": "_party",
          "type": "address"
        }
      ],
      "name": "getLeasebyOwner",
      "outputs": [
        {
          "name": "",
          "type": "uint256[]"
        }
      ],
      "payable": false,
      "stateMutability": "view",
      "type": "function"
    },
    {
      "constant": true,
      "inputs": [
        {
          "name": "_tokenId",
          "type": "uint256"
        }
      ],
      "name": "getTokenLeases",
      "outputs": [
        {
          "name": "",
          "type": "address[]"
        }
      ],
      "payable": false,
      "stateMutability": "view",
      "type": "function"
    },
    {
      "constant": false,
      "inputs": [
        {
          "name": "_owner",
          "type": "address"
        }
      ],
      "name": "setOwner",
      "outputs": [],
      "payable": false,
      "stateMutability": "nonpayable",
      "type": "function"
    },
    {
      "constant": false,
      "inputs": [
        {
          "name": "_token",
          "type": "address"
        }
      ],
      "name": "setToken",
      "outputs": [],
      "payable": false,
      "stateMutability": "nonpayable",
      "type": "function"
    },
    {
      "constant": false,
      "inputs": [
        {
          "name": "_address",
          "type": "address"
        },
        {
          "name": "_motion",
          "type": "bool"
        }
      ],
      "name": "blacklistParty",
      "outputs": [],
      "payable": false,
      "stateMutability": "nonpayable",
      "type": "function"
    },
    {
      "constant": true,
      "inputs": [
        {
          "name": "_address",
          "type": "address"
        }
      ],
      "name": "isBlacklist",
      "outputs": [
        {
          "name": "",
          "type": "bool"
        }
      ],
      "payable": false,
      "stateMutability": "view",
      "type": "function"
    },
    {
      "constant": true,
      "inputs": [],
      "name": "getOrderCount",
      "outputs": [
        {
          "name": "",
          "type": "uint256"
        }
      ],
      "payable": false,
      "stateMutability": "view",
      "type": "function"
    },
    {
      "constant": true,
      "inputs": [],
      "name": "getLeaseCount",
      "outputs": [
        {
          "name": "",
          "type": "uint256"
        }
      ],
      "payable": false,
      "stateMutability": "view",
      "type": "function"
    },
    {
      "constant": false,
      "inputs": [
        {
          "name": "_fee",
          "type": "uint256"
        }
      ],
      "name": "setFee",
      "outputs": [],
      "payable": false,
      "stateMutability": "nonpayable",
      "type": "function"
    },
    {
      "constant": false,
      "inputs": [],
      "name": "withdraw",
      "outputs": [],
      "payable": false,
      "stateMutability": "nonpayable",
      "type": "function"
    }
  ],
  "bytecode": "0x6060604052341561000f57600080fd5b60018054600160a060020a03191633600160a060020a0316178155600480549091810161003c838261006b565b506000918252602082200155600980546001810161005a838261006b565b5060009182526020822001556100b5565b81548183558181151161008f5760008381526020902061008f918101908301610094565b505050565b6100b291905b808211156100ae576000815560010161009a565b5090565b90565b61133280620000c56000396000f3006060604052600436106101245763ffffffff60e060020a60003504166313af40358114610131578063144fa6d7146101505780632831f2f41461016f578063303afd3f14610197578063333e99db146101ad5780633ccfd60b146101e05780633d17ec25146101f35780634a3ac43b1461020c578063535896dd146102175780635591dcc0146102305780635ac5ba71146102a257806369fe0e2d146102c65780638927a106146102dc5780638d0a5fbb146103145780638da5cb5b14610327578063a85c38ef14610356578063b2bf58261461036c578063d09ef24114610377578063ddca3f431461038d578063de52f2c3146103a0578063e7fa0af8146103b3578063eac8fd61146103c9578063ebb3ebb3146103df578063f773e6eb146103f5575b341561012f57600080fd5b005b341561013c57600080fd5b61012f600160a060020a036004351661040b565b341561015b57600080fd5b61012f600160a060020a0360043516610448565b341561017a57600080fd5b610185600435610485565b60405190815260200160405180910390f35b34156101a257600080fd5b6101856004356104a4565b34156101b857600080fd5b6101cc600160a060020a03600435166104b2565b604051901515815260200160405180910390f35b34156101eb57600080fd5b61012f6104d0565b34156101fe57600080fd5b61012f600435602435610526565b61012f6004356106ee565b341561022257600080fd5b61012f6004356024356108ae565b341561023b57600080fd5b61024f600160a060020a0360043516610ad7565b60405160208082528190810183818151815260200191508051906020019060200280838360005b8381101561028e578082015183820152602001610276565b505050509050019250505060405180910390f35b34156102ad57600080fd5b61012f600160a060020a03600435166024351515610b5a565b34156102d157600080fd5b61012f600435610ba0565b34156102e757600080fd5b6102f2600435610bc0565b604051600160a060020a03909216825260208201526040908101905180910390f35b341561031f57600080fd5b610185610be5565b341561033257600080fd5b61033a610bec565b604051600160a060020a03909116815260200160405180910390f35b341561036157600080fd5b6102f2600435610bfb565b61012f600435610c20565b341561038257600080fd5b6102f2600435610d42565b341561039857600080fd5b610185610d66565b34156103ab57600080fd5b610185610d6c565b34156103be57600080fd5b61012f600435610d72565b34156103d457600080fd5b61012f600435610e80565b34156103ea57600080fd5b6102f2600435610fc5565b341561040057600080fd5b61024f600435610fe9565b60015433600160a060020a0390811691161461042657600080fd5b60018054600160a060020a031916600160a060020a0392909216919091179055565b60015433600160a060020a0390811691161461046357600080fd5b60008054600160a060020a031916600160a060020a0392909216919091179055565b600480548290811061049357fe5b600091825260209091200154905081565b600980548290811061049357fe5b600160a060020a03166000908152600c602052604090205460ff1690565b60015433600160a060020a039081169116146104eb57600080fd5b600154600160a060020a039081169030163180156108fc0290604051600060405180830381858888f19350505050151561052457600080fd5b565b60008054600160a060020a0333811692911690636352211e9085906040516020015260405160e060020a63ffffffff84160281526004810191909152602401602060405180830381600087803b151561057e57600080fd5b6102c65a03f1151561058f57600080fd5b50505060405180519050600160a060020a03161415156105ae57600080fd5b6000828152600b602052604090205460ff16156105ca57600080fd5b600160a060020a0333166000908152600c602052604090205460ff16156105f057600080fd5b600081116105fd57600080fd5b600980546000848152600a60205260409020819055600181016106208382611296565b506000918252602090912001829055604080519081016040908152600160a060020a03331682526020808301849052600085815260069091522081518154600160a060020a031916600160a060020a03919091161781556020820151600190910155507f387d3815e606c03e46196710baa9ab34ec49cbe3ab3131e10cbea1956be48fb5823383604051928352600160a060020a0390911660208301526040808301919091526060909101905180910390a1506000908152600b60205260409020805460ff19166001179055565b6106f66112bf565b6000828152600660205260408082209080519081016040528154600160a060020a031681526001909101546020820190815290925051341461073757600080fd5b600160a060020a0333166000908152600c602052604090205460ff161561075d57600080fd5b8151600160a060020a03331660009081526007602052604090208054919250906001810161078b8382611296565b50600091825260208083209190910185905584825260089052604090208054600181016107b88382611296565b9160005260206000209001600033909190916101000a815481600160a060020a030219169083600160a060020a031602179055505080600160a060020a03166108fc6108276103e861081b6002546103e80387602001519063ffffffff61106316565b9063ffffffff61109916565b9081150290604051600060405180830381858888f19350505050151561084c57600080fd5b7f681ddc67ea8796d2489979f5fc2ea2eb0f2d44ff3f11f061a191928a1f3d9a063382858560200151604051600160a060020a0394851681529290931660208301526040808301919091526060820192909252608001905180910390a1505050565b6000828152600b602052604090205460ff16156108ca57600080fd5b60008054600160a060020a0333811692911690636352211e9085906040516020015260405160e060020a63ffffffff84160281526004810191909152602401602060405180830381600087803b151561092257600080fd5b6102c65a03f1151561093357600080fd5b50505060405180519050600160a060020a031614151561095257600080fd5b600160a060020a0333166000908152600c602052604090205460ff161561097857600080fd5b6000811161098557600080fd5b600054600160a060020a03166323b872dd33308560405160e060020a63ffffffff8616028152600160a060020a0393841660048201529190921660248201526044810191909152606401600060405180830381600087803b15156109e857600080fd5b6102c65a03f115156109f957600080fd5b505060048054600085815260056020526040902081905590915060018101610a218382611296565b506000918252602090912001829055604080519081016040908152600160a060020a03331682526020808301849052600085815260039091522081518154600160a060020a031916600160a060020a03919091161781556020820151600190910155507f291c9d431146e4de667c04a6a738ed159e6dae2aaa909d85ca8ff7416719a609823383604051928352600160a060020a0390911660208301526040808301919091526060909101905180910390a15050565b610adf6112d6565b6007600083600160a060020a0316600160a060020a03168152602001908152602001600020805480602002602001604051908101604052809291908181526020018280548015610b4e57602002820191906000526020600020905b815481526020019060010190808311610b3a575b50505050509050919050565b60015433600160a060020a03908116911614610b7557600080fd5b600160a060020a03919091166000908152600c60205260409020805460ff1916911515919091179055565b60015433600160a060020a03908116911614610bbb57600080fd5b600255565b60066020526000908152604090208054600190910154600160a060020a039091169082565b6004545b90565b600154600160a060020a031681565b60036020526000908152604090208054600190910154600160a060020a039091169082565b610c286112bf565b6000828152600360205260408082209080519081016040528154600160a060020a0316815260019091015460208201908152909250513414610c6957600080fd5b600160a060020a0333166000908152600c602052604090205460ff1615610c8f57600080fd5b8151600054909150600160a060020a03166323b872dd30338660405160e060020a63ffffffff8616028152600160a060020a0393841660048201529190921660248201526044810191909152606401600060405180830381600087803b1515610cf757600080fd5b6102c65a03f11515610d0857600080fd5b505050610d14836110b0565b80600160a060020a03166108fc6108276103e861081b6002546103e80387602001519063ffffffff61106316565b60009081526003602052604090208054600190910154600160a060020a0390911691565b60025481565b60095490565b6000818152600a602052604081205411610d8b57600080fd5b60008054600160a060020a0333811692911690636352211e9084906040516020015260405160e060020a63ffffffff84160281526004810191909152602401602060405180830381600087803b1515610de357600080fd5b6102c65a03f11515610df457600080fd5b50505060405180519050600160a060020a03161480610e21575060015433600160a060020a039081169116145b1515610e2c57600080fd5b610e358161119a565b7fd2912b3df45595ef6333b74655a68f2c050cf839578cd5186cc41cd5242f7ab58160405190815260200160405180910390a16000908152600b60205260409020805460ff19169055565b610e886112bf565b60008281526005602052604081205411610ea157600080fd5b600082815260036020526040908190209080519081016040528154600160a060020a03168152600190910154602082015290508051600160a060020a031633600160a060020a03161480610f03575060015433600160a060020a039081169116145b1515610f0e57600080fd5b610f17826110b0565b600054600160a060020a03166323b872dd30338560405160e060020a63ffffffff8616028152600160a060020a0393841660048201529190921660248201526044810191909152606401600060405180830381600087803b1515610f7a57600080fd5b6102c65a03f11515610f8b57600080fd5b5050507f2114a52d297f01ee99b38a96fbd79c650bf37e10c29e0967c6621187fbe253228260405190815260200160405180910390a15050565b60009081526006602052604090208054600190910154600160a060020a0390911691565b610ff16112d6565b60086000838152602001908152602001600020805480602002602001604051908101604052809291908181526020018280548015610b4e57602002820191906000526020600020905b8154600160a060020a0316815260019091019060200180831161103a5750505050509050919050565b6000808315156110765760009150611092565b5082820282848281151561108657fe5b041461108e57fe5b8091505b5092915050565b60008082848115156110a757fe5b04949350505050565b60008181526005602052604081205460045490919081906110d890600163ffffffff61128416565b91506004828154811015156110e957fe5b906000526020600020900154905060408051908101604090815260008083526020808401829052878252600390522081518154600160a060020a031916600160a060020a0391909116178155602082015181600101559050508060048481548110151561115257fe5b60009182526020808320909101929092558281526005909152604090208390556004805490611185906000198301611296565b50505060009182525060056020526040812055565b6000818152600a602052604081205460095490919081906111c290600163ffffffff61128416565b91506009828154811015156111d357fe5b906000526020600020900154905060408051908101604090815260008083526020808401829052878252600690522081518154600160a060020a031916600160a060020a0391909116178155602082015181600101559050508060098481548110151561123c57fe5b6000918252602080832090910192909255828152600a90915260409020839055600980549061126f906000198301611296565b505050600091825250600a6020526040812055565b60008282111561129057fe5b50900390565b8154818355818115116112ba576000838152602090206112ba9181019083016112e8565b505050565b604080519081016040526000808252602082015290565b60206040519081016040526000815290565b610be991905b8082111561130257600081556001016112ee565b50905600a165627a7a72305820ce24fc042014c1c360aa48b57eecb81715bfd487627fa31d4aa31392965a22ed0029",
  "source": "pragma solidity ^0.4.18;\r\n\r\n import \"./library/SafeMath.sol\";\r\n import \"./PhotoCore.sol\";\r\n\r\n/**\r\n*@title PhotoMarket\r\n* The market contract which holds the orderbook for Photos to allow buying, selling, and liscenses\r\n*/\r\ncontract PhotoMarket{\r\n    using SafeMath for uint256;\r\n\r\n    /***VARIABLES***/\r\n    PhotoCore token; //The PhotoCore contract for linking to the Photocoin token\r\n    address public owner; //The owner of the market contract\r\n    uint public fee; //The percentage fee charged to each contract to 3 decimals (so 1000 is a 100% fee, 50 is a 5% fee, and 10 is a 1% fee)\r\n    \r\n    \r\n    /***DATA***/\r\n    //This is the base data structure for an order (the maker of the order and the price)\r\n    struct Order {\r\n        address maker;// the placer of the order\r\n        uint price;// The price in wei\r\n    }\r\n\r\n    //Maps a tokenId to a specific Order (owner/price)\r\n    mapping(uint256 => Order) public orders;\r\n    //An array of tokens for sale\r\n    uint[] public forSale;\r\n    //Index telling where a specific tokenId is in the forSale array\r\n    mapping(uint256 => uint256) forSaleIndex;\r\n    //Maps a tokenId to a specific Lease Order (owner/price)\r\n    mapping(uint256 => Order) public leases;\r\n    //Shows which tokens a party has bought rights for\r\n    mapping(address => uint[]) leasesOwned;\r\n    //Shows which parties have rights to a token\r\n    mapping(uint256 => address[]) tokenLeases;\r\n    //An array of tokens for lease\r\n    uint[] public forLease;\r\n    //Index telling where a specific tokenId is in the forLease array\r\n    mapping(uint256 => uint256) forLeaseIndex;\r\n    //Index telling if a tokenId is listed\r\n    mapping(uint256 => bool) forLeaseListed;\r\n    //A list of the blacklisted addresses\r\n    mapping(address => bool) blacklist;\r\n\r\n    /***MODIFIERS***/\r\n    /// @dev Access modifier for Owner functionality\r\n    modifier onlyOwner() {\r\n        require(msg.sender == owner);\r\n        _;\r\n    }\r\n\r\n\r\n    /***EVENTS***/\r\n    event OrderPlaced(uint256 _tokenId, address _seller,uint256 _price);\r\n    event Sale(address _buyer, address _seller, uint256 _tokenId, uint256 _price);\r\n    event OrderRemoved(uint256 _tokenId);\r\n    event LeaseOrderPlaced(uint256 _tokenId, address _seller,uint256 _price);\r\n    event Lease(address _buyer, address _seller, uint256 _tokenId, uint256 _price);\r\n    event LeaseOrderRemoved(uint256 _tokenId);\r\n\r\n    /***FUNCTIONS***/\r\n    /*\r\n    *@dev the constructor argument to set the owner and initialize the array.\r\n    */\r\n    function PhotoMarket() public{\r\n        owner = msg.sender;\r\n        forSale.push(0);\r\n        forLease.push(0);\r\n    }\r\n\r\n    /*\r\n    *@dev The fallback function to prevent money from being sent to the contract\r\n    */\r\n    function()  payable public{\r\n        require(msg.value == 0);\r\n    }\r\n\r\n    /*\r\n    *@dev listPhoto allows a party to place a photo on the orderbook\r\n    *@param _tokenId uint256 ID of photo\r\n    *@param _price uint256 price of photo in wei\r\n    */\r\n    function listPhoto(uint256 _tokenId, uint256 _price) external {\r\n        require(forLeaseListed[_tokenId] == false);\r\n        require(token.ownerOf(_tokenId) == msg.sender);\r\n        require(blacklist[msg.sender] == false);\r\n        require(_price > 0);\r\n        token.transferFrom(msg.sender,address(this),_tokenId);\r\n        forSaleIndex[_tokenId] = forSale.length;\r\n        forSale.push(_tokenId);\r\n        orders[_tokenId] = Order({\r\n            maker: msg.sender,\r\n            price: _price\r\n        });\r\n        OrderPlaced(_tokenId,msg.sender,_price);\r\n    }\r\n\r\n    /*\r\n    *@dev unlistPhoto allows a party to remove their order from the orderbook\r\n    *@param _tokenId uint256 ID of photo\r\n    */\r\n    function unlistPhoto(uint256 _tokenId) external{\r\n        require(forSaleIndex[_tokenId] > 0);\r\n        Order memory _order = orders[_tokenId];\r\n        require(msg.sender== _order.maker || msg.sender == owner);\r\n        unLister(_tokenId);\r\n        token.transferFrom(address(this),msg.sender,_tokenId);\r\n        OrderRemoved(_tokenId);\r\n    }\r\n\r\n    /*\r\n    *@dev buyPhoto allows a party to send Ether to buy a photo off of the orderbook\r\n    *@param _tokenId uint256 ID of photo\r\n    */\r\n    function buyPhoto(uint256 _tokenId) external payable {\r\n        Order memory _order = orders[_tokenId];\r\n        require(msg.value == _order.price);\r\n        require(blacklist[msg.sender] == false);\r\n        address maker = _order.maker;\r\n        token.transferFrom(address(this),msg.sender, _tokenId);\r\n        unLister(_tokenId);\r\n        maker.transfer(_order.price.mul(1000-fee).div(1000));\r\n        Sale(msg.sender,maker,_tokenId,_order.price);\r\n    }\r\n\r\n\r\n    /*\r\n    *@dev listLease allows a party to place a photo on the orderbook for lease\r\n    *@param _tokenId uint256 ID of photo\r\n    *@param _price uint256 price of leasing the photo in wei\r\n    */\r\n    function listLease(uint256 _tokenId, uint256 _price) external {\r\n        require(token.ownerOf(_tokenId) == msg.sender);\r\n        require(forLeaseListed[_tokenId] == false);\r\n        require(blacklist[msg.sender] == false);\r\n        require(_price > 0);\r\n        forLeaseIndex[_tokenId] = forLease.length;\r\n        forLease.push(_tokenId);\r\n        leases[_tokenId] = Order({\r\n            maker: msg.sender,\r\n            price: _price\r\n        });\r\n        LeaseOrderPlaced(_tokenId,msg.sender,_price);\r\n        forLeaseListed[_tokenId] = true;\r\n    }\r\n\r\n    /*\r\n    *@dev unlistLease allows a party to remove their order from the lease orderbook\r\n    *@param _tokenId uint256 ID of photo\r\n    */\r\n    function unlistLease(uint256 _tokenId) external{\r\n        require(forLeaseIndex[_tokenId] > 0);\r\n        require(token.ownerOf(_tokenId) == msg.sender || msg.sender == owner);\r\n        unLeaster(_tokenId);\r\n        LeaseOrderRemoved(_tokenId);\r\n        forLeaseListed[_tokenId] = false;\r\n    }\r\n\r\n    /*\r\n    *@dev buyLease allows a party to send Ether to buy a photo off of the lease orderbook\r\n    *@param _tokenId uint256 ID of photo\r\n    *@Note currently this does not unlist the product; as multiple parties can pay the fee to use the rights\r\n    *@Note there is only one kind of lease and a party can buy as many as they want\r\n    */\r\n    function buyLease(uint256 _tokenId) external payable {\r\n        Order memory _order = leases[_tokenId];\r\n        require(msg.value == _order.price);\r\n        require(blacklist[msg.sender] == false);\r\n        address maker = _order.maker;\r\n        leasesOwned[msg.sender].push(_tokenId);\r\n        tokenLeases[_tokenId].push(msg.sender);\r\n        maker.transfer(_order.price.mul(1000-fee).div(1000));\r\n        Sale(msg.sender,maker,_tokenId,_order.price);\r\n    }\r\n\r\n    /*\r\n    *@dev getOrder lists the price and maker of a specific token for a sale\r\n    *@param _tokenId uint256 ID of photo\r\n    *@return address of the party selling the rights to the photo\r\n    *@return uint of the price of the sale\r\n    */\r\n    function getOrder(uint256 _tokenId) external view returns(address,uint){\r\n        Order storage _order = orders[_tokenId];\r\n        return (_order.maker,_order.price);\r\n    }\r\n\r\n    /*\r\n    *@dev getLeases lists the price and maker of a specific token for a Lease\r\n    *@param _tokenId uint256 ID of photo\r\n    *@return address of the party leasing the rights to the photo\r\n    *@return uint of the price of the lease\r\n    */\r\n    function getLeases(uint256 _tokenId) external view returns(address,uint){\r\n        Order storage _order = leases[_tokenId];\r\n        return (_order.maker,_order.price);\r\n    }\r\n    /*\r\n    *@dev getLeasesbyOwner lists all tokens leased by an address\r\n    *@param _party is the address of the party  you are querying \r\n    *@return uint[] of tokenIds leased by party\r\n    *@Note - does not include tokens the party owns. \r\n    */\r\n    function getLeasebyOwner(address _party) external view returns(uint[]){\r\n        return leasesOwned[_party];\r\n    }\r\n\r\n    /*\r\n    *@dev getTokenLeases gives you all addresses that have leased a token\r\n    *@param _tokenId uint256 ID of photo\r\n    *@return address[] of all addresses that have leased a specific token\r\n    */\r\n    function getTokenLeases(uint256 _tokenId) external view returns(address[]){\r\n        return tokenLeases[_tokenId];\r\n    }\r\n\r\n\r\n    /*\r\n    *@dev allows the owner to change who the owner is\r\n    *@param _owner is the address of the new owner\r\n    */\r\n    function setOwner(address _owner) public onlyOwner() {\r\n        owner = _owner;\r\n    }\r\n\r\n    /*\r\n    *@dev allows the owner to set the address of the PhotoCoin token\r\n    *@param _token address of the PhotoCoin token (PhotoCore.sol)\r\n    */\r\n    function setToken(address _token) public onlyOwner() {\r\n        token = PhotoCore(_token);\r\n    }\r\n\r\n    /*\r\n    *@dev Allows the owner to blacklist addresses from using this exchange\r\n    *@param _address the address of the party to blacklist\r\n    *@param _motion true or false depending on if blacklisting or not\r\n    *@Note - This allows the owner to stop a malicious party from spamming the orderbook\r\n    */\r\n    function blacklistParty(address _address, bool _motion) public onlyOwner() {\r\n        blacklist[_address] = _motion;\r\n    }\r\n\r\n    /*\r\n    *@dev Allows parties to see if one is blacklisted\r\n    *@param _address the address of the party to blacklist\r\n    *@return bool, true for is blacklisted\r\n    */\r\n    function isBlacklist(address _address) public view returns(bool) {\r\n        return blacklist[_address];\r\n    }\r\n\r\n    /*\r\n    *@dev getOrderCount allows parties to query how many orders are on the book\r\n    *@return _uint of the number of orders in the orderbook\r\n    */\r\n    function getOrderCount() public constant returns(uint) {\r\n        return forSale.length;\r\n    }\r\n\r\n    /*\r\n    *@dev getLeaseCount allows parties to query how many leases are on the book\r\n    *@return _uint of the number of orders in the lease orderbook\r\n    */\r\n    function getLeaseCount() public constant returns(uint) {\r\n        return forLease.length;\r\n    }\r\n\r\n    /*\r\n    *@dev allows the owner to set the address of the fee for the marketplace contract\r\n    *@param _fee percentage fee charged to each contract to 3 decimals (so 1000 is a 100% fee, 50 is a 5% fee, and 10 is a 1% fee)\r\n    */\r\n    function setFee(uint _fee) public onlyOwner() {\r\n        fee = _fee;\r\n    }\r\n\r\n    /*\r\n    *@dev allows owner to withdraw funds\r\n    */\r\n    function withdraw() public onlyOwner(){\r\n        owner.transfer(this.balance);\r\n    }\r\n\r\n\r\n    /***INTERNAL FUNCTIONS***/\r\n    /*\r\n    *@dev An internal function to update mappings when an order is removed from the book\r\n    *@param _tokenId uint256 ID of photo\r\n    */\r\n    function unLister(uint256 _tokenId) internal{\r\n        uint256 tokenIndex = forSaleIndex[_tokenId];\r\n        uint256 lastTokenIndex = forSale.length.sub(1);\r\n        uint256 lastToken = forSale[lastTokenIndex];\r\n        orders[_tokenId] = Order({\r\n            maker: address(0),\r\n            price: 0\r\n        });\r\n        forSale[tokenIndex] = lastToken;\r\n        forSaleIndex[lastToken] = tokenIndex;\r\n        forSale.length--;\r\n        forSaleIndex[_tokenId] = 0;\r\n    }\r\n\r\n        /*\r\n    *@dev An internal function to update mappings when a lease is removed from the book\r\n    *@param _tokenId uint256 ID of photo\r\n    */\r\n    function unLeaster(uint256 _tokenId) internal{\r\n        uint256 tokenIndex = forLeaseIndex[_tokenId];\r\n        uint256 lastTokenIndex = forLease.length.sub(1);\r\n        uint256 lastToken = forLease[lastTokenIndex];\r\n        leases[_tokenId] = Order({\r\n            maker: address(0),\r\n            price: 0\r\n        });\r\n        forLease[tokenIndex] = lastToken;\r\n        forLeaseIndex[lastToken] = tokenIndex;\r\n        forLease.length--;\r\n        forLeaseIndex[_tokenId] = 0;\r\n    }\r\n}",
  "sourcePath": "C:\\nick\\consulting\\photocoin\\contracts\\PhotoMarket.sol",
  "compiler": {
    "name": "solc",
    "version": "0.4.19+commit.c4cbbb05.Emscripten.clang"
  },
  "schemaVersion": "1.0.1",
  "updatedAt": "2018-03-28T18:30:58.750Z"
}