{
  "contractName": "PhotoCore",
  "abi": [
    {
      "constant": true,
      "inputs": [
        {
          "name": "interfaceID",
          "type": "bytes4"
        }
      ],
      "name": "supportsInterface",
      "outputs": [
        {
          "name": "",
          "type": "bool"
        }
      ],
      "payable": false,
      "stateMutability": "view",
      "type": "function"
    },
    {
      "constant": true,
      "inputs": [],
      "name": "name",
      "outputs": [
        {
          "name": "",
          "type": "string"
        }
      ],
      "payable": false,
      "stateMutability": "view",
      "type": "function"
    },
    {
      "constant": false,
      "inputs": [
        {
          "name": "_to",
          "type": "address"
        },
        {
          "name": "_tokenId",
          "type": "uint256"
        }
      ],
      "name": "approve",
      "outputs": [],
      "payable": false,
      "stateMutability": "nonpayable",
      "type": "function"
    },
    {
      "constant": true,
      "inputs": [],
      "name": "auctionContract",
      "outputs": [
        {
          "name": "",
          "type": "address"
        }
      ],
      "payable": false,
      "stateMutability": "view",
      "type": "function"
    },
    {
      "constant": false,
      "inputs": [
        {
          "name": "_owner",
          "type": "address"
        }
      ],
      "name": "setOwner",
      "outputs": [],
      "payable": false,
      "stateMutability": "nonpayable",
      "type": "function"
    },
    {
      "constant": true,
      "inputs": [],
      "name": "totalSupply",
      "outputs": [
        {
          "name": "",
          "type": "uint256"
        }
      ],
      "payable": false,
      "stateMutability": "view",
      "type": "function"
    },
    {
      "constant": false,
      "inputs": [
        {
          "name": "_from",
          "type": "address"
        },
        {
          "name": "_to",
          "type": "address"
        },
        {
          "name": "_tokenId",
          "type": "uint256"
        }
      ],
      "name": "transferFrom",
      "outputs": [],
      "payable": false,
      "stateMutability": "nonpayable",
      "type": "function"
    },
    {
      "constant": true,
      "inputs": [
        {
          "name": "_tokenId",
          "type": "uint256"
        }
      ],
      "name": "approvedFor",
      "outputs": [
        {
          "name": "",
          "type": "address"
        }
      ],
      "payable": false,
      "stateMutability": "view",
      "type": "function"
    },
    {
      "constant": true,
      "inputs": [],
      "name": "whitelistOn",
      "outputs": [
        {
          "name": "",
          "type": "bool"
        }
      ],
      "payable": false,
      "stateMutability": "view",
      "type": "function"
    },
    {
      "constant": false,
      "inputs": [
        {
          "name": "_user",
          "type": "address"
        },
        {
          "name": "_trueorfalse",
          "type": "bool"
        }
      ],
      "name": "setWhitelist",
      "outputs": [],
      "payable": false,
      "stateMutability": "nonpayable",
      "type": "function"
    },
    {
      "constant": true,
      "inputs": [
        {
          "name": "_owner",
          "type": "address"
        }
      ],
      "name": "tokensOf",
      "outputs": [
        {
          "name": "",
          "type": "uint256[]"
        }
      ],
      "payable": false,
      "stateMutability": "view",
      "type": "function"
    },
    {
      "constant": true,
      "inputs": [
        {
          "name": "_tokenId",
          "type": "uint256"
        }
      ],
      "name": "ownerOf",
      "outputs": [
        {
          "name": "",
          "type": "address"
        }
      ],
      "payable": false,
      "stateMutability": "view",
      "type": "function"
    },
    {
      "constant": false,
      "inputs": [
        {
          "name": "_market",
          "type": "address"
        }
      ],
      "name": "setMarket",
      "outputs": [],
      "payable": false,
      "stateMutability": "nonpayable",
      "type": "function"
    },
    {
      "constant": true,
      "inputs": [
        {
          "name": "_owner",
          "type": "address"
        }
      ],
      "name": "balanceOf",
      "outputs": [
        {
          "name": "",
          "type": "uint256"
        }
      ],
      "payable": false,
      "stateMutability": "view",
      "type": "function"
    },
    {
      "constant": false,
      "inputs": [],
      "name": "toggleWhitelist",
      "outputs": [
        {
          "name": "",
          "type": "bool"
        }
      ],
      "payable": false,
      "stateMutability": "nonpayable",
      "type": "function"
    },
    {
      "constant": true,
      "inputs": [],
      "name": "totalTokens",
      "outputs": [
        {
          "name": "",
          "type": "uint256"
        }
      ],
      "payable": false,
      "stateMutability": "view",
      "type": "function"
    },
    {
      "constant": true,
      "inputs": [],
      "name": "allowUploads",
      "outputs": [
        {
          "name": "",
          "type": "bool"
        }
      ],
      "payable": false,
      "stateMutability": "view",
      "type": "function"
    },
    {
      "constant": true,
      "inputs": [],
      "name": "owner",
      "outputs": [
        {
          "name": "",
          "type": "address"
        }
      ],
      "payable": false,
      "stateMutability": "view",
      "type": "function"
    },
    {
      "constant": true,
      "inputs": [],
      "name": "symbol",
      "outputs": [
        {
          "name": "",
          "type": "string"
        }
      ],
      "payable": false,
      "stateMutability": "view",
      "type": "function"
    },
    {
      "constant": true,
      "inputs": [],
      "name": "marketContract",
      "outputs": [
        {
          "name": "",
          "type": "address"
        }
      ],
      "payable": false,
      "stateMutability": "view",
      "type": "function"
    },
    {
      "constant": false,
      "inputs": [
        {
          "name": "_operator",
          "type": "address"
        },
        {
          "name": "_approved",
          "type": "bool"
        }
      ],
      "name": "setApprovalForAll",
      "outputs": [],
      "payable": false,
      "stateMutability": "nonpayable",
      "type": "function"
    },
    {
      "constant": true,
      "inputs": [
        {
          "name": "_operator",
          "type": "address"
        },
        {
          "name": "_owner",
          "type": "address"
        }
      ],
      "name": "isApproved",
      "outputs": [
        {
          "name": "",
          "type": "bool"
        }
      ],
      "payable": false,
      "stateMutability": "view",
      "type": "function"
    },
    {
      "constant": false,
      "inputs": [
        {
          "name": "_from",
          "type": "address"
        },
        {
          "name": "_to",
          "type": "address"
        },
        {
          "name": "_tokenId",
          "type": "uint256"
        },
        {
          "name": "data",
          "type": "bytes"
        }
      ],
      "name": "transferFrom",
      "outputs": [],
      "payable": false,
      "stateMutability": "nonpayable",
      "type": "function"
    },
    {
      "constant": true,
      "inputs": [
        {
          "name": "_tokenId",
          "type": "uint256"
        }
      ],
      "name": "getPhoto",
      "outputs": [
        {
          "name": "",
          "type": "string"
        },
        {
          "name": "",
          "type": "string"
        },
        {
          "name": "",
          "type": "uint256"
        },
        {
          "name": "",
          "type": "uint64"
        }
      ],
      "payable": false,
      "stateMutability": "view",
      "type": "function"
    },
    {
      "constant": false,
      "inputs": [
        {
          "name": "_auction",
          "type": "address"
        }
      ],
      "name": "setAuction",
      "outputs": [],
      "payable": false,
      "stateMutability": "nonpayable",
      "type": "function"
    },
    {
      "constant": true,
      "inputs": [
        {
          "name": "_user",
          "type": "address"
        }
      ],
      "name": "isWhitelist",
      "outputs": [
        {
          "name": "",
          "type": "bool"
        }
      ],
      "payable": false,
      "stateMutability": "view",
      "type": "function"
    },
    {
      "constant": true,
      "inputs": [
        {
          "name": "_operator",
          "type": "address"
        },
        {
          "name": "_owner",
          "type": "address"
        },
        {
          "name": "_tokenId",
          "type": "uint256"
        }
      ],
      "name": "isApproved",
      "outputs": [
        {
          "name": "",
          "type": "bool"
        }
      ],
      "payable": false,
      "stateMutability": "view",
      "type": "function"
    },
    {
      "inputs": [],
      "payable": false,
      "stateMutability": "nonpayable",
      "type": "constructor"
    },
    {
      "payable": true,
      "stateMutability": "payable",
      "type": "fallback"
    },
    {
      "anonymous": false,
      "inputs": [
        {
          "indexed": true,
          "name": "_owner",
          "type": "address"
        },
        {
          "indexed": false,
          "name": "_photoId",
          "type": "uint256"
        },
        {
          "indexed": false,
          "name": "_photoHash",
          "type": "bytes32"
        },
        {
          "indexed": false,
          "name": "_name",
          "type": "string"
        },
        {
          "indexed": false,
          "name": "_photographer",
          "type": "string"
        },
        {
          "indexed": false,
          "name": "_isenNumber",
          "type": "uint256"
        }
      ],
      "name": "Upload",
      "type": "event"
    },
    {
      "anonymous": false,
      "inputs": [
        {
          "indexed": true,
          "name": "_from",
          "type": "address"
        },
        {
          "indexed": true,
          "name": "_to",
          "type": "address"
        },
        {
          "indexed": false,
          "name": "_tokenId",
          "type": "uint256"
        }
      ],
      "name": "Transfer",
      "type": "event"
    },
    {
      "anonymous": false,
      "inputs": [
        {
          "indexed": true,
          "name": "_owner",
          "type": "address"
        },
        {
          "indexed": true,
          "name": "_operator",
          "type": "address"
        },
        {
          "indexed": false,
          "name": "_approved",
          "type": "bool"
        }
      ],
      "name": "ApprovalForAll",
      "type": "event"
    },
    {
      "anonymous": false,
      "inputs": [
        {
          "indexed": true,
          "name": "_owner",
          "type": "address"
        },
        {
          "indexed": true,
          "name": "_operator",
          "type": "address"
        },
        {
          "indexed": false,
          "name": "_tokenId",
          "type": "uint256"
        }
      ],
      "name": "Approval",
      "type": "event"
    },
    {
      "constant": false,
      "inputs": [],
      "name": "setAllowUploads",
      "outputs": [],
      "payable": false,
      "stateMutability": "nonpayable",
      "type": "function"
    },
    {
      "constant": false,
      "inputs": [
        {
          "name": "_photoHash",
          "type": "bytes32"
        },
        {
          "name": "_name",
          "type": "string"
        },
        {
          "name": "_photographer",
          "type": "string"
        },
        {
          "name": "_isenNumber",
          "type": "uint256"
        },
        {
          "name": "_owner",
          "type": "address"
        }
      ],
      "name": "uploadPhoto",
      "outputs": [],
      "payable": false,
      "stateMutability": "nonpayable",
      "type": "function"
    }
  ],
  "bytecode": "0x60606040526040805190810160405280600981526020017f50686f746f436f696e0000000000000000000000000000000000000000000000815250600d9080519060200190620000519291906200055b565b506040805190810160405280600281526020017f5043000000000000000000000000000000000000000000000000000000000000815250600e90805190602001906200009f9291906200055b565b503415620000ac57600080fd5b620000ca6200018b6401000000000262002816176401000000009004565b33600760006101000a81548173ffffffffffffffffffffffffffffffffffffffff021916908373ffffffffffffffffffffffffffffffffffffffff1602179055506001600b6000600760009054906101000a900473ffffffffffffffffffffffffffffffffffffffff1673ffffffffffffffffffffffffffffffffffffffff1673ffffffffffffffffffffffffffffffffffffffff16815260200190815260200160002060006101000a81548160ff0219169083151502179055506200060a565b60018060003073ffffffffffffffffffffffffffffffffffffffff1663095ea7b390507c01000000000000000000000000000000000000000000000000000000000260405180807f6973417070726f76656428616464726573732c616464726573732c75696e743281526020017f35362900000000000000000000000000000000000000000000000000000000008152506023019050604051809103902060405180807f6973417070726f76656428616464726573732c61646472657373290000000000815250601b01905060405180910390203073ffffffffffffffffffffffffffffffffffffffff16636352211e90507c0100000000000000000000000000000000000000000000000000000000023073ffffffffffffffffffffffffffffffffffffffff166370a0823190507c0100000000000000000000000000000000000000000000000000000000023073ffffffffffffffffffffffffffffffffffffffff1663a22cb46590507c0100000000000000000000000000000000000000000000000000000000023073ffffffffffffffffffffffffffffffffffffffff166318160ddd90507c01000000000000000000000000000000000000000000000000000000000260405180807f7472616e7366657246726f6d28616464726573732c616464726573732c75696e81526020017f743235362c627974657329000000000000000000000000000000000000000000815250602b019050604051809103902060405180807f7472616e7366657246726f6d28616464726573732c616464726573732c75696e81526020017f7432353629000000000000000000000000000000000000000000000000000000815250602501905060405180910390203073ffffffffffffffffffffffffffffffffffffffff166301ffc9a790507c0100000000000000000000000000000000000000000000000000000000021818181818181818187bffffffffffffffffffffffffffffffffffffffffffffffffffffffff19167bffffffffffffffffffffffffffffffffffffffffffffffffffffffff1916815260200190815260200160002060006101000a81548160ff02191690831515021790555060018060003073ffffffffffffffffffffffffffffffffffffffff166301ffc9a790507c0100000000000000000000000000000000000000000000000000000000027bffffffffffffffffffffffffffffffffffffffffffffffffffffffff19167bffffffffffffffffffffffffffffffffffffffffffffffffffffffff1916815260200190815260200160002060006101000a81548160ff021916908315150217905550565b828054600181600116156101000203166002900490600052602060002090601f016020900481019282601f106200059e57805160ff1916838001178555620005cf565b82800160010185558215620005cf579182015b82811115620005ce578251825591602001919060010190620005b1565b5b509050620005de9190620005e2565b5090565b6200060791905b8082111562000603576000816000905550600101620005e9565b5090565b90565b612c12806200061a6000396000f300606060405260043610610175576000357c0100000000000000000000000000000000000000000000000000000000900463ffffffff16806301ffc9a71461018657806306fdde03146101e0578063095ea7b31461026e5780630ab8afac146102b057806313af40351461030557806318160ddd1461033e57806323b872dd146103675780632a6dd48f146103c85780634917aa3f1461042b57806353d6fd59146104585780635a3f26721461049c5780636352211e1461052a5780636dcea85f1461058d57806370a08231146105c65780637e15144b146106135780637e1c0c0914610640578063821ed3a6146106695780638da5cb5b1461069657806395d89b41146106eb578063987e9bfb14610779578063a1794bcd1461084e578063a22cb465146108a3578063a389783e146108e7578063ab67aa5814610957578063b6be128a146109fb578063b8c6f57914610b25578063c683630d14610b5e578063c8e87f6814610baf578063e5af48d814610bc4575b60003414151561018457600080fd5b005b341561019157600080fd5b6101c660048080357bffffffffffffffffffffffffffffffffffffffffffffffffffffffff1916906020019091905050610c3d565b604051808215151515815260200191505060405180910390f35b34156101eb57600080fd5b6101f3610ca5565b6040518080602001828103825283818151815260200191508051906020019080838360005b83811015610233578082015181840152602081019050610218565b50505050905090810190601f1680156102605780820380516001836020036101000a031916815260200191505b509250505060405180910390f35b341561027957600080fd5b6102ae600480803573ffffffffffffffffffffffffffffffffffffffff16906020019091908035906020019091905050610d43565b005b34156102bb57600080fd5b6102c3610e7d565b604051808273ffffffffffffffffffffffffffffffffffffffff1673ffffffffffffffffffffffffffffffffffffffff16815260200191505060405180910390f35b341561031057600080fd5b61033c600480803573ffffffffffffffffffffffffffffffffffffffff16906020019091905050610ea3565b005b341561034957600080fd5b610351610f43565b6040518082815260200191505060405180910390f35b341561037257600080fd5b6103c6600480803573ffffffffffffffffffffffffffffffffffffffff1690602001909190803573ffffffffffffffffffffffffffffffffffffffff16906020019091908035906020019091905050610f4c565b005b34156103d357600080fd5b6103e96004808035906020019091905050611140565b604051808273ffffffffffffffffffffffffffffffffffffffff1673ffffffffffffffffffffffffffffffffffffffff16815260200191505060405180910390f35b341561043657600080fd5b61043e61117d565b604051808215151515815260200191505060405180910390f35b341561046357600080fd5b61049a600480803573ffffffffffffffffffffffffffffffffffffffff169060200190919080351515906020019091905050611190565b005b34156104a757600080fd5b6104d3600480803573ffffffffffffffffffffffffffffffffffffffff16906020019091905050611247565b6040518080602001828103825283818151815260200191508051906020019060200280838360005b838110156105165780820151818401526020810190506104fb565b505050509050019250505060405180910390f35b341561053557600080fd5b61054b60048080359060200190919050506112e4565b604051808273ffffffffffffffffffffffffffffffffffffffff1673ffffffffffffffffffffffffffffffffffffffff16815260200191505060405180910390f35b341561059857600080fd5b6105c4600480803573ffffffffffffffffffffffffffffffffffffffff16906020019091905050611326565b005b34156105d157600080fd5b6105fd600480803573ffffffffffffffffffffffffffffffffffffffff169060200190919050506113c6565b6040518082815260200191505060405180910390f35b341561061e57600080fd5b610626611412565b604051808215151515815260200191505060405180910390f35b341561064b57600080fd5b6106536114af565b6040518082815260200191505060405180910390f35b341561067457600080fd5b61067c6114b5565b604051808215151515815260200191505060405180910390f35b34156106a157600080fd5b6106a96114c8565b604051808273ffffffffffffffffffffffffffffffffffffffff1673ffffffffffffffffffffffffffffffffffffffff16815260200191505060405180910390f35b34156106f657600080fd5b6106fe6114ee565b6040518080602001828103825283818151815260200191508051906020019080838360005b8381101561073e578082015181840152602081019050610723565b50505050905090810190601f16801561076b5780820380516001836020036101000a031916815260200191505b509250505060405180910390f35b341561078457600080fd5b61084c60048080356000191690602001909190803590602001908201803590602001908080601f0160208091040260200160405190810160405280939291908181526020018383808284378201915050505050509190803590602001908201803590602001908080601f0160208091040260200160405190810160405280939291908181526020018383808284378201915050505050509190803590602001909190803573ffffffffffffffffffffffffffffffffffffffff1690602001909190505061158c565b005b341561085957600080fd5b610861611883565b604051808273ffffffffffffffffffffffffffffffffffffffff1673ffffffffffffffffffffffffffffffffffffffff16815260200191505060405180910390f35b34156108ae57600080fd5b6108e5600480803573ffffffffffffffffffffffffffffffffffffffff1690602001909190803515159060200190919050506118a9565b005b34156108f257600080fd5b61093d600480803573ffffffffffffffffffffffffffffffffffffffff1690602001909190803573ffffffffffffffffffffffffffffffffffffffff16906020019091905050611a1f565b604051808215151515815260200191505060405180910390f35b341561096257600080fd5b6109f9600480803573ffffffffffffffffffffffffffffffffffffffff1690602001909190803573ffffffffffffffffffffffffffffffffffffffff1690602001909190803590602001909190803590602001908201803590602001908080601f01602080910402602001604051908101604052809392919081815260200183838082843782019150505050505091905050611ab7565b005b3415610a0657600080fd5b610a1c6004808035906020019091905050611c49565b6040518080602001806020018581526020018467ffffffffffffffff1667ffffffffffffffff168152602001838103835287818151815260200191508051906020019080838360005b83811015610a80578082015181840152602081019050610a65565b50505050905090810190601f168015610aad5780820380516001836020036101000a031916815260200191505b50838103825286818151815260200191508051906020019080838360005b83811015610ae6578082015181840152602081019050610acb565b50505050905090810190601f168015610b135780820380516001836020036101000a031916815260200191505b50965050505050505060405180910390f35b3415610b3057600080fd5b610b5c600480803573ffffffffffffffffffffffffffffffffffffffff16906020019091905050611e41565b005b3415610b6957600080fd5b610b95600480803573ffffffffffffffffffffffffffffffffffffffff16906020019091905050611ee1565b604051808215151515815260200191505060405180910390f35b3415610bba57600080fd5b610bc2611f37565b005b3415610bcf57600080fd5b610c23600480803573ffffffffffffffffffffffffffffffffffffffff1690602001909190803573ffffffffffffffffffffffffffffffffffffffff16906020019091908035906020019091905050611fbf565b604051808215151515815260200191505060405180910390f35b600060016000837bffffffffffffffffffffffffffffffffffffffffffffffffffffffff19167bffffffffffffffffffffffffffffffffffffffffffffffffffffffff1916815260200190815260200160002060009054906101000a900460ff169050919050565b600d8054600181600116156101000203166002900480601f016020809104026020016040519081016040528092919081815260200182805460018160011615610100020316600290048015610d3b5780601f10610d1057610100808354040283529160200191610d3b565b820191906000526020600020905b815481529060010190602001808311610d1e57829003601f168201915b505050505081565b803373ffffffffffffffffffffffffffffffffffffffff16610d64826112e4565b73ffffffffffffffffffffffffffffffffffffffff16141515610d8657600080fd5b3373ffffffffffffffffffffffffffffffffffffffff168373ffffffffffffffffffffffffffffffffffffffff1614151515610dc157600080fd5b826003600084815260200190815260200160002060006101000a81548173ffffffffffffffffffffffffffffffffffffffff021916908373ffffffffffffffffffffffffffffffffffffffff1602179055508273ffffffffffffffffffffffffffffffffffffffff163373ffffffffffffffffffffffffffffffffffffffff167f8c5be1e5ebec7d5bd14f71427d1e84f3dd0314c0f7b2291e5b200ac8c7c3b925846040518082815260200191505060405180910390a3505050565b600960009054906101000a900473ffffffffffffffffffffffffffffffffffffffff1681565b600760009054906101000a900473ffffffffffffffffffffffffffffffffffffffff1673ffffffffffffffffffffffffffffffffffffffff163373ffffffffffffffffffffffffffffffffffffffff16141515610eff57600080fd5b80600760006101000a81548173ffffffffffffffffffffffffffffffffffffffff021916908373ffffffffffffffffffffffffffffffffffffffff16021790555050565b60008054905090565b600760009054906101000a900473ffffffffffffffffffffffffffffffffffffffff1673ffffffffffffffffffffffffffffffffffffffff163373ffffffffffffffffffffffffffffffffffffffff161480610fae5750610fad3384611a1f565b5b80610fc05750610fbf338483611fbf565b5b80610ffe57503373ffffffffffffffffffffffffffffffffffffffff16610fe6826112e4565b73ffffffffffffffffffffffffffffffffffffffff16145b806110565750600860009054906101000a900473ffffffffffffffffffffffffffffffffffffffff1673ffffffffffffffffffffffffffffffffffffffff163373ffffffffffffffffffffffffffffffffffffffff16145b806110ae5750600960009054906101000a900473ffffffffffffffffffffffffffffffffffffffff1673ffffffffffffffffffffffffffffffffffffffff163373ffffffffffffffffffffffffffffffffffffffff16145b15156110b957600080fd5b600c60009054906101000a900460ff161580611125575060011515600b60008473ffffffffffffffffffffffffffffffffffffffff1673ffffffffffffffffffffffffffffffffffffffff16815260200190815260200160002060009054906101000a900460ff161515145b151561113057600080fd5b61113b8383836120a1565b505050565b60006003600083815260200190815260200160002060009054906101000a900473ffffffffffffffffffffffffffffffffffffffff169050919050565b600c60009054906101000a900460ff1681565b600760009054906101000a900473ffffffffffffffffffffffffffffffffffffffff1673ffffffffffffffffffffffffffffffffffffffff163373ffffffffffffffffffffffffffffffffffffffff161415156111ec57600080fd5b80600b60008473ffffffffffffffffffffffffffffffffffffffff1673ffffffffffffffffffffffffffffffffffffffff16815260200190815260200160002060006101000a81548160ff0219169083151502179055505050565b61124f612694565b600460008373ffffffffffffffffffffffffffffffffffffffff1673ffffffffffffffffffffffffffffffffffffffff1681526020019081526020016000208054806020026020016040519081016040528092919081815260200182805480156112d857602002820191906000526020600020905b8154815260200190600101908083116112c4575b50505050509050919050565b6000806002600084815260200190815260200160002060009054906101000a900473ffffffffffffffffffffffffffffffffffffffff16905080915050919050565b600760009054906101000a900473ffffffffffffffffffffffffffffffffffffffff1673ffffffffffffffffffffffffffffffffffffffff163373ffffffffffffffffffffffffffffffffffffffff1614151561138257600080fd5b80600860006101000a81548173ffffffffffffffffffffffffffffffffffffffff021916908373ffffffffffffffffffffffffffffffffffffffff16021790555050565b6000600460008373ffffffffffffffffffffffffffffffffffffffff1673ffffffffffffffffffffffffffffffffffffffff168152602001908152602001600020805490509050919050565b6000600760009054906101000a900473ffffffffffffffffffffffffffffffffffffffff1673ffffffffffffffffffffffffffffffffffffffff163373ffffffffffffffffffffffffffffffffffffffff1614151561147057600080fd5b600c60009054906101000a900460ff1615600c60006101000a81548160ff021916908315150217905550600c60009054906101000a900460ff16905090565b60005481565b600f60009054906101000a900460ff1681565b600760009054906101000a900473ffffffffffffffffffffffffffffffffffffffff1681565b600e8054600181600116156101000203166002900480601f0160208091040260200160405190810160405280929190818152602001828054600181600116156101000203166002900480156115845780601f1061155957610100808354040283529160200191611584565b820191906000526020600020905b81548152906001019060200180831161156757829003601f168201915b505050505081565b60008073ffffffffffffffffffffffffffffffffffffffff168273ffffffffffffffffffffffffffffffffffffffff1614156115e857600760009054906101000a900473ffffffffffffffffffffffffffffffffffffffff1691505b600f60009054906101000a900460ff16806116505750600760009054906101000a900473ffffffffffffffffffffffffffffffffffffffff1673ffffffffffffffffffffffffffffffffffffffff163373ffffffffffffffffffffffffffffffffffffffff16145b151561165b57600080fd5b600054905060a060405190810160405280868152602001858152602001876000191681526020018481526020014267ffffffffffffffff16815250600a600083815260200190815260200160002060008201518160000190805190602001906116c59291906126a8565b5060208201518160010190805190602001906116e29291906126a8565b50604082015181600201906000191690556060820151816003015560808201518160040160006101000a81548167ffffffffffffffff021916908367ffffffffffffffff16021790555090505061173b60008383610f4c565b8173ffffffffffffffffffffffffffffffffffffffff167f617db0c49289b17c180e87517cabec78402cfe15781318051fe9165e9017e09f82888888886040518086815260200185600019166000191681526020018060200180602001848152602001838103835286818151815260200191508051906020019080838360005b838110156117d65780820151818401526020810190506117bb565b50505050905090810190601f1680156118035780820380516001836020036101000a031916815260200191505b50838103825285818151815260200191508051906020019080838360005b8381101561183c578082015181840152602081019050611821565b50505050905090810190601f1680156118695780820380516001836020036101000a031916815260200191505b5097505050505050505060405180910390a2505050505050565b600860009054906101000a900473ffffffffffffffffffffffffffffffffffffffff1681565b80156119325781600660003373ffffffffffffffffffffffffffffffffffffffff1673ffffffffffffffffffffffffffffffffffffffff16815260200190815260200160002060006101000a81548173ffffffffffffffffffffffffffffffffffffffff021916908373ffffffffffffffffffffffffffffffffffffffff1602179055506119b2565b6000600660003373ffffffffffffffffffffffffffffffffffffffff1673ffffffffffffffffffffffffffffffffffffffff16815260200190815260200160002060006101000a81548173ffffffffffffffffffffffffffffffffffffffff021916908373ffffffffffffffffffffffffffffffffffffffff1602179055505b8173ffffffffffffffffffffffffffffffffffffffff163373ffffffffffffffffffffffffffffffffffffffff167f17307eab39ab6107e8899845ad3d59bd9653f200f220920489ca2b5937696c3183604051808215151515815260200191505060405180910390a35050565b60008273ffffffffffffffffffffffffffffffffffffffff16600660008473ffffffffffffffffffffffffffffffffffffffff1673ffffffffffffffffffffffffffffffffffffffff16815260200190815260200160002060009054906101000a900473ffffffffffffffffffffffffffffffffffffffff1673ffffffffffffffffffffffffffffffffffffffff1614905092915050565b6000803373ffffffffffffffffffffffffffffffffffffffff16611ada85611140565b73ffffffffffffffffffffffffffffffffffffffff161480611b025750611b013387611a1f565b5b80611b4057503373ffffffffffffffffffffffffffffffffffffffff16611b28856112e4565b73ffffffffffffffffffffffffffffffffffffffff16145b1515611b4b57600080fd5b611b568686866120a1565b600090505b6020811015611c23576008810260ff7f0100000000000000000000000000000000000000000000000000000000000000028483815181101515611b9a57fe5b9060200101517f010000000000000000000000000000000000000000000000000000000000000090047f010000000000000000000000000000000000000000000000000000000000000002167effffffffffffffffffffffffffffffffffffffffffffffffffffffffffffff1916600019169060020a9004821791508080600101915050611b5b565b8160405180826000191660001916815260200191505060405180910390a0505050505050565b611c51612728565b611c59612728565b600080611c6461273c565b600a600087815260200190815260200160002060a06040519081016040529081600082018054600181600116156101000203166002900480601f016020809104026020016040519081016040528092919081815260200182805460018160011615610100020316600290048015611d1c5780601f10611cf157610100808354040283529160200191611d1c565b820191906000526020600020905b815481529060010190602001808311611cff57829003601f168201915b50505050508152602001600182018054600181600116156101000203166002900480601f016020809104026020016040519081016040528092919081815260200182805460018160011615610100020316600290048015611dbe5780601f10611d9357610100808354040283529160200191611dbe565b820191906000526020600020905b815481529060010190602001808311611da157829003601f168201915b50505050508152602001600282015460001916600019168152602001600382015481526020016004820160009054906101000a900467ffffffffffffffff1667ffffffffffffffff1667ffffffffffffffff1681525050905080600001518160200151826060015183608001518393508292509450945094509450509193509193565b600760009054906101000a900473ffffffffffffffffffffffffffffffffffffffff1673ffffffffffffffffffffffffffffffffffffffff163373ffffffffffffffffffffffffffffffffffffffff16141515611e9d57600080fd5b80600960006101000a81548173ffffffffffffffffffffffffffffffffffffffff021916908373ffffffffffffffffffffffffffffffffffffffff16021790555050565b6000600b60008373ffffffffffffffffffffffffffffffffffffffff1673ffffffffffffffffffffffffffffffffffffffff16815260200190815260200160002060009054906101000a900460ff169050919050565b600760009054906101000a900473ffffffffffffffffffffffffffffffffffffffff1673ffffffffffffffffffffffffffffffffffffffff163373ffffffffffffffffffffffffffffffffffffffff16141515611f9357600080fd5b600f60009054906101000a900460ff1615600f60006101000a81548160ff021916908315150217905550565b60008373ffffffffffffffffffffffffffffffffffffffff166003600084815260200190815260200160002060009054906101000a900473ffffffffffffffffffffffffffffffffffffffff1673ffffffffffffffffffffffffffffffffffffffff16148015612098575081600460008573ffffffffffffffffffffffffffffffffffffffff1673ffffffffffffffffffffffffffffffffffffffff168152602001908152602001600020600560008581526020019081526020016000205481548110151561208a57fe5b906000526020600020900154145b90509392505050565b600073ffffffffffffffffffffffffffffffffffffffff168273ffffffffffffffffffffffffffffffffffffffff16141515156120dd57600080fd5b6120e6816112e4565b73ffffffffffffffffffffffffffffffffffffffff168273ffffffffffffffffffffffffffffffffffffffff161415151561212057600080fd5b8273ffffffffffffffffffffffffffffffffffffffff16612140826112e4565b73ffffffffffffffffffffffffffffffffffffffff1614151561216257600080fd5b60006003600083815260200190815260200160002060006101000a81548173ffffffffffffffffffffffffffffffffffffffff021916908373ffffffffffffffffffffffffffffffffffffffff160217905550600073ffffffffffffffffffffffffffffffffffffffff168373ffffffffffffffffffffffffffffffffffffffff161415156121f6576121f5838261226a565b5b61220082826124f2565b8173ffffffffffffffffffffffffffffffffffffffff168373ffffffffffffffffffffffffffffffffffffffff167fddf252ad1be2c89b69c2b068fc378daa952ba7f163c4a11628f55a4df523b3ef836040518082815260200191505060405180910390a3505050565b60008060008473ffffffffffffffffffffffffffffffffffffffff1661228f856112e4565b73ffffffffffffffffffffffffffffffffffffffff161415156122b157600080fd5b600560008581526020019081526020016000205492506122e360016122d5876113c6565b61265d90919063ffffffff16565b9150600460008673ffffffffffffffffffffffffffffffffffffffff1673ffffffffffffffffffffffffffffffffffffffff1681526020019081526020016000208281548110151561233157fe5b906000526020600020900154905060006002600086815260200190815260200160002060006101000a81548173ffffffffffffffffffffffffffffffffffffffff021916908373ffffffffffffffffffffffffffffffffffffffff16021790555080600460008773ffffffffffffffffffffffffffffffffffffffff1673ffffffffffffffffffffffffffffffffffffffff168152602001908152602001600020848154811015156123df57fe5b9060005260206000209001819055506000600460008773ffffffffffffffffffffffffffffffffffffffff1673ffffffffffffffffffffffffffffffffffffffff1681526020019081526020016000208381548110151561243c57fe5b906000526020600020900181905550600460008673ffffffffffffffffffffffffffffffffffffffff1673ffffffffffffffffffffffffffffffffffffffff16815260200190815260200160002080548091906001900361249d9190612785565b50600060056000868152602001908152602001600020819055508260056000838152602001908152602001600020819055506124e5600160005461265d90919063ffffffff16565b6000819055505050505050565b60008073ffffffffffffffffffffffffffffffffffffffff166002600084815260200190815260200160002060009054906101000a900473ffffffffffffffffffffffffffffffffffffffff1673ffffffffffffffffffffffffffffffffffffffff1614151561256157600080fd5b826002600084815260200190815260200160002060006101000a81548173ffffffffffffffffffffffffffffffffffffffff021916908373ffffffffffffffffffffffffffffffffffffffff1602179055506125bc836113c6565b9050600460008473ffffffffffffffffffffffffffffffffffffffff1673ffffffffffffffffffffffffffffffffffffffff168152602001908152602001600020805480600101828161260f91906127b1565b916000526020600020900160008490919091505550806005600084815260200190815260200160002081905550612652600160005461267690919063ffffffff16565b600081905550505050565b600082821115151561266b57fe5b818303905092915050565b600080828401905083811015151561268a57fe5b8091505092915050565b602060405190810160405280600081525090565b828054600181600116156101000203166002900490600052602060002090601f016020900481019282601f106126e957805160ff1916838001178555612717565b82800160010185558215612717579182015b828111156127165782518255916020019190600101906126fb565b5b50905061272491906127dd565b5090565b602060405190810160405280600081525090565b60a060405190810160405280612750612802565b815260200161275d612802565b81526020016000801916815260200160008152602001600067ffffffffffffffff1681525090565b8154818355818115116127ac578183600052602060002091820191016127ab91906127dd565b5b505050565b8154818355818115116127d8578183600052602060002091820191016127d791906127dd565b5b505050565b6127ff91905b808211156127fb5760008160009055506001016127e3565b5090565b90565b602060405190810160405280600081525090565b60018060003073ffffffffffffffffffffffffffffffffffffffff1663095ea7b390507c01000000000000000000000000000000000000000000000000000000000260405180807f6973417070726f76656428616464726573732c616464726573732c75696e743281526020017f35362900000000000000000000000000000000000000000000000000000000008152506023019050604051809103902060405180807f6973417070726f76656428616464726573732c61646472657373290000000000815250601b01905060405180910390203073ffffffffffffffffffffffffffffffffffffffff16636352211e90507c0100000000000000000000000000000000000000000000000000000000023073ffffffffffffffffffffffffffffffffffffffff166370a0823190507c0100000000000000000000000000000000000000000000000000000000023073ffffffffffffffffffffffffffffffffffffffff1663a22cb46590507c0100000000000000000000000000000000000000000000000000000000023073ffffffffffffffffffffffffffffffffffffffff166318160ddd90507c01000000000000000000000000000000000000000000000000000000000260405180807f7472616e7366657246726f6d28616464726573732c616464726573732c75696e81526020017f743235362c627974657329000000000000000000000000000000000000000000815250602b019050604051809103902060405180807f7472616e7366657246726f6d28616464726573732c616464726573732c75696e81526020017f7432353629000000000000000000000000000000000000000000000000000000815250602501905060405180910390203073ffffffffffffffffffffffffffffffffffffffff166301ffc9a790507c0100000000000000000000000000000000000000000000000000000000021818181818181818187bffffffffffffffffffffffffffffffffffffffffffffffffffffffff19167bffffffffffffffffffffffffffffffffffffffffffffffffffffffff1916815260200190815260200160002060006101000a81548160ff02191690831515021790555060018060003073ffffffffffffffffffffffffffffffffffffffff166301ffc9a790507c0100000000000000000000000000000000000000000000000000000000027bffffffffffffffffffffffffffffffffffffffffffffffffffffffff19167bffffffffffffffffffffffffffffffffffffffffffffffffffffffff1916815260200190815260200160002060006101000a81548160ff0219169083151502179055505600a165627a7a7230582002eec84834c8537c6e3e83eb27214a91ec7701e7698cab3ac9759a389baa159c0029",
  "source": "pragma solidity ^0.4.18;\r\n\r\nimport \"./PhotoBase.sol\";\r\n\r\n/**\r\n*@title PhotoCore\r\n* Front contract for Photocoin. Holds uploadPhoto funtionality and token name and symbol\r\n*/\r\ncontract PhotoCore is PhotoBase{\r\n    // @notice Name and symbol of the non fungible token\r\n    string public name = \"PhotoCoin\";\r\n    string public symbol = \"PC\";\r\n    bool public allowUploads;\r\n\r\n    /**\r\n    *@dev Creates the main Photocoin smart contract instance and sets the owner\r\n    */\r\n    function PhotoCore() public {\r\n        owner = msg.sender;\r\n        whitelist[owner] = true;\r\n    }\r\n\r\n    /**\r\n    *@notice No tipping!\r\n    *@dev fallback function to reject all Ether from being sent to contract\r\n    */\r\n    function() external payable {\r\n        require(msg.value == 0);\r\n    }\r\n\r\n    /**\r\n    *@dev this function changes whether or not uploads are allowed by people other than the owner\r\n    */\r\n    function setAllowUploads() public onlyOwner(){\r\n        allowUploads = (!allowUploads);\r\n    }\r\n\r\n    /**\r\n    *@dev this is the function to create a new photocoin and update the mappings with a new token\r\n    *@param _photoHash is the hash of the photograph\r\n    *@param _name is a string variable representing the name of the photograph\r\n    *@param _photographer is a string variable representing the name of the photographer\r\n    *@param _isenNumber is the uint ISEN number\r\n    *@param _owner is the address of the new owner of the token\r\n    */\r\n    function uploadPhoto(bytes32 _photoHash,string _name, string _photographer, uint256 _isenNumber, address _owner) public{\r\n        if(_owner == address(0)) {\r\n            _owner = owner;\r\n        }\r\n        require (allowUploads || msg.sender == owner);\r\n        uint256 newId = totalTokens;\r\n        photos[newId] = Photo({\r\n            name: _name,\r\n            photographer: _photographer,\r\n            photoHash: _photoHash,\r\n            isenNumber: _isenNumber,\r\n            uploadTime: uint64(now)\r\n            });\r\n        transferFrom(address(0),_owner,newId);\r\n        Upload(_owner,newId,_photoHash, _name,_photographer,_isenNumber);\r\n    }\r\n}",
  "sourcePath": "C:\\Nick\\Consulting\\Photocoin\\contracts\\PhotoCore.sol",
  "compiler": {
    "name": "solc",
    "version": "0.4.19+commit.c4cbbb05.Emscripten.clang"
  },
  "schemaVersion": "1.0.1",
  "updatedAt": "2018-03-22T02:22:24.693Z"
}