{
  "contractName": "PhotoBase",
  "abi": [
    {
      "constant": true,
      "inputs": [
        {
          "name": "interfaceID",
          "type": "bytes4"
        }
      ],
      "name": "supportsInterface",
      "outputs": [
        {
          "name": "",
          "type": "bool"
        }
      ],
      "payable": false,
      "stateMutability": "view",
      "type": "function"
    },
    {
      "constant": false,
      "inputs": [
        {
          "name": "_to",
          "type": "address"
        },
        {
          "name": "_tokenId",
          "type": "uint256"
        }
      ],
      "name": "approve",
      "outputs": [],
      "payable": false,
      "stateMutability": "nonpayable",
      "type": "function"
    },
    {
      "constant": true,
      "inputs": [],
      "name": "auctionContract",
      "outputs": [
        {
          "name": "",
          "type": "address"
        }
      ],
      "payable": false,
      "stateMutability": "view",
      "type": "function"
    },
    {
      "constant": true,
      "inputs": [],
      "name": "totalSupply",
      "outputs": [
        {
          "name": "",
          "type": "uint256"
        }
      ],
      "payable": false,
      "stateMutability": "view",
      "type": "function"
    },
    {
      "constant": true,
      "inputs": [
        {
          "name": "_tokenId",
          "type": "uint256"
        }
      ],
      "name": "approvedFor",
      "outputs": [
        {
          "name": "",
          "type": "address"
        }
      ],
      "payable": false,
      "stateMutability": "view",
      "type": "function"
    },
    {
      "constant": false,
      "inputs": [
        {
          "name": "_from",
          "type": "address"
        },
        {
          "name": "_to",
          "type": "address"
        },
        {
          "name": "_tokenId",
          "type": "uint256"
        }
      ],
      "name": "safeTransferFrom",
      "outputs": [],
      "payable": false,
      "stateMutability": "nonpayable",
      "type": "function"
    },
    {
      "constant": true,
      "inputs": [],
      "name": "whitelistOn",
      "outputs": [
        {
          "name": "",
          "type": "bool"
        }
      ],
      "payable": false,
      "stateMutability": "view",
      "type": "function"
    },
    {
      "constant": true,
      "inputs": [
        {
          "name": "_owner",
          "type": "address"
        }
      ],
      "name": "tokensOf",
      "outputs": [
        {
          "name": "",
          "type": "uint256[]"
        }
      ],
      "payable": false,
      "stateMutability": "view",
      "type": "function"
    },
    {
      "constant": true,
      "inputs": [
        {
          "name": "_tokenId",
          "type": "uint256"
        }
      ],
      "name": "ownerOf",
      "outputs": [
        {
          "name": "",
          "type": "address"
        }
      ],
      "payable": false,
      "stateMutability": "view",
      "type": "function"
    },
    {
      "constant": true,
      "inputs": [
        {
          "name": "_owner",
          "type": "address"
        }
      ],
      "name": "balanceOf",
      "outputs": [
        {
          "name": "",
          "type": "uint256"
        }
      ],
      "payable": false,
      "stateMutability": "view",
      "type": "function"
    },
    {
      "constant": true,
      "inputs": [],
      "name": "totalTokens",
      "outputs": [
        {
          "name": "",
          "type": "uint256"
        }
      ],
      "payable": false,
      "stateMutability": "view",
      "type": "function"
    },
    {
      "constant": true,
      "inputs": [],
      "name": "allowUploads",
      "outputs": [
        {
          "name": "",
          "type": "bool"
        }
      ],
      "payable": false,
      "stateMutability": "view",
      "type": "function"
    },
    {
      "constant": true,
      "inputs": [],
      "name": "owner",
      "outputs": [
        {
          "name": "",
          "type": "address"
        }
      ],
      "payable": false,
      "stateMutability": "view",
      "type": "function"
    },
    {
      "constant": true,
      "inputs": [],
      "name": "marketContract",
      "outputs": [
        {
          "name": "",
          "type": "address"
        }
      ],
      "payable": false,
      "stateMutability": "view",
      "type": "function"
    },
    {
      "constant": false,
      "inputs": [
        {
          "name": "_operator",
          "type": "address"
        },
        {
          "name": "_approved",
          "type": "bool"
        }
      ],
      "name": "setApprovalForAll",
      "outputs": [],
      "payable": false,
      "stateMutability": "nonpayable",
      "type": "function"
    },
    {
      "constant": true,
      "inputs": [
        {
          "name": "_operator",
          "type": "address"
        },
        {
          "name": "_owner",
          "type": "address"
        }
      ],
      "name": "isApproved",
      "outputs": [
        {
          "name": "",
          "type": "bool"
        }
      ],
      "payable": false,
      "stateMutability": "view",
      "type": "function"
    },
    {
      "constant": false,
      "inputs": [
        {
          "name": "_from",
          "type": "address"
        },
        {
          "name": "_to",
          "type": "address"
        },
        {
          "name": "_tokenId",
          "type": "uint256"
        },
        {
          "name": "_data",
          "type": "bytes"
        }
      ],
      "name": "safeTransferFrom",
      "outputs": [],
      "payable": false,
      "stateMutability": "nonpayable",
      "type": "function"
    },
    {
      "constant": true,
      "inputs": [
        {
          "name": "_operator",
          "type": "address"
        },
        {
          "name": "_owner",
          "type": "address"
        },
        {
          "name": "_tokenId",
          "type": "uint256"
        }
      ],
      "name": "isApproved",
      "outputs": [
        {
          "name": "",
          "type": "bool"
        }
      ],
      "payable": false,
      "stateMutability": "view",
      "type": "function"
    },
    {
      "constant": true,
      "inputs": [
        {
          "name": "",
          "type": "address"
        },
        {
          "name": "",
          "type": "uint256"
        },
        {
          "name": "",
          "type": "bytes"
        }
      ],
      "name": "onERC721Received",
      "outputs": [
        {
          "name": "",
          "type": "bytes4"
        }
      ],
      "payable": false,
      "stateMutability": "view",
      "type": "function"
    },
    {
      "anonymous": false,
      "inputs": [
        {
          "indexed": true,
          "name": "_owner",
          "type": "address"
        },
        {
          "indexed": false,
          "name": "_photoId",
          "type": "uint256"
        },
        {
          "indexed": false,
          "name": "_photoHash",
          "type": "bytes32"
        },
        {
          "indexed": false,
          "name": "_name",
          "type": "string"
        },
        {
          "indexed": false,
          "name": "_photographer",
          "type": "string"
        },
        {
          "indexed": false,
          "name": "_isenNumber",
          "type": "uint256"
        }
      ],
      "name": "Upload",
      "type": "event"
    },
    {
      "anonymous": false,
      "inputs": [
        {
          "indexed": true,
          "name": "_from",
          "type": "address"
        },
        {
          "indexed": true,
          "name": "_to",
          "type": "address"
        },
        {
          "indexed": false,
          "name": "_tokenId",
          "type": "uint256"
        }
      ],
      "name": "Transfer",
      "type": "event"
    },
    {
      "anonymous": false,
      "inputs": [
        {
          "indexed": true,
          "name": "_owner",
          "type": "address"
        },
        {
          "indexed": true,
          "name": "_operator",
          "type": "address"
        },
        {
          "indexed": false,
          "name": "_approved",
          "type": "bool"
        }
      ],
      "name": "ApprovalForAll",
      "type": "event"
    },
    {
      "anonymous": false,
      "inputs": [
        {
          "indexed": true,
          "name": "_owner",
          "type": "address"
        },
        {
          "indexed": true,
          "name": "_operator",
          "type": "address"
        },
        {
          "indexed": false,
          "name": "_tokenId",
          "type": "uint256"
        }
      ],
      "name": "Approval",
      "type": "event"
    },
    {
      "constant": false,
      "inputs": [
        {
          "name": "_owner",
          "type": "address"
        }
      ],
      "name": "setOwner",
      "outputs": [],
      "payable": false,
      "stateMutability": "nonpayable",
      "type": "function"
    },
    {
      "constant": false,
      "inputs": [
        {
          "name": "_market",
          "type": "address"
        }
      ],
      "name": "setMarket",
      "outputs": [],
      "payable": false,
      "stateMutability": "nonpayable",
      "type": "function"
    },
    {
      "constant": false,
      "inputs": [
        {
          "name": "_auction",
          "type": "address"
        }
      ],
      "name": "setAuction",
      "outputs": [],
      "payable": false,
      "stateMutability": "nonpayable",
      "type": "function"
    },
    {
      "constant": false,
      "inputs": [
        {
          "name": "_user",
          "type": "address"
        },
        {
          "name": "_trueorfalse",
          "type": "bool"
        }
      ],
      "name": "setWhitelist",
      "outputs": [],
      "payable": false,
      "stateMutability": "nonpayable",
      "type": "function"
    },
    {
      "constant": true,
      "inputs": [
        {
          "name": "_user",
          "type": "address"
        }
      ],
      "name": "isWhitelist",
      "outputs": [
        {
          "name": "",
          "type": "bool"
        }
      ],
      "payable": false,
      "stateMutability": "view",
      "type": "function"
    },
    {
      "constant": false,
      "inputs": [],
      "name": "toggleWhitelist",
      "outputs": [
        {
          "name": "",
          "type": "bool"
        }
      ],
      "payable": false,
      "stateMutability": "nonpayable",
      "type": "function"
    },
    {
      "constant": true,
      "inputs": [
        {
          "name": "_tokenId",
          "type": "uint256"
        }
      ],
      "name": "getPhoto",
      "outputs": [
        {
          "name": "",
          "type": "string"
        },
        {
          "name": "",
          "type": "string"
        },
        {
          "name": "",
          "type": "uint256"
        },
        {
          "name": "",
          "type": "uint64"
        }
      ],
      "payable": false,
      "stateMutability": "view",
      "type": "function"
    },
    {
      "constant": false,
      "inputs": [
        {
          "name": "_from",
          "type": "address"
        },
        {
          "name": "_to",
          "type": "address"
        },
        {
          "name": "_tokenId",
          "type": "uint256"
        }
      ],
      "name": "transferFrom",
      "outputs": [],
      "payable": false,
      "stateMutability": "nonpayable",
      "type": "function"
    },
    {
      "constant": false,
      "inputs": [
        {
          "name": "_from",
          "type": "address"
        },
        {
          "name": "_to",
          "type": "address"
        },
        {
          "name": "_tokenId",
          "type": "uint256"
        },
        {
          "name": "_data",
          "type": "bytes"
        }
      ],
      "name": "transferFrom",
      "outputs": [],
      "payable": false,
      "stateMutability": "nonpayable",
      "type": "function"
    }
  ],
  "bytecode": "0x60606040526100196401000000006114af61001e82021704565b610297565b60018060007f095ea7b3000000000000000000000000000000000000000000000000000000006040517f6973417070726f76656428616464726573732c616464726573732c75696e743281527f3536290000000000000000000000000000000000000000000000000000000000602082015260230160405180910390206040517f6973417070726f76656428616464726573732c616464726573732900000000008152601b016040519081900390207f6352211e000000000000000000000000000000000000000000000000000000007f70a08231000000000000000000000000000000000000000000000000000000007fa22cb465000000000000000000000000000000000000000000000000000000007f18160ddd00000000000000000000000000000000000000000000000000000000604051600080516020611a0683398151915281527f743235362c6279746573290000000000000000000000000000000000000000006020820152602b016040518091039020604051600080516020611a0683398151915281527f743235362900000000000000000000000000000000000000000000000000000060208201526025016040519081900390207f01ffc9a70000000000000000000000000000000000000000000000000000000091189190911891909118919091189190911891909118919091189190911881187fffffffff0000000000000000000000000000000000000000000000000000000016825260208083019390935260409091016000908120805460ff19908116951515959095179055526001908190527fb45820386466a8e01597d6e1efaf8f11ba4467972de5ca6c1f8aa3544ac2888e8054909216179055565b611760806102a66000396000f3006060604052600436106101695763ffffffff7c010000000000000000000000000000000000000000000000000000000060003504166301ffc9a7811461016e578063095ea7b3146101a25780630ab8afac146101c657806313af4035146101f557806318160ddd1461021457806323b872dd146102395780632a6dd48f1461026157806342842e0e146102775780634917aa3f1461029f57806353d6fd59146102b25780635a3f2672146102d65780636352211e146103485780636dcea85f1461035e57806370a082311461037d5780637e15144b1461039c5780637e1c0c09146103af578063821ed3a6146103c25780638da5cb5b146103d5578063a1794bcd146103e8578063a22cb465146103fb578063a389783e1461041f578063ab67aa5814610444578063b6be128a146104b0578063b88d4fde146105c0578063b8c6f5791461062c578063c683630d1461064b578063e5af48d81461066a578063f0b9e5ba14610692575b600080fd5b341561017957600080fd5b61018e600160e060020a031960043516610714565b604051901515815260200160405180910390f35b34156101ad57600080fd5b6101c4600160a060020a0360043516602435610733565b005b34156101d157600080fd5b6101d96107e6565b604051600160a060020a03909116815260200160405180910390f35b341561020057600080fd5b6101c4600160a060020a03600435166107f5565b341561021f57600080fd5b610227610832565b60405190815260200160405180910390f35b341561024457600080fd5b6101c4600160a060020a0360043581169060243516604435610839565b341561026c57600080fd5b6101d9600435610961565b341561028257600080fd5b6101c4600160a060020a036004358116906024351660443561097c565b34156102aa57600080fd5b61018e610996565b34156102bd57600080fd5b6101c4600160a060020a0360043516602435151561099f565b34156102e157600080fd5b6102f5600160a060020a03600435166109e5565b60405160208082528190810183818151815260200191508051906020019060200280838360005b8381101561033457808201518382015260200161031c565b505050509050019250505060405180910390f35b341561035357600080fd5b6101d9600435610a68565b341561036957600080fd5b6101c4600160a060020a0360043516610a83565b341561038857600080fd5b610227600160a060020a0360043516610ac0565b34156103a757600080fd5b61018e610adb565b34156103ba57600080fd5b610227610b12565b34156103cd57600080fd5b61018e610b18565b34156103e057600080fd5b6101d9610b39565b34156103f357600080fd5b6101d9610b48565b341561040657600080fd5b6101c4600160a060020a03600435166024351515610b57565b341561042a57600080fd5b61018e600160a060020a0360043581169060243516610c05565b341561044f57600080fd5b6101c4600160a060020a036004803582169160248035909116916044359160849060643590810190830135806020601f82018190048102016040519081016040528181529291906020840183838082843750949650610c2795505050505050565b34156104bb57600080fd5b6104c6600435610ca9565b6040516040810183905267ffffffffffffffff82166060820152608080825281906020820190820187818151815260200191508051906020019080838360005b8381101561051e578082015183820152602001610506565b50505050905090810190601f16801561054b5780820380516001836020036101000a031916815260200191505b50838103825286818151815260200191508051906020019080838360005b83811015610581578082015183820152602001610569565b50505050905090810190601f1680156105ae5780820380516001836020036101000a031916815260200191505b50965050505050505060405180910390f35b34156105cb57600080fd5b6101c4600160a060020a036004803582169160248035909116916044359160849060643590810190830135806020601f82018190048102016040519081016040528181529291906020840183838082843750949650610e7095505050505050565b341561063757600080fd5b6101c4600160a060020a0360043516610e92565b341561065657600080fd5b61018e600160a060020a0360043516610ecf565b341561067557600080fd5b61018e600160a060020a0360043581169060243516604435610eed565b341561069d57600080fd5b6106f760048035600160a060020a03169060248035919060649060443590810190830135806020601f82018190048102016040519081016040528181529291906020840183838082843750949650610f5c95505050505050565b604051600160e060020a0319909116815260200160405180910390f35b600160e060020a03191660009081526001602052604090205460ff1690565b8033600160a060020a031661074782610a68565b600160a060020a03161461075a57600080fd5b33600160a060020a031683600160a060020a03161415151561077b57600080fd5b600082815260036020526040908190208054600160a060020a031916600160a060020a038681169182179092559133909116907f8c5be1e5ebec7d5bd14f71427d1e84f3dd0314c0f7b2291e5b200ac8c7c3b9259085905190815260200160405180910390a3505050565b600954600160a060020a031681565b60075433600160a060020a0390811691161461081057600080fd5b60078054600160a060020a031916600160a060020a0392909216919091179055565b6000545b90565b600160a060020a03831615801561086a575060095474010000000000000000000000000000000000000000900460ff165b80610895575060075433600160a060020a0390811691161480156108955750600160a060020a038316155b806108a557506108a53384610c05565b806108b657506108b6338483610eed565b806108da575033600160a060020a03166108cf82610a68565b600160a060020a0316145b806108f3575060085433600160a060020a039081169116145b8061090c575060095433600160a060020a039081169116145b151561091757600080fd5b600c5460ff1615806109465750600160a060020a0382166000908152600b602052604090205460ff1615156001145b151561095157600080fd5b61095c838383610f84565b505050565b600090815260036020526040902054600160a060020a031690565b61095c838383602060405190810160405260008152610e70565b600c5460ff1681565b60075433600160a060020a039081169116146109ba57600080fd5b600160a060020a03919091166000908152600b60205260409020805460ff1916911515919091179055565b6109ed611424565b6004600083600160a060020a0316600160a060020a03168152602001908152602001600020805480602002602001604051908101604052809291908181526020018280548015610a5c57602002820191906000526020600020905b815481526020019060010190808311610a48575b50505050509050919050565b600090815260026020526040902054600160a060020a031690565b60075433600160a060020a03908116911614610a9e57600080fd5b60088054600160a060020a031916600160a060020a0392909216919091179055565b600160a060020a031660009081526004602052604090205490565b60075460009033600160a060020a03908116911614610af957600080fd5b50600c805460ff19811660ff9182161517918290551690565b60005481565b60095474010000000000000000000000000000000000000000900460ff1681565b600754600160a060020a031681565b600854600160a060020a031681565b8015610b915733600160a060020a0390811660009081526006602052604090208054600160a060020a031916918416919091179055610bb8565b600160a060020a03331660009081526006602052604090208054600160a060020a03191690555b81600160a060020a031633600160a060020a03167f17307eab39ab6107e8899845ad3d59bd9653f200f220920489ca2b5937696c3183604051901515815260200160405180910390a35050565b600160a060020a03908116600090815260066020526040902054811691161490565b33600160a060020a0316610c3a83610961565b600160a060020a03161480610c545750610c543385610c05565b80610c78575033600160a060020a0316610c6d83610a68565b600160a060020a0316145b1515610c8357600080fd5b600160a060020a0383161515610c9857600080fd5b610ca3848484610f84565b50505050565b610cb1611424565b610cb9611424565b600080610cc4611436565b6000868152600a6020526040908190209060a090519081016040529081600082018054600181600116156101000203166002900480601f016020809104026020016040519081016040528092919081815260200182805460018160011615610100020316600290048015610d795780601f10610d4e57610100808354040283529160200191610d79565b820191906000526020600020905b815481529060010190602001808311610d5c57829003601f168201915b50505050508152602001600182018054600181600116156101000203166002900480601f016020809104026020016040519081016040528092919081815260200182805460018160011615610100020316600290048015610e1b5780601f10610df057610100808354040283529160200191610e1b565b820191906000526020600020905b815481529060010190602001808311610dfe57829003601f168201915b5050509183525050600282015460208201526003820154604082015260049091015467ffffffffffffffff16606090910152905080518160200151826060015183608001519299919850965090945092505050565b610e7b848484610839565b610e878484848461106b565b1515610ca357600080fd5b60075433600160a060020a03908116911614610ead57600080fd5b60098054600160a060020a031916600160a060020a0392909216919091179055565b600160a060020a03166000908152600b602052604090205460ff1690565b600081815260036020526040812054600160a060020a038581169116148015610f545750600160a060020a03831660009081526004602090815260408083208584526005909252909120548154849291908110610f4657fe5b906000526020600020900154145b949350505050565b7ff0b9e5ba000000000000000000000000000000000000000000000000000000009392505050565b600160a060020a0382161515610f9957600080fd5b610fa281610a68565b600160a060020a0383811691161415610fba57600080fd5b82600160a060020a0316610fcd82610a68565b600160a060020a031614610fe057600080fd5b60008181526003602052604090208054600160a060020a0319169055600160a060020a038316156110155761101583826111d2565b61101f828261133c565b81600160a060020a031683600160a060020a03167fddf252ad1be2c89b69c2b068fc378daa952ba7f163c4a11628f55a4df523b3ef8360405190815260200160405180910390a3505050565b60008061108085600160a060020a03166113f4565b151561108f57600191506111c9565b84600160a060020a031663f0b9e5ba8786866000604051602001526040518463ffffffff167c01000000000000000000000000000000000000000000000000000000000281526004018084600160a060020a0316600160a060020a0316815260200183815260200180602001828103825283818151815260200191508051906020019080838360005b83811015611130578082015183820152602001611118565b50505050905090810190601f16801561115d5780820380516001836020036101000a031916815260200191505b50945050505050602060405180830381600087803b151561117d57600080fd5b6102c65a03f1151561118e57600080fd5b5050506040518051600160e060020a031981167ff0b9e5ba000000000000000000000000000000000000000000000000000000001493509150505b50949350505050565b600080600084600160a060020a03166111ea85610a68565b600160a060020a0316146111fd57600080fd5b6000848152600560205260409020549250611228600161121c87610ac0565b9063ffffffff6113fc16565b600160a060020a03861660009081526004602052604090208054919350908390811061125057fe5b60009182526020808320909101548683526002825260408084208054600160a060020a0319169055600160a060020a038916845260049092529120805491925082918590811061129c57fe5b6000918252602080832090910192909255600160a060020a03871681526004909152604081208054849081106112ce57fe5b6000918252602080832090910192909255600160a060020a0387168152600490915260409020805490611305906000198301611472565b5060008481526005602052604080822082905582825281208490555461133290600163ffffffff6113fc16565b6000555050505050565b600081815260026020526040812054600160a060020a03161561135e57600080fd5b60008281526002602052604090208054600160a060020a031916600160a060020a03851617905561138e83610ac0565b600160a060020a0384166000908152600460205260409020805491925090600181016113ba8382611472565b5060009182526020808320919091018490558382526005905260408120829055546113ec90600163ffffffff61140e16565b600055505050565b6000903b1190565b60008282111561140857fe5b50900390565b60008282018381101561141d57fe5b9392505050565b60206040519081016040526000815290565b60a06040519081016040528061144a611424565b8152602001611457611424565b81526000602082018190526040820181905260609091015290565b81548183558181151161095c5760008381526020902061095c91810190830161083691905b808211156114ab5760008155600101611497565b5090565b60018060007f095ea7b3000000000000000000000000000000000000000000000000000000006040517f6973417070726f76656428616464726573732c616464726573732c75696e743281527f3536290000000000000000000000000000000000000000000000000000000000602082015260230160405180910390206040517f6973417070726f76656428616464726573732c616464726573732900000000008152601b016040519081900390207f6352211e000000000000000000000000000000000000000000000000000000007f70a08231000000000000000000000000000000000000000000000000000000007fa22cb465000000000000000000000000000000000000000000000000000000007f18160ddd000000000000000000000000000000000000000000000000000000006040517f7472616e7366657246726f6d28616464726573732c616464726573732c75696e81527f743235362c6279746573290000000000000000000000000000000000000000006020820152602b0160405180910390206040517f7472616e7366657246726f6d28616464726573732c616464726573732c75696e81527f743235362900000000000000000000000000000000000000000000000000000060208201526025016040519081900390207f01ffc9a7000000000000000000000000000000000000000000000000000000009118919091189190911891909118919091189190911891909118919091188118600160e060020a031916825260208083019390935260409091016000908120805460ff19908116951515959095179055526001908190527fb45820386466a8e01597d6e1efaf8f11ba4467972de5ca6c1f8aa3544ac2888e80549092161790555600a165627a7a72305820c9de25ec826a1955ec0bac420e8c40f8237b0bf9a67e5f9a6916b13ac7ffc1f400297472616e7366657246726f6d28616464726573732c616464726573732c75696e",
  "source": "pragma solidity ^0.4.18;\r\n\r\nimport \"./ERC721.sol\";\r\n\r\n/**\r\n*@title PhotoBase\r\n* Base contract for Photocoin. Holds all common structs, events and base variables.\r\n*/\r\ncontract PhotoBase is ERC721{\r\n    /***VARIABLES***/\r\n    address public owner; //The owner of the contract\r\n    address public marketContract; //The addresss of the official marketplace contract\r\n    address public auctionContract; //The addresss of the official auction contract\r\n    bool public allowUploads;\r\n\r\n    /*** DATA TYPES ***/\r\n    /// @dev The main Photo struct\r\n    struct Photo {\r\n        string name;//Name of photograph\r\n        string photographer;//Name of photographer\r\n        bytes32 photoHash; //Hash of photo\r\n        uint256 isenNumber;// The unique ISEN number\r\n        uint64 uploadTime;// The timestamp from the block when this came into existence\r\n    }\r\n    /*** STORAGE ***/\r\n    mapping(uint256 => Photo) photos;//A mapping from photoId to the details of the photo\r\n    mapping(address => bool) whitelist;// A list of addresses approved to trade\r\n    bool public whitelistOn;\r\n\r\n    /***MODIFIERS***/\r\n    /// @dev Access modifier for Owner functionality\r\n    modifier onlyOwner() {\r\n        require(msg.sender == owner);\r\n        _;\r\n    }\r\n\r\n    /*** EVENTS ***/\r\n    /// @dev The Upload event is fired whenever a new photo is uploaded\r\n    event Upload(address indexed _owner, uint256 _photoId,bytes32 _photoHash, string _name, string _photographer, uint _isenNumber);\r\n\r\n\r\n    /***FUNCTIONS***/\r\n    /**\r\n    *@dev allows the owner to set the owner of the contract\r\n    *@param _owner is the address of the new owner\r\n    */\r\n    function setOwner(address _owner) public onlyOwner() {\r\n        owner = _owner;\r\n    }\r\n\r\n    /**\r\n    *@dev allows the owner to set the official marketplace of the token\r\n    *@param _market is the address of the PhotoMarket contract\r\n    */\r\n    function setMarket(address _market) public onlyOwner() {\r\n        marketContract = _market;\r\n    }\r\n    /**\r\n    *@dev allows the owner to set the official auction of the token\r\n    *@param _market is the address of the PhotoMarket contract\r\n    */\r\n    function setAuction(address _auction) public onlyOwner() {\r\n        auctionContract = _auction;\r\n    }\r\n\r\n    /**\r\n    *@dev allows the owner to manage the whitelist\r\n    *@param _user is the user to allow to trade\r\n    */\r\n    function setWhitelist(address _user, bool _trueorfalse) public onlyOwner() {\r\n        whitelist[_user] = _trueorfalse;\r\n    }\r\n\r\n\r\n    /**\r\n    *@dev allows users to query whether an address is whitelisted\r\n    *@param _user is the user to allow to trade\r\n    *@return bool is whether a user is allowed to trade\r\n    */\r\n    function isWhitelist(address _user) public view returns(bool){\r\n        return whitelist[_user];\r\n    }\r\n\r\n        /**\r\n    *@dev allows users to query whether parties need to be whitelisted\r\n    */\r\n    function toggleWhitelist() public onlyOwner() returns(bool){\r\n        whitelistOn = !whitelistOn;\r\n        return whitelistOn;\r\n    }\r\n\r\n    /**\r\n    *@dev allows for the details of the photo to be viewed\r\n    *@param _tokenId is the address of the new owner\r\n    *@return string  name\r\n    *@return string photographer\r\n    *@return uint256 isenNumber\r\n    *@return uint64 uploadTime\r\n    */\r\n    function getPhoto(uint _tokenId) public view returns(string,string,uint256, uint64){\r\n        Photo memory _photo = photos[_tokenId];\r\n        return (_photo.name,_photo.photographer,_photo.isenNumber,_photo.uploadTime);\r\n    }\r\n\r\n  /**\r\n   * @dev This overwrites the transferFrom function to allow the market/auction contract to interact\r\n   * @param _from is the address that the token will be sent from\r\n   * @param _to is the address we are sending the token to\r\n   * @param _tokenId the numeric identifier of a token\r\n  */\r\n  function transferFrom(address _from, address _to, uint256 _tokenId)  public{\r\n    require((_from == address(0) && allowUploads) ||\r\n        (msg.sender == owner && _from == address(0)) ||\r\n         isApproved(msg.sender,_from) ||\r\n          isApproved(msg.sender,_from,_tokenId) ||\r\n           ownerOf(_tokenId)==msg.sender ||\r\n            msg.sender==marketContract ||\r\n             msg.sender==auctionContract);\r\n    require(!whitelistOn || whitelist[_to] == true);\r\n    clearApprovalAndTransfer(_from,_to,_tokenId);\r\n  }\r\n}\r\n",
  "sourcePath": "C:\\Nick\\consulting\\photocoin\\contracts\\PhotoBase.sol",
  "compiler": {
    "name": "solc",
    "version": "0.4.19+commit.c4cbbb05.Emscripten.clang"
  },
  "schemaVersion": "1.0.1",
  "updatedAt": "2018-04-04T02:00:29.096Z"
}