{
  "contractName": "testAuction",
  "abi": [
    {
      "constant": true,
      "inputs": [
        {
          "name": "",
          "type": "address"
        }
      ],
      "name": "pendingReturns",
      "outputs": [
        {
          "name": "",
          "type": "uint256"
        }
      ],
      "payable": false,
      "stateMutability": "view",
      "type": "function"
    },
    {
      "constant": true,
      "inputs": [
        {
          "name": "",
          "type": "uint256"
        }
      ],
      "name": "auctionIndex",
      "outputs": [
        {
          "name": "",
          "type": "uint256"
        }
      ],
      "payable": false,
      "stateMutability": "view",
      "type": "function"
    },
    {
      "constant": true,
      "inputs": [
        {
          "name": "",
          "type": "uint256"
        }
      ],
      "name": "auctions",
      "outputs": [
        {
          "name": "tokenId",
          "type": "uint256"
        },
        {
          "name": "highestBidder",
          "type": "address"
        },
        {
          "name": "highestBid",
          "type": "uint256"
        },
        {
          "name": "ended",
          "type": "bool"
        },
        {
          "name": "auctionEnd",
          "type": "uint256"
        }
      ],
      "payable": false,
      "stateMutability": "view",
      "type": "function"
    },
    {
      "constant": true,
      "inputs": [],
      "name": "owner",
      "outputs": [
        {
          "name": "",
          "type": "address"
        }
      ],
      "payable": false,
      "stateMutability": "view",
      "type": "function"
    },
    {
      "inputs": [],
      "payable": false,
      "stateMutability": "nonpayable",
      "type": "constructor"
    },
    {
      "payable": true,
      "stateMutability": "payable",
      "type": "fallback"
    },
    {
      "anonymous": false,
      "inputs": [
        {
          "indexed": false,
          "name": "_token",
          "type": "uint256"
        },
        {
          "indexed": false,
          "name": "bidder",
          "type": "address"
        },
        {
          "indexed": false,
          "name": "amount",
          "type": "uint256"
        }
      ],
      "name": "HighestBidIncreased",
      "type": "event"
    },
    {
      "anonymous": false,
      "inputs": [
        {
          "indexed": false,
          "name": "_token",
          "type": "uint256"
        },
        {
          "indexed": false,
          "name": "winner",
          "type": "address"
        },
        {
          "indexed": false,
          "name": "amount",
          "type": "uint256"
        }
      ],
      "name": "AuctionEnded",
      "type": "event"
    },
    {
      "constant": false,
      "inputs": [
        {
          "name": "_biddingTime",
          "type": "uint256"
        },
        {
          "name": "_token",
          "type": "uint256"
        }
      ],
      "name": "setAuction",
      "outputs": [],
      "payable": false,
      "stateMutability": "nonpayable",
      "type": "function"
    },
    {
      "constant": false,
      "inputs": [
        {
          "name": "_token",
          "type": "uint256"
        }
      ],
      "name": "bid",
      "outputs": [],
      "payable": true,
      "stateMutability": "payable",
      "type": "function"
    },
    {
      "constant": false,
      "inputs": [],
      "name": "withdraw",
      "outputs": [
        {
          "name": "",
          "type": "bool"
        }
      ],
      "payable": false,
      "stateMutability": "nonpayable",
      "type": "function"
    },
    {
      "constant": false,
      "inputs": [
        {
          "name": "_token",
          "type": "uint256"
        }
      ],
      "name": "endAuction",
      "outputs": [],
      "payable": false,
      "stateMutability": "nonpayable",
      "type": "function"
    },
    {
      "constant": true,
      "inputs": [
        {
          "name": "_token",
          "type": "uint256"
        }
      ],
      "name": "getHighestBid",
      "outputs": [
        {
          "name": "",
          "type": "uint256"
        }
      ],
      "payable": false,
      "stateMutability": "view",
      "type": "function"
    },
    {
      "constant": true,
      "inputs": [
        {
          "name": "_token",
          "type": "uint256"
        }
      ],
      "name": "getHighestBidder",
      "outputs": [
        {
          "name": "",
          "type": "address"
        }
      ],
      "payable": false,
      "stateMutability": "view",
      "type": "function"
    },
    {
      "constant": true,
      "inputs": [
        {
          "name": "_token",
          "type": "uint256"
        }
      ],
      "name": "getAuctionEnd",
      "outputs": [
        {
          "name": "",
          "type": "uint256"
        }
      ],
      "payable": false,
      "stateMutability": "view",
      "type": "function"
    },
    {
      "constant": true,
      "inputs": [
        {
          "name": "_token",
          "type": "uint256"
        }
      ],
      "name": "getEnded",
      "outputs": [
        {
          "name": "",
          "type": "bool"
        }
      ],
      "payable": false,
      "stateMutability": "view",
      "type": "function"
    },
    {
      "constant": true,
      "inputs": [],
      "name": "getNumberofAuctions",
      "outputs": [
        {
          "name": "",
          "type": "uint256"
        }
      ],
      "payable": false,
      "stateMutability": "view",
      "type": "function"
    },
    {
      "constant": false,
      "inputs": [
        {
          "name": "_token",
          "type": "address"
        }
      ],
      "name": "setToken",
      "outputs": [],
      "payable": false,
      "stateMutability": "nonpayable",
      "type": "function"
    },
    {
      "constant": false,
      "inputs": [
        {
          "name": "_owner",
          "type": "address"
        }
      ],
      "name": "setOwner",
      "outputs": [],
      "payable": false,
      "stateMutability": "nonpayable",
      "type": "function"
    }
  ],
  "bytecode": "0x6060604052341561000f57600080fd5b336000806101000a81548173ffffffffffffffffffffffffffffffffffffffff021916908373ffffffffffffffffffffffffffffffffffffffff16021790555060028054806001018281610063919061016a565b9160005260206000209060050201600060a060405190810160405280600081526020016000809054906101000a900473ffffffffffffffffffffffffffffffffffffffff1673ffffffffffffffffffffffffffffffffffffffff16815260200160008152602001600015158152602001600081525090919091506000820151816000015560208201518160010160006101000a81548173ffffffffffffffffffffffffffffffffffffffff021916908373ffffffffffffffffffffffffffffffffffffffff1602179055506040820151816002015560608201518160030160006101000a81548160ff0219169083151502179055506080820151816004015550505061020e565b81548183558181151161019757600502816005028360005260206000209182019101610196919061019c565b5b505050565b61020b91905b80821115610207576000808201600090556001820160006101000a81549073ffffffffffffffffffffffffffffffffffffffff021916905560028201600090556003820160006101000a81549060ff02191690556004820160009055506005016101a2565b5090565b90565b6115b0806200021e6000396000f3006060604052600436106100db576000357c0100000000000000000000000000000000000000000000000000000000900463ffffffff168063042a6185146100ec57806313af403514610127578063144fa6d71461016057806326b387bb146101995780633ccfd60b146101e6578063454a2ab3146102135780634b3e4f0d1461022b5780634fd829f214610257578063571a26a01461028e5780638da5cb5b146103115780638f28864414610366578063ab8d53821461039d578063b9a2de3a146103c6578063c750cb79146103e9578063eda892791461044c575b6000341415156100ea57600080fd5b005b34156100f757600080fd5b61010d6004808035906020019091905050610483565b604051808215151515815260200191505060405180910390f35b341561013257600080fd5b61015e600480803573ffffffffffffffffffffffffffffffffffffffff16906020019091905050610567565b005b341561016b57600080fd5b610197600480803573ffffffffffffffffffffffffffffffffffffffff16906020019091905050610605565b005b34156101a457600080fd5b6101d0600480803573ffffffffffffffffffffffffffffffffffffffff169060200190919050506106a4565b6040518082815260200191505060405180910390f35b34156101f157600080fd5b6101f96106bc565b604051808215151515815260200191505060405180910390f35b61022960048080359060200190919050506107e1565b005b341561023657600080fd5b6102556004808035906020019091908035906020019091905050610aa0565b005b341561026257600080fd5b6102786004808035906020019091905050610d3e565b6040518082815260200191505060405180910390f35b341561029957600080fd5b6102af6004808035906020019091905050610d56565b604051808681526020018573ffffffffffffffffffffffffffffffffffffffff1673ffffffffffffffffffffffffffffffffffffffff168152602001848152602001831515151581526020018281526020019550505050505060405180910390f35b341561031c57600080fd5b610324610dc8565b604051808273ffffffffffffffffffffffffffffffffffffffff1673ffffffffffffffffffffffffffffffffffffffff16815260200191505060405180910390f35b341561037157600080fd5b6103876004808035906020019091905050610ded565b6040518082815260200191505060405180910390f35b34156103a857600080fd5b6103b0610ed1565b6040518082815260200191505060405180910390f35b34156103d157600080fd5b6103e76004808035906020019091905050610ede565b005b34156103f457600080fd5b61040a60048080359060200190919050506112d0565b604051808273ffffffffffffffffffffffffffffffffffffffff1673ffffffffffffffffffffffffffffffffffffffff16815260200191505060405180910390f35b341561045757600080fd5b61046d60048080359060200190919050506113b4565b6040518082815260200191505060405180910390f35b600061048d611498565b600260036000858152602001908152602001600020548154811015156104af57fe5b906000526020600020906005020160a06040519081016040529081600082015481526020016001820160009054906101000a900473ffffffffffffffffffffffffffffffffffffffff1673ffffffffffffffffffffffffffffffffffffffff1673ffffffffffffffffffffffffffffffffffffffff168152602001600282015481526020016003820160009054906101000a900460ff1615151515815260200160048201548152505090508060600151915050919050565b6000809054906101000a900473ffffffffffffffffffffffffffffffffffffffff1673ffffffffffffffffffffffffffffffffffffffff163373ffffffffffffffffffffffffffffffffffffffff161415156105c257600080fd5b806000806101000a81548173ffffffffffffffffffffffffffffffffffffffff021916908373ffffffffffffffffffffffffffffffffffffffff16021790555050565b6000809054906101000a900473ffffffffffffffffffffffffffffffffffffffff1673ffffffffffffffffffffffffffffffffffffffff163373ffffffffffffffffffffffffffffffffffffffff1614151561066057600080fd5b80600160006101000a81548173ffffffffffffffffffffffffffffffffffffffff021916908373ffffffffffffffffffffffffffffffffffffffff16021790555050565b60046020528060005260406000206000915090505481565b600080600460003373ffffffffffffffffffffffffffffffffffffffff1673ffffffffffffffffffffffffffffffffffffffff16815260200190815260200160002054905060008111156107d8576000600460003373ffffffffffffffffffffffffffffffffffffffff1673ffffffffffffffffffffffffffffffffffffffff168152602001908152602001600020819055503373ffffffffffffffffffffffffffffffffffffffff166108fc829081150290604051600060405180830381858888f1935050505015156107d75780600460003373ffffffffffffffffffffffffffffffffffffffff1673ffffffffffffffffffffffffffffffffffffffff16815260200190815260200160002081905550600091506107dd565b5b600191505b5090565b6107e9611498565b6002600360008481526020019081526020016000205481548110151561080b57fe5b906000526020600020906005020160a06040519081016040529081600082015481526020016001820160009054906101000a900473ffffffffffffffffffffffffffffffffffffffff1673ffffffffffffffffffffffffffffffffffffffff1673ffffffffffffffffffffffffffffffffffffffff168152602001600282015481526020016003820160009054906101000a900460ff1615151515815260200160048201548152505090508060400151341115156108c857600080fd5b6000816040015114151561092c57806040015160046000836020015173ffffffffffffffffffffffffffffffffffffffff1673ffffffffffffffffffffffffffffffffffffffff168152602001908152602001600020600082825401925050819055505b60a0604051908101604052808381526020013373ffffffffffffffffffffffffffffffffffffffff16815260200134815260200160001515815260200182608001518152506002600360008581526020019081526020016000205481548110151561099357fe5b90600052602060002090600502016000820151816000015560208201518160010160006101000a81548173ffffffffffffffffffffffffffffffffffffffff021916908373ffffffffffffffffffffffffffffffffffffffff1602179055506040820151816002015560608201518160030160006101000a81548160ff021916908315150217905550608082015181600401559050507fda0a18da71d8ebd145966339a728fc0d8ccc07c22870d561890d823c515dda6b823334604051808481526020018373ffffffffffffffffffffffffffffffffffffffff1673ffffffffffffffffffffffffffffffffffffffff168152602001828152602001935050505060405180910390a15050565b6000809054906101000a900473ffffffffffffffffffffffffffffffffffffffff1673ffffffffffffffffffffffffffffffffffffffff163373ffffffffffffffffffffffffffffffffffffffff16141515610afb57600080fd5b600280549050600360008381526020019081526020016000208190555060028054806001018281610b2c91906114e0565b9160005260206000209060050201600060a0604051908101604052808581526020016000809054906101000a900473ffffffffffffffffffffffffffffffffffffffff1673ffffffffffffffffffffffffffffffffffffffff1681526020016000815260200160001515815260200186420181525090919091506000820151816000015560208201518160010160006101000a81548173ffffffffffffffffffffffffffffffffffffffff021916908373ffffffffffffffffffffffffffffffffffffffff1602179055506040820151816002015560608201518160030160006101000a81548160ff02191690831515021790555060808201518160040155505050600160009054906101000a900473ffffffffffffffffffffffffffffffffffffffff1673ffffffffffffffffffffffffffffffffffffffff166323b872dd3330846040518463ffffffff167c0100000000000000000000000000000000000000000000000000000000028152600401808473ffffffffffffffffffffffffffffffffffffffff1673ffffffffffffffffffffffffffffffffffffffff1681526020018373ffffffffffffffffffffffffffffffffffffffff1673ffffffffffffffffffffffffffffffffffffffff1681526020018281526020019350505050600060405180830381600087803b1515610d2657600080fd5b6102c65a03f11515610d3757600080fd5b5050505050565b60036020528060005260406000206000915090505481565b600281815481101515610d6557fe5b90600052602060002090600502016000915090508060000154908060010160009054906101000a900473ffffffffffffffffffffffffffffffffffffffff16908060020154908060030160009054906101000a900460ff16908060040154905085565b6000809054906101000a900473ffffffffffffffffffffffffffffffffffffffff1681565b6000610df7611498565b60026003600085815260200190815260200160002054815481101515610e1957fe5b906000526020600020906005020160a06040519081016040529081600082015481526020016001820160009054906101000a900473ffffffffffffffffffffffffffffffffffffffff1673ffffffffffffffffffffffffffffffffffffffff1673ffffffffffffffffffffffffffffffffffffffff168152602001600282015481526020016003820160009054906101000a900460ff1615151515815260200160048201548152505090508060400151915050919050565b6000600280549050905090565b610ee6611498565b60026003600084815260200190815260200160002054815481101515610f0857fe5b906000526020600020906005020160a06040519081016040529081600082015481526020016001820160009054906101000a900473ffffffffffffffffffffffffffffffffffffffff1673ffffffffffffffffffffffffffffffffffffffff1673ffffffffffffffffffffffffffffffffffffffff168152602001600282015481526020016003820160009054906101000a900460ff1615151515815260200160048201548152505090506000151581606001511515141515610fca57600080fd5b60a060405190810160405280838152602001826020015173ffffffffffffffffffffffffffffffffffffffff1681526020018260400151815260200160011515815260200182608001518152506002600360008581526020019081526020016000205481548110151561103957fe5b90600052602060002090600502016000820151816000015560208201518160010160006101000a81548173ffffffffffffffffffffffffffffffffffffffff021916908373ffffffffffffffffffffffffffffffffffffffff1602179055506040820151816002015560608201518160030160006101000a81548160ff021916908315150217905550608082015181600401559050507fd2aa34a4fdbbc6dff6a3e56f46e0f3ae2a31d7785ff3487aa5c95c642acea5018282602001518360400151604051808481526020018373ffffffffffffffffffffffffffffffffffffffff1673ffffffffffffffffffffffffffffffffffffffff168152602001828152602001935050505060405180910390a1600160009054906101000a900473ffffffffffffffffffffffffffffffffffffffff1673ffffffffffffffffffffffffffffffffffffffff166323b872dd308360200151856040518463ffffffff167c0100000000000000000000000000000000000000000000000000000000028152600401808473ffffffffffffffffffffffffffffffffffffffff1673ffffffffffffffffffffffffffffffffffffffff1681526020018373ffffffffffffffffffffffffffffffffffffffff1673ffffffffffffffffffffffffffffffffffffffff1681526020018281526020019350505050600060405180830381600087803b151561124657600080fd5b6102c65a03f1151561125757600080fd5b5050508060400151600460008060009054906101000a900473ffffffffffffffffffffffffffffffffffffffff1673ffffffffffffffffffffffffffffffffffffffff1673ffffffffffffffffffffffffffffffffffffffff168152602001908152602001600020600082825401925050819055505050565b60006112da611498565b600260036000858152602001908152602001600020548154811015156112fc57fe5b906000526020600020906005020160a06040519081016040529081600082015481526020016001820160009054906101000a900473ffffffffffffffffffffffffffffffffffffffff1673ffffffffffffffffffffffffffffffffffffffff1673ffffffffffffffffffffffffffffffffffffffff168152602001600282015481526020016003820160009054906101000a900460ff1615151515815260200160048201548152505090508060200151915050919050565b60006113be611498565b600260036000858152602001908152602001600020548154811015156113e057fe5b906000526020600020906005020160a06040519081016040529081600082015481526020016001820160009054906101000a900473ffffffffffffffffffffffffffffffffffffffff1673ffffffffffffffffffffffffffffffffffffffff1673ffffffffffffffffffffffffffffffffffffffff168152602001600282015481526020016003820160009054906101000a900460ff1615151515815260200160048201548152505090508060800151915050919050565b60a06040519081016040528060008152602001600073ffffffffffffffffffffffffffffffffffffffff16815260200160008152602001600015158152602001600081525090565b81548183558181151161150d5760050281600502836000526020600020918201910161150c9190611512565b5b505050565b61158191905b8082111561157d576000808201600090556001820160006101000a81549073ffffffffffffffffffffffffffffffffffffffff021916905560028201600090556003820160006101000a81549060ff0219169055600482016000905550600501611518565b5090565b905600a165627a7a72305820931c01765f47878c64fb76a761204348623ed72fd817760181c5a3112fa936970029",
  "source": "pragma solidity ^0.4.18; \r\n\r\n/*This is the test auction contract, \r\neverything should be the same except time constraints are removed*/\r\n\r\nimport \"../PhotoCore.sol\";\r\n\r\ncontract testAuction {\r\n    /***VARIABLES***/\r\n    address public owner; //owner of the contracts\r\n    PhotoCore token; //The PhotoCore contract for linking to the Photocoin token\r\n\r\n\r\n    /// @dev The main Photo struct\r\n    struct Details {\r\n        uint tokenId;\r\n        address highestBidder;//Name of photograph\r\n        uint highestBid;//Name of photographer\r\n        bool ended;\r\n        uint auctionEnd; //Hash of photo\r\n     }\r\n\r\n    /***STORAGE***/\r\n    Details[] public auctions;//an array of all auctions\r\n    mapping(uint => uint) public auctionIndex; //Gets position of a token in the auction array\r\n    mapping(address => uint) public pendingReturns;//maps addresses to the amount they can withdraw form the contract\r\n\r\n    /***EVENTS***/\r\n    //event that indicates that the highest bid for a token has increased\r\n    event HighestBidIncreased(uint256 _token, address bidder, uint amount);\r\n    //event that indicates that an auction for a token has ended\r\n    event AuctionEnded(uint256 _token, address winner, uint amount);\r\n\r\n    /***MODIFIERS***/\r\n    /// @dev Access modifier for Owner functionality\r\n    modifier onlyOwner() {\r\n        require(msg.sender == owner);\r\n        _;\r\n    }\r\n\r\n    /***FUNCTIONS***/\r\n    /**\r\n    *@dev Constructor function to set the owner and initialize the array\r\n    */\r\n    function testAuction () public {\r\n        owner = msg.sender;\r\n        auctions.push(Details({\r\n            tokenId:0,\r\n            highestBidder: owner,\r\n            highestBid: 0,\r\n            ended: false,\r\n            auctionEnd: 0\r\n        }));\r\n    }\r\n    \r\n        /*\r\n    *@dev The fallback function to prevent money from being sent to the contract\r\n    */\r\n    function()  payable public{\r\n        require(msg.value == 0);\r\n    }\r\n\r\n    /**\r\n    *@dev allows the owner to create an auction for a token\r\n    *@param _biddingTime is a uint that represeents how long the auction lasts (UNIX time, 86400 is one day)\r\n    *@param _token the unique tokenId\r\n    */\r\n    function setAuction(uint _biddingTime,uint256 _token) public onlyOwner() {\r\n        auctionIndex[_token] = auctions.length;\r\n        auctions.push(Details({\r\n            tokenId: _token,\r\n            highestBidder: owner,\r\n            highestBid: 0,\r\n            ended: false,\r\n            auctionEnd: now + _biddingTime\r\n            }));\r\n        token.transferFrom(msg.sender,address(this),_token);\r\n    }\r\n\r\n    /**\r\n    *@dev allows a party to place a bid for a certain token\r\n    *@param _token the unique tokenId\r\n    */\r\n    function bid(uint256 _token) public payable {\r\n\r\n        Details memory _auction = auctions[auctionIndex[_token]];\r\n        //require(now <= _auction.auctionEnd);\r\n        require(msg.value > _auction.highestBid);\r\n        if (_auction.highestBid != 0) {\r\n            pendingReturns[_auction.highestBidder] += _auction.highestBid;\r\n        }\r\n        auctions[auctionIndex[_token]] = Details({\r\n            tokenId: _token,\r\n            highestBidder: msg.sender,\r\n            highestBid: msg.value,\r\n            ended: false,\r\n            auctionEnd: _auction.auctionEnd\r\n            });\r\n        HighestBidIncreased(_token,msg.sender, msg.value);\r\n    }\r\n\r\n    /**\r\n    *@dev allows any party to withdraw the funds owed to them in the contract\r\n    */\r\n    function withdraw() public returns (bool) {\r\n        uint amount = pendingReturns[msg.sender];\r\n        if (amount > 0) {\r\n            pendingReturns[msg.sender] = 0;\r\n            if (!msg.sender.send(amount)) {\r\n                pendingReturns[msg.sender] = amount;\r\n                return false;\r\n            }\r\n        }\r\n        return true;\r\n    }\r\n\r\n    /**\r\n    *@dev allows anyone to end the auction once the end date is reached\r\n    *@param _token the unique tokenId\r\n    */\r\n    function endAuction(uint _token) public {\r\n        Details memory _auction = auctions[auctionIndex[_token]];\r\n        //require(now > _auction.auctionEnd);\r\n        require(_auction.ended == false);\r\n        auctions[auctionIndex[_token]] = Details({\r\n            tokenId: _token,\r\n            highestBidder: _auction.highestBidder,\r\n            highestBid: _auction.highestBid,\r\n            ended: true,\r\n            auctionEnd: _auction.auctionEnd\r\n        });\r\n        AuctionEnded(_token,_auction.highestBidder,_auction.highestBid);\r\n        token.transferFrom(address(this),_auction.highestBidder, _token);\r\n        pendingReturns[owner] += _auction.highestBid;\r\n    }\r\n\r\n    /**\r\n    *@dev allows parties to query the current highest bid in a token auction\r\n    *@param _token the unique tokenId\r\n    */\r\n    function getHighestBid(uint _token) public constant returns(uint){\r\n        Details memory _auction = auctions[auctionIndex[_token]];\r\n        return _auction.highestBid;\r\n    }\r\n\r\n    /**\r\n    *@dev allows parties to query the current highest bidder in a token auction\r\n    *@param _token the unique tokenId\r\n    */\r\n    function getHighestBidder(uint _token) public constant returns(address){\r\n        Details memory _auction = auctions[auctionIndex[_token]];\r\n        return _auction.highestBidder;\r\n    }\r\n\r\n    /**\r\n    *@dev allows parties to query the end time of a token auction\r\n    *@param _token the unique tokenId\r\n    */\r\n    function getAuctionEnd(uint _token) public constant returns(uint){\r\n        Details memory _auction = auctions[auctionIndex[_token]];\r\n        return _auction.auctionEnd;\r\n    }\r\n\r\n    /**\r\n    *@dev allows parties to query if an auction has ended\r\n    *@param _token the unique tokenId\r\n    */\r\n    function getEnded(uint _token) public constant returns(bool){\r\n        Details memory _auction = auctions[auctionIndex[_token]];\r\n        return _auction.ended;\r\n    }\r\n\r\n    /**\r\n    *@dev allows parties to query how many auctions are ongoing\r\n    *@param _token the unique tokenId\r\n    */\r\n    function getNumberofAuctions() public constant returns(uint){\r\n        return auctions.length;\r\n    }\r\n    /*\r\n    *@dev allows the owner to set the address of the PhotoCoin token\r\n    *@param _token address of the PhotoCoin token (PhotoCore.sol)\r\n    */\r\n    function setToken(address _token) public onlyOwner() {\r\n        token = PhotoCore(_token);\r\n    }\r\n    /*\r\n    *@dev allows the owner to change who the owner is\r\n    *@param _owner is the address of the new owner\r\n    */\r\n    function setOwner(address _owner) public onlyOwner() {\r\n        owner = _owner;\r\n    }\r\n}",
  "sourcePath": "C:\\Nick\\consulting\\photocoin\\contracts\\testcontracts\\testAuction.sol",
  "compiler": {
    "name": "solc",
    "version": "0.4.19+commit.c4cbbb05.Emscripten.clang"
  },
  "schemaVersion": "1.0.1",
  "updatedAt": "2018-03-19T03:03:11.183Z"
}