{
  "contractName": "testAuction",
  "abi": [
    {
      "constant": true,
      "inputs": [
        {
          "name": "",
          "type": "address"
        }
      ],
      "name": "pendingReturns",
      "outputs": [
        {
          "name": "",
          "type": "uint256"
        }
      ],
      "payable": false,
      "stateMutability": "view",
      "type": "function"
    },
    {
      "constant": true,
      "inputs": [
        {
          "name": "",
          "type": "uint256"
        }
      ],
      "name": "auctionIndex",
      "outputs": [
        {
          "name": "",
          "type": "uint256"
        }
      ],
      "payable": false,
      "stateMutability": "view",
      "type": "function"
    },
    {
      "constant": true,
      "inputs": [
        {
          "name": "",
          "type": "uint256"
        }
      ],
      "name": "auctions",
      "outputs": [
        {
          "name": "tokenId",
          "type": "uint256"
        },
        {
          "name": "highestBidder",
          "type": "address"
        },
        {
          "name": "highestBid",
          "type": "uint256"
        },
        {
          "name": "ended",
          "type": "bool"
        },
        {
          "name": "auctionEnd",
          "type": "uint256"
        }
      ],
      "payable": false,
      "stateMutability": "view",
      "type": "function"
    },
    {
      "constant": true,
      "inputs": [],
      "name": "owner",
      "outputs": [
        {
          "name": "",
          "type": "address"
        }
      ],
      "payable": false,
      "stateMutability": "view",
      "type": "function"
    },
    {
      "inputs": [],
      "payable": false,
      "stateMutability": "nonpayable",
      "type": "constructor"
    },
    {
      "payable": true,
      "stateMutability": "payable",
      "type": "fallback"
    },
    {
      "anonymous": false,
      "inputs": [
        {
          "indexed": false,
          "name": "_token",
          "type": "uint256"
        },
        {
          "indexed": false,
          "name": "bidder",
          "type": "address"
        },
        {
          "indexed": false,
          "name": "amount",
          "type": "uint256"
        }
      ],
      "name": "HighestBidIncreased",
      "type": "event"
    },
    {
      "anonymous": false,
      "inputs": [
        {
          "indexed": false,
          "name": "_token",
          "type": "uint256"
        },
        {
          "indexed": false,
          "name": "winner",
          "type": "address"
        },
        {
          "indexed": false,
          "name": "amount",
          "type": "uint256"
        }
      ],
      "name": "AuctionEnded",
      "type": "event"
    },
    {
      "constant": false,
      "inputs": [
        {
          "name": "_biddingTime",
          "type": "uint256"
        },
        {
          "name": "_token",
          "type": "uint256"
        }
      ],
      "name": "setAuction",
      "outputs": [],
      "payable": false,
      "stateMutability": "nonpayable",
      "type": "function"
    },
    {
      "constant": false,
      "inputs": [
        {
          "name": "_token",
          "type": "uint256"
        }
      ],
      "name": "bid",
      "outputs": [],
      "payable": true,
      "stateMutability": "payable",
      "type": "function"
    },
    {
      "constant": false,
      "inputs": [],
      "name": "withdraw",
      "outputs": [
        {
          "name": "",
          "type": "bool"
        }
      ],
      "payable": false,
      "stateMutability": "nonpayable",
      "type": "function"
    },
    {
      "constant": false,
      "inputs": [
        {
          "name": "_token",
          "type": "uint256"
        }
      ],
      "name": "endAuction",
      "outputs": [],
      "payable": false,
      "stateMutability": "nonpayable",
      "type": "function"
    },
    {
      "constant": true,
      "inputs": [
        {
          "name": "_token",
          "type": "uint256"
        }
      ],
      "name": "getHighestBid",
      "outputs": [
        {
          "name": "",
          "type": "uint256"
        }
      ],
      "payable": false,
      "stateMutability": "view",
      "type": "function"
    },
    {
      "constant": true,
      "inputs": [
        {
          "name": "_token",
          "type": "uint256"
        }
      ],
      "name": "getHighestBidder",
      "outputs": [
        {
          "name": "",
          "type": "address"
        }
      ],
      "payable": false,
      "stateMutability": "view",
      "type": "function"
    },
    {
      "constant": true,
      "inputs": [
        {
          "name": "_token",
          "type": "uint256"
        }
      ],
      "name": "getAuctionEnd",
      "outputs": [
        {
          "name": "",
          "type": "uint256"
        }
      ],
      "payable": false,
      "stateMutability": "view",
      "type": "function"
    },
    {
      "constant": true,
      "inputs": [],
      "name": "getNumberofAuctions",
      "outputs": [
        {
          "name": "",
          "type": "uint256"
        }
      ],
      "payable": false,
      "stateMutability": "view",
      "type": "function"
    },
    {
      "constant": false,
      "inputs": [
        {
          "name": "_token",
          "type": "address"
        }
      ],
      "name": "setToken",
      "outputs": [],
      "payable": false,
      "stateMutability": "nonpayable",
      "type": "function"
    },
    {
      "constant": false,
      "inputs": [
        {
          "name": "_owner",
          "type": "address"
        }
      ],
      "name": "setOwner",
      "outputs": [],
      "payable": false,
      "stateMutability": "nonpayable",
      "type": "function"
    }
  ],
  "bytecode": "0x6060604052341561000f57600080fd5b60008054600160a060020a03191633600160a060020a0316179055600280546001810161003c83826100e2565b9160005260206000209060050201600060a0604051908101604090815260008083528054600160a060020a03166020840152908201819052606082018190526080820152919050815181556020820151600182018054600160a060020a031916600160a060020a039290921691909117905560408201518160020155606082015160038201805460ff19169115159190911790556080820151816004015550505061015f565b81548183558181151161010e5760050281600502836000526020600020918201910161010e9190610113565b505050565b61015c91905b80821115610158576000808255600182018054600160a060020a03191690556002820181905560038201805460ff191690556004820155600501610119565b5090565b90565b610d5d8061016e6000396000f3006060604052600436106100b65763ffffffff60e060020a60003504166313af403581146100c3578063144fa6d7146100e257806326b387bb146101015780633ccfd60b14610132578063454a2ab3146101595780634b3e4f0d146101645780634fd829f21461017d578063571a26a0146101935780638da5cb5b146101e45780638f28864414610213578063ab8d538214610229578063b9a2de3a1461023c578063c750cb7914610252578063eda8927914610268575b34156100c157600080fd5b005b34156100ce57600080fd5b6100c1600160a060020a036004351661027e565b34156100ed57600080fd5b6100c1600160a060020a03600435166102bb565b341561010c57600080fd5b610120600160a060020a03600435166102f8565b60405190815260200160405180910390f35b341561013d57600080fd5b61014561030a565b604051901515815260200160405180910390f35b6100c1600435610395565b341561016f57600080fd5b6100c160043560243561056b565b341561018857600080fd5b6101206004356106c6565b341561019e57600080fd5b6101a96004356106d8565b604051948552600160a060020a03909316602085015260408085019290925215156060840152608083019190915260a0909101905180910390f35b34156101ef57600080fd5b6101f7610727565b604051600160a060020a03909116815260200160405180910390f35b341561021e57600080fd5b610120600435610736565b341561023457600080fd5b6101206107bf565b341561024757600080fd5b6100c16004356107c6565b341561025d57600080fd5b6101f7600435610a18565b341561027357600080fd5b610120600435610aa4565b60005433600160a060020a0390811691161461029957600080fd5b60008054600160a060020a031916600160a060020a0392909216919091179055565b60005433600160a060020a039081169116146102d657600080fd5b60018054600160a060020a031916600160a060020a0392909216919091179055565b60046020526000908152604090205481565b600160a060020a0333166000908152600460205260408120548181111561038c57600160a060020a0333166000818152600460205260408082209190915582156108fc0290839051600060405180830381858888f19350505050151561038c57600160a060020a03331660009081526004602052604081208290559150610391565b600191505b5090565b61039d610c8d565b6000828152600360205260409020546002805490919081106103bb57fe5b906000526020600020906005020160a06040519081016040908152825482526001830154600160a060020a031660208301526002830154908201908152600383015460ff16151560608301526004909201546080820152915051341161042057600080fd5b806040015115610459578060400151600460008360200151600160a060020a031681526020810191909152604001600020805490910190555b60a06040519081016040528083815260200133600160a060020a03168152602001348152602001600015158152602001826080015190526000838152600360205260409020546002805490919081106104ae57fe5b9060005260206000209060050201600082015181556020820151600182018054600160a060020a031916600160a060020a039290921691909117905560408201518160020155606082015160038201805460ff19169115159190911790556080820151600490910155507fda0a18da71d8ebd145966339a728fc0d8ccc07c22870d561890d823c515dda6b823334604051928352600160a060020a0390911660208301526040808301919091526060909101905180910390a15050565b60005433600160a060020a0390811691161461058657600080fd5b600280546000838152600360205260409020819055600181016105a98382610cbb565b9160005260206000209060050201600060a0604051908101604090815285825260008054600160a060020a0316602084015290820181905260608201524286016080820152919050815181556020820151600182018054600160a060020a031916600160a060020a039290921691909117905560408201518160020155606082015160038201805460ff191691151591909117905560808201516004909101555050600154600160a060020a03166323b872dd33308460405160e060020a63ffffffff8616028152600160a060020a0393841660048201529190921660248201526044810191909152606401600060405180830381600087803b15156106ae57600080fd5b6102c65a03f115156106bf57600080fd5b5050505050565b60036020526000908152604090205481565b60028054829081106106e657fe5b600091825260209091206005909102018054600182015460028301546003840154600490940154929450600160a060020a0390911692909160ff9091169085565b600054600160a060020a031681565b6000610740610c8d565b60008381526003602052604090205460028054909190811061075e57fe5b906000526020600020906005020160a06040519081016040908152825482526001830154600160a060020a031660208301526002830154908201908152600383015460ff161515606083015260049092015460808201529150519392505050565b6002545b90565b6107ce610c8d565b6000828152600360205260409020546002805490919081106107ec57fe5b906000526020600020906005020160a06040519081016040908152825482526001830154600160a060020a03166020830152600283015490820152600382015460ff1615156060820190815260049092015460808201529150511561085057600080fd5b60a0604051908101604052808381526020018260200151600160a060020a031681526020018260400151815260016020820152604001608083015190526000838152600360205260409020546002805490919081106108ab57fe5b9060005260206000209060050201600082015181556020820151600182018054600160a060020a031916600160a060020a039290921691909117905560408201518160020155606082015160038201805460ff191691151591909117905560808201516004909101555061091e82610b2e565b7fd2aa34a4fdbbc6dff6a3e56f46e0f3ae2a31d7785ff3487aa5c95c642acea5018282602001518360400151604051928352600160a060020a0390911660208301526040808301919091526060909101905180910390a1600154600160a060020a03166323b872dd3060208401518560405160e060020a63ffffffff8616028152600160a060020a0393841660048201529190921660248201526044810191909152606401600060405180830381600087803b15156109dc57600080fd5b6102c65a03f115156109ed57600080fd5b505050806040015160008054600160a060020a03168152600460205260409020805490910190555050565b6000610a22610c8d565b600083815260036020526040902054600280549091908110610a4057fe5b906000526020600020906005020160a06040519081016040908152825482526001830154600160a060020a031660208301908152600284015491830191909152600383015460ff161515606083015260049092015460808201529150519392505050565b6000610aae610c8d565b600083815260036020526040902054600280549091908110610acc57fe5b906000526020600020906005020160a06040519081016040908152825482526001830154600160a060020a03166020830152600283015490820152600382015460ff161515606082015260049091015460808201908152909150519392505050565b600080610b39610c8d565b600084815260036020526040902054600254909350610b5f90600163ffffffff610c7b16565b60008181526003602052604090205460028054929450918110610b7e57fe5b906000526020600020906005020160a06040519081016040908152825482526001830154600160a060020a0316602083015260028084015491830191909152600383015460ff16151560608301526004909201546080820152815490925082919085908110610be957fe5b9060005260206000209060050201600082015181556020820151600182018054600160a060020a031916600160a060020a039290921691909117905560408201518160020155606082015160038201805460ff19169115159190911790556080820151600490910155506002805490610c66906000198301610cbb565b50505060009182525060036020526040812055565b600082821115610c8757fe5b50900390565b60a0604051908101604090815260008083526020830181905290820181905260608201819052608082015290565b815481835581811511610ce757600502816005028360005260206000209182019101610ce79190610cec565b505050565b6107c391905b80821115610391576000808255600182018054600160a060020a03191690556002820181905560038201805460ff191690556004820155600501610cf25600a165627a7a7230582004e69f0cf69813187e94d857fd579a7e96bf4e76762dd6833b5e1abd1835199c0029",
  "source": "pragma solidity ^0.4.18;\r\n/*This is the test auction contract, \r\neverything should be the same except time constraints are removed*/\r\nimport \"../PhotoCore.sol\";\r\nimport \"../library/SafeMath.sol\";\r\n\r\ncontract testAuction {\r\n    using SafeMath for uint256;\r\n    /***VARIABLES***/\r\n    address public owner; //owner of the contracts\r\n    PhotoCore token; //The PhotoCore contract for linking to the Photocoin token\r\n\r\n\r\n    /// @dev The main Photo struct\r\n    struct Details {\r\n        uint tokenId;\r\n        address highestBidder;//Name of photograph\r\n        uint highestBid;//Name of photographer\r\n        bool ended;\r\n        uint auctionEnd; //Hash of photo\r\n     }\r\n\r\n    /***STORAGE***/\r\n    Details[] public auctions;//an array of all auctions\r\n    mapping(uint => uint) public auctionIndex; //Gets position of a token in the auction array\r\n    mapping(address => uint) public pendingReturns;//maps addresses to the amount they can withdraw form the contract\r\n\r\n    /***EVENTS***/\r\n    //event that indicates that the highest bid for a token has increased\r\n    event HighestBidIncreased(uint256 _token, address bidder, uint amount);\r\n    //event that indicates that an auction for a token has ended\r\n    event AuctionEnded(uint256 _token, address winner, uint amount);\r\n\r\n    /***MODIFIERS***/\r\n    /// @dev Access modifier for Owner functionality\r\n    modifier onlyOwner() {\r\n        require(msg.sender == owner);\r\n        _;\r\n    }\r\n\r\n    /***FUNCTIONS***/\r\n    /**\r\n    *@dev Constructor function to set the owner and initialize the array\r\n    */\r\n    function testAuction () public {\r\n        owner = msg.sender;\r\n        auctions.push(Details({\r\n            tokenId:0,\r\n            highestBidder: owner,\r\n            highestBid: 0,\r\n            ended: false,\r\n            auctionEnd: 0\r\n        }));\r\n    }\r\n    \r\n    /*\r\n    *@dev The fallback function to prevent money from being sent to the contract\r\n    */\r\n    function()  payable public{\r\n        require(msg.value == 0);\r\n    }\r\n\r\n    /**\r\n    *@dev allows the owner to create an auction for a token\r\n    *@param _biddingTime is a uint that represeents how long the auction lasts (UNIX time, 86400 is one day)\r\n    *@param _token the unique tokenId\r\n    */\r\n    function setAuction(uint _biddingTime,uint256 _token) public onlyOwner() {\r\n        auctionIndex[_token] = auctions.length;\r\n        auctions.push(Details({\r\n            tokenId: _token,\r\n            highestBidder: owner,\r\n            highestBid: 0,\r\n            ended: false,\r\n            auctionEnd: now + _biddingTime\r\n            }));\r\n        token.transferFrom(msg.sender,address(this),_token);\r\n    }\r\n\r\n    /**\r\n    *@dev allows a party to place a bid for a certain token\r\n    *@param _token the unique tokenId\r\n    */\r\n    function bid(uint256 _token) public payable {\r\n\r\n        Details memory _auction = auctions[auctionIndex[_token]];\r\n        //require(now <= _auction.auctionEnd);\r\n        require(msg.value > _auction.highestBid);\r\n        if (_auction.highestBid != 0) {\r\n            pendingReturns[_auction.highestBidder] += _auction.highestBid;\r\n        }\r\n        auctions[auctionIndex[_token]] = Details({\r\n            tokenId: _token,\r\n            highestBidder: msg.sender,\r\n            highestBid: msg.value,\r\n            ended: false,\r\n            auctionEnd: _auction.auctionEnd\r\n            });\r\n        HighestBidIncreased(_token,msg.sender, msg.value);\r\n    }\r\n\r\n    /**\r\n    *@dev allows any party to withdraw the funds owed to them in the contract\r\n    */\r\n    function withdraw() public returns (bool) {\r\n        uint amount = pendingReturns[msg.sender];\r\n        if (amount > 0) {\r\n            pendingReturns[msg.sender] = 0;\r\n            if (!msg.sender.send(amount)) {\r\n                pendingReturns[msg.sender] = amount;\r\n                return false;\r\n            }\r\n        }\r\n        return true;\r\n    }\r\n\r\n    /**\r\n    *@dev allows anyone to end the auction once the end date is reached\r\n    *@param _token the unique tokenId\r\n    */\r\n    function endAuction(uint _token) public {\r\n        Details memory _auction = auctions[auctionIndex[_token]];\r\n        //require(now > _auction.auctionEnd);\r\n        require(_auction.ended == false);\r\n        auctions[auctionIndex[_token]] = Details({\r\n            tokenId: _token,\r\n            highestBidder: _auction.highestBidder,\r\n            highestBid: _auction.highestBid,\r\n            ended: true,\r\n            auctionEnd: _auction.auctionEnd\r\n        });\r\n        unLister(_token);\r\n        AuctionEnded(_token,_auction.highestBidder,_auction.highestBid);\r\n        token.transferFrom(address(this),_auction.highestBidder, _token);\r\n        pendingReturns[owner] += _auction.highestBid;\r\n    }\r\n\r\n    /**\r\n    *@dev allows parties to query the current highest bid in a token auction\r\n    *@param _token the unique tokenId\r\n    */\r\n    function getHighestBid(uint _token) public constant returns(uint){\r\n        Details memory _auction = auctions[auctionIndex[_token]];\r\n        return _auction.highestBid;\r\n    }\r\n\r\n    /**\r\n    *@dev allows parties to query the current highest bidder in a token auction\r\n    *@param _token the unique tokenId\r\n    */\r\n    function getHighestBidder(uint _token) public constant returns(address){\r\n        Details memory _auction = auctions[auctionIndex[_token]];\r\n        return _auction.highestBidder;\r\n    }\r\n\r\n    /**\r\n    *@dev allows parties to query the end time of a token auction\r\n    *@param _token the unique tokenId\r\n    */\r\n    function getAuctionEnd(uint _token) public constant returns(uint){\r\n        Details memory _auction = auctions[auctionIndex[_token]];\r\n        return _auction.auctionEnd;\r\n    }\r\n\r\n    /**\r\n    *@dev allows parties to query how many auctions are ongoing\r\n    *@param _token the unique tokenId\r\n    */\r\n    function getNumberofAuctions() public constant returns(uint){\r\n        return auctions.length;\r\n    }\r\n    /*\r\n    *@dev allows the owner to set the address of the PhotoCoin token\r\n    *@param _token address of the PhotoCoin token (PhotoCore.sol)\r\n    */\r\n    function setToken(address _token) public onlyOwner() {\r\n        token = PhotoCore(_token);\r\n    }\r\n    /*\r\n    *@dev allows the owner to change who the owner is\r\n    *@param _owner is the address of the new owner\r\n    */\r\n    function setOwner(address _owner) public onlyOwner() {\r\n        owner = _owner;\r\n    }\r\n\r\n    function unLister(uint256 _tokenId) internal{\r\n        uint256 tokenIndex = auctionIndex[_tokenId];\r\n        uint256 lastTokenIndex = auctions.length.sub(1);\r\n        Details memory lastToken = auctions[auctionIndex[lastTokenIndex]];\r\n        auctions[tokenIndex] = lastToken;\r\n        auctions.length--;\r\n        auctionIndex[_tokenId] = 0;\r\n    }\r\n}",
  "sourcePath": "C:\\Nick\\consulting\\photocoin\\contracts\\testcontracts\\testAuction.sol",
  "compiler": {
    "name": "solc",
    "version": "0.4.19+commit.c4cbbb05.Emscripten.clang"
  },
  "schemaVersion": "1.0.1",
  "updatedAt": "2018-04-04T02:00:29.100Z"
}