{
  "contractName": "testAuction",
  "abi": [
    {
      "constant": true,
      "inputs": [],
      "name": "owner",
      "outputs": [
        {
          "name": "",
          "type": "address"
        }
      ],
      "payable": false,
      "stateMutability": "view",
      "type": "function"
    },
    {
      "inputs": [],
      "payable": false,
      "stateMutability": "nonpayable",
      "type": "constructor"
    },
    {
      "anonymous": false,
      "inputs": [
        {
          "indexed": false,
          "name": "_token",
          "type": "uint256"
        },
        {
          "indexed": false,
          "name": "bidder",
          "type": "address"
        },
        {
          "indexed": false,
          "name": "amount",
          "type": "uint256"
        }
      ],
      "name": "HighestBidIncreased",
      "type": "event"
    },
    {
      "anonymous": false,
      "inputs": [
        {
          "indexed": false,
          "name": "_token",
          "type": "uint256"
        },
        {
          "indexed": false,
          "name": "winner",
          "type": "address"
        },
        {
          "indexed": false,
          "name": "amount",
          "type": "uint256"
        }
      ],
      "name": "AuctionEnded",
      "type": "event"
    },
    {
      "constant": false,
      "inputs": [
        {
          "name": "_biddingTime",
          "type": "uint256"
        },
        {
          "name": "_token",
          "type": "uint256"
        }
      ],
      "name": "setAuction",
      "outputs": [],
      "payable": false,
      "stateMutability": "nonpayable",
      "type": "function"
    },
    {
      "constant": false,
      "inputs": [
        {
          "name": "_token",
          "type": "uint256"
        }
      ],
      "name": "bid",
      "outputs": [],
      "payable": true,
      "stateMutability": "payable",
      "type": "function"
    },
    {
      "constant": false,
      "inputs": [],
      "name": "withdraw",
      "outputs": [
        {
          "name": "",
          "type": "bool"
        }
      ],
      "payable": false,
      "stateMutability": "nonpayable",
      "type": "function"
    },
    {
      "constant": false,
      "inputs": [
        {
          "name": "_token",
          "type": "uint256"
        }
      ],
      "name": "endAuction",
      "outputs": [],
      "payable": false,
      "stateMutability": "nonpayable",
      "type": "function"
    },
    {
      "constant": true,
      "inputs": [
        {
          "name": "_token",
          "type": "uint256"
        }
      ],
      "name": "getHighestBid",
      "outputs": [
        {
          "name": "",
          "type": "uint256"
        }
      ],
      "payable": false,
      "stateMutability": "view",
      "type": "function"
    },
    {
      "constant": true,
      "inputs": [
        {
          "name": "_token",
          "type": "uint256"
        }
      ],
      "name": "getHighestBidder",
      "outputs": [
        {
          "name": "",
          "type": "address"
        }
      ],
      "payable": false,
      "stateMutability": "view",
      "type": "function"
    },
    {
      "constant": true,
      "inputs": [
        {
          "name": "_token",
          "type": "uint256"
        }
      ],
      "name": "getAuctionEnd",
      "outputs": [
        {
          "name": "",
          "type": "uint256"
        }
      ],
      "payable": false,
      "stateMutability": "view",
      "type": "function"
    },
    {
      "constant": true,
      "inputs": [
        {
          "name": "_token",
          "type": "uint256"
        }
      ],
      "name": "getEnded",
      "outputs": [
        {
          "name": "",
          "type": "bool"
        }
      ],
      "payable": false,
      "stateMutability": "view",
      "type": "function"
    },
    {
      "constant": false,
      "inputs": [
        {
          "name": "_token",
          "type": "address"
        }
      ],
      "name": "setToken",
      "outputs": [],
      "payable": false,
      "stateMutability": "nonpayable",
      "type": "function"
    },
    {
      "constant": false,
      "inputs": [
        {
          "name": "_owner",
          "type": "address"
        }
      ],
      "name": "setOwner",
      "outputs": [],
      "payable": false,
      "stateMutability": "nonpayable",
      "type": "function"
    }
  ],
  "bytecode": "0x6060604052341561000f57600080fd5b336000806101000a81548173ffffffffffffffffffffffffffffffffffffffff021916908373ffffffffffffffffffffffffffffffffffffffff160217905550610c7b8061005e6000396000f3006060604052600436106100af576000357c0100000000000000000000000000000000000000000000000000000000900463ffffffff168063042a6185146100b457806313af4035146100ef578063144fa6d7146101285780633ccfd60b14610161578063454a2ab31461018e5780634b3e4f0d146101a65780638da5cb5b146101d25780638f28864414610227578063b9a2de3a1461025e578063c750cb7914610281578063eda89279146102e4575b600080fd5b34156100bf57600080fd5b6100d5600480803590602001909190505061031b565b604051808215151515815260200191505060405180910390f35b34156100fa57600080fd5b610126600480803573ffffffffffffffffffffffffffffffffffffffff16906020019091905050610345565b005b341561013357600080fd5b61015f600480803573ffffffffffffffffffffffffffffffffffffffff169060200190919050506103e3565b005b341561016c57600080fd5b610174610482565b604051808215151515815260200191505060405180910390f35b6101a460048080359060200190919050506105a7565b005b34156101b157600080fd5b6101d06004808035906020019091908035906020019091905050610759565b005b34156101dd57600080fd5b6101e56108de565b604051808273ffffffffffffffffffffffffffffffffffffffff1673ffffffffffffffffffffffffffffffffffffffff16815260200191505060405180910390f35b341561023257600080fd5b6102486004808035906020019091905050610903565b6040518082815260200191505060405180910390f35b341561026957600080fd5b61027f6004808035906020019091905050610920565b005b341561028c57600080fd5b6102a26004808035906020019091905050610bf5565b604051808273ffffffffffffffffffffffffffffffffffffffff1673ffffffffffffffffffffffffffffffffffffffff16815260200191505060405180910390f35b34156102ef57600080fd5b6103056004808035906020019091905050610c32565b6040518082815260200191505060405180910390f35b60006004600083815260200190815260200160002060009054906101000a900460ff169050919050565b6000809054906101000a900473ffffffffffffffffffffffffffffffffffffffff1673ffffffffffffffffffffffffffffffffffffffff163373ffffffffffffffffffffffffffffffffffffffff161415156103a057600080fd5b806000806101000a81548173ffffffffffffffffffffffffffffffffffffffff021916908373ffffffffffffffffffffffffffffffffffffffff16021790555050565b6000809054906101000a900473ffffffffffffffffffffffffffffffffffffffff1673ffffffffffffffffffffffffffffffffffffffff163373ffffffffffffffffffffffffffffffffffffffff1614151561043e57600080fd5b80600660006101000a81548173ffffffffffffffffffffffffffffffffffffffff021916908373ffffffffffffffffffffffffffffffffffffffff16021790555050565b600080600160003373ffffffffffffffffffffffffffffffffffffffff1673ffffffffffffffffffffffffffffffffffffffff168152602001908152602001600020549050600081111561059e576000600160003373ffffffffffffffffffffffffffffffffffffffff1673ffffffffffffffffffffffffffffffffffffffff168152602001908152602001600020819055503373ffffffffffffffffffffffffffffffffffffffff166108fc829081150290604051600060405180830381858888f19350505050151561059d5780600160003373ffffffffffffffffffffffffffffffffffffffff1673ffffffffffffffffffffffffffffffffffffffff16815260200190815260200160002081905550600091506105a3565b5b600191505b5090565b6003600082815260200190815260200160002054341115156105c857600080fd5b60006003600083815260200190815260200160002054141515610679576003600082815260200190815260200160002054600160006002600085815260200190815260200160002060009054906101000a900473ffffffffffffffffffffffffffffffffffffffff1673ffffffffffffffffffffffffffffffffffffffff1673ffffffffffffffffffffffffffffffffffffffff168152602001908152602001600020600082825401925050819055505b336002600083815260200190815260200160002060006101000a81548173ffffffffffffffffffffffffffffffffffffffff021916908373ffffffffffffffffffffffffffffffffffffffff1602179055503460036000838152602001908152602001600020819055507fda0a18da71d8ebd145966339a728fc0d8ccc07c22870d561890d823c515dda6b813334604051808481526020018373ffffffffffffffffffffffffffffffffffffffff1673ffffffffffffffffffffffffffffffffffffffff168152602001828152602001935050505060405180910390a150565b6000809054906101000a900473ffffffffffffffffffffffffffffffffffffffff1673ffffffffffffffffffffffffffffffffffffffff163373ffffffffffffffffffffffffffffffffffffffff161415156107b457600080fd5b8142016005600083815260200190815260200160002081905550600660009054906101000a900473ffffffffffffffffffffffffffffffffffffffff1673ffffffffffffffffffffffffffffffffffffffff166323b872dd3330846040518463ffffffff167c0100000000000000000000000000000000000000000000000000000000028152600401808473ffffffffffffffffffffffffffffffffffffffff1673ffffffffffffffffffffffffffffffffffffffff1681526020018373ffffffffffffffffffffffffffffffffffffffff1673ffffffffffffffffffffffffffffffffffffffff1681526020018281526020019350505050600060405180830381600087803b15156108c657600080fd5b6102c65a03f115156108d757600080fd5b5050505050565b6000809054906101000a900473ffffffffffffffffffffffffffffffffffffffff1681565b600060036000838152602001908152602001600020549050919050565b6004600082815260200190815260200160002060009054906101000a900460ff1615151561094d57600080fd5b60016004600083815260200190815260200160002060006101000a81548160ff0219169083151502179055507fd2aa34a4fdbbc6dff6a3e56f46e0f3ae2a31d7785ff3487aa5c95c642acea501816002600084815260200190815260200160002060009054906101000a900473ffffffffffffffffffffffffffffffffffffffff166003600085815260200190815260200160002054604051808481526020018373ffffffffffffffffffffffffffffffffffffffff1673ffffffffffffffffffffffffffffffffffffffff168152602001828152602001935050505060405180910390a1600660009054906101000a900473ffffffffffffffffffffffffffffffffffffffff1673ffffffffffffffffffffffffffffffffffffffff166323b872dd306002600085815260200190815260200160002060009054906101000a900473ffffffffffffffffffffffffffffffffffffffff16846040518463ffffffff167c0100000000000000000000000000000000000000000000000000000000028152600401808473ffffffffffffffffffffffffffffffffffffffff1673ffffffffffffffffffffffffffffffffffffffff1681526020018373ffffffffffffffffffffffffffffffffffffffff1673ffffffffffffffffffffffffffffffffffffffff1681526020018281526020019350505050600060405180830381600087803b1515610b5d57600080fd5b6102c65a03f11515610b6e57600080fd5b5050506003600082815260200190815260200160002054600160008060009054906101000a900473ffffffffffffffffffffffffffffffffffffffff1673ffffffffffffffffffffffffffffffffffffffff1673ffffffffffffffffffffffffffffffffffffffff1681526020019081526020016000206000828254019250508190555050565b60006002600083815260200190815260200160002060009054906101000a900473ffffffffffffffffffffffffffffffffffffffff169050919050565b6000600560008381526020019081526020016000205490509190505600a165627a7a72305820104a011e396052f0d6e7b2306327137921244eeeb4a0c9d1155667c6662ac5620029",
  "source": "pragma solidity ^0.4.18;\r\n\r\nimport \"../PhotoCore.sol\";\r\n\r\ncontract testAuction {\r\n    address public owner;\r\n\r\n    mapping(address => uint) pendingReturns;\r\n    mapping (uint256 => address ) highestBidder;\r\n    mapping (uint256 => uint) highestBid;\r\n    mapping (uint256 => bool ) ended;\r\n    mapping (uint256 => uint) auctionEnd; \r\n\r\n    PhotoCore token; //The PhotoCore contract for linking to the Photocoin token\r\n\r\n    event HighestBidIncreased(uint256 _token, address bidder, uint amount);\r\n    event AuctionEnded(uint256 _token, address winner, uint amount);\r\n\r\n    /***MODIFIERS***/\r\n    /// @dev Access modifier for Owner functionality\r\n    modifier onlyOwner() {\r\n        require(msg.sender == owner);\r\n        _;\r\n    }\r\n\r\n    /***FUNCTIONS***/\r\n    function testAuction () public {\r\n        owner = msg.sender;\r\n    }\r\n    \r\n\r\n\r\n    function setAuction(uint _biddingTime,uint256 _token) public onlyOwner() {\r\n        auctionEnd[_token] = now + _biddingTime;\r\n        token.transferFrom(msg.sender,address(this),_token);\r\n    }\r\n\r\n    function bid(uint256 _token) public payable {\r\n        //require(now <= auctionEnd[_token]);\r\n        require(msg.value > highestBid[_token]);\r\n        if (highestBid[_token] != 0) {\r\n            pendingReturns[highestBidder[_token]] += highestBid[_token];\r\n        }\r\n        highestBidder[_token] = msg.sender;\r\n        highestBid[_token] = msg.value;\r\n        HighestBidIncreased(_token,msg.sender, msg.value);\r\n    }\r\n\r\n    function withdraw() public returns (bool) {\r\n        uint amount = pendingReturns[msg.sender];\r\n        if (amount > 0) {\r\n            pendingReturns[msg.sender] = 0;\r\n            if (!msg.sender.send(amount)) {\r\n                pendingReturns[msg.sender] = amount;\r\n                return false;\r\n            }\r\n        }\r\n        return true;\r\n    }\r\n\r\n\r\n    function endAuction(uint _token) public {\r\n        //require(now >= auctionEnd[_token]);\r\n        require(!ended[_token]);\r\n        ended[_token] = true;\r\n        AuctionEnded(_token,highestBidder[_token], highestBid[_token]);\r\n        token.transferFrom(address(this),highestBidder[_token], _token);\r\n        pendingReturns[owner] += highestBid[_token];\r\n    }\r\n\r\n    function getHighestBid(uint _token) public constant returns(uint){\r\n        return highestBid[_token];\r\n    }\r\n\r\n    function getHighestBidder(uint _token) public constant returns(address){\r\n        return highestBidder[_token];\r\n    }\r\n\r\n    function getAuctionEnd(uint _token) public constant returns(uint){\r\n        return auctionEnd[_token];\r\n    }\r\n\r\n    function getEnded(uint _token) public constant returns(bool){\r\n        return ended[_token];\r\n    }\r\n    /*\r\n    *@dev allows the owner to set the address of the PhotoCoin token\r\n    *@param _token address of the PhotoCoin token (PhotoCore.sol)\r\n    */\r\n    function setToken(address _token) public onlyOwner() {\r\n        token = PhotoCore(_token);\r\n    }\r\n    /*\r\n    *@dev allows the owner to change who the owner is\r\n    *@param _owner is the address of the new owner\r\n    */\r\n    function setOwner(address _owner) public onlyOwner() {\r\n        owner = _owner;\r\n    }\r\n}",
  "sourcePath": "C:\\Nick\\Consulting\\Photocoin\\contracts\\testcontracts\\testAuction.sol",
  "compiler": {
    "name": "solc",
    "version": "0.4.19+commit.c4cbbb05.Emscripten.clang"
  },
  "schemaVersion": "1.0.1",
  "updatedAt": "2018-03-13T01:05:29.163Z"
}